{
  "contractName": "BankExtension",
  "abi": [
    {
      "anonymous": false,
      "inputs": [
        {
          "indexed": false,
          "internalType": "address",
          "name": "member",
          "type": "address"
        },
        {
          "indexed": false,
          "internalType": "address",
          "name": "tokenAddr",
          "type": "address"
        },
        {
          "indexed": false,
          "internalType": "uint256",
          "name": "amount",
          "type": "uint256"
        }
      ],
      "name": "NewBalance",
      "type": "event"
    },
    {
      "anonymous": false,
      "inputs": [
        {
          "indexed": false,
          "internalType": "address",
          "name": "account",
          "type": "address"
        },
        {
          "indexed": false,
          "internalType": "address",
          "name": "tokenAddr",
          "type": "address"
        },
        {
          "indexed": false,
          "internalType": "uint256",
          "name": "amount",
          "type": "uint256"
        }
      ],
      "name": "Withdraw",
      "type": "event"
    },
    {
      "inputs": [
        {
          "internalType": "address",
          "name": "",
          "type": "address"
        }
      ],
      "name": "availableInternalTokens",
      "outputs": [
        {
          "internalType": "bool",
          "name": "",
          "type": "bool"
        }
      ],
      "stateMutability": "view",
      "type": "function"
    },
    {
      "inputs": [
        {
          "internalType": "address",
          "name": "",
          "type": "address"
        }
      ],
      "name": "availableTokens",
      "outputs": [
        {
          "internalType": "bool",
          "name": "",
          "type": "bool"
        }
      ],
      "stateMutability": "view",
      "type": "function"
    },
    {
      "inputs": [
        {
          "internalType": "address",
          "name": "",
          "type": "address"
        },
        {
          "internalType": "address",
          "name": "",
          "type": "address"
        },
        {
          "internalType": "uint32",
          "name": "",
          "type": "uint32"
        }
      ],
      "name": "checkpoints",
      "outputs": [
        {
          "internalType": "uint96",
          "name": "fromBlock",
          "type": "uint96"
        },
        {
          "internalType": "uint160",
          "name": "amount",
          "type": "uint160"
        }
      ],
      "stateMutability": "view",
      "type": "function"
    },
    {
      "inputs": [],
      "name": "dao",
      "outputs": [
        {
          "internalType": "contract DaoRegistry",
          "name": "",
          "type": "address"
        }
      ],
      "stateMutability": "view",
      "type": "function"
    },
    {
      "inputs": [
        {
          "internalType": "uint256",
          "name": "flags",
          "type": "uint256"
        },
        {
          "internalType": "uint256",
          "name": "flag",
          "type": "uint256"
        }
      ],
      "name": "getFlag",
      "outputs": [
        {
          "internalType": "bool",
          "name": "",
          "type": "bool"
        }
      ],
      "stateMutability": "pure",
      "type": "function"
    },
    {
      "inputs": [],
      "name": "initialized",
      "outputs": [
        {
          "internalType": "bool",
          "name": "",
          "type": "bool"
        }
      ],
      "stateMutability": "view",
      "type": "function"
    },
    {
      "inputs": [
        {
          "internalType": "uint256",
          "name": "",
          "type": "uint256"
        }
      ],
      "name": "internalTokens",
      "outputs": [
        {
          "internalType": "address",
          "name": "",
          "type": "address"
        }
      ],
      "stateMutability": "view",
      "type": "function"
    },
    {
      "inputs": [
        {
          "internalType": "address",
          "name": "",
          "type": "address"
        },
        {
          "internalType": "address",
          "name": "",
          "type": "address"
        }
      ],
      "name": "numCheckpoints",
      "outputs": [
        {
          "internalType": "uint32",
          "name": "",
          "type": "uint32"
        }
      ],
      "stateMutability": "view",
      "type": "function"
    },
    {
      "inputs": [
        {
          "internalType": "uint256",
          "name": "flags",
          "type": "uint256"
        },
        {
          "internalType": "uint256",
          "name": "flag",
          "type": "uint256"
        },
        {
          "internalType": "bool",
          "name": "value",
          "type": "bool"
        }
      ],
      "name": "setFlag",
      "outputs": [
        {
          "internalType": "uint256",
          "name": "",
          "type": "uint256"
        }
      ],
      "stateMutability": "pure",
      "type": "function"
    },
    {
      "inputs": [
        {
          "internalType": "uint256",
          "name": "",
          "type": "uint256"
        }
      ],
      "name": "tokens",
      "outputs": [
        {
          "internalType": "address",
          "name": "",
          "type": "address"
        }
      ],
      "stateMutability": "view",
      "type": "function"
    },
    {
      "inputs": [
        {
          "internalType": "contract DaoRegistry",
          "name": "_dao",
          "type": "address"
        },
        {
          "internalType": "address",
          "name": "creator",
          "type": "address"
        }
      ],
      "name": "initialize",
      "outputs": [],
      "stateMutability": "nonpayable",
      "type": "function"
    },
    {
      "inputs": [
        {
          "internalType": "address payable",
          "name": "member",
          "type": "address"
        },
        {
          "internalType": "address",
          "name": "tokenAddr",
          "type": "address"
        },
        {
          "internalType": "uint256",
          "name": "amount",
          "type": "uint256"
        }
      ],
      "name": "withdraw",
      "outputs": [],
      "stateMutability": "nonpayable",
      "type": "function"
    },
    {
      "inputs": [
        {
          "internalType": "address",
          "name": "token",
          "type": "address"
        }
      ],
      "name": "isInternalToken",
      "outputs": [
        {
          "internalType": "bool",
          "name": "",
          "type": "bool"
        }
      ],
      "stateMutability": "view",
      "type": "function"
    },
    {
      "inputs": [
        {
          "internalType": "address",
          "name": "token",
          "type": "address"
        }
      ],
      "name": "isTokenAllowed",
      "outputs": [
        {
          "internalType": "bool",
          "name": "",
          "type": "bool"
        }
      ],
      "stateMutability": "view",
      "type": "function"
    },
    {
      "inputs": [
        {
          "internalType": "address",
          "name": "token",
          "type": "address"
        }
      ],
      "name": "registerPotentialNewToken",
      "outputs": [],
      "stateMutability": "nonpayable",
      "type": "function"
    },
    {
      "inputs": [
        {
          "internalType": "address",
          "name": "token",
          "type": "address"
        }
      ],
      "name": "registerPotentialNewInternalToken",
      "outputs": [],
      "stateMutability": "nonpayable",
      "type": "function"
    },
    {
      "inputs": [
        {
          "internalType": "address",
          "name": "tokenAddr",
          "type": "address"
        }
      ],
      "name": "updateToken",
      "outputs": [],
      "stateMutability": "nonpayable",
      "type": "function"
    },
    {
      "inputs": [
        {
          "internalType": "address",
          "name": "applicant",
          "type": "address"
        }
      ],
      "name": "isNotReservedAddress",
      "outputs": [
        {
          "internalType": "bool",
          "name": "",
          "type": "bool"
        }
      ],
      "stateMutability": "pure",
      "type": "function"
    },
    {
      "inputs": [
        {
          "internalType": "uint256",
          "name": "index",
          "type": "uint256"
        }
      ],
      "name": "getToken",
      "outputs": [
        {
          "internalType": "address",
          "name": "",
          "type": "address"
        }
      ],
      "stateMutability": "view",
      "type": "function"
    },
    {
      "inputs": [],
      "name": "nbTokens",
      "outputs": [
        {
          "internalType": "uint256",
          "name": "",
          "type": "uint256"
        }
      ],
      "stateMutability": "view",
      "type": "function"
    },
    {
      "inputs": [
        {
          "internalType": "uint256",
          "name": "index",
          "type": "uint256"
        }
      ],
      "name": "getInternalToken",
      "outputs": [
        {
          "internalType": "address",
          "name": "",
          "type": "address"
        }
      ],
      "stateMutability": "view",
      "type": "function"
    },
    {
      "inputs": [],
      "name": "nbInternalTokens",
      "outputs": [
        {
          "internalType": "uint256",
          "name": "",
          "type": "uint256"
        }
      ],
      "stateMutability": "view",
      "type": "function"
    },
    {
      "inputs": [
        {
          "internalType": "address",
          "name": "member",
          "type": "address"
        },
        {
          "internalType": "address",
          "name": "token",
          "type": "address"
        },
        {
          "internalType": "uint256",
          "name": "amount",
          "type": "uint256"
        }
      ],
      "name": "addToBalance",
      "outputs": [],
      "stateMutability": "payable",
      "type": "function"
    },
    {
      "inputs": [
        {
          "internalType": "address",
          "name": "member",
          "type": "address"
        },
        {
          "internalType": "address",
          "name": "token",
          "type": "address"
        },
        {
          "internalType": "uint256",
          "name": "amount",
          "type": "uint256"
        }
      ],
      "name": "subtractFromBalance",
      "outputs": [],
      "stateMutability": "nonpayable",
      "type": "function"
    },
    {
      "inputs": [
        {
          "internalType": "address",
          "name": "from",
          "type": "address"
        },
        {
          "internalType": "address",
          "name": "to",
          "type": "address"
        },
        {
          "internalType": "address",
          "name": "token",
          "type": "address"
        },
        {
          "internalType": "uint256",
          "name": "amount",
          "type": "uint256"
        }
      ],
      "name": "internalTransfer",
      "outputs": [],
      "stateMutability": "nonpayable",
      "type": "function"
    },
    {
      "inputs": [
        {
          "internalType": "address",
          "name": "member",
          "type": "address"
        },
        {
          "internalType": "address",
          "name": "tokenAddr",
          "type": "address"
        }
      ],
      "name": "balanceOf",
      "outputs": [
        {
          "internalType": "uint256",
          "name": "",
          "type": "uint256"
        }
      ],
      "stateMutability": "view",
      "type": "function"
    },
    {
      "inputs": [
        {
          "internalType": "address",
          "name": "account",
          "type": "address"
        },
        {
          "internalType": "address",
          "name": "tokenAddr",
          "type": "address"
        },
        {
          "internalType": "uint256",
          "name": "blockNumber",
          "type": "uint256"
        }
      ],
      "name": "getPriorAmount",
      "outputs": [
        {
          "internalType": "uint256",
          "name": "",
          "type": "uint256"
        }
      ],
      "stateMutability": "view",
      "type": "function"
    }
  ],
  "bytecode": "0x60806040526000805460ff1916905534801561001a57600080fd5b50612a428061002a6000396000f3fe6080604052600436106101ac5760003560e01c80637de66b6d116100ec578063e4b50cb81161008a578063f7e15acf11610064578063f7e15acf146104a5578063f9eaee0d146104c5578063faaf38b3146104e5578063fc25803114610505576101ac565b8063e4b50cb814610445578063ef6a249914610465578063f7888aec14610485576101ac565b8063b244a41d116100c6578063b244a41d146103d2578063c57d5fe9146103f2578063d9caed1214610405578063e3a05cc114610425576101ac565b80637de66b6d1461037057806387c672ee1461038557806394cb0947146103b2576101ac565b8063485cc9551161015957806369af242f1161013357806369af242f146102e05780637082e63d146103005780637a81edb91461032e5780637ad3def214610350576101ac565b8063485cc955146102805780634f64b2be146102a05780636347c440146102c0576101ac565b8063388495ba1161018a578063388495ba146102295780634162169f1461024957806344a29e2a1461025e576101ac565b806314a33216146101b1578063158ef93e146101e757806315d89f60146101fc575b600080fd5b3480156101bd57600080fd5b506101d16101cc36600461206c565b610525565b6040516101de9190612305565b60405180910390f35b3480156101f357600080fd5b506101d1610543565b34801561020857600080fd5b5061021c6102173660046121f1565b61054c565b6040516101de919061228e565b34801561023557600080fd5b506101d161024436600461206c565b61058a565b34801561025557600080fd5b5061021c61059f565b34801561026a57600080fd5b5061027e610279366004612100565b6105b3565b005b34801561028c57600080fd5b5061027e61029b3660046120c8565b610780565b3480156102ac57600080fd5b5061021c6102bb3660046121f1565b61098a565b3480156102cc57600080fd5b5061021c6102db3660046121f1565b6109b4565b3480156102ec57600080fd5b5061027e6102fb36600461206c565b6109c4565b34801561030c57600080fd5b5061032061031b366004612164565b610c52565b6040516101de929190612783565b34801561033a57600080fd5b50610343610c9e565b6040516101de9190612769565b34801561035c57600080fd5b5061027e61036b36600461206c565b610ca4565b34801561037c57600080fd5b50610343610dfd565b34801561039157600080fd5b506103a56103a03660046120c8565b610e03565b6040516101de9190612772565b3480156103be57600080fd5b506101d16103cd36600461206c565b610e26565b3480156103de57600080fd5b506103436103ed366004612242565b610e3b565b61027e610400366004612150565b610e97565b34801561041157600080fd5b5061027e610420366004612088565b6110b9565b34801561043157600080fd5b5061027e610440366004612150565b6112de565b34801561045157600080fd5b5061021c6104603660046121f1565b611482565b34801561047157600080fd5b506101d161048036600461206c565b6114a5565b34801561049157600080fd5b506103436104a03660046120c8565b6114d3565b3480156104b157600080fd5b5061027e6104c036600461206c565b611582565b3480156104d157600080fd5b506101d16104e036600461206c565b611810565b3480156104f157600080fd5b50610343610500366004612150565b61182e565b34801561051157600080fd5b506101d1610520366004612221565b611afb565b6001600160a01b031660009081526004602052604090205460ff1690565b60005460ff1681565b60006002828154811061056f57634e487b7160e01b600052603260045260246000fd5b6000918252602090912001546001600160a01b031692915050565b60046020526000908152604090205460ff1681565b60005461010090046001600160a01b031681565b30600260008060019054906101000a90046001600160a01b03166001600160a01b031663c19d93fb6040518163ffffffff1660e01b815260040160206040518083038186803b15801561060557600080fd5b505afa158015610619573d6000803e3d6000fd5b505050506040513d601f19601f8201168201806040525081019061063d91906121d2565b600181111561065c57634e487b7160e01b600052602160045260246000fd5b1480610709575060005461010090046001600160a01b0316636cfdc32e338484600681111561069b57634e487b7160e01b600052602160045260246000fd5b6040518463ffffffff1660e01b81526004016106b9939291906122c6565b60206040518083038186803b1580156106d157600080fd5b505afa1580156106e5573d6000803e3d6000fd5b505050506040513d601f19601f8201168201806040525081019061070991906121b6565b61072e5760405162461bcd60e51b815260040161072590612406565b60405180910390fd5b60008361073b88876114d3565b610745919061293a565b905060008461075488886114d3565b61075e91906127aa565b905061076b888784611b18565b610776878783611b18565b5050505050505050565b60005460ff16156107a35760405162461bcd60e51b81526004016107259061243d565b6040517f45ecd02f0000000000000000000000000000000000000000000000000000000081526001600160a01b038316906345ecd02f906107e890849060040161228e565b60206040518083038186803b15801561080057600080fd5b505afa158015610814573d6000803e3d6000fd5b505050506040513d601f19601f8201168201806040525081019061083891906121b6565b6108545760405162461bcd60e51b8152600401610725906125c2565b60046020527fb7f83afeb462637ef6301fd56570add78cf92cc9f170798dfd2d97a6853e4f6a80547fffffffffffffffffffffffffffffffffffffffffffffffffffffffffffffff001660019081179091556002805480830182556000919091527f405787fa12a823e0f2b7631cc41b3ba8828b3321ca811111fa75cd3aa3bb5ace0180547fffffffffffffffffffffffff000000000000000000000000000000000000000016620ff1ce90811790915561091191839190611b18565b61092261babe620ff1ce6001611b18565b50600080546001600160a01b03909216610100027fffffffffffffffffffffff0000000000000000000000000000000000000000ff7fffffffffffffffffffffffffffffffffffffffffffffffffffffffffffffff0090931660011792909216919091179055565b6001818154811061099a57600080fd5b6000918252602090912001546001600160a01b0316905081565b6002818154811061099a57600080fd5b30600560008060019054906101000a90046001600160a01b03166001600160a01b031663c19d93fb6040518163ffffffff1660e01b815260040160206040518083038186803b158015610a1657600080fd5b505afa158015610a2a573d6000803e3d6000fd5b505050506040513d601f19601f82011682018060405250810190610a4e91906121d2565b6001811115610a6d57634e487b7160e01b600052602160045260246000fd5b1480610b1a575060005461010090046001600160a01b0316636cfdc32e3384846006811115610aac57634e487b7160e01b600052602160045260246000fd5b6040518463ffffffff1660e01b8152600401610aca939291906122c6565b60206040518083038186803b158015610ae257600080fd5b505afa158015610af6573d6000803e3d6000fd5b505050506040513d601f19601f82011682018060405250810190610b1a91906121b6565b610b365760405162461bcd60e51b815260040161072590612406565b610b3f836114a5565b610b5b5760405162461bcd60e51b815260040161072590612361565b6001600160a01b03831660009081526004602052604090205460ff1615610b945760405162461bcd60e51b8152600401610725906125f9565b6001600160a01b03831660009081526003602052604090205460ff16610c4d576001600160a01b038316600081815260036020526040812080547fffffffffffffffffffffffffffffffffffffffffffffffffffffffffffffff001660019081179091558054808201825591527fb10e2d527612073b26eecdfd717e6a320cf44b4afac2b0732d9fcbe2b7fa0cf60180547fffffffffffffffffffffffff00000000000000000000000000000000000000001690911790555b505050565b60056020908152600093845260408085208252928452828420905282529020546bffffffffffffffffffffffff8116906c0100000000000000000000000090046001600160a01b031682565b60025490565b610cad81611810565b610cc95760405162461bcd60e51b81526004016107259061269e565b6000610cd761babe836114d3565b905060006001600160a01b038316610cf0575047610d8b565b6040517f70a0823100000000000000000000000000000000000000000000000000000000815283906001600160a01b038216906370a0823190610d3790309060040161228e565b60206040518083038186803b158015610d4f57600080fd5b505afa158015610d63573d6000803e3d6000fd5b505050506040513d601f19601f82011682018060405250810190610d879190612209565b9150505b80821015610da957610da461dead84610400858561293a565b610c4d565b80821115610c4d576000610dbd828461293a565b90506000610dcd61dead866114d3565b905081811115610de957610de461dead86846112de565b610df6565b610df661dead86836112de565b5050505050565b60015490565b600660209081526000928352604080842090915290825290205463ffffffff1681565b60036020526000908152604090205460ff1681565b6000811515610e4a8585611afb565b151514610e8d578115610e7357610e62836002612853565b610e6c90856127aa565b9050610e90565b610e7e836002612853565b610e6c908561293a565b610e90565b50825b9392505050565b30600080600060019054906101000a90046001600160a01b03166001600160a01b031663c19d93fb6040518163ffffffff1660e01b815260040160206040518083038186803b158015610ee957600080fd5b505afa158015610efd573d6000803e3d6000fd5b505050506040513d601f19601f82011682018060405250810190610f2191906121d2565b6001811115610f4057634e487b7160e01b600052602160045260246000fd5b1480610fed575060005461010090046001600160a01b0316636cfdc32e3384846006811115610f7f57634e487b7160e01b600052602160045260246000fd5b6040518463ffffffff1660e01b8152600401610f9d939291906122c6565b60206040518083038186803b158015610fb557600080fd5b505afa158015610fc9573d6000803e3d6000fd5b505050506040513d601f19601f82011682018060405250810190610fed91906121b6565b6110095760405162461bcd60e51b815260040161072590612406565b6001600160a01b03841660009081526003602052604090205460ff168061104857506001600160a01b03841660009081526004602052604090205460ff165b6110645760405162461bcd60e51b815260040161072590612630565b60008361107187876114d3565b61107b91906127aa565b905060008461108c61babe886114d3565b61109691906127aa565b90506110a3878784611b18565b6110b061babe8783611b18565b50505050505050565b30600360008060019054906101000a90046001600160a01b03166001600160a01b031663c19d93fb6040518163ffffffff1660e01b815260040160206040518083038186803b15801561110b57600080fd5b505afa15801561111f573d6000803e3d6000fd5b505050506040513d601f19601f8201168201806040525081019061114391906121d2565b600181111561116257634e487b7160e01b600052602160045260246000fd5b148061120f575060005461010090046001600160a01b0316636cfdc32e33848460068111156111a157634e487b7160e01b600052602160045260246000fd5b6040518463ffffffff1660e01b81526004016111bf939291906122c6565b60206040518083038186803b1580156111d757600080fd5b505afa1580156111eb573d6000803e3d6000fd5b505050506040513d601f19601f8201168201806040525081019061120f91906121b6565b61122b5760405162461bcd60e51b815260040161072590612406565b8261123686866114d3565b10156112545760405162461bcd60e51b815260040161072590612398565b61125f8585856112de565b6001600160a01b038416611285576112806001600160a01b03861684611d8f565b61129c565b8361129a6001600160a01b0382168786611e2b565b505b7f9b1bfa7fa9ee420a16e124f794c35ac9f90472acc99140eb2f6447c714cad8eb8585856040516112cf939291906122a2565b60405180910390a15050505050565b30600160008060019054906101000a90046001600160a01b03166001600160a01b031663c19d93fb6040518163ffffffff1660e01b815260040160206040518083038186803b15801561133057600080fd5b505afa158015611344573d6000803e3d6000fd5b505050506040513d601f19601f8201168201806040525081019061136891906121d2565b600181111561138757634e487b7160e01b600052602160045260246000fd5b1480611434575060005461010090046001600160a01b0316636cfdc32e33848460068111156113c657634e487b7160e01b600052602160045260246000fd5b6040518463ffffffff1660e01b81526004016113e4939291906122c6565b60206040518083038186803b1580156113fc57600080fd5b505afa158015611410573d6000803e3d6000fd5b505050506040513d601f19601f8201168201806040525081019061143491906121b6565b6114505760405162461bcd60e51b815260040161072590612406565b60008361145d87876114d3565b611467919061293a565b905060008461147861babe886114d3565b611096919061293a565b60006001828154811061056f57634e487b7160e01b600052603260045260246000fd5b60006001600160a01b03821661dead148015906114cd57506001600160a01b03821661babe14155b92915050565b6001600160a01b03808216600090815260066020908152604080832093861683529290529081205463ffffffff168061150d576000611571565b6001600160a01b038084166000908152600560209081526040808320938816835292905290812090611540600184612951565b63ffffffff1681526020810191909152604001600020546c0100000000000000000000000090046001600160a01b03165b6001600160a01b0316949350505050565b30600660008060019054906101000a90046001600160a01b03166001600160a01b031663c19d93fb6040518163ffffffff1660e01b815260040160206040518083038186803b1580156115d457600080fd5b505afa1580156115e8573d6000803e3d6000fd5b505050506040513d601f19601f8201168201806040525081019061160c91906121d2565b600181111561162b57634e487b7160e01b600052602160045260246000fd5b14806116d8575060005461010090046001600160a01b0316636cfdc32e338484600681111561166a57634e487b7160e01b600052602160045260246000fd5b6040518463ffffffff1660e01b8152600401611688939291906122c6565b60206040518083038186803b1580156116a057600080fd5b505afa1580156116b4573d6000803e3d6000fd5b505050506040513d601f19601f820116820180604052508101906116d891906121b6565b6116f45760405162461bcd60e51b815260040161072590612406565b6116fd836114a5565b6117195760405162461bcd60e51b815260040161072590612361565b6001600160a01b03831660009081526003602052604090205460ff16156117525760405162461bcd60e51b8152600401610725906123cf565b6001600160a01b03831660009081526004602052604090205460ff16610c4d5750506001600160a01b0316600081815260046020526040812080547fffffffffffffffffffffffffffffffffffffffffffffffffffffffffffffff001660019081179091556002805491820181559091527f405787fa12a823e0f2b7631cc41b3ba8828b3321ca811111fa75cd3aa3bb5ace0180547fffffffffffffffffffffffff0000000000000000000000000000000000000000169091179055565b6001600160a01b031660009081526003602052604090205460ff1690565b600043821061184f5760405162461bcd60e51b815260040161072590612565565b6001600160a01b0380841660009081526006602090815260408083209388168352929052205463ffffffff168061188a576000915050610e90565b6001600160a01b038085166000908152600560209081526040808320938916835292905290812084916118be600185612951565b63ffffffff1681526020810191909152604001600020546bffffffffffffffffffffffff1611611954576001600160a01b03808516600090815260056020908152604080832093891683529290529081209061191b600184612951565b63ffffffff1681526020810191909152604001600020546c0100000000000000000000000090046001600160a01b03169150610e909050565b6001600160a01b0380851660009081526005602090815260408083209389168352928152828220828052905220546bffffffffffffffffffffffff168310156119a1576000915050610e90565b6000806119af600184612951565b90505b8163ffffffff168163ffffffff161115611aa757600060026119d48484612951565b6119de91906127ea565b6119e89083612951565b6001600160a01b0380891660009081526005602090815260408083208d85168452825280832063ffffffff861684528252918290208251808401909352546bffffffffffffffffffffffff81168084526c0100000000000000000000000090910490931690820152919250871415611a7357602001516001600160a01b03169450610e909350505050565b80516bffffffffffffffffffffffff16871115611a9257819350611aa0565b611a9d600183612951565b92505b50506119b2565b506001600160a01b0380861660009081526005602090815260408083208a85168452825280832063ffffffff909516835293905291909120546c010000000000000000000000009004169150509392505050565b6000611b0e600260ff841685901c6129a6565b6001149392505050565b6001600160a01b038083166000908152600660209081526040808320878516845290915290205463ffffffff16908210611b645760405162461bcd60e51b815260040161072590612667565b8163ffffffff821615801590611bd057506001600160a01b03808516600090815260056020908152604080832093891683529290529081204391611ba9600186612951565b63ffffffff1681526020810191909152604001600020546bffffffffffffffffffffffff16145b15611c57576001600160a01b03808516600090815260056020908152604080832093891683529290529081208291611c09600186612951565b63ffffffff168152602081019190915260400160002080546001600160a01b03929092166c01000000000000000000000000026bffffffffffffffffffffffff909216919091179055611d5c565b6040805180820182526bffffffffffffffffffffffff43811682526001600160a01b0380851660208085019182528983166000908152600582528681208c85168252825286812063ffffffff8a168252909152949094209251835494519091166c01000000000000000000000000029082167fffffffffffffffffffffffffffffffffffffffff0000000000000000000000009094169390931716919091179055611d038260016127c2565b6001600160a01b038581166000908152600660209081526040808320938a1683529290522080547fffffffffffffffffffffffffffffffffffffffffffffffffffffffff000000001663ffffffff929092169190911790555b7f9a0e11dc44c1b4a935a0a0fdff3524e69ef0e6e481bb9b585c8f67046cb92e4e8585856040516112cf939291906122a2565b80471015611daf5760405162461bcd60e51b8152600401610725906124d1565b6000826001600160a01b031682604051611dc89061228b565b60006040518083038185875af1925050503d8060008114611e05576040519150601f19603f3d011682016040523d82523d6000602084013e611e0a565b606091505b5050905080610c4d5760405162461bcd60e51b815260040161072590612474565b610c4d8363a9059cbb60e01b8484604051602401611e4a9291906122ec565b604080517fffffffffffffffffffffffffffffffffffffffffffffffffffffffffffffffe08184030181529190526020810180517bffffffffffffffffffffffffffffffffffffffffffffffffffffffff167fffffffff00000000000000000000000000000000000000000000000000000000909316929092179091526000611f1c826040518060400160405280602081526020017f5361666545524332303a206c6f772d6c6576656c2063616c6c206661696c6564815250856001600160a01b0316611f569092919063ffffffff16565b805190915015610c4d5780806020019051810190611f3a91906121b6565b610c4d5760405162461bcd60e51b81526004016107259061270c565b6060611f658484600085611f6d565b949350505050565b606082471015611f8f5760405162461bcd60e51b815260040161072590612508565b611f988561202d565b611fb45760405162461bcd60e51b8152600401610725906126d5565b600080866001600160a01b03168587604051611fd0919061226f565b60006040518083038185875af1925050503d806000811461200d576040519150601f19603f3d011682016040523d82523d6000602084013e612012565b606091505b5091509150612022828286612033565b979650505050505050565b3b151590565b60608315612042575081610e90565b8251156120525782518084602001fd5b8160405162461bcd60e51b81526004016107259190612310565b60006020828403121561207d578081fd5b8135610e90816129e6565b60008060006060848603121561209c578182fd5b83356120a7816129e6565b925060208401356120b7816129e6565b929592945050506040919091013590565b600080604083850312156120da578182fd5b82356120e5816129e6565b915060208301356120f5816129e6565b809150509250929050565b60008060008060808587031215612115578081fd5b8435612120816129e6565b93506020850135612130816129e6565b92506040850135612140816129e6565b9396929550929360600135925050565b60008060006060848603121561209c578283fd5b600080600060608486031215612178578283fd5b8335612183816129e6565b92506020840135612193816129e6565b9150604084013563ffffffff811681146121ab578182fd5b809150509250925092565b6000602082840312156121c7578081fd5b8151610e90816129fe565b6000602082840312156121e3578081fd5b815160028110610e90578182fd5b600060208284031215612202578081fd5b5035919050565b60006020828403121561221a578081fd5b5051919050565b60008060408385031215612233578182fd5b50508035926020909101359150565b600080600060608486031215612256578283fd5b833592506020840135915060408401356121ab816129fe565b60008251612281818460208701612976565b9190910192915050565b90565b6001600160a01b0391909116815260200190565b6001600160a01b039384168152919092166020820152604081019190915260600190565b6001600160a01b03938416815291909216602082015260ff909116604082015260600190565b6001600160a01b03929092168252602082015260400190565b901515815260200190565b600060208252825180602084015261232f816040850160208701612976565b601f017fffffffffffffffffffffffffffffffffffffffffffffffffffffffffffffffe0169190910160400192915050565b6020808252600d908201527f7265736572766564546f6b656e00000000000000000000000000000000000000604082015260600190565b6020808252601f908201527f64616f3a3a77697468647261773a3a6e6f7420656e6f7567682066756e647300604082015260600190565b6020808252600e908201527f617661696c61626c65546f6b656e000000000000000000000000000000000000604082015260600190565b6020808252600f908201527f62616e6b3a3a6861734163636573730000000000000000000000000000000000604082015260600190565b60208082526018908201527f62616e6b20616c726561647920696e697469616c697a65640000000000000000604082015260600190565b6020808252603a908201527f416464726573733a20756e61626c6520746f2073656e642076616c75652c207260408201527f6563697069656e74206d61792068617665207265766572746564000000000000606082015260800190565b6020808252601d908201527f416464726573733a20696e73756666696369656e742062616c616e6365000000604082015260600190565b60208082526026908201527f416464726573733a20696e73756666696369656e742062616c616e636520666f60408201527f722063616c6c0000000000000000000000000000000000000000000000000000606082015260800190565b60208082526027908201527f556e693a3a6765745072696f72416d6f756e743a206e6f74207965742064657460408201527f65726d696e656400000000000000000000000000000000000000000000000000606082015260800190565b60208082526017908201527f62616e6b3a3a6e6f7420616374697665206d656d626572000000000000000000604082015260600190565b6020808252600d908201527f696e7465726e616c546f6b656e00000000000000000000000000000000000000604082015260600190565b60208082526015908201527f756e6b6e6f776e20746f6b656e20616464726573730000000000000000000000604082015260600190565b60208082526011908201527f746f6f20626967206f66206120766f7465000000000000000000000000000000604082015260600190565b60208082526011908201527f6e6f6e20616c6c6f77656420746f6b656e000000000000000000000000000000604082015260600190565b6020808252601d908201527f416464726573733a2063616c6c20746f206e6f6e2d636f6e7472616374000000604082015260600190565b6020808252602a908201527f5361666545524332303a204552433230206f7065726174696f6e20646964206e60408201527f6f74207375636365656400000000000000000000000000000000000000000000606082015260800190565b90815260200190565b63ffffffff91909116815260200190565b6bffffffffffffffffffffffff9290921682526001600160a01b0316602082015260400190565b600082198211156127bd576127bd6129ba565b500190565b600063ffffffff8083168185168083038211156127e1576127e16129ba565b01949350505050565b600063ffffffff80841680612801576128016129d0565b92169190910492915050565b80825b600180861161281f575061284a565b818704821115612831576128316129ba565b8086161561283e57918102915b9490941c938002612810565b94509492505050565b6000610e907fffffffffffffffffffffffffffffffffffffffffffffffffffffffffffffffff848460008261288a57506001610e90565b8161289757506000610e90565b81600181146128ad57600281146128b7576128e4565b6001915050610e90565b60ff8411156128c8576128c86129ba565b6001841b9150848211156128de576128de6129ba565b50610e90565b5060208310610133831016604e8410600b8410161715612912575081810a83811115610e8857610e886129ba565b61291f848484600161280d565b808604821115612931576129316129ba565b02949350505050565b60008282101561294c5761294c6129ba565b500390565b600063ffffffff8381169083168181101561296e5761296e6129ba565b039392505050565b60005b83811015612991578181015183820152602001612979565b838111156129a0576000848401525b50505050565b6000826129b5576129b56129d0565b500690565b634e487b7160e01b600052601160045260246000fd5b634e487b7160e01b600052601260045260246000fd5b6001600160a01b03811681146129fb57600080fd5b50565b80151581146129fb57600080fdfea2646970667358221220a5c24c63beee740573af4f110cf647e3274e19e396edf6be416a325bbb18e91e64736f6c63430008000033",
  "immutableReferences": {},
  "source": "pragma solidity ^0.8.0;\n\n// SPDX-License-Identifier: MIT\n\nimport \"../core/DaoConstants.sol\";\nimport \"../core/DaoRegistry.sol\";\nimport \"./IExtension.sol\";\nimport \"../guards/AdapterGuard.sol\";\nimport \"../utils/IERC20.sol\";\n\nimport \"../helpers/AddressLib.sol\";\nimport \"../helpers/SafeERC20.sol\";\n\n/**\nMIT License\n\nCopyright (c) 2020 Openlaw\n\nPermission is hereby granted, free of charge, to any person obtaining a copy\nof this software and associated documentation files (the \"Software\"), to deal\nin the Software without restriction, including without limitation the rights\nto use, copy, modify, merge, publish, distribute, sublicense, and/or sell\ncopies of the Software, and to permit persons to whom the Software is\nfurnished to do so, subject to the following conditions:\n\nThe above copyright notice and this permission notice shall be included in all\ncopies or substantial portions of the Software.\n\nTHE SOFTWARE IS PROVIDED \"AS IS\", WITHOUT WARRANTY OF ANY KIND, EXPRESS OR\nIMPLIED, INCLUDING BUT NOT LIMITED TO THE WARRANTIES OF MERCHANTABILITY,\nFITNESS FOR A PARTICULAR PURPOSE AND NONINFRINGEMENT. IN NO EVENT SHALL THE\nAUTHORS OR COPYRIGHT HOLDERS BE LIABLE FOR ANY CLAIM, DAMAGES OR OTHER\nLIABILITY, WHETHER IN AN ACTION OF CONTRACT, TORT OR OTHERWISE, ARISING FROM,\nOUT OF OR IN CONNECTION WITH THE SOFTWARE OR THE USE OR OTHER DEALINGS IN THE\nSOFTWARE.\n */\n\ncontract BankExtension is DaoConstants, AdapterGuard, IExtension {\n    using Address for address payable;\n    using SafeERC20 for IERC20;\n\n    bool public initialized = false; // internally tracks deployment under eip-1167 proxy pattern\n    DaoRegistry public dao;\n\n    enum AclFlag {\n        ADD_TO_BALANCE,\n        SUB_FROM_BALANCE,\n        INTERNAL_TRANSFER,\n        WITHDRAW,\n        EXECUTE,\n        REGISTER_NEW_TOKEN,\n        REGISTER_NEW_INTERNAL_TOKEN\n    }\n\n    /// @dev - Events for Bank\n    event NewBalance(address member, address tokenAddr, uint256 amount);\n\n    event Withdraw(address account, address tokenAddr, uint256 amount);\n\n    /*\n     * STRUCTURES\n     */\n\n    struct Checkpoint {\n        // A checkpoint for marking number of votes from a given block\n        uint96 fromBlock;\n        uint160 amount;\n    }\n\n    address[] public tokens;\n    address[] public internalTokens;\n    // tokenAddress => availability\n    mapping(address => bool) public availableTokens;\n    mapping(address => bool) public availableInternalTokens;\n    // tokenAddress => memberAddress => checkpointNum => Checkpoint\n    mapping(address => mapping(address => mapping(uint32 => Checkpoint)))\n        public checkpoints;\n    // tokenAddress => memberAddress => numCheckpoints\n    mapping(address => mapping(address => uint32)) public numCheckpoints;\n\n    /// @notice Clonable contract must have an empty constructor\n    // constructor() {\n    // }\n\n    modifier hasExtensionAccess(IExtension extension, AclFlag flag) {\n        require(\n            dao.state() == DaoRegistry.DaoState.CREATION ||\n                dao.hasAdapterAccessToExtension(\n                    msg.sender,\n                    address(extension),\n                    uint8(flag)\n                ),\n            \"bank::hasAccess\"\n        );\n        _;\n    }\n\n    /**\n     * @notice Initialises the DAO\n     * @dev Involves initialising available tokens, checkpoints, and membership of creator\n     * @dev Can only be called once\n     * @param creator The DAO's creator, who will be an initial member\n     */\n    function initialize(DaoRegistry _dao, address creator) external override {\n        require(!initialized, \"bank already initialized\");\n        require(_dao.isActiveMember(creator), \"bank::not active member\");\n        availableInternalTokens[SHARES] = true;\n        internalTokens.push(SHARES);\n\n        _createNewAmountCheckpoint(creator, SHARES, 1);\n        _createNewAmountCheckpoint(TOTAL, SHARES, 1);\n\n        initialized = true;\n        dao = _dao;\n    }\n\n    function withdraw(\n        address payable member,\n        address tokenAddr,\n        uint256 amount\n    ) external hasExtensionAccess(this, AclFlag.WITHDRAW) {\n        require(\n            balanceOf(member, tokenAddr) >= amount,\n            \"dao::withdraw::not enough funds\"\n        );\n        subtractFromBalance(member, tokenAddr, amount);\n        if (tokenAddr == ETH_TOKEN) {\n            member.sendValue(amount);\n        } else {\n            IERC20 erc20 = IERC20(tokenAddr);\n            erc20.safeTransfer(member, amount);\n        }\n\n        emit Withdraw(member, tokenAddr, amount);\n    }\n\n    /**\n     * @return Whether or not the given token is an available internal token in the bank\n     * @param token The address of the token to look up\n     */\n    function isInternalToken(address token) external view returns (bool) {\n        return availableInternalTokens[token];\n    }\n\n    /**\n     * @return Whether or not the given token is an available token in the bank\n     * @param token The address of the token to look up\n     */\n    function isTokenAllowed(address token) public view returns (bool) {\n        return availableTokens[token];\n    }\n\n    /*\n     * BANK\n     */\n\n    /**\n     * @notice Registers a potential new token in the bank\n     * @dev Can not be a reserved token or an available internal token\n     * @param token The address of the token\n     */\n    function registerPotentialNewToken(address token)\n        external\n        hasExtensionAccess(this, AclFlag.REGISTER_NEW_TOKEN)\n    {\n        require(isNotReservedAddress(token), \"reservedToken\");\n        require(!availableInternalTokens[token], \"internalToken\");\n\n        if (!availableTokens[token]) {\n            availableTokens[token] = true;\n            tokens.push(token);\n        }\n    }\n\n    /**\n     * @notice Registers a potential new internal token in the bank\n     * @dev Can not be a reserved token or an available token\n     * @param token The address of the token\n     */\n    function registerPotentialNewInternalToken(address token)\n        external\n        hasExtensionAccess(this, AclFlag.REGISTER_NEW_INTERNAL_TOKEN)\n    {\n        require(isNotReservedAddress(token), \"reservedToken\");\n        require(!availableTokens[token], \"availableToken\");\n        if (!availableInternalTokens[token]) {\n            availableInternalTokens[token] = true;\n            internalTokens.push(token);\n        }\n    }\n\n    function updateToken(address tokenAddr) external {\n        require(isTokenAllowed(tokenAddr), \"non allowed token\");\n        uint256 totalBalance = balanceOf(TOTAL, tokenAddr);\n\n        uint256 realBalance;\n\n        if (tokenAddr == ETH_TOKEN) {\n            realBalance = address(this).balance;\n        } else {\n            IERC20 erc20 = IERC20(tokenAddr);\n            realBalance = erc20.balanceOf(address(this));\n        }\n\n        if (totalBalance < realBalance) {\n            addToBalance(GUILD, tokenAddr, realBalance - totalBalance);\n        } else if (totalBalance > realBalance) {\n            uint256 tokensToRemove = totalBalance - realBalance;\n            uint256 guildBalance = balanceOf(GUILD, tokenAddr);\n            if (guildBalance > tokensToRemove) {\n                subtractFromBalance(GUILD, tokenAddr, tokensToRemove);\n            } else {\n                subtractFromBalance(GUILD, tokenAddr, guildBalance);\n            }\n        }\n    }\n\n    /**\n     * Public read-only functions\n     */\n\n    /**\n     * @return Whether or not a given address is reserved\n     * @dev Returns false if applicant address is one of the constants GUILD or TOTAL\n     * @param applicant The address to check\n     */\n    function isNotReservedAddress(address applicant)\n        public\n        pure\n        returns (bool)\n    {\n        return applicant != GUILD && applicant != TOTAL;\n    }\n\n    /**\n     * Internal bookkeeping\n     */\n\n    /**\n     * @return The token from the bank of a given index\n     * @param index The index to look up in the bank's tokens\n     */\n    function getToken(uint256 index) external view returns (address) {\n        return tokens[index];\n    }\n\n    /**\n     * @return The amount of token addresses in the bank\n     */\n    function nbTokens() external view returns (uint256) {\n        return tokens.length;\n    }\n\n    /**\n     * @return The internal token at a given index\n     * @param index The index to look up in the bank's array of internal tokens\n     */\n    function getInternalToken(uint256 index) external view returns (address) {\n        return internalTokens[index];\n    }\n\n    /**\n     * @return The amount of internal token addresses in the bank\n     */\n    function nbInternalTokens() external view returns (uint256) {\n        return internalTokens.length;\n    }\n\n    /**\n     * @notice Adds to a member's balance of a given token\n     * @param member The member whose balance will be updated\n     * @param token The token to update\n     * @param amount The new balance\n     */\n    function addToBalance(\n        address member,\n        address token,\n        uint256 amount\n    ) public payable hasExtensionAccess(this, AclFlag.ADD_TO_BALANCE) {\n        require(\n            availableTokens[token] || availableInternalTokens[token],\n            \"unknown token address\"\n        );\n        uint256 newAmount = balanceOf(member, token) + amount;\n        uint256 newTotalAmount = balanceOf(TOTAL, token) + amount;\n\n        _createNewAmountCheckpoint(member, token, newAmount);\n        _createNewAmountCheckpoint(TOTAL, token, newTotalAmount);\n    }\n\n    /**\n     * @notice Remove from a member's balance of a given token\n     * @param member The member whose balance will be updated\n     * @param token The token to update\n     * @param amount The new balance\n     */\n    function subtractFromBalance(\n        address member,\n        address token,\n        uint256 amount\n    ) public hasExtensionAccess(this, AclFlag.SUB_FROM_BALANCE) {\n        uint256 newAmount = balanceOf(member, token) - amount;\n        uint256 newTotalAmount = balanceOf(TOTAL, token) - amount;\n\n        _createNewAmountCheckpoint(member, token, newAmount);\n        _createNewAmountCheckpoint(TOTAL, token, newTotalAmount);\n    }\n\n    /**\n     * @notice Make an internal token transfer\n     * @param from The member who is sending tokens\n     * @param to The member who is receiving tokens\n     * @param amount The new amount to transfer\n     */\n    function internalTransfer(\n        address from,\n        address to,\n        address token,\n        uint256 amount\n    ) public hasExtensionAccess(this, AclFlag.INTERNAL_TRANSFER) {\n        uint256 newAmount = balanceOf(from, token) - amount;\n        uint256 newAmount2 = balanceOf(to, token) + amount;\n\n        _createNewAmountCheckpoint(from, token, newAmount);\n        _createNewAmountCheckpoint(to, token, newAmount2);\n    }\n\n    /**\n     * @notice Returns an member's balance of a given token\n     * @param member The address to look up\n     * @param tokenAddr The token where the member's balance of which will be returned\n     * @return The amount in account's tokenAddr balance\n     */\n    function balanceOf(address member, address tokenAddr)\n        public\n        view\n        returns (uint256)\n    {\n        uint32 nCheckpoints = numCheckpoints[tokenAddr][member];\n        return\n            nCheckpoints > 0\n                ? checkpoints[tokenAddr][member][nCheckpoints - 1].amount\n                : 0;\n    }\n\n    /**\n     * @notice Determine the prior number of votes for an account as of a block number\n     * @dev Block number must be a finalized block or else this function will revert to prevent misinformation.\n     * @param account The address of the account to check\n     * @param blockNumber The block number to get the vote balance at\n     * @return The number of votes the account had as of the given block\n     */\n    function getPriorAmount(\n        address account,\n        address tokenAddr,\n        uint256 blockNumber\n    ) external view returns (uint256) {\n        require(\n            blockNumber < block.number,\n            \"Uni::getPriorAmount: not yet determined\"\n        );\n\n        uint32 nCheckpoints = numCheckpoints[tokenAddr][account];\n        if (nCheckpoints == 0) {\n            return 0;\n        }\n\n        // First check most recent balance\n        if (\n            checkpoints[tokenAddr][account][nCheckpoints - 1].fromBlock <=\n            blockNumber\n        ) {\n            return checkpoints[tokenAddr][account][nCheckpoints - 1].amount;\n        }\n\n        // Next check implicit zero balance\n        if (checkpoints[tokenAddr][account][0].fromBlock > blockNumber) {\n            return 0;\n        }\n\n        uint32 lower = 0;\n        uint32 upper = nCheckpoints - 1;\n        while (upper > lower) {\n            uint32 center = upper - (upper - lower) / 2; // ceil, avoiding overflow\n            Checkpoint memory cp = checkpoints[tokenAddr][account][center];\n            if (cp.fromBlock == blockNumber) {\n                return cp.amount;\n            } else if (cp.fromBlock < blockNumber) {\n                lower = center;\n            } else {\n                upper = center - 1;\n            }\n        }\n        return checkpoints[tokenAddr][account][lower].amount;\n    }\n\n    /**\n     * @notice Creates a new amount checkpoint for a token of a certain member\n     * @param member The member whose checkpoints will be added to\n     * @param tokenAddr The token of which the balance will be changed\n     * @param amount The amount to be written into the new checkpoint\n     */\n    function _createNewAmountCheckpoint(\n        address member,\n        address tokenAddr,\n        uint256 amount\n    ) internal {\n        uint32 nCheckpoints = numCheckpoints[tokenAddr][member];\n        require(amount < type(uint160).max, \"too big of a vote\");\n        uint160 newAmount = uint160(amount);\n\n        if (\n            nCheckpoints > 0 &&\n            checkpoints[tokenAddr][member][nCheckpoints - 1].fromBlock ==\n            block.number\n        ) {\n            checkpoints[tokenAddr][member][nCheckpoints - 1].amount = newAmount;\n        } else {\n            checkpoints[tokenAddr][member][nCheckpoints] = Checkpoint(\n                uint96(block.number),\n                newAmount\n            );\n            numCheckpoints[tokenAddr][member] = nCheckpoints + 1;\n        }\n        emit NewBalance(member, tokenAddr, amount);\n    }\n}\n",
  "sourcePath": "/Users/sophia/OPENLAWTEAM/laoland/contracts/extensions/Bank.sol",
  "compiler": {
    "name": "solc",
    "version": "0.8.0+commit.c7dfd78e.Emscripten.clang"
  },
  "schemaVersion": "3.3.3",
  "updatedAt": "2021-02-09T09:36:52.746Z",
  "devdoc": {
    "events": {
      "NewBalance(address,address,uint256)": {
        "details": "- Events for Bank"
      }
    },
    "kind": "dev",
    "methods": {
      "addToBalance(address,address,uint256)": {
        "params": {
          "amount": "The new balance",
          "member": "The member whose balance will be updated",
          "token": "The token to update"
        }
      },
      "balanceOf(address,address)": {
        "params": {
          "member": "The address to look up",
          "tokenAddr": "The token where the member's balance of which will be returned"
        },
        "returns": {
          "_0": "The amount in account's tokenAddr balance"
        }
      },
      "getInternalToken(uint256)": {
        "params": {
          "index": "The index to look up in the bank's array of internal tokens"
        },
        "returns": {
          "_0": "The internal token at a given index"
        }
      },
      "getPriorAmount(address,address,uint256)": {
        "details": "Block number must be a finalized block or else this function will revert to prevent misinformation.",
        "params": {
          "account": "The address of the account to check",
          "blockNumber": "The block number to get the vote balance at"
        },
        "returns": {
          "_0": "The number of votes the account had as of the given block"
        }
      },
      "getToken(uint256)": {
        "params": {
          "index": "The index to look up in the bank's tokens"
        },
        "returns": {
          "_0": "The token from the bank of a given index"
        }
      },
      "initialize(address,address)": {
        "details": "Involves initialising available tokens, checkpoints, and membership of creatorCan only be called once",
        "params": {
          "creator": "The DAO's creator, who will be an initial member"
        }
      },
      "internalTransfer(address,address,address,uint256)": {
        "params": {
          "amount": "The new amount to transfer",
          "from": "The member who is sending tokens",
          "to": "The member who is receiving tokens"
        }
      },
      "isInternalToken(address)": {
        "params": {
          "token": "The address of the token to look up"
        },
        "returns": {
          "_0": "Whether or not the given token is an available internal token in the bank"
        }
      },
      "isNotReservedAddress(address)": {
        "details": "Returns false if applicant address is one of the constants GUILD or TOTAL",
        "params": {
          "applicant": "The address to check"
        },
        "returns": {
          "_0": "Whether or not a given address is reserved"
        }
      },
      "isTokenAllowed(address)": {
        "params": {
          "token": "The address of the token to look up"
        },
        "returns": {
          "_0": "Whether or not the given token is an available token in the bank"
        }
      },
      "nbInternalTokens()": {
        "returns": {
          "_0": "The amount of internal token addresses in the bank"
        }
      },
      "nbTokens()": {
        "returns": {
          "_0": "The amount of token addresses in the bank"
        }
      },
      "registerPotentialNewInternalToken(address)": {
        "details": "Can not be a reserved token or an available token",
        "params": {
          "token": "The address of the token"
        }
      },
      "registerPotentialNewToken(address)": {
        "details": "Can not be a reserved token or an available internal token",
        "params": {
          "token": "The address of the token"
        }
      },
      "subtractFromBalance(address,address,uint256)": {
        "params": {
          "amount": "The new balance",
          "member": "The member whose balance will be updated",
          "token": "The token to update"
        }
      }
    },
    "version": 1
  },
  "userdoc": {
    "kind": "user",
    "methods": {
      "addToBalance(address,address,uint256)": {
        "notice": "Adds to a member's balance of a given token"
      },
      "balanceOf(address,address)": {
        "notice": "Returns an member's balance of a given token"
      },
      "getPriorAmount(address,address,uint256)": {
        "notice": "Determine the prior number of votes for an account as of a block number"
      },
      "initialize(address,address)": {
        "notice": "Initialises the DAO"
      },
      "internalTransfer(address,address,address,uint256)": {
        "notice": "Make an internal token transfer"
      },
      "registerPotentialNewInternalToken(address)": {
        "notice": "Registers a potential new internal token in the bank"
      },
      "registerPotentialNewToken(address)": {
        "notice": "Registers a potential new token in the bank"
      },
      "subtractFromBalance(address,address,uint256)": {
        "notice": "Remove from a member's balance of a given token"
      }
    },
    "notice": "MIT License Copyright (c) 2020 Openlaw Permission is hereby granted, free of charge, to any person obtaining a copy of this software and associated documentation files (the \"Software\"), to deal in the Software without restriction, including without limitation the rights to use, copy, modify, merge, publish, distribute, sublicense, and/or sell copies of the Software, and to permit persons to whom the Software is furnished to do so, subject to the following conditions: The above copyright notice and this permission notice shall be included in all copies or substantial portions of the Software. THE SOFTWARE IS PROVIDED \"AS IS\", WITHOUT WARRANTY OF ANY KIND, EXPRESS OR IMPLIED, INCLUDING BUT NOT LIMITED TO THE WARRANTIES OF MERCHANTABILITY, FITNESS FOR A PARTICULAR PURPOSE AND NONINFRINGEMENT. IN NO EVENT SHALL THE AUTHORS OR COPYRIGHT HOLDERS BE LIABLE FOR ANY CLAIM, DAMAGES OR OTHER LIABILITY, WHETHER IN AN ACTION OF CONTRACT, TORT OR OTHERWISE, ARISING FROM, OUT OF OR IN CONNECTION WITH THE SOFTWARE OR THE USE OR OTHER DEALINGS IN THE SOFTWARE.",
    "version": 1
  }
}