{
  "contractName": "DaoFactory",
  "abi": [
    {
      "inputs": [
        {
          "internalType": "address",
          "name": "_identityAddress",
          "type": "address"
        }
      ],
      "stateMutability": "nonpayable",
      "type": "constructor"
    },
    {
      "anonymous": false,
      "inputs": [
        {
          "indexed": false,
          "internalType": "address",
          "name": "_address",
          "type": "address"
        },
        {
          "indexed": false,
          "internalType": "string",
          "name": "_name",
          "type": "string"
        }
      ],
      "name": "DAOCreated",
      "type": "event"
    },
    {
      "inputs": [
        {
          "internalType": "bytes32",
          "name": "",
          "type": "bytes32"
        }
      ],
      "name": "addresses",
      "outputs": [
        {
          "internalType": "address",
          "name": "",
          "type": "address"
        }
      ],
      "stateMutability": "view",
      "type": "function"
    },
    {
      "inputs": [
        {
          "internalType": "address",
          "name": "",
          "type": "address"
        }
      ],
      "name": "daos",
      "outputs": [
        {
          "internalType": "bytes32",
          "name": "",
          "type": "bytes32"
        }
      ],
      "stateMutability": "view",
      "type": "function"
    },
    {
      "inputs": [
        {
          "internalType": "uint256",
          "name": "flags",
          "type": "uint256"
        },
        {
          "internalType": "uint256",
          "name": "flag",
          "type": "uint256"
        }
      ],
      "name": "getFlag",
      "outputs": [
        {
          "internalType": "bool",
          "name": "",
          "type": "bool"
        }
      ],
      "stateMutability": "pure",
      "type": "function"
    },
    {
      "inputs": [],
      "name": "identityAddress",
      "outputs": [
        {
          "internalType": "address",
          "name": "",
          "type": "address"
        }
      ],
      "stateMutability": "view",
      "type": "function"
    },
    {
      "inputs": [
        {
          "internalType": "uint256",
          "name": "flags",
          "type": "uint256"
        },
        {
          "internalType": "uint256",
          "name": "flag",
          "type": "uint256"
        },
        {
          "internalType": "bool",
          "name": "value",
          "type": "bool"
        }
      ],
      "name": "setFlag",
      "outputs": [
        {
          "internalType": "uint256",
          "name": "",
          "type": "uint256"
        }
      ],
      "stateMutability": "pure",
      "type": "function"
    },
    {
      "inputs": [
        {
          "internalType": "string",
          "name": "daoName",
          "type": "string"
        }
      ],
      "name": "createDao",
      "outputs": [],
      "stateMutability": "nonpayable",
      "type": "function"
    },
    {
      "inputs": [
        {
          "internalType": "address payable",
          "name": "daoAddr",
          "type": "address"
        },
        {
          "internalType": "bytes32[]",
          "name": "keys",
          "type": "bytes32[]"
        },
        {
          "internalType": "uint256[]",
          "name": "values",
          "type": "uint256[]"
        },
        {
          "internalType": "bool",
          "name": "finalizeDao",
          "type": "bool"
        }
      ],
      "name": "configureDao",
      "outputs": [],
      "stateMutability": "nonpayable",
      "type": "function"
    },
    {
      "inputs": [
        {
          "internalType": "string",
          "name": "daoName",
          "type": "string"
        }
      ],
      "name": "getDaoAddress",
      "outputs": [
        {
          "internalType": "address",
          "name": "",
          "type": "address"
        }
      ],
      "stateMutability": "view",
      "type": "function"
    },
    {
      "inputs": [
        {
          "internalType": "contract DaoRegistry",
          "name": "dao",
          "type": "address"
        },
        {
          "components": [
            {
              "internalType": "bytes32",
              "name": "id",
              "type": "bytes32"
            },
            {
              "internalType": "address",
              "name": "addr",
              "type": "address"
            },
            {
              "internalType": "uint256",
              "name": "flags",
              "type": "uint256"
            }
          ],
          "internalType": "struct DaoFactory.Adapter[]",
          "name": "adapters",
          "type": "tuple[]"
        }
      ],
      "name": "addAdapters",
      "outputs": [],
      "stateMutability": "nonpayable",
      "type": "function"
    },
    {
      "inputs": [
        {
          "internalType": "contract DaoRegistry",
          "name": "dao",
          "type": "address"
        },
        {
          "internalType": "address",
          "name": "extension",
          "type": "address"
        },
        {
          "components": [
            {
              "internalType": "bytes32",
              "name": "id",
              "type": "bytes32"
            },
            {
              "internalType": "address",
              "name": "addr",
              "type": "address"
            },
            {
              "internalType": "uint256",
              "name": "flags",
              "type": "uint256"
            }
          ],
          "internalType": "struct DaoFactory.Adapter[]",
          "name": "adapters",
          "type": "tuple[]"
        }
      ],
      "name": "configureExtension",
      "outputs": [],
      "stateMutability": "nonpayable",
      "type": "function"
    },
    {
      "inputs": [
        {
          "internalType": "contract DaoRegistry",
          "name": "dao",
          "type": "address"
        },
        {
          "components": [
            {
              "internalType": "bytes32",
              "name": "id",
              "type": "bytes32"
            },
            {
              "internalType": "address",
              "name": "addr",
              "type": "address"
            },
            {
              "internalType": "uint256",
              "name": "flags",
              "type": "uint256"
            }
          ],
          "internalType": "struct DaoFactory.Adapter",
          "name": "adapter",
          "type": "tuple"
        }
      ],
      "name": "updateAdapter",
      "outputs": [],
      "stateMutability": "nonpayable",
      "type": "function"
    }
  ],
  "bytecode": "0x608060405234801561001057600080fd5b506040516115c33803806115c383398101604081905261002f91610054565b600280546001600160a01b0319166001600160a01b0392909216919091179055610082565b600060208284031215610065578081fd5b81516001600160a01b038116811461007b578182fd5b9392505050565b611532806100916000396000f3fe608060405234801561001057600080fd5b50600436106100c95760003560e01c8063b244a41d11610081578063c25f3cf61161005b578063c25f3cf614610180578063fc25803114610193578063ff5ffdbe146101b3576100c9565b8063b244a41d14610145578063bbc7f20814610165578063bf45767a14610178576100c9565b8063699f200f116100b2578063699f200f1461010c5780637cf7fc871461011f578063a93fe82014610132576100c9565b80631d1f0a27146100ce578063557f5ec8146100f7575b600080fd5b6100e16100dc366004611036565b6101c6565b6040516100ee9190611140565b60405180910390f35b61010a610105366004610f67565b610240565b005b6100e161011a366004610eec565b61049f565b61010a61012d366004610f04565b6104c7565b61010a610140366004610fba565b6106dc565b6101586101533660046110c4565b6108d8565b6040516100ee91906111d6565b61010a610173366004610e5d565b610934565b6100e16109a8565b61015861018e366004610e41565b6109c4565b6101a66101a13660046110a3565b6109d6565b6040516100ee91906111cb565b61010a6101c1366004611036565b6109f3565b60006001600084846040516020016101df929190611219565b604080518083037fffffffffffffffffffffffffffffffffffffffffffffffffffffffffffffffe00181529181528151602092830120835290820192909252016000205473ffffffffffffffffffffffffffffffffffffffff169392505050565b60008373ffffffffffffffffffffffffffffffffffffffff1663c19d93fb6040518163ffffffff1660e01b815260040160206040518083038186803b15801561028857600080fd5b505afa15801561029c573d6000803e3d6000fd5b505050506040513d601f19601f820116820180604052508101906102c09190611017565b60018111156102f8577f4e487b7100000000000000000000000000000000000000000000000000000000600052602160045260246000fd5b14610338576040517f08c379a000000000000000000000000000000000000000000000000000000000815260040161032f906112a3565b60405180910390fd5b60005b81811015610499578373ffffffffffffffffffffffffffffffffffffffff166324658c51848484818110610398577f4e487b7100000000000000000000000000000000000000000000000000000000600052603260045260246000fd5b905060600201600001358585858181106103db577f4e487b7100000000000000000000000000000000000000000000000000000000600052603260045260246000fd5b90506060020160200160208101906103f39190610e41565b86868681811061042c577f4e487b7100000000000000000000000000000000000000000000000000000000600052603260045260246000fd5b905060600201604001356040518463ffffffff1660e01b8152600401610454939291906111df565b600060405180830381600087803b15801561046e57600080fd5b505af1158015610482573d6000803e3d6000fd5b50505050808061049190611436565b91505061033b565b50505050565b60016020526000908152604090205473ffffffffffffffffffffffffffffffffffffffff1681565b60008473ffffffffffffffffffffffffffffffffffffffff1663c19d93fb6040518163ffffffff1660e01b815260040160206040518083038186803b15801561050f57600080fd5b505afa158015610523573d6000803e3d6000fd5b505050506040513d601f19601f820116820180604052508101906105479190611017565b600181111561057f577f4e487b7100000000000000000000000000000000000000000000000000000000600052602160045260246000fd5b146105b6576040517f08c379a000000000000000000000000000000000000000000000000000000000815260040161032f906112a3565b60005b818110156106d5578473ffffffffffffffffffffffffffffffffffffffff1663179986f885858585818110610617577f4e487b7100000000000000000000000000000000000000000000000000000000600052603260045260246000fd5b905060600201602001602081019061062f9190610e41565b868686818110610668577f4e487b7100000000000000000000000000000000000000000000000000000000600052603260045260246000fd5b905060600201604001356040518463ffffffff1660e01b815260040161069093929190611161565b600060405180830381600087803b1580156106aa57600080fd5b505af11580156106be573d6000803e3d6000fd5b5050505080806106cd90611436565b9150506105b9565b5050505050565b60008273ffffffffffffffffffffffffffffffffffffffff1663c19d93fb6040518163ffffffff1660e01b815260040160206040518083038186803b15801561072457600080fd5b505afa158015610738573d6000803e3d6000fd5b505050506040513d601f19601f8201168201806040525081019061075c9190611017565b6001811115610794577f4e487b7100000000000000000000000000000000000000000000000000000000600052602160045260246000fd5b146107cb576040517f08c379a000000000000000000000000000000000000000000000000000000000815260040161032f906112a3565b6040517fb59b117600000000000000000000000000000000000000000000000000000000815273ffffffffffffffffffffffffffffffffffffffff83169063b59b11769061081e908435906004016111d6565b600060405180830381600087803b15801561083857600080fd5b505af115801561084c573d6000803e3d6000fd5b50505073ffffffffffffffffffffffffffffffffffffffff831690506324658c51823561087f6040850160208601610e41565b84604001356040518463ffffffff1660e01b81526004016108a2939291906111df565b600060405180830381600087803b1580156108bc57600080fd5b505af11580156108d0573d6000803e3d6000fd5b505050505050565b60008115156108e785856109d6565b15151461092a578115610910576108ff836002611338565b61090990856112da565b905061092d565b61091b836002611338565b610909908561141f565b61092d565b50825b9392505050565b73ffffffffffffffffffffffffffffffffffffffff8616600090815260208190526040902054610990576040517f08c379a000000000000000000000000000000000000000000000000000000000815260040161032f9061126c565b8561099f818787878787610b86565b50505050505050565b60025473ffffffffffffffffffffffffffffffffffffffff1681565b60006020819052908152604090205481565b60006109e9600260ff841685901c61146f565b6001149392505050565b600254600090610a189073ffffffffffffffffffffffffffffffffffffffff16610d37565b6040517fc4d66de8000000000000000000000000000000000000000000000000000000008152909150819073ffffffffffffffffffffffffffffffffffffffff82169063c4d66de890610a6f903390600401611140565b600060405180830381600087803b158015610a8957600080fd5b505af1158015610a9d573d6000803e3d6000fd5b5050505060008484604051602001610ab6929190611219565b604080518083037fffffffffffffffffffffffffffffffffffffffffffffffffffffffffffffffe0018152828252805160209182012060008181526001835283812080547fffffffffffffffffffffffff00000000000000000000000000000000000000001673ffffffffffffffffffffffffffffffffffffffff891690811790915581529182905291902081905591507e1d639484c46792ffbaa78827c6f9e6563478dac823f4e2a8ece68cf4d4867390610b7790849088908890611192565b60405180910390a15050505050565b838214610bbf576040517f08c379a000000000000000000000000000000000000000000000000000000000815260040161032f90611235565b60005b84811015610cc8578673ffffffffffffffffffffffffffffffffffffffff1663da0f6c70878784818110610c1f577f4e487b7100000000000000000000000000000000000000000000000000000000600052603260045260246000fd5b90506020020135868685818110610c5f577f4e487b7100000000000000000000000000000000000000000000000000000000600052603260045260246000fd5b905060200201356040518363ffffffff1660e01b8152600401610c8392919061120b565b600060405180830381600087803b158015610c9d57600080fd5b505af1158015610cb1573d6000803e3d6000fd5b505050508080610cc090611436565b915050610bc2565b5080156108d0578573ffffffffffffffffffffffffffffffffffffffff16636503287f6040518163ffffffff1660e01b8152600401600060405180830381600087803b158015610d1757600080fd5b505af1158015610d2b573d6000803e3d6000fd5b50505050505050505050565b6000808260601b90506040517f3d602d80600a3d3981f3363d3d373d3d3d363d7300000000000000000000000081528160148201527f5af43d82803e903d91602b57fd5bf3000000000000000000000000000000000060288201526037816000f0949350505050565b60008083601f840112610db1578182fd5b50813567ffffffffffffffff811115610dc8578182fd5b6020830191508360208083028501011115610de257600080fd5b9250929050565b60008083601f840112610dfa578182fd5b50813567ffffffffffffffff811115610e11578182fd5b602083019150836020606083028501011115610de257600080fd5b80358015158114610e3c57600080fd5b919050565b600060208284031215610e52578081fd5b813561092d816114d7565b60008060008060008060808789031215610e75578182fd5b8635610e80816114d7565b9550602087013567ffffffffffffffff80821115610e9c578384fd5b610ea88a838b01610da0565b90975095506040890135915080821115610ec0578384fd5b50610ecd89828a01610da0565b9094509250610ee0905060608801610e2c565b90509295509295509295565b600060208284031215610efd578081fd5b5035919050565b60008060008060608587031215610f19578384fd5b8435610f24816114d7565b93506020850135610f34816114d7565b9250604085013567ffffffffffffffff811115610f4f578283fd5b610f5b87828801610de9565b95989497509550505050565b600080600060408486031215610f7b578283fd5b8335610f86816114d7565b9250602084013567ffffffffffffffff811115610fa1578283fd5b610fad86828701610de9565b9497909650939450505050565b6000808284036080811215610fcd578283fd5b8335610fd8816114d7565b925060607fffffffffffffffffffffffffffffffffffffffffffffffffffffffffffffffe082011215611009578182fd5b506020830190509250929050565b600060208284031215611028578081fd5b81516002811061092d578182fd5b60008060208385031215611048578182fd5b823567ffffffffffffffff8082111561105f578384fd5b818501915085601f830112611072578384fd5b813581811115611080578485fd5b866020828501011115611091578485fd5b60209290920196919550909350505050565b600080604083850312156110b5578182fd5b50508035926020909101359150565b6000806000606084860312156110d8578283fd5b83359250602084013591506110ef60408501610e2c565b90509250925092565b600082845282826020860137806020848601015260207fffffffffffffffffffffffffffffffffffffffffffffffffffffffffffffffe0601f85011685010190509392505050565b73ffffffffffffffffffffffffffffffffffffffff91909116815260200190565b73ffffffffffffffffffffffffffffffffffffffff9384168152919092166020820152604081019190915260600190565b600073ffffffffffffffffffffffffffffffffffffffff85168252604060208301526111c26040830184866110f8565b95945050505050565b901515815260200190565b90815260200190565b92835273ffffffffffffffffffffffffffffffffffffffff919091166020830152604082015260600190565b918252602082015260400190565b60006020825261122d6020830184866110f8565b949350505050565b60208082526017908201527f696e76616c6964206b65797320616e642076616c756573000000000000000000604082015260600190565b6020808252600d908201527f64616f206e6f7420666f756e6400000000000000000000000000000000000000604082015260600190565b6020808252601f908201527f746869732044414f2068617320616c7265616479206265656e20736574757000604082015260600190565b600082198211156112ed576112ed6114a8565b500190565b80825b6001808611611304575061132f565b818704821115611316576113166114a8565b8086161561132357918102915b9490941c9380026112f5565b94509492505050565b600061092d7fffffffffffffffffffffffffffffffffffffffffffffffffffffffffffffffff848460008261136f5750600161092d565b8161137c5750600061092d565b8160018114611392576002811461139c576113c9565b600191505061092d565b60ff8411156113ad576113ad6114a8565b6001841b9150848211156113c3576113c36114a8565b5061092d565b5060208310610133831016604e8410600b84101617156113f7575081810a83811115610925576109256114a8565b61140484848460016112f2565b808604821115611416576114166114a8565b02949350505050565b600082821015611431576114316114a8565b500390565b60007fffffffffffffffffffffffffffffffffffffffffffffffffffffffffffffffff821415611468576114686114a8565b5060010190565b6000826114a3577f4e487b710000000000000000000000000000000000000000000000000000000081526012600452602481fd5b500690565b7f4e487b7100000000000000000000000000000000000000000000000000000000600052601160045260246000fd5b73ffffffffffffffffffffffffffffffffffffffff811681146114f957600080fd5b5056fea264697066735822122058aa1f128cc4fd5af35d7208854df4a8b817a6e75c1ceaef0374b965ae41438a64736f6c63430008000033",
  "immutableReferences": {},
  "source": "pragma solidity ^0.8.0;\npragma experimental ABIEncoderV2;\n\n// SPDX-License-Identifier: MIT\n\nimport \"./DaoConstants.sol\";\nimport \"./DaoRegistry.sol\";\nimport \"./CloneFactory.sol\";\nimport \"../adapters/Onboarding.sol\";\n\n/**\nMIT License\n\nCopyright (c) 2020 Openlaw\n\nPermission is hereby granted, free of charge, to any person obtaining a copy\nof this software and associated documentation files (the \"Software\"), to deal\nin the Software without restriction, including without limitation the rights\nto use, copy, modify, merge, publish, distribute, sublicense, and/or sell\ncopies of the Software, and to permit persons to whom the Software is\nfurnished to do so, subject to the following conditions:\n\nThe above copyright notice and this permission notice shall be included in all\ncopies or substantial portions of the Software.\n\nTHE SOFTWARE IS PROVIDED \"AS IS\", WITHOUT WARRANTY OF ANY KIND, EXPRESS OR\nIMPLIED, INCLUDING BUT NOT LIMITED TO THE WARRANTIES OF MERCHANTABILITY,\nFITNESS FOR A PARTICULAR PURPOSE AND NONINFRINGEMENT. IN NO EVENT SHALL THE\nAUTHORS OR COPYRIGHT HOLDERS BE LIABLE FOR ANY CLAIM, DAMAGES OR OTHER\nLIABILITY, WHETHER IN AN ACTION OF CONTRACT, TORT OR OTHERWISE, ARISING FROM,\nOUT OF OR IN CONNECTION WITH THE SOFTWARE OR THE USE OR OTHER DEALINGS IN THE\nSOFTWARE.\n */\n\ncontract DaoFactory is CloneFactory, DaoConstants {\n    struct Adapter {\n        bytes32 id;\n        address addr;\n        uint256 flags;\n    }\n\n    // daoAddr => hashedName\n    mapping(address => bytes32) public daos;\n    // hashedName => daoAddr\n    mapping(bytes32 => address) public addresses;\n\n    address public identityAddress;\n\n    event DAOCreated(address _address, string _name);\n\n    constructor(address _identityAddress) {\n        identityAddress = _identityAddress;\n    }\n\n    /**\n     * @notice Create and initialize a new DaoRegistry\n     * @param daoName The name of the dao which, after being hashed, is used to access the address\n     */\n    function createDao(string calldata daoName) external {\n        DaoRegistry dao = DaoRegistry(_createClone(identityAddress));\n        address daoAddr = address(dao);\n        dao.initialize(msg.sender);\n\n        bytes32 hashedName = keccak256(abi.encode(daoName));\n        addresses[hashedName] = daoAddr;\n        daos[daoAddr] = hashedName;\n\n        emit DAOCreated(daoAddr, daoName);\n    }\n\n    /**\n     * @notice Sets a DAO's configuration key-value pairs and finalizes it if requested\n     * @param daoAddr Address of the DAO being configured\n     * @param keys Configuration keys for the DAO\n     * @param values Configuration values for the DAO\n     * @param finalizeDao If true, call DaoRegistry.finalizeDao()\n     */\n    function configureDao(\n        address payable daoAddr,\n        bytes32[] calldata keys,\n        uint256[] calldata values,\n        bool finalizeDao\n    ) external {\n        require(daos[daoAddr] != bytes32(0), \"dao not found\");\n\n        DaoRegistry dao = DaoRegistry(daoAddr);\n        _configure(dao, keys, values, finalizeDao);\n    }\n\n    /**\n     * @return The address of a DAO, given its name\n     * @param daoName Name of the DAO to be searched\n     */\n    function getDaoAddress(string calldata daoName)\n        public\n        view\n        returns (address)\n    {\n        return addresses[keccak256(abi.encode(daoName))];\n    }\n\n    /**\n     * @dev A new DAO is instantiated with only the Core Modules enabled, to reduce the call cost.\n     *       Another call must be made to enable the default Adapters, see registerDefaultAdapters.\n     * @param dao DaoRegistry to have adapters added to\n     * @param adapters Adapter structs to be added to the dao\n     */\n    function addAdapters(DaoRegistry dao, Adapter[] calldata adapters)\n        external\n    {\n        //Registring Adapters\n        require(\n            dao.state() == DaoRegistry.DaoState.CREATION,\n            \"this DAO has already been setup\"\n        );\n\n        for (uint256 i = 0; i < adapters.length; i++) {\n            dao.addAdapter(adapters[i].id, adapters[i].addr, adapters[i].flags);\n        }\n    }\n\n    /**\n     * @dev A new DAO is instantiated with only the Core Modules enabled, to reduce the call cost.\n     *       Another call must be made to enable the default Adapters, see registerDefaultAdapters.\n     * @param dao DaoRegistry to have adapters added to\n     * @param adapters Adapter structs to be added to the dao\n     */\n    function configureExtension(\n        DaoRegistry dao,\n        address extension,\n        Adapter[] calldata adapters\n    ) external {\n        //Registring Adapters\n        require(\n            dao.state() == DaoRegistry.DaoState.CREATION,\n            \"this DAO has already been setup\"\n        );\n\n        for (uint256 i = 0; i < adapters.length; i++) {\n            dao.setAclToExtensionForAdapter(\n                extension,\n                adapters[i].addr,\n                adapters[i].flags\n            );\n        }\n    }\n\n    /**\n     * @dev Removes an adapter with a given ID from a DAO, and add a new one of the same ID\n     * @param dao DAO to be updated\n     * @param adapter Adapter that will be replacing the currently-existing adapter of the same ID\n     */\n    function updateAdapter(DaoRegistry dao, Adapter calldata adapter) external {\n        require(\n            dao.state() == DaoRegistry.DaoState.CREATION,\n            \"this DAO has already been setup\"\n        );\n\n        dao.removeAdapter(adapter.id);\n        dao.addAdapter(adapter.id, adapter.addr, adapter.flags);\n    }\n\n    /**\n     * @notice Sets the configuration key-value pairs for a DaoRegistry\n     * @param dao To configure\n     * @param keys Configuration keys\n     * @param values Configuration values\n     * @param finalizeDao Whether or not to call DaoRegistry.finalizeDao after configuration\n     */\n    function _configure(\n        DaoRegistry dao,\n        bytes32[] calldata keys,\n        uint256[] calldata values,\n        bool finalizeDao\n    ) internal {\n        require(keys.length == values.length, \"invalid keys and values\");\n        for (uint256 i = 0; i < keys.length; i++) {\n            dao.setConfiguration(keys[i], values[i]);\n        }\n        if (finalizeDao) {\n            dao.finalizeDao();\n        }\n    }\n}\n",
  "sourcePath": "/Users/sophia/OPENLAWTEAM/laoland/contracts/core/DaoFactory.sol",
  "compiler": {
    "name": "solc",
    "version": "0.8.0+commit.c7dfd78e.Emscripten.clang"
  },
  "schemaVersion": "3.3.3",
  "updatedAt": "2021-02-15T10:43:51.463Z",
  "devdoc": {
    "kind": "dev",
    "methods": {
      "addAdapters(address,(bytes32,address,uint256)[])": {
        "details": "A new DAO is instantiated with only the Core Modules enabled, to reduce the call cost.       Another call must be made to enable the default Adapters, see registerDefaultAdapters.",
        "params": {
          "adapters": "Adapter structs to be added to the dao",
          "dao": "DaoRegistry to have adapters added to"
        }
      },
      "configureDao(address,bytes32[],uint256[],bool)": {
        "params": {
          "daoAddr": "Address of the DAO being configured",
          "finalizeDao": "If true, call DaoRegistry.finalizeDao()",
          "keys": "Configuration keys for the DAO",
          "values": "Configuration values for the DAO"
        }
      },
      "configureExtension(address,address,(bytes32,address,uint256)[])": {
        "details": "A new DAO is instantiated with only the Core Modules enabled, to reduce the call cost.       Another call must be made to enable the default Adapters, see registerDefaultAdapters.",
        "params": {
          "adapters": "Adapter structs to be added to the dao",
          "dao": "DaoRegistry to have adapters added to"
        }
      },
      "createDao(string)": {
        "params": {
          "daoName": "The name of the dao which, after being hashed, is used to access the address"
        }
      },
      "getDaoAddress(string)": {
        "params": {
          "daoName": "Name of the DAO to be searched"
        },
        "returns": {
          "_0": "The address of a DAO, given its name"
        }
      },
      "updateAdapter(address,(bytes32,address,uint256))": {
        "details": "Removes an adapter with a given ID from a DAO, and add a new one of the same ID",
        "params": {
          "adapter": "Adapter that will be replacing the currently-existing adapter of the same ID",
          "dao": "DAO to be updated"
        }
      }
    },
    "version": 1
  },
  "userdoc": {
    "kind": "user",
    "methods": {
      "configureDao(address,bytes32[],uint256[],bool)": {
        "notice": "Sets a DAO's configuration key-value pairs and finalizes it if requested"
      },
      "createDao(string)": {
        "notice": "Create and initialize a new DaoRegistry"
      }
    },
    "notice": "MIT License Copyright (c) 2020 Openlaw Permission is hereby granted, free of charge, to any person obtaining a copy of this software and associated documentation files (the \"Software\"), to deal in the Software without restriction, including without limitation the rights to use, copy, modify, merge, publish, distribute, sublicense, and/or sell copies of the Software, and to permit persons to whom the Software is furnished to do so, subject to the following conditions: The above copyright notice and this permission notice shall be included in all copies or substantial portions of the Software. THE SOFTWARE IS PROVIDED \"AS IS\", WITHOUT WARRANTY OF ANY KIND, EXPRESS OR IMPLIED, INCLUDING BUT NOT LIMITED TO THE WARRANTIES OF MERCHANTABILITY, FITNESS FOR A PARTICULAR PURPOSE AND NONINFRINGEMENT. IN NO EVENT SHALL THE AUTHORS OR COPYRIGHT HOLDERS BE LIABLE FOR ANY CLAIM, DAMAGES OR OTHER LIABILITY, WHETHER IN AN ACTION OF CONTRACT, TORT OR OTHERWISE, ARISING FROM, OUT OF OR IN CONNECTION WITH THE SOFTWARE OR THE USE OR OTHER DEALINGS IN THE SOFTWARE.",
    "version": 1
  }
}