{
  "contractName": "DaoRegistry",
  "abi": [
    {
      "anonymous": false,
      "inputs": [
        {
          "indexed": false,
          "internalType": "bytes32",
          "name": "adapterId",
          "type": "bytes32"
        },
        {
          "indexed": false,
          "internalType": "address",
          "name": "adapterAddress",
          "type": "address"
        },
        {
          "indexed": false,
          "internalType": "uint256",
          "name": "flags",
          "type": "uint256"
        }
      ],
      "name": "AdapterAdded",
      "type": "event"
    },
    {
      "anonymous": false,
      "inputs": [
        {
          "indexed": false,
          "internalType": "bytes32",
          "name": "adapterId",
          "type": "bytes32"
        }
      ],
      "name": "AdapterRemoved",
      "type": "event"
    },
    {
      "anonymous": false,
      "inputs": [
        {
          "indexed": false,
          "internalType": "address",
          "name": "memberAddr",
          "type": "address"
        }
      ],
      "name": "MemberJailed",
      "type": "event"
    },
    {
      "anonymous": false,
      "inputs": [
        {
          "indexed": false,
          "internalType": "address",
          "name": "memberAddr",
          "type": "address"
        }
      ],
      "name": "MemberUnjailed",
      "type": "event"
    },
    {
      "anonymous": false,
      "inputs": [
        {
          "indexed": false,
          "internalType": "address",
          "name": "member",
          "type": "address"
        },
        {
          "indexed": false,
          "internalType": "address",
          "name": "tokenAddr",
          "type": "address"
        },
        {
          "indexed": false,
          "internalType": "uint256",
          "name": "amount",
          "type": "uint256"
        }
      ],
      "name": "NewBalance",
      "type": "event"
    },
    {
      "anonymous": false,
      "inputs": [
        {
          "indexed": false,
          "internalType": "bytes32",
          "name": "proposalId",
          "type": "bytes32"
        },
        {
          "indexed": false,
          "internalType": "uint256",
          "name": "flags",
          "type": "uint256"
        }
      ],
      "name": "ProcessedProposal",
      "type": "event"
    },
    {
      "anonymous": false,
      "inputs": [
        {
          "indexed": false,
          "internalType": "bytes32",
          "name": "proposalId",
          "type": "bytes32"
        },
        {
          "indexed": false,
          "internalType": "uint256",
          "name": "flags",
          "type": "uint256"
        }
      ],
      "name": "SponsoredProposal",
      "type": "event"
    },
    {
      "anonymous": false,
      "inputs": [
        {
          "indexed": false,
          "internalType": "bytes32",
          "name": "proposalId",
          "type": "bytes32"
        },
        {
          "indexed": false,
          "internalType": "uint256",
          "name": "flags",
          "type": "uint256"
        }
      ],
      "name": "SubmittedProposal",
      "type": "event"
    },
    {
      "anonymous": false,
      "inputs": [
        {
          "indexed": false,
          "internalType": "address",
          "name": "memberAddress",
          "type": "address"
        },
        {
          "indexed": false,
          "internalType": "address",
          "name": "newDelegateKey",
          "type": "address"
        }
      ],
      "name": "UpdateDelegateKey",
      "type": "event"
    },
    {
      "anonymous": false,
      "inputs": [
        {
          "indexed": false,
          "internalType": "address",
          "name": "account",
          "type": "address"
        },
        {
          "indexed": false,
          "internalType": "address",
          "name": "tokenAddr",
          "type": "address"
        },
        {
          "indexed": false,
          "internalType": "uint256",
          "name": "amount",
          "type": "uint256"
        }
      ],
      "name": "Withdraw",
      "type": "event"
    },
    {
      "inputs": [],
      "name": "ETH_TOKEN",
      "outputs": [
        {
          "internalType": "address",
          "name": "",
          "type": "address"
        }
      ],
      "stateMutability": "view",
      "type": "function"
    },
    {
      "inputs": [],
      "name": "FINANCING",
      "outputs": [
        {
          "internalType": "bytes32",
          "name": "",
          "type": "bytes32"
        }
      ],
      "stateMutability": "view",
      "type": "function"
    },
    {
      "inputs": [],
      "name": "GUILD",
      "outputs": [
        {
          "internalType": "address",
          "name": "",
          "type": "address"
        }
      ],
      "stateMutability": "view",
      "type": "function"
    },
    {
      "inputs": [],
      "name": "GUILDKICK",
      "outputs": [
        {
          "internalType": "bytes32",
          "name": "",
          "type": "bytes32"
        }
      ],
      "stateMutability": "view",
      "type": "function"
    },
    {
      "inputs": [],
      "name": "LOCKED_LOOT",
      "outputs": [
        {
          "internalType": "address",
          "name": "",
          "type": "address"
        }
      ],
      "stateMutability": "view",
      "type": "function"
    },
    {
      "inputs": [],
      "name": "LOOT",
      "outputs": [
        {
          "internalType": "address",
          "name": "",
          "type": "address"
        }
      ],
      "stateMutability": "view",
      "type": "function"
    },
    {
      "inputs": [],
      "name": "MANAGING",
      "outputs": [
        {
          "internalType": "bytes32",
          "name": "",
          "type": "bytes32"
        }
      ],
      "stateMutability": "view",
      "type": "function"
    },
    {
      "inputs": [],
      "name": "NONVOTING_ONBOARDING",
      "outputs": [
        {
          "internalType": "bytes32",
          "name": "",
          "type": "bytes32"
        }
      ],
      "stateMutability": "view",
      "type": "function"
    },
    {
      "inputs": [],
      "name": "ONBOARDING",
      "outputs": [
        {
          "internalType": "bytes32",
          "name": "",
          "type": "bytes32"
        }
      ],
      "stateMutability": "view",
      "type": "function"
    },
    {
      "inputs": [],
      "name": "RAGEQUIT",
      "outputs": [
        {
          "internalType": "bytes32",
          "name": "",
          "type": "bytes32"
        }
      ],
      "stateMutability": "view",
      "type": "function"
    },
    {
      "inputs": [],
      "name": "SHARES",
      "outputs": [
        {
          "internalType": "address",
          "name": "",
          "type": "address"
        }
      ],
      "stateMutability": "view",
      "type": "function"
    },
    {
      "inputs": [],
      "name": "TOTAL",
      "outputs": [
        {
          "internalType": "address",
          "name": "",
          "type": "address"
        }
      ],
      "stateMutability": "view",
      "type": "function"
    },
    {
      "inputs": [],
      "name": "VOTING",
      "outputs": [
        {
          "internalType": "bytes32",
          "name": "",
          "type": "bytes32"
        }
      ],
      "stateMutability": "view",
      "type": "function"
    },
    {
      "inputs": [
        {
          "internalType": "bytes32",
          "name": "",
          "type": "bytes32"
        }
      ],
      "name": "addressConfiguration",
      "outputs": [
        {
          "internalType": "address",
          "name": "",
          "type": "address"
        }
      ],
      "stateMutability": "view",
      "type": "function"
    },
    {
      "inputs": [],
      "name": "initialized",
      "outputs": [
        {
          "internalType": "bool",
          "name": "",
          "type": "bool"
        }
      ],
      "stateMutability": "view",
      "type": "function"
    },
    {
      "inputs": [
        {
          "internalType": "address",
          "name": "",
          "type": "address"
        }
      ],
      "name": "inverseRegistry",
      "outputs": [
        {
          "internalType": "bytes32",
          "name": "id",
          "type": "bytes32"
        },
        {
          "internalType": "uint256",
          "name": "acl",
          "type": "uint256"
        }
      ],
      "stateMutability": "view",
      "type": "function"
    },
    {
      "inputs": [
        {
          "internalType": "bytes32",
          "name": "",
          "type": "bytes32"
        }
      ],
      "name": "mainConfiguration",
      "outputs": [
        {
          "internalType": "uint256",
          "name": "",
          "type": "uint256"
        }
      ],
      "stateMutability": "view",
      "type": "function"
    },
    {
      "inputs": [
        {
          "internalType": "address",
          "name": "",
          "type": "address"
        }
      ],
      "name": "memberAddressesByDelegatedKey",
      "outputs": [
        {
          "internalType": "address",
          "name": "",
          "type": "address"
        }
      ],
      "stateMutability": "view",
      "type": "function"
    },
    {
      "inputs": [
        {
          "internalType": "address",
          "name": "",
          "type": "address"
        }
      ],
      "name": "members",
      "outputs": [
        {
          "internalType": "uint256",
          "name": "flags",
          "type": "uint256"
        }
      ],
      "stateMutability": "view",
      "type": "function"
    },
    {
      "inputs": [
        {
          "internalType": "bytes32",
          "name": "",
          "type": "bytes32"
        }
      ],
      "name": "proposals",
      "outputs": [
        {
          "internalType": "address",
          "name": "adapterAddress",
          "type": "address"
        },
        {
          "internalType": "uint256",
          "name": "flags",
          "type": "uint256"
        }
      ],
      "stateMutability": "view",
      "type": "function"
    },
    {
      "inputs": [
        {
          "internalType": "bytes32",
          "name": "",
          "type": "bytes32"
        }
      ],
      "name": "registry",
      "outputs": [
        {
          "internalType": "address",
          "name": "",
          "type": "address"
        }
      ],
      "stateMutability": "view",
      "type": "function"
    },
    {
      "inputs": [],
      "name": "state",
      "outputs": [
        {
          "internalType": "enum DaoRegistry.DaoState",
          "name": "",
          "type": "uint8"
        }
      ],
      "stateMutability": "view",
      "type": "function"
    },
    {
      "stateMutability": "payable",
      "type": "receive"
    },
    {
      "inputs": [
        {
          "internalType": "address",
          "name": "creator",
          "type": "address"
        }
      ],
      "name": "initialize",
      "outputs": [],
      "stateMutability": "nonpayable",
      "type": "function"
    },
    {
      "inputs": [],
      "name": "finalizeDao",
      "outputs": [],
      "stateMutability": "nonpayable",
      "type": "function"
    },
    {
      "inputs": [
        {
          "internalType": "bytes32",
          "name": "key",
          "type": "bytes32"
        },
        {
          "internalType": "uint256",
          "name": "value",
          "type": "uint256"
        }
      ],
      "name": "setConfiguration",
      "outputs": [],
      "stateMutability": "nonpayable",
      "type": "function"
    },
    {
      "inputs": [
        {
          "internalType": "bytes32",
          "name": "key",
          "type": "bytes32"
        },
        {
          "internalType": "address",
          "name": "value",
          "type": "address"
        }
      ],
      "name": "setAddressConfiguration",
      "outputs": [],
      "stateMutability": "nonpayable",
      "type": "function"
    },
    {
      "inputs": [
        {
          "internalType": "bytes32",
          "name": "key",
          "type": "bytes32"
        }
      ],
      "name": "getConfiguration",
      "outputs": [
        {
          "internalType": "uint256",
          "name": "",
          "type": "uint256"
        }
      ],
      "stateMutability": "view",
      "type": "function"
    },
    {
      "inputs": [
        {
          "internalType": "bytes32",
          "name": "key",
          "type": "bytes32"
        }
      ],
      "name": "getAddressConfiguration",
      "outputs": [
        {
          "internalType": "address",
          "name": "",
          "type": "address"
        }
      ],
      "stateMutability": "view",
      "type": "function"
    },
    {
      "inputs": [
        {
          "internalType": "bytes32",
          "name": "adapterId",
          "type": "bytes32"
        },
        {
          "internalType": "address",
          "name": "adapterAddress",
          "type": "address"
        },
        {
          "internalType": "uint256",
          "name": "acl",
          "type": "uint256"
        }
      ],
      "name": "addAdapter",
      "outputs": [],
      "stateMutability": "nonpayable",
      "type": "function"
    },
    {
      "inputs": [
        {
          "internalType": "bytes32",
          "name": "adapterId",
          "type": "bytes32"
        }
      ],
      "name": "removeAdapter",
      "outputs": [],
      "stateMutability": "nonpayable",
      "type": "function"
    },
    {
      "inputs": [
        {
          "internalType": "address",
          "name": "adapterAddress",
          "type": "address"
        }
      ],
      "name": "isAdapter",
      "outputs": [
        {
          "internalType": "bool",
          "name": "",
          "type": "bool"
        }
      ],
      "stateMutability": "view",
      "type": "function"
    },
    {
      "inputs": [
        {
          "internalType": "address",
          "name": "adapterAddress",
          "type": "address"
        },
        {
          "internalType": "enum FlagHelper.Flag",
          "name": "flag",
          "type": "uint8"
        }
      ],
      "name": "hasAdapterAccess",
      "outputs": [
        {
          "internalType": "bool",
          "name": "",
          "type": "bool"
        }
      ],
      "stateMutability": "view",
      "type": "function"
    },
    {
      "inputs": [
        {
          "internalType": "bytes32",
          "name": "adapterId",
          "type": "bytes32"
        }
      ],
      "name": "getAdapterAddress",
      "outputs": [
        {
          "internalType": "address",
          "name": "",
          "type": "address"
        }
      ],
      "stateMutability": "view",
      "type": "function"
    },
    {
      "inputs": [
        {
          "internalType": "address",
          "name": "memberAddr",
          "type": "address"
        }
      ],
      "name": "jailMember",
      "outputs": [],
      "stateMutability": "nonpayable",
      "type": "function"
    },
    {
      "inputs": [
        {
          "internalType": "address",
          "name": "memberAddr",
          "type": "address"
        }
      ],
      "name": "unjailMember",
      "outputs": [],
      "stateMutability": "nonpayable",
      "type": "function"
    },
    {
      "inputs": [
        {
          "internalType": "address",
          "name": "_actionTo",
          "type": "address"
        },
        {
          "internalType": "uint256",
          "name": "_actionValue",
          "type": "uint256"
        },
        {
          "internalType": "bytes",
          "name": "_actionData",
          "type": "bytes"
        }
      ],
      "name": "execute",
      "outputs": [
        {
          "internalType": "bytes",
          "name": "",
          "type": "bytes"
        }
      ],
      "stateMutability": "nonpayable",
      "type": "function"
    },
    {
      "inputs": [
        {
          "internalType": "address payable",
          "name": "account",
          "type": "address"
        },
        {
          "internalType": "address",
          "name": "tokenAddr",
          "type": "address"
        },
        {
          "internalType": "uint256",
          "name": "amount",
          "type": "uint256"
        }
      ],
      "name": "withdraw",
      "outputs": [],
      "stateMutability": "nonpayable",
      "type": "function"
    },
    {
      "inputs": [
        {
          "internalType": "bytes32",
          "name": "proposalId",
          "type": "bytes32"
        }
      ],
      "name": "submitProposal",
      "outputs": [],
      "stateMutability": "nonpayable",
      "type": "function"
    },
    {
      "inputs": [
        {
          "internalType": "bytes32",
          "name": "proposalId",
          "type": "bytes32"
        },
        {
          "internalType": "address",
          "name": "sponsoringMember",
          "type": "address"
        }
      ],
      "name": "sponsorProposal",
      "outputs": [],
      "stateMutability": "nonpayable",
      "type": "function"
    },
    {
      "inputs": [
        {
          "internalType": "bytes32",
          "name": "proposalId",
          "type": "bytes32"
        }
      ],
      "name": "processProposal",
      "outputs": [],
      "stateMutability": "nonpayable",
      "type": "function"
    },
    {
      "inputs": [
        {
          "internalType": "address",
          "name": "token",
          "type": "address"
        }
      ],
      "name": "isInternalToken",
      "outputs": [
        {
          "internalType": "bool",
          "name": "",
          "type": "bool"
        }
      ],
      "stateMutability": "view",
      "type": "function"
    },
    {
      "inputs": [
        {
          "internalType": "address",
          "name": "token",
          "type": "address"
        }
      ],
      "name": "isTokenAllowed",
      "outputs": [
        {
          "internalType": "bool",
          "name": "",
          "type": "bool"
        }
      ],
      "stateMutability": "view",
      "type": "function"
    },
    {
      "inputs": [
        {
          "internalType": "address",
          "name": "addr",
          "type": "address"
        }
      ],
      "name": "isActiveMember",
      "outputs": [
        {
          "internalType": "bool",
          "name": "",
          "type": "bool"
        }
      ],
      "stateMutability": "view",
      "type": "function"
    },
    {
      "inputs": [
        {
          "internalType": "bytes32",
          "name": "proposalId",
          "type": "bytes32"
        },
        {
          "internalType": "enum FlagHelper.Flag",
          "name": "flag",
          "type": "uint8"
        }
      ],
      "name": "getProposalFlag",
      "outputs": [
        {
          "internalType": "bool",
          "name": "",
          "type": "bool"
        }
      ],
      "stateMutability": "view",
      "type": "function"
    },
    {
      "inputs": [
        {
          "internalType": "address",
          "name": "memberAddr",
          "type": "address"
        },
        {
          "internalType": "address",
          "name": "newDelegateKey",
          "type": "address"
        }
      ],
      "name": "updateDelegateKey",
      "outputs": [],
      "stateMutability": "nonpayable",
      "type": "function"
    },
    {
      "inputs": [
        {
          "internalType": "address",
          "name": "token",
          "type": "address"
        }
      ],
      "name": "registerPotentialNewToken",
      "outputs": [],
      "stateMutability": "nonpayable",
      "type": "function"
    },
    {
      "inputs": [
        {
          "internalType": "address",
          "name": "token",
          "type": "address"
        }
      ],
      "name": "registerPotentialNewInternalToken",
      "outputs": [],
      "stateMutability": "nonpayable",
      "type": "function"
    },
    {
      "inputs": [
        {
          "internalType": "address",
          "name": "applicant",
          "type": "address"
        }
      ],
      "name": "isNotReservedAddress",
      "outputs": [
        {
          "internalType": "bool",
          "name": "",
          "type": "bool"
        }
      ],
      "stateMutability": "pure",
      "type": "function"
    },
    {
      "inputs": [
        {
          "internalType": "uint256",
          "name": "index",
          "type": "uint256"
        }
      ],
      "name": "getToken",
      "outputs": [
        {
          "internalType": "address",
          "name": "",
          "type": "address"
        }
      ],
      "stateMutability": "view",
      "type": "function"
    },
    {
      "inputs": [],
      "name": "nbTokens",
      "outputs": [
        {
          "internalType": "uint256",
          "name": "",
          "type": "uint256"
        }
      ],
      "stateMutability": "view",
      "type": "function"
    },
    {
      "inputs": [
        {
          "internalType": "uint256",
          "name": "index",
          "type": "uint256"
        }
      ],
      "name": "getInternalToken",
      "outputs": [
        {
          "internalType": "address",
          "name": "",
          "type": "address"
        }
      ],
      "stateMutability": "view",
      "type": "function"
    },
    {
      "inputs": [],
      "name": "nbInternalTokens",
      "outputs": [
        {
          "internalType": "uint256",
          "name": "",
          "type": "uint256"
        }
      ],
      "stateMutability": "view",
      "type": "function"
    },
    {
      "inputs": [
        {
          "internalType": "address",
          "name": "user",
          "type": "address"
        },
        {
          "internalType": "address",
          "name": "token",
          "type": "address"
        },
        {
          "internalType": "uint256",
          "name": "amount",
          "type": "uint256"
        }
      ],
      "name": "addToBalance",
      "outputs": [],
      "stateMutability": "payable",
      "type": "function"
    },
    {
      "inputs": [
        {
          "internalType": "address",
          "name": "user",
          "type": "address"
        },
        {
          "internalType": "address",
          "name": "token",
          "type": "address"
        },
        {
          "internalType": "uint256",
          "name": "amount",
          "type": "uint256"
        }
      ],
      "name": "subtractFromBalance",
      "outputs": [],
      "stateMutability": "nonpayable",
      "type": "function"
    },
    {
      "inputs": [
        {
          "internalType": "address",
          "name": "from",
          "type": "address"
        },
        {
          "internalType": "address",
          "name": "to",
          "type": "address"
        },
        {
          "internalType": "address",
          "name": "token",
          "type": "address"
        },
        {
          "internalType": "uint256",
          "name": "amount",
          "type": "uint256"
        }
      ],
      "name": "internalTransfer",
      "outputs": [],
      "stateMutability": "nonpayable",
      "type": "function"
    },
    {
      "inputs": [
        {
          "internalType": "address",
          "name": "account",
          "type": "address"
        },
        {
          "internalType": "address",
          "name": "tokenAddr",
          "type": "address"
        }
      ],
      "name": "balanceOf",
      "outputs": [
        {
          "internalType": "uint256",
          "name": "",
          "type": "uint256"
        }
      ],
      "stateMutability": "view",
      "type": "function"
    },
    {
      "inputs": [
        {
          "internalType": "address",
          "name": "account",
          "type": "address"
        },
        {
          "internalType": "address",
          "name": "tokenAddr",
          "type": "address"
        },
        {
          "internalType": "uint256",
          "name": "blockNumber",
          "type": "uint256"
        }
      ],
      "name": "getPriorAmount",
      "outputs": [
        {
          "internalType": "uint256",
          "name": "",
          "type": "uint256"
        }
      ],
      "stateMutability": "view",
      "type": "function"
    },
    {
      "inputs": [
        {
          "internalType": "address",
          "name": "checkAddr",
          "type": "address"
        }
      ],
      "name": "getAddressIfDelegated",
      "outputs": [
        {
          "internalType": "address",
          "name": "",
          "type": "address"
        }
      ],
      "stateMutability": "view",
      "type": "function"
    },
    {
      "inputs": [
        {
          "internalType": "address",
          "name": "memberAddr",
          "type": "address"
        }
      ],
      "name": "getCurrentDelegateKey",
      "outputs": [
        {
          "internalType": "address",
          "name": "",
          "type": "address"
        }
      ],
      "stateMutability": "view",
      "type": "function"
    },
    {
      "inputs": [
        {
          "internalType": "address",
          "name": "memberAddr",
          "type": "address"
        }
      ],
      "name": "getPreviousDelegateKey",
      "outputs": [
        {
          "internalType": "address",
          "name": "",
          "type": "address"
        }
      ],
      "stateMutability": "view",
      "type": "function"
    },
    {
      "inputs": [
        {
          "internalType": "address",
          "name": "memberAddr",
          "type": "address"
        },
        {
          "internalType": "uint256",
          "name": "blockNumber",
          "type": "uint256"
        }
      ],
      "name": "getPriorDelegateKey",
      "outputs": [
        {
          "internalType": "address",
          "name": "",
          "type": "address"
        }
      ],
      "stateMutability": "view",
      "type": "function"
    }
  ],
  "bytecode": "0x60806040526000805460ff1916905534801561001a57600080fd5b506156e7806200002b6000396000f3fe6080604052600436106103a65760003560e01c80639283ae3a116101e7578063d482301c1161010d578063f5d54c77116100a0578063f9eaee0d1161006f578063f9eaee0d14610a78578063faaf38b314610a98578063fd310d2914610ab8578063ffed938b14610ad8576103cc565b8063f5d54c7714610a03578063f7888aec14610a18578063f7e15acf14610a38578063f941f69114610a58576103cc565b8063e3a05cc1116100dc578063e3a05cc11461098e578063e4b50cb8146109ae578063ebfda085146109ce578063ef6a2499146109e3576103cc565b8063d482301c14610919578063d9caed121461092e578063da0f6c701461094e578063e24f905b1461096e576103cc565b8063b59b117611610185578063c19d93fb11610154578063c19d93fb146108a4578063c4d66de8146108c6578063c57d5fe9146108e6578063c89bb8ba146108f9576103cc565b8063b59b117614610822578063b61d27f614610842578063b73dc3891461086f578063c1254a551461088f576103cc565b80639ef28a0a116101c15780639ef28a0a146107b8578063a276f359146107d8578063aa1927d3146107ed578063ac8359b814610802576103cc565b80639283ae3a146107635780639472497c14610783578063987e6eae146107a3576103cc565b806344a29e2a116102cc57806368c18beb1161026a5780637de66b6d116102395780637de66b6d146106ee5780637ef5029814610703578063815a2bf41461072357806381ff3b2014610743576103cc565b806368c18beb1461068457806369af242f146106a45780636d85e14d146106c45780637a81edb9146106d9576103cc565b806351340a5b116102a657806351340a5b14610625578063575d3f731461063a57806358bc83371461065a5780636503287f1461066f576103cc565b806344a29e2a146105c557806345ecd02f146105e55780634a19d91e14610605576103cc565b8063269e1d1a11610344578063397a694711610313578063397a6947146105505780633b4f921a146105705780634086ee9d1461059057806342447c18146105a5576103cc565b8063269e1d1a146104d857806327efc086146104ed57806330490e911461050257806332ed5b1214610522576103cc565b8063158ef93e11610380578063158ef93e1461045457806315d89f601461046957806317ba7d851461049657806324658c51146104b6576103cc565b806308ae4b0c146103d15780630d53ab831461040757806314a3321614610434576103cc565b366103cc5760405162461bcd60e51b81526004016103c39061504d565b60405180910390fd5b600080fd5b3480156103dd57600080fd5b506103f16103ec366004614981565b610b06565b6040516103fe9190614e1d565b60405180910390f35b34801561041357600080fd5b50610427610422366004614a79565b610b18565b6040516103fe9190614e12565b34801561044057600080fd5b5061042761044f366004614981565b610be7565b34801561046057600080fd5b50610427610c09565b34801561047557600080fd5b50610489610484366004614b7c565b610c12565b6040516103fe9190614d8a565b3480156104a257600080fd5b506104896104b1366004614b7c565b610c53565b3480156104c257600080fd5b506104d66104d1366004614bb8565b610c6e565b005b3480156104e457600080fd5b506103f1610eb6565b3480156104f957600080fd5b50610489610eda565b34801561050e57600080fd5b506104d661051d366004614b7c565b610ee0565b34801561052e57600080fd5b5061054261053d366004614b7c565b61105f565b6040516103fe929190614dc2565b34801561055c57600080fd5b5061048961056b366004614981565b611084565b34801561057c57600080fd5b506104d661058b366004614b94565b61110a565b34801561059c57600080fd5b506103f1611288565b3480156105b157600080fd5b506104d66105c0366004614981565b6112ac565b3480156105d157600080fd5b506104d66105e0366004614a15565b61161f565b3480156105f157600080fd5b50610427610600366004614981565b6117a7565b34801561061157600080fd5b50610489610620366004614aad565b61193f565b34801561063157600080fd5b506103f1611bb5565b34801561064657600080fd5b506104d6610655366004614981565b611bd9565b34801561066657600080fd5b50610489611f3d565b34801561067b57600080fd5b506104d6611f42565b34801561069057600080fd5b5061042761069f366004614981565b611f6f565b3480156106b057600080fd5b506104d66106bf366004614981565b611f8c565b3480156106d057600080fd5b506103f16121e1565b3480156106e557600080fd5b506103f1612205565b3480156106fa57600080fd5b506103f161220b565b34801561070f57600080fd5b5061048961071e366004614b7c565b612211565b34801561072f57600080fd5b506104d661073e366004614b94565b61222c565b34801561074f57600080fd5b5061048961075e366004614b7c565b612552565b34801561076f57600080fd5b506103f161077e366004614b7c565b61256d565b34801561078f57600080fd5b5061048961079e366004614981565b61257f565b3480156107af57600080fd5b506103f161259a565b3480156107c457600080fd5b506103f16107d3366004614b7c565b6125be565b3480156107e457600080fd5b506103f16125d0565b3480156107f957600080fd5b506104896125f4565b34801561080e57600080fd5b506104d661081d3660046149dd565b6125fc565b34801561082e57600080fd5b506104d661083d366004614b7c565b612914565b34801561084e57600080fd5b5061086261085d366004614ad8565b612b32565b6040516103fe9190614e53565b34801561087b57600080fd5b506104d661088a366004614b7c565b612d07565b34801561089b57600080fd5b50610489612ecd565b3480156108b057600080fd5b506108b9612ed4565b6040516103fe9190614e66565b3480156108d257600080fd5b506104d66108e1366004614981565b612edd565b6104d66108f4366004614a65565b6130e1565b34801561090557600080fd5b50610489610914366004614981565b613457565b34801561092557600080fd5b506103f1613487565b34801561093a57600080fd5b506104d661094936600461499d565b6134ab565b34801561095a57600080fd5b506104d6610969366004614c00565b613776565b34801561097a57600080fd5b50610489610989366004614981565b6138c0565b34801561099a57600080fd5b506104d66109a9366004614a65565b613911565b3480156109ba57600080fd5b506104896109c9366004614b7c565b613a9c565b3480156109da57600080fd5b50610489613ac2565b3480156109ef57600080fd5b506104276109fe366004614981565b613aca565b348015610a0f57600080fd5b50610489613af7565b348015610a2457600080fd5b506103f1610a333660046149dd565b613afd565b348015610a4457600080fd5b506104d6610a53366004614981565b613bac565b348015610a6457600080fd5b50610427610a73366004614bde565b613dfe565b348015610a8457600080fd5b50610427610a93366004614981565b613e47565b348015610aa457600080fd5b506103f1610ab3366004614a65565b613e65565b348015610ac457600080fd5b50610489610ad3366004614b7c565b614132565b348015610ae457600080fd5b50610af8610af3366004614981565b61414d565b6040516103fe929190614e45565b60016020526000908152604090205481565b6001600160a01b0382166000908152600e602052604081205415801590610bde57506001600160a01b0383166000908152600e60205260409081902060010154905162fa192f60e31b815273__FlagHelper____________________________916307d0c97891610b8e91908690600401615544565b60206040518083038186803b158015610ba657600080fd5b505af4158015610bba573d6000803e3d6000fd5b505050506040513d601f19601f82011682018060405250810190610bde9190614b5c565b90505b92915050565b6001600160a01b03811660009081526006602052604090205460ff165b919050565b60005460ff1681565b600060036001018281548110610c3857634e487b7160e01b600052603260045260246000fd5b6000918252602090912001546001600160a01b031692915050565b6000908152600d60205260409020546001600160a01b031690565b3060046000826001600160a01b031663c19d93fb6040518163ffffffff1660e01b815260040160206040518083038186803b158015610cac57600080fd5b505afa158015610cc0573d6000803e3d6000fd5b505050506040513d601f19601f82011682018060405250810190610ce49190614c21565b6001811115610d0357634e487b7160e01b600052602160045260246000fd5b1480610d885750604051630d53ab8360e01b81526001600160a01b03831690630d53ab8390610d389033908590600401614df5565b60206040518083038186803b158015610d5057600080fd5b505afa158015610d64573d6000803e3d6000fd5b505050506040513d601f19601f82011682018060405250810190610d889190614b5c565b610da45760405162461bcd60e51b81526004016103c390614fb9565b84610dc15760405162461bcd60e51b81526004016103c39061546a565b6001600160a01b038416610de75760405162461bcd60e51b81526004016103c3906154d8565b6000858152600d60205260409020546001600160a01b031615610e1c5760405162461bcd60e51b81526004016103c390614e80565b6000858152600d6020908152604080832080547fffffffffffffffffffffffff0000000000000000000000000000000000000000166001600160a01b0389169081179091558352600e90915290819020868155600101849055517fbc26dad550c12a27c05821a0d30ad7aa6d360a53b05f8a6f4b767d714d401b3390610ea790879087908790614e26565b60405180910390a15050505050565b7f0e49311626a26ba5be58a3b13d239908e80ce0dffdd5c50bf1d9c82ff35d1ab381565b61babe81565b30600b6000826001600160a01b031663c19d93fb6040518163ffffffff1660e01b815260040160206040518083038186803b158015610f1e57600080fd5b505afa158015610f32573d6000803e3d6000fd5b505050506040513d601f19601f82011682018060405250810190610f569190614c21565b6001811115610f7557634e487b7160e01b600052602160045260246000fd5b1480610ffa5750604051630d53ab8360e01b81526001600160a01b03831690630d53ab8390610faa9033908590600401614df5565b60206040518083038186803b158015610fc257600080fd5b505afa158015610fd6573d6000803e3d6000fd5b505050506040513d601f19601f82011682018060405250810190610ffa9190614b5c565b6110165760405162461bcd60e51b81526004016103c390614fb9565b6000611023846002614166565b90506000816001015490507fc18309f39ddacb9549656448966168cc2c7a000d42589e9bb8b458536d2fa3578582604051610ea7929190614e45565b600c60205260009081526040902080546001909101546001600160a01b039091169082565b6001600160a01b0381166000908152600a602052604081205463ffffffff16806110ae5782611103565b6001600160a01b0383166000908152600960205260408120906110d2600184615602565b63ffffffff1681526020810191909152604001600020546c0100000000000000000000000090046001600160a01b03165b9392505050565b3060126000826001600160a01b031663c19d93fb6040518163ffffffff1660e01b815260040160206040518083038186803b15801561114857600080fd5b505afa15801561115c573d6000803e3d6000fd5b505050506040513d601f19601f820116820180604052508101906111809190614c21565b600181111561119f57634e487b7160e01b600052602160045260246000fd5b14806112245750604051630d53ab8360e01b81526001600160a01b03831690630d53ab83906111d49033908590600401614df5565b60206040518083038186803b1580156111ec57600080fd5b505afa158015611200573d6000803e3d6000fd5b505050506040513d601f19601f820116820180604052508101906112249190614b5c565b6112405760405162461bcd60e51b81526004016103c390614fb9565b505060009182526010602052604090912080547fffffffffffffffffffffffff0000000000000000000000000000000000000000166001600160a01b03909216919091179055565b7f54527537e04b80d3b3bd9dfa43834f03d4b745f8411ca72260a3c7e02ea7fa3f81565b3060076000826001600160a01b031663c19d93fb6040518163ffffffff1660e01b815260040160206040518083038186803b1580156112ea57600080fd5b505afa1580156112fe573d6000803e3d6000fd5b505050506040513d601f19601f820116820180604052508101906113229190614c21565b600181111561134157634e487b7160e01b600052602160045260246000fd5b14806113c65750604051630d53ab8360e01b81526001600160a01b03831690630d53ab83906113769033908590600401614df5565b60206040518083038186803b15801561138e57600080fd5b505afa1580156113a2573d6000803e3d6000fd5b505050506040513d601f19601f820116820180604052508101906113c69190614b5c565b6113e25760405162461bcd60e51b81526004016103c390614fb9565b6001600160a01b0383166000908152600160205260408082208054915162fa192f60e31b8152909273__FlagHelper____________________________916307d0c9789161143591859190600401615544565b60206040518083038186803b15801561144d57600080fd5b505af4158015611461573d6000803e3d6000fd5b505050506040513d601f19601f820116820180604052508101906114859190614b5c565b6114a15760405162461bcd60e51b81526004016103c3906154a1565b60405162fa192f60e31b815273__FlagHelper____________________________906307d0c978906114da908490600390600401615544565b60206040518083038186803b1580156114f257600080fd5b505af4158015611506573d6000803e3d6000fd5b505050506040513d601f19601f8201168201806040525081019061152a9190614b5c565b15611618576040517f6ce79e9700000000000000000000000000000000000000000000000000000000815273__FlagHelper____________________________90636ce79e9790611585908490600390600090600401615558565b60206040518083038186803b15801561159d57600080fd5b505af41580156115b1573d6000803e3d6000fd5b505050506040513d601f19601f820116820180604052508101906115d59190614d01565b82556115e9856115e4816138c0565b6143b2565b7fcfceb094d9f542fa90d6c410bc762eeb53beaf4c83d87ebb54bb929737b81b9385604051610ea79190614d8a565b5050505050565b3060116000826001600160a01b031663c19d93fb6040518163ffffffff1660e01b815260040160206040518083038186803b15801561165d57600080fd5b505afa158015611671573d6000803e3d6000fd5b505050506040513d601f19601f820116820180604052508101906116959190614c21565b60018111156116b457634e487b7160e01b600052602160045260246000fd5b14806117395750604051630d53ab8360e01b81526001600160a01b03831690630d53ab83906116e99033908590600401614df5565b60206040518083038186803b15801561170157600080fd5b505afa158015611715573d6000803e3d6000fd5b505050506040513d601f19601f820116820180604052508101906117399190614b5c565b6117555760405162461bcd60e51b81526004016103c390614fb9565b6000836117628887613afd565b61176c91906155eb565b905060008461177b8888613afd565b611785919061557c565b90506117928887846143dc565b61179d8787836143dc565b5050505050505050565b6001600160a01b03808216600090815260026020908152604080832054909316808352600190915282822054925162fa192f60e31b81529192909173__FlagHelper____________________________906307d0c9789061180e9084908790600401615544565b60206040518083038186803b15801561182657600080fd5b505af415801561183a573d6000803e3d6000fd5b505050506040513d601f19601f8201168201806040525081019061185e9190614b5c565b80156118f0575060405162fa192f60e31b815273__FlagHelper____________________________906307d0c9789061189e908490600390600401615544565b60206040518083038186803b1580156118b657600080fd5b505af41580156118ca573d6000803e3d6000fd5b505050506040513d601f19601f820116820180604052508101906118ee9190614b5c565b155b80156119375750600061190683620ff1ce613afd565b118061191f5750600061191d8363b105f00d613afd565b115b80611937575060006119358363baaaaaad613afd565b115b949350505050565b60004382106119605760405162461bcd60e51b81526004016103c390615186565b6001600160a01b0383166000908152600a602052604090205463ffffffff168061198d5783915050610be1565b6001600160a01b038416600090815260096020526040812084916119b2600185615602565b63ffffffff1681526020810191909152604001600020546bffffffffffffffffffffffff1611611a39576001600160a01b038416600090815260096020526040812090611a00600184615602565b63ffffffff1681526020810191909152604001600020546c0100000000000000000000000090046001600160a01b03169150610be19050565b6001600160a01b03841660009081526009602090815260408083208380529091529020546bffffffffffffffffffffffff16831015611a7b5783915050610be1565b600080611a89600184615602565b90505b8163ffffffff168163ffffffff161115611b6e5760006002611aae8484615602565b611ab891906155bc565b611ac29083615602565b6001600160a01b03808916600090815260096020908152604080832063ffffffff861684528252918290208251808401909352546bffffffffffffffffffffffff81168084526c0100000000000000000000000090910490931690820152919250871415611b3a57602001519450610be19350505050565b80516bffffffffffffffffffffffff16871115611b5957819350611b67565b611b64600183615602565b92505b5050611a8c565b506001600160a01b03948516600090815260096020908152604080832063ffffffff94909416835292905220546c0100000000000000000000000090049093169392505050565b7fb5d1b10526b91c1951e75295138b32c80917c8ba0b96f19926ef2008a82b651181565b3060066000826001600160a01b031663c19d93fb6040518163ffffffff1660e01b815260040160206040518083038186803b158015611c1757600080fd5b505afa158015611c2b573d6000803e3d6000fd5b505050506040513d601f19601f82011682018060405250810190611c4f9190614c21565b6001811115611c6e57634e487b7160e01b600052602160045260246000fd5b1480611cf35750604051630d53ab8360e01b81526001600160a01b03831690630d53ab8390611ca39033908590600401614df5565b60206040518083038186803b158015611cbb57600080fd5b505afa158015611ccf573d6000803e3d6000fd5b505050506040513d601f19601f82011682018060405250810190611cf39190614b5c565b611d0f5760405162461bcd60e51b81526004016103c390614fb9565b6001600160a01b0383166000908152600160205260408082208054915162fa192f60e31b8152909273__FlagHelper____________________________916307d0c97891611d6291859190600401615544565b60206040518083038186803b158015611d7a57600080fd5b505af4158015611d8e573d6000803e3d6000fd5b505050506040513d601f19601f82011682018060405250810190611db29190614b5c565b611dce5760405162461bcd60e51b81526004016103c3906154a1565b60405162fa192f60e31b815273__FlagHelper____________________________906307d0c97890611e07908490600390600401615544565b60206040518083038186803b158015611e1f57600080fd5b505af4158015611e33573d6000803e3d6000fd5b505050506040513d601f19601f82011682018060405250810190611e579190614b5c565b611618576040517f6ce79e9700000000000000000000000000000000000000000000000000000000815273__FlagHelper____________________________90636ce79e9790611eb1908490600390600190600401615558565b60206040518083038186803b158015611ec957600080fd5b505af4158015611edd573d6000803e3d6000fd5b505050506040513d601f19601f82011682018060405250810190611f019190614d01565b8255611f0e8560016143b2565b7f7707cc703130eaf531ace85862a435d9155f1b2f1a1d5fe46f5d3181c1d6235585604051610ea79190614d8a565b600081565b600b80547fffffffffffffffffffffffffffffffffffffffffffffffffffffffffffffff00166001179055565b6001600160a01b03166000908152600e6020526040902054151590565b30600d6000826001600160a01b031663c19d93fb6040518163ffffffff1660e01b815260040160206040518083038186803b158015611fca57600080fd5b505afa158015611fde573d6000803e3d6000fd5b505050506040513d601f19601f820116820180604052508101906120029190614c21565b600181111561202157634e487b7160e01b600052602160045260246000fd5b14806120a65750604051630d53ab8360e01b81526001600160a01b03831690630d53ab83906120569033908590600401614df5565b60206040518083038186803b15801561206e57600080fd5b505afa158015612082573d6000803e3d6000fd5b505050506040513d601f19601f820116820180604052508101906120a69190614b5c565b6120c25760405162461bcd60e51b81526004016103c390614fb9565b6120cb83613aca565b6120e75760405162461bcd60e51b81526004016103c390614eb7565b6001600160a01b03831660009081526006602052604090205460ff16156121205760405162461bcd60e51b81526004016103c3906151e3565b6001600160a01b03831660009081526005602052604090205460ff166121dc576001600160a01b038316600081815260056020526040812080547fffffffffffffffffffffffffffffffffffffffffffffffffffffffffffffff001660019081179091556003805491820181559091527fc2575a0e9e593c00f959f8c92f12db2869c3395a3b0502d05e2516446f71f85b0180547fffffffffffffffffffffffff00000000000000000000000000000000000000001690911790555b505050565b7f68c24fc24acf5b51ccf67c01fea706e9e0e110825d4f88d07623f64f32f55d8981565b60045490565b60035490565b600d602052600090815260409020546001600160a01b031681565b30600a6000826001600160a01b031663c19d93fb6040518163ffffffff1660e01b815260040160206040518083038186803b15801561226a57600080fd5b505afa15801561227e573d6000803e3d6000fd5b505050506040513d601f19601f820116820180604052508101906122a29190614c21565b60018111156122c157634e487b7160e01b600052602160045260246000fd5b14806123465750604051630d53ab8360e01b81526001600160a01b03831690630d53ab83906122f69033908590600401614df5565b60206040518083038186803b15801561230e57600080fd5b505afa158015612322573d6000803e3d6000fd5b505050506040513d601f19601f820116820180604052508101906123469190614b5c565b6123625760405162461bcd60e51b81526004016103c390614fb9565b600061236f856001614166565b60018101548154919250906001600160a01b031633146123a15760405162461bcd60e51b81526004016103c39061539f565b60405162fa192f60e31b815273__FlagHelper____________________________906307d0c978906123da908490600090600401615544565b60206040518083038186803b1580156123f257600080fd5b505af4158015612406573d6000803e3d6000fd5b505050506040513d601f19601f8201168201806040525081019061242a9190614b5c565b6124465760405162461bcd60e51b81526004016103c3906150e1565b60405162fa192f60e31b815273__FlagHelper____________________________906307d0c9789061247f908490600290600401615544565b60206040518083038186803b15801561249757600080fd5b505af41580156124ab573d6000803e3d6000fd5b505050506040513d601f19601f820116820180604052508101906124cf9190614b5c565b156124ec5760405162461bcd60e51b81526004016103c390615433565b6124f5856117a7565b6125115760405162461bcd60e51b81526004016103c390615277565b7f1eb4aad316f1991a2480976a3a00f1925d281500232e10b01cc6c7dc063cb6128682604051612542929190614e45565b60405180910390a1505050505050565b6010602052600090815260409020546001600160a01b031681565b6000908152600f602052604090205490565b6002602052600090815260409020546001600160a01b031681565b7f33c50675c08bf6495444473b20b4c359e484c6bf5c6999f6256e86bf7bb08b2b81565b600f6020526000908152604090205481565b7f903b70ab7c13e94d5db58ae5205461e75e7c006ddff7cb26a3d9c1b246a62a5f81565b63baaaaaad81565b30600c6000826001600160a01b031663c19d93fb6040518163ffffffff1660e01b815260040160206040518083038186803b15801561263a57600080fd5b505afa15801561264e573d6000803e3d6000fd5b505050506040513d601f19601f820116820180604052508101906126729190614c21565b600181111561269157634e487b7160e01b600052602160045260246000fd5b14806127165750604051630d53ab8360e01b81526001600160a01b03831690630d53ab83906126c69033908590600401614df5565b60206040518083038186803b1580156126de57600080fd5b505afa1580156126f2573d6000803e3d6000fd5b505050506040513d601f19601f820116820180604052508101906127169190614b5c565b6127325760405162461bcd60e51b81526004016103c390614fb9565b6001600160a01b0383166127585760405162461bcd60e51b81526004016103c390615368565b836001600160a01b0316836001600160a01b0316146127a9576001600160a01b0383811660009081526002602052604090205416156127a95760405162461bcd60e51b81526004016103c39061530b565b6001600160a01b0384166000908152600160205260408082208054915162fa192f60e31b8152909273__FlagHelper____________________________926307d0c978926127fa9290600401615544565b60206040518083038186803b15801561281257600080fd5b505af4158015612826573d6000803e3d6000fd5b505050506040513d601f19601f8201168201806040525081019061284a9190614b5c565b6128665760405162461bcd60e51b81526004016103c3906154a1565b60006002600061287588611084565b6001600160a01b0390811682526020808301939093526040918201600090812080549583167fffffffffffffffffffffffff00000000000000000000000000000000000000009687161790558882168152600290935291208054918816919092161790556128e385856143b2565b7fde7b64a369e10562cc2e71f0f1f944eaf144b75fead6ecb51fac9c4dd69348858585604051610ea7929190614ddb565b3060056000826001600160a01b031663c19d93fb6040518163ffffffff1660e01b815260040160206040518083038186803b15801561295257600080fd5b505afa158015612966573d6000803e3d6000fd5b505050506040513d601f19601f8201168201806040525081019061298a9190614c21565b60018111156129a957634e487b7160e01b600052602160045260246000fd5b1480612a2e5750604051630d53ab8360e01b81526001600160a01b03831690630d53ab83906129de9033908590600401614df5565b60206040518083038186803b1580156129f657600080fd5b505afa158015612a0a573d6000803e3d6000fd5b505050506040513d601f19601f82011682018060405250810190612a2e9190614b5c565b612a4a5760405162461bcd60e51b81526004016103c390614fb9565b82612a675760405162461bcd60e51b81526004016103c39061546a565b6000838152600d60205260409020546001600160a01b0316612a9b5760405162461bcd60e51b81526004016103c390614f82565b6000838152600d6020818152604080842080546001600160a01b03168552600e83528185208581556001018590559387905291905281547fffffffffffffffffffffffff000000000000000000000000000000000000000016909155517f93ecc5e9aa51bb2adb2cf429a5108116cf98c4f717f0912d1be98e137ba6ef6090612b25908590614e1d565b60405180910390a1505050565b60603060086000826001600160a01b031663c19d93fb6040518163ffffffff1660e01b815260040160206040518083038186803b158015612b7257600080fd5b505afa158015612b86573d6000803e3d6000fd5b505050506040513d601f19601f82011682018060405250810190612baa9190614c21565b6001811115612bc957634e487b7160e01b600052602160045260246000fd5b1480612c4e5750604051630d53ab8360e01b81526001600160a01b03831690630d53ab8390612bfe9033908590600401614df5565b60206040518083038186803b158015612c1657600080fd5b505afa158015612c2a573d6000803e3d6000fd5b505050506040513d601f19601f82011682018060405250810190612c4e9190614b5c565b612c6a5760405162461bcd60e51b81526004016103c390614fb9565b600080886001600160a01b0316888888604051612c88929190614d77565b60006040518083038185875af1925050503d8060008114612cc5576040519150601f19603f3d011682016040523d82523d6000602084013e612cca565b606091505b509150915081612cfb576000612cdf82614455565b90508060405162461bcd60e51b81526004016103c39190614e53565b98975050505050505050565b3060096000826001600160a01b031663c19d93fb6040518163ffffffff1660e01b815260040160206040518083038186803b158015612d4557600080fd5b505afa158015612d59573d6000803e3d6000fd5b505050506040513d601f19601f82011682018060405250810190612d7d9190614c21565b6001811115612d9c57634e487b7160e01b600052602160045260246000fd5b1480612e215750604051630d53ab8360e01b81526001600160a01b03831690630d53ab8390612dd19033908590600401614df5565b60206040518083038186803b158015612de957600080fd5b505afa158015612dfd573d6000803e3d6000fd5b505050506040513d601f19601f82011682018060405250810190612e219190614b5c565b612e3d5760405162461bcd60e51b81526004016103c390614fb9565b604080518082018252338152600160208083018281526000888152600c90925290849020925183547fffffffffffffffffffffffff0000000000000000000000000000000000000000166001600160a01b03909116178355519181019190915590517f95a5e1e5dc3b7008a93a805f8c117e29f1427fe66a969a9ced6ec1e5448f6d0e91612b2591869190614e45565b620ff1ce81565b600b5460ff1681565b60005460ff1615612f005760405162461bcd60e51b81526004016103c39061514f565b6001600160a01b0381166000908152600160208190526040808320805491517f6ce79e970000000000000000000000000000000000000000000000000000000081528594919373__FlagHelper____________________________93636ce79e9793612f729391929091600401615558565b60206040518083038186803b158015612f8a57600080fd5b505af4158015612f9e573d6000803e3d6000fd5b505050506040513d601f19601f82011682018060405250810190612fc29190614d01565b81556001600160a01b0382166000818152600260209081526040822080547fffffffffffffffffffffffff00000000000000000000000000000000000000009081169094179055600690527f397d2ac1ec418197a4c43fff7a1838f849602082107e21beea5a53ee4556e44480547fffffffffffffffffffffffffffffffffffffffffffffffffffffffffffffff0016600190811790915560048054808301825592527f8a35acfbc15ff81a39ae7d344fd709f28e8600b4aa8c65c6b64bfe7fe36bd19b9091018054620ff1ce9316831790556130a09184916143dc565b6130b161babe620ff1ce60016143dc565b5050600080547fffffffffffffffffffffffffffffffffffffffffffffffffffffffffffffff0016600117905550565b30600f6000826001600160a01b031663c19d93fb6040518163ffffffff1660e01b815260040160206040518083038186803b15801561311f57600080fd5b505afa158015613133573d6000803e3d6000fd5b505050506040513d601f19601f820116820180604052508101906131579190614c21565b600181111561317657634e487b7160e01b600052602160045260246000fd5b14806131fb5750604051630d53ab8360e01b81526001600160a01b03831690630d53ab83906131ab9033908590600401614df5565b60206040518083038186803b1580156131c357600080fd5b505afa1580156131d7573d6000803e3d6000fd5b505050506040513d601f19601f820116820180604052508101906131fb9190614b5c565b6132175760405162461bcd60e51b81526004016103c390614fb9565b6001600160a01b03841660009081526005602052604090205460ff168061325657506001600160a01b03841660009081526006602052604090205460ff165b6132725760405162461bcd60e51b81526004016103c3906152d4565b60008361327f8787613afd565b613289919061557c565b905060008461329a61babe88613afd565b6132a4919061557c565b90506132b18787846143dc565b6132be61babe87836143dc565b6001600160a01b0387166000908152600160205260408082208054915162fa192f60e31b8152909273__FlagHelper____________________________926307d0c9789261330f9290600401615544565b60206040518083038186803b15801561332757600080fd5b505af415801561333b573d6000803e3d6000fd5b505050506040513d601f19601f8201168201806040525081019061335f9190614b5c565b61179d5780546040517f6ce79e9700000000000000000000000000000000000000000000000000000000815273__FlagHelper____________________________91636ce79e97916133ba9190600090600190600401615558565b60206040518083038186803b1580156133d257600080fd5b505af41580156133e6573d6000803e3d6000fd5b505050506040513d601f19601f8201168201806040525081019061340a9190614d01565b81556001600160a01b038816600081815260026020526040902080547fffffffffffffffffffffffff00000000000000000000000000000000000000001690911790555050505050505050565b6001600160a01b0380821660009081526002602052604081205490911680156134805780611103565b5090919050565b7f4722c0c42f5a72a0f6d23d275ea955749ebe30a53b8e8fcf3a65906f339afc0e81565b3060136000826001600160a01b031663c19d93fb6040518163ffffffff1660e01b815260040160206040518083038186803b1580156134e957600080fd5b505afa1580156134fd573d6000803e3d6000fd5b505050506040513d601f19601f820116820180604052508101906135219190614c21565b600181111561354057634e487b7160e01b600052602160045260246000fd5b14806135c55750604051630d53ab8360e01b81526001600160a01b03831690630d53ab83906135759033908590600401614df5565b60206040518083038186803b15801561358d57600080fd5b505afa1580156135a1573d6000803e3d6000fd5b505050506040513d601f19601f820116820180604052508101906135c59190614b5c565b6135e15760405162461bcd60e51b81526004016103c390614fb9565b826135ec8686613afd565b101561360a5760405162461bcd60e51b81526004016103c390614eee565b613615858585613911565b6001600160a01b0384166136a5576000856001600160a01b03168460405161363c90614d87565b60006040518083038185875af1925050503d8060008114613679576040519150601f19603f3d011682016040523d82523d6000602084013e61367e565b606091505b505090508061369f5760405162461bcd60e51b81526004016103c39061550d565b50613743565b6040517fa9059cbb00000000000000000000000000000000000000000000000000000000815284906001600160a01b0382169063a9059cbb906136ee9089908890600401614dc2565b602060405180830381600087803b15801561370857600080fd5b505af115801561371c573d6000803e3d6000fd5b505050506040513d601f19601f820116820180604052508101906137409190614b5c565b50505b7f9b1bfa7fa9ee420a16e124f794c35ac9f90472acc99140eb2f6447c714cad8eb858585604051610ea793929190614d9e565b3060126000826001600160a01b031663c19d93fb6040518163ffffffff1660e01b815260040160206040518083038186803b1580156137b457600080fd5b505afa1580156137c8573d6000803e3d6000fd5b505050506040513d601f19601f820116820180604052508101906137ec9190614c21565b600181111561380b57634e487b7160e01b600052602160045260246000fd5b14806138905750604051630d53ab8360e01b81526001600160a01b03831690630d53ab83906138409033908590600401614df5565b60206040518083038186803b15801561385857600080fd5b505afa15801561386c573d6000803e3d6000fd5b505050506040513d601f19601f820116820180604052508101906138909190614b5c565b6138ac5760405162461bcd60e51b81526004016103c390614fb9565b50506000918252600f602052604090912055565b6001600160a01b0381166000908152600a602052604081205463ffffffff16600181116138ed5782611103565b6001600160a01b0383166000908152600960205260408120906110d2600284615602565b3060106000826001600160a01b031663c19d93fb6040518163ffffffff1660e01b815260040160206040518083038186803b15801561394f57600080fd5b505afa158015613963573d6000803e3d6000fd5b505050506040513d601f19601f820116820180604052508101906139879190614c21565b60018111156139a657634e487b7160e01b600052602160045260246000fd5b1480613a2b5750604051630d53ab8360e01b81526001600160a01b03831690630d53ab83906139db9033908590600401614df5565b60206040518083038186803b1580156139f357600080fd5b505afa158015613a07573d6000803e3d6000fd5b505050506040513d601f19601f82011682018060405250810190613a2b9190614b5c565b613a475760405162461bcd60e51b81526004016103c390614fb9565b600083613a548787613afd565b613a5e91906155eb565b9050600084613a6f61babe88613afd565b613a7991906155eb565b9050613a868787846143dc565b613a9361babe87836143dc565b50505050505050565b600060036000018281548110610c3857634e487b7160e01b600052603260045260246000fd5b63b105f00d81565b60006001600160a01b03821661dead14801590610be157506001600160a01b03821661babe141592915050565b61dead81565b6001600160a01b03808216600090815260086020908152604080832093861683529290529081205463ffffffff1680613b37576000613b9b565b6001600160a01b038084166000908152600760209081526040808320938816835292905290812090613b6a600184615602565b63ffffffff1681526020810191909152604001600020546c0100000000000000000000000090046001600160a01b03165b6001600160a01b0316949350505050565b30600e6000826001600160a01b031663c19d93fb6040518163ffffffff1660e01b815260040160206040518083038186803b158015613bea57600080fd5b505afa158015613bfe573d6000803e3d6000fd5b505050506040513d601f19601f82011682018060405250810190613c229190614c21565b6001811115613c4157634e487b7160e01b600052602160045260246000fd5b1480613cc65750604051630d53ab8360e01b81526001600160a01b03831690630d53ab8390613c769033908590600401614df5565b60206040518083038186803b158015613c8e57600080fd5b505afa158015613ca2573d6000803e3d6000fd5b505050506040513d601f19601f82011682018060405250810190613cc69190614b5c565b613ce25760405162461bcd60e51b81526004016103c390614fb9565b613ceb83613aca565b613d075760405162461bcd60e51b81526004016103c390614eb7565b6001600160a01b03831660009081526005602052604090205460ff1615613d405760405162461bcd60e51b81526004016103c3906151e3565b6001600160a01b03831660009081526006602052604090205460ff166121dc5750506001600160a01b0316600081815260066020526040812080547fffffffffffffffffffffffffffffffffffffffffffffffffffffffffffffff001660019081179091556004805491820181559091527f8a35acfbc15ff81a39ae7d344fd709f28e8600b4aa8c65c6b64bfe7fe36bd19b0180547fffffffffffffffffffffffff0000000000000000000000000000000000000000169091179055565b6000828152600c602052604080822060010154905162fa192f60e31b815273__FlagHelper____________________________916307d0c97891610b8e91908690600401615544565b6001600160a01b031660009081526005602052604090205460ff1690565b6000438210613e865760405162461bcd60e51b81526004016103c390614ff0565b6001600160a01b0380841660009081526008602090815260408083209388168352929052205463ffffffff1680613ec1576000915050611103565b6001600160a01b03808516600090815260076020908152604080832093891683529290529081208491613ef5600185615602565b63ffffffff1681526020810191909152604001600020546bffffffffffffffffffffffff1611613f8b576001600160a01b038085166000908152600760209081526040808320938916835292905290812090613f52600184615602565b63ffffffff1681526020810191909152604001600020546c0100000000000000000000000090046001600160a01b031691506111039050565b6001600160a01b0380851660009081526007602090815260408083209389168352928152828220828052905220546bffffffffffffffffffffffff16831015613fd8576000915050611103565b600080613fe6600184615602565b90505b8163ffffffff168163ffffffff1611156140de576000600261400b8484615602565b61401591906155bc565b61401f9083615602565b6001600160a01b0380891660009081526007602090815260408083208d85168452825280832063ffffffff861684528252918290208251808401909352546bffffffffffffffffffffffff81168084526c01000000000000000000000000909104909316908201529192508714156140aa57602001516001600160a01b031694506111039350505050565b80516bffffffffffffffffffffffff168711156140c9578193506140d7565b6140d4600183615602565b92505b5050613fe9565b506001600160a01b0380861660009081526007602090815260408083208a85168452825280832063ffffffff909516835293905291909120546c010000000000000000000000009004169150509392505050565b6000908152601060205260409020546001600160a01b031690565b600e602052600090815260409020805460019091015482565b6000828152600c6020526040812080546001600160a01b0316331461419d5760405162461bcd60e51b81526004016103c390614f25565b600181015460405162fa192f60e31b815273__FlagHelper____________________________906307d0c978906141db908490600090600401615544565b60206040518083038186803b1580156141f357600080fd5b505af4158015614207573d6000803e3d6000fd5b505050506040513d601f19601f8201168201806040525081019061422b9190614b5c565b6142475760405162461bcd60e51b81526004016103c39061521a565b60405162fa192f60e31b815273__FlagHelper____________________________906307d0c97890614280908490600290600401615544565b60206040518083038186803b15801561429857600080fd5b505af41580156142ac573d6000803e3d6000fd5b505050506040513d601f19601f820116820180604052508101906142d09190614b5c565b156142ed5760405162461bcd60e51b81526004016103c390615118565b6040517f6ce79e9700000000000000000000000000000000000000000000000000000000815273__FlagHelper____________________________90636ce79e97906143429084908890600190600401615558565b60206040518083038186803b15801561435a57600080fd5b505af415801561436e573d6000803e3d6000fd5b505050506040513d601f19601f820116820180604052508101906143929190614d01565b6000868152600c6020526040902060018101919091559250505092915050565b6001600160a01b0382166000908152600a602052604090205463ffffffff166121dc8382846144cb565b6001600160a01b0380831660009081526008602090815260408083209387168352929052205463ffffffff1661441484848385614694565b7f9a0e11dc44c1b4a935a0a0fdff3524e69ef0e6e481bb9b585c8f67046cb92e4e84848460405161444793929190614d9e565b60405180910390a150505050565b606060448251101561449b575060408051808201909152601d81527f5472616e73616374696f6e2072657665727465642073696c656e746c790000006020820152610c04565b60006144b58360048086516144b091906155eb565b6148ba565b9050808060200190518101906111039190614c40565b60008263ffffffff1611801561452857506001600160a01b03831660009081526009602052604081204391614501600186615602565b63ffffffff1681526020810191909152604001600020546bffffffffffffffffffffffff16145b156145a0576001600160a01b03831660009081526009602052604081208291614552600186615602565b63ffffffff168152602081019190915260400160002080546001600160a01b03929092166c01000000000000000000000000026bffffffffffffffffffffffff9092169190911790556121dc565b6040805180820182526bffffffffffffffffffffffff43811682526001600160a01b03808516602080850191825288831660009081526009825286812063ffffffff8a168252909152949094209251835494519091166c01000000000000000000000000029082167fffffffffffffffffffffffffffffffffffffffff0000000000000000000000009094169390931716919091179055614642826001615594565b6001600160a01b0384166000908152600a60205260409020805463ffffffff929092167fffffffffffffffffffffffffffffffffffffffffffffffffffffffff00000000909216919091179055505050565b6001600160a01b0381106146ba5760405162461bcd60e51b81526004016103c3906153fc565b8063ffffffff83161580159061472657506001600160a01b038085166000908152600760209081526040808320938916835292905290812043916146ff600187615602565b63ffffffff1681526020810191909152604001600020546bffffffffffffffffffffffff16145b156147ad576001600160a01b0380851660009081526007602090815260408083209389168352929052908120829161475f600187615602565b63ffffffff168152602081019190915260400160002080546001600160a01b03929092166c01000000000000000000000000026bffffffffffffffffffffffff909216919091179055611618565b6040805180820182526bffffffffffffffffffffffff43811682526001600160a01b0380851660208085019182528983166000908152600782528681208c85168252825286812063ffffffff8b168252909152949094209251835494519091166c01000000000000000000000000029082167fffffffffffffffffffffffffffffffffffffffff0000000000000000000000009094169390931716919091179055614859836001615594565b6001600160a01b038086166000908152600860209081526040808320938a16835292905220805463ffffffff929092167fffffffffffffffffffffffffffffffffffffffffffffffffffffffff000000009092169190911790555050505050565b60606148c6828461557c565b845110156148e65760405162461bcd60e51b81526004016103c3906150aa565b60608215801561490157604051915060208201604052614969565b6040519150601f8416801560200281840101858101878315602002848b0101015b8183101561493a578051835260209283019201614922565b5050858452601f017fffffffffffffffffffffffffffffffffffffffffffffffffffffffffffffffe016604052505b50949350505050565b803560148110610c0457600080fd5b600060208284031215614992578081fd5b813561110381615699565b6000806000606084860312156149b1578182fd5b83356149bc81615699565b925060208401356149cc81615699565b929592945050506040919091013590565b600080604083850312156149ef578182fd5b82356149fa81615699565b91506020830135614a0a81615699565b809150509250929050565b60008060008060808587031215614a2a578081fd5b8435614a3581615699565b93506020850135614a4581615699565b92506040850135614a5581615699565b9396929550929360600135925050565b6000806000606084860312156149b1578283fd5b60008060408385031215614a8b578182fd5b8235614a9681615699565b9150614aa460208401614972565b90509250929050565b60008060408385031215614abf578182fd5b8235614aca81615699565b946020939093013593505050565b60008060008060608587031215614aed578384fd5b8435614af881615699565b935060208501359250604085013567ffffffffffffffff80821115614b1b578384fd5b818701915087601f830112614b2e578384fd5b813581811115614b3c578485fd5b886020828501011115614b4d578485fd5b95989497505060200194505050565b600060208284031215614b6d578081fd5b81518015158114611103578182fd5b600060208284031215614b8d578081fd5b5035919050565b60008060408385031215614ba6578182fd5b823591506020830135614a0a81615699565b600080600060608486031215614bcc578283fd5b8335925060208401356149cc81615699565b60008060408385031215614bf0578182fd5b82359150614aa460208401614972565b60008060408385031215614c12578182fd5b50508035926020909101359150565b600060208284031215614c32578081fd5b815160028110611103578182fd5b600060208284031215614c51578081fd5b815167ffffffffffffffff80821115614c68578283fd5b818401915084601f830112614c7b578283fd5b815181811115614c8d57614c8d615683565b60405160207fffffffffffffffffffffffffffffffffffffffffffffffffffffffffffffffe0601f8401168201018181108482111715614ccf57614ccf615683565b604052818152838201602001871015614ce6578485fd5b614cf7826020830160208701615627565b9695505050505050565b600060208284031215614d12578081fd5b5051919050565b60008151808452614d31816020860160208601615627565b601f017fffffffffffffffffffffffffffffffffffffffffffffffffffffffffffffffe0169290920160200192915050565b60148110614d7357614d7361566d565b9052565b6000828483379101908152919050565b90565b6001600160a01b0391909116815260200190565b6001600160a01b039384168152919092166020820152604081019190915260600190565b6001600160a01b03929092168252602082015260400190565b6001600160a01b0392831681529116602082015260400190565b6001600160a01b0383168152604081016111036020830184614d63565b901515815260200190565b90815260200190565b9283526001600160a01b03919091166020830152604082015260600190565b918252602082015260400190565b600060208252610bde6020830184614d19565b6020810160028310614e7a57614e7a61566d565b91905290565b60208082526018908201527f61646170746572496420616c726561647920696e207573650000000000000000604082015260600190565b6020808252600d908201527f7265736572766564546f6b656e00000000000000000000000000000000000000604082015260600190565b6020808252601f908201527f64616f3a3a77697468647261773a3a6e6f7420656e6f7567682066756e647300604082015260600190565b6020808252603d908201527f6f6e6c792074686520616461707465722074686174207375626d69747465642060408201527f7468652070726f706f73616c2063616e207365742069747320666c6167000000606082015260800190565b60208082526018908201527f616461707465724964206e6f7420726567697374657265640000000000000000604082015260600190565b60208082526009908201527f6861734163636573730000000000000000000000000000000000000000000000604082015260600190565b60208082526027908201527f556e693a3a6765745072696f72416d6f756e743a206e6f74207965742064657460408201527f65726d696e656400000000000000000000000000000000000000000000000000606082015260800190565b60208082526023908201527f796f752063616e6e6f742073656e64206d6f6e6579206261636b20646972656360408201527f746c790000000000000000000000000000000000000000000000000000000000606082015260800190565b60208082526012908201527f52656164206f7574206f6620626f756e64730000000000000000000000000000604082015260600190565b60208082526017908201527f70726f706f73616c20646f6573206e6f74206578697374000000000000000000604082015260600190565b6020808252601a908201527f70726f706f73616c20616c72656164792070726f636573736564000000000000604082015260600190565b60208082526017908201527f64616f20616c726561647920696e697469616c697a6564000000000000000000604082015260600190565b6020808252602c908201527f556e693a3a6765745072696f7244656c65676174654b65793a206e6f7420796560408201527f742064657465726d696e65640000000000000000000000000000000000000000606082015260800190565b6020808252600d908201527f696e7465726e616c546f6b656e00000000000000000000000000000000000000604082015260600190565b60208082526024908201527f70726f706f73616c20646f6573206e6f7420657869737420666f72207468697360408201527f2064616f00000000000000000000000000000000000000000000000000000000606082015260800190565b60208082526029908201527f6f6e6c7920616374697665206d656d626572732063616e2073706f6e736f722060408201527f70726f706f73616c730000000000000000000000000000000000000000000000606082015260800190565b60208082526015908201527f756e6b6e6f776e20746f6b656e20616464726573730000000000000000000000604082015260600190565b60208082526021908201527f63616e6e6f74206f7665727772697465206578697374696e67206d656d62657260408201527f7300000000000000000000000000000000000000000000000000000000000000606082015260800190565b6020808252601a908201527f6e657744656c65676174654b65792063616e6e6f742062652030000000000000604082015260600190565b6020808252603b908201527f6f6e6c792074686520616461707465722074686174207375626d69747465642060408201527f7468652070726f706f73616c2063616e2070726f636573732069740000000000606082015260800190565b60208082526011908201527f746f6f20626967206f66206120766f7465000000000000000000000000000000604082015260600190565b6020808252601e908201527f70726f706f73616c206d757374206e6f742062652070726f6365737365640000604082015260600190565b6020808252601b908201527f616461707465724964206d757374206e6f7420626520656d7074790000000000604082015260600190565b60208082526015908201527f6d656d62657220646f6573206e6f742065786973740000000000000000000000604082015260600190565b6020808252818101527f6164617074657241646472657373206d757374206e6f7420626520656d707479604082015260600190565b6020808252600f908201527f7769746864726177206661696c65640000000000000000000000000000000000604082015260600190565b828152604081016111036020830184614d63565b8381526060810161556c6020830185614d63565b8215156040830152949350505050565b6000821982111561558f5761558f615657565b500190565b600063ffffffff8083168185168083038211156155b3576155b3615657565b01949350505050565b600063ffffffff808416806155df57634e487b7160e01b83526012600452602483fd5b92169190910492915050565b6000828210156155fd576155fd615657565b500390565b600063ffffffff8381169083168181101561561f5761561f615657565b039392505050565b60005b8381101561564257818101518382015260200161562a565b83811115615651576000848401525b50505050565b634e487b7160e01b600052601160045260246000fd5b634e487b7160e01b600052602160045260246000fd5b634e487b7160e01b600052604160045260246000fd5b6001600160a01b03811681146156ae57600080fd5b5056fea26469706673582212206bd101fb1dde87208e30b15367a1346cbccf98ba2cc4a9fe92ec1e5ddf218e9464736f6c63430008000033",
  "immutableReferences": {},
  "source": "pragma solidity ^0.8.0;\n\n// SPDX-License-Identifier: MIT\n\nimport \"./DaoConstants.sol\";\nimport \"../helpers/FlagHelper.sol\";\nimport \"../guards/AdapterGuard.sol\";\nimport \"../utils/IERC20.sol\";\n\n/**\nMIT License\n\nCopyright (c) 2020 Openlaw\n\nPermission is hereby granted, free of charge, to any person obtaining a copy\nof this software and associated documentation files (the \"Software\"), to deal\nin the Software without restriction, including without limitation the rights\nto use, copy, modify, merge, publish, distribute, sublicense, and/or sell\ncopies of the Software, and to permit persons to whom the Software is\nfurnished to do so, subject to the following conditions:\n\nThe above copyright notice and this permission notice shall be included in all\ncopies or substantial portions of the Software.\n\nTHE SOFTWARE IS PROVIDED \"AS IS\", WITHOUT WARRANTY OF ANY KIND, EXPRESS OR\nIMPLIED, INCLUDING BUT NOT LIMITED TO THE WARRANTIES OF MERCHANTABILITY,\nFITNESS FOR A PARTICULAR PURPOSE AND NONINFRINGEMENT. IN NO EVENT SHALL THE\nAUTHORS OR COPYRIGHT HOLDERS BE LIABLE FOR ANY CLAIM, DAMAGES OR OTHER\nLIABILITY, WHETHER IN AN ACTION OF CONTRACT, TORT OR OTHERWISE, ARISING FROM,\nOUT OF OR IN CONNECTION WITH THE SOFTWARE OR THE USE OR OTHER DEALINGS IN THE\nSOFTWARE.\n */\n\ncontract DaoRegistry is DaoConstants, AdapterGuard {\n    bool public initialized = false; // internally tracks deployment under eip-1167 proxy pattern\n\n    /*\n     * LIBRARIES\n     */\n    using FlagHelper for uint256;\n\n    enum DaoState {CREATION, READY}\n\n    /*\n     * EVENTS\n     */\n    /// @dev - Events for Proposals\n    event SubmittedProposal(bytes32 proposalId, uint256 flags);\n    event SponsoredProposal(bytes32 proposalId, uint256 flags);\n    event ProcessedProposal(bytes32 proposalId, uint256 flags);\n    event AdapterAdded(\n        bytes32 adapterId,\n        address adapterAddress,\n        uint256 flags\n    );\n    event AdapterRemoved(bytes32 adapterId);\n\n    /// @dev - Events for Members\n    event UpdateDelegateKey(address memberAddress, address newDelegateKey);\n\n    /// @dev - Events for Bank\n    event MemberJailed(address memberAddr);\n\n    event MemberUnjailed(address memberAddr);\n\n    event NewBalance(address member, address tokenAddr, uint256 amount);\n\n    event Withdraw(address account, address tokenAddr, uint256 amount);\n\n    /*\n     * STRUCTURES\n     */\n    struct Proposal {\n        // the structure to track all the proposals in the DAO\n        address adapterAddress; // the adapter address that called the functions to change the DAO state\n        uint256 flags; // flags to track the state of the proposal: exist, sponsored, processed, canceled, etc.\n    }\n\n    struct Member {\n        // the structure to track all the members in the DAO\n        uint256 flags; // flags to track the state of the member: exist, jailed, etc\n    }\n\n    struct Checkpoint {\n        // A checkpoint for marking number of votes from a given block\n        uint96 fromBlock;\n        uint160 amount;\n    }\n\n    struct DelegateCheckpoint {\n        // A checkpoint for marking number of votes from a given block\n        uint96 fromBlock;\n        address delegateKey;\n    }\n\n    struct Bank {\n        address[] tokens;\n        address[] internalTokens;\n        // tokenAddress => availability\n        mapping(address => bool) availableTokens;\n        mapping(address => bool) availableInternalTokens;\n        // tokenAddress => memberAddress => checkpointNum => Checkpoint\n        mapping(address => mapping(address => mapping(uint32 => Checkpoint))) checkpoints;\n        // tokenAddress => memberAddress => numCheckpoints\n        mapping(address => mapping(address => uint32)) numCheckpoints;\n    }\n\n    struct AdapterDetails {\n        bytes32 id;\n        uint256 acl;\n    }\n\n    /*\n     * PUBLIC VARIABLES\n     */\n    mapping(address => Member) public members; // the map to track all members of the DAO\n\n    // delegate key => member address mapping\n    mapping(address => address) public memberAddressesByDelegatedKey;\n    Bank private _bank; // the state of the DAO Bank\n\n    // memberAddress => checkpointNum => DelegateCheckpoint\n    mapping(address => mapping(uint32 => DelegateCheckpoint)) checkpoints;\n    // memberAddress => numDelegateCheckpoints\n    mapping(address => uint32) numCheckpoints;\n\n    DaoState public state;\n\n    /// @notice The map that keeps track of all proposasls submitted to the DAO\n    mapping(bytes32 => Proposal) public proposals;\n    /// @notice The map that keeps track of all adapters registered in the DAO\n    mapping(bytes32 => address) public registry;\n    /// @notice The inverse map to get the adapter id based on its address\n    mapping(address => AdapterDetails) public inverseRegistry;\n    /// @notice The map that keeps track of configuration parameters for the DAO and adapters\n    mapping(bytes32 => uint256) public mainConfiguration;\n    mapping(bytes32 => address) public addressConfiguration;\n\n    /// @notice Clonable contract must have an empty constructor\n    // constructor() {\n    // }\n\n    //TODO: we may need to add some ACL to ensure only the factory is allowed to clone it, otherwise\n    //any will able to deploy it, and the first one to call this function is added to the DAO as a member.\n    /**\n     * @notice Initialises the DAO\n     * @dev Involves initialising available tokens, checkpoints, and membership of creator\n     * @dev Can only be called once\n     * @param creator The DAO's creator, who will be the first member\n     */\n    function initialize(address creator) external {\n        require(!initialized, \"dao already initialized\");\n\n        address memberAddr = creator;\n        Member storage member = members[memberAddr];\n        member.flags = member.flags.setFlag(FlagHelper.Flag.EXISTS, true);\n        memberAddressesByDelegatedKey[memberAddr] = memberAddr;\n\n        _bank.availableInternalTokens[SHARES] = true;\n        _bank.internalTokens.push(SHARES);\n\n        _createNewAmountCheckpoint(memberAddr, SHARES, 1);\n        _createNewAmountCheckpoint(TOTAL, SHARES, 1);\n\n        initialized = true;\n    }\n\n    receive() external payable {\n        revert(\"you cannot send money back directly\");\n    }\n\n    /**\n     * @dev Sets the state of the dao to READY\n     */\n    function finalizeDao() external {\n        state = DaoState.READY;\n    }\n\n    /**\n     * @notice Sets a configuration value\n     * @dev Changes the value of a key in the configuration mapping\n     * @param key The configuration key for which the value will be set\n     * @param value The value to set the key\n     */\n    function setConfiguration(bytes32 key, uint256 value)\n        external\n        hasAccess(this, FlagHelper.Flag.SET_CONFIGURATION)\n    {\n        mainConfiguration[key] = value;\n    }\n\n    /**\n     * @notice Sets an configuration value\n     * @dev Changes the value of a key in the configuration mapping\n     * @param key The configuration key for which the value will be set\n     * @param value The value to set the key\n     */\n    function setAddressConfiguration(bytes32 key, address value)\n        external\n        hasAccess(this, FlagHelper.Flag.SET_CONFIGURATION)\n    {\n        addressConfiguration[key] = value;\n    }\n\n    /**\n     * @return The configuration value of a particular key\n     * @param key The key to look up in the configuration mapping\n     */\n    function getConfiguration(bytes32 key) external view returns (uint256) {\n        return mainConfiguration[key];\n    }\n\n    /**\n     * @return The configuration value of a particular key\n     * @param key The key to look up in the configuration mapping\n     */\n    function getAddressConfiguration(bytes32 key)\n        external\n        view\n        returns (address)\n    {\n        return addressConfiguration[key];\n    }\n\n    /**\n     * @notice Adds a new adapter to the registry\n     * @param adapterId The unique identifier of the new adapter\n     * @param adapterAddress The address of the adapter\n     * @param acl The access control list of the adapter\n     */\n    function addAdapter(\n        bytes32 adapterId,\n        address adapterAddress,\n        uint256 acl\n    ) external hasAccess(this, FlagHelper.Flag.ADD_ADAPTER) {\n        require(adapterId != bytes32(0), \"adapterId must not be empty\");\n        require(\n            adapterAddress != address(0x0),\n            \"adapterAddress must not be empty\"\n        );\n        require(\n            registry[adapterId] == address(0x0),\n            \"adapterId already in use\"\n        );\n        registry[adapterId] = adapterAddress;\n        inverseRegistry[adapterAddress].id = adapterId;\n        inverseRegistry[adapterAddress].acl = acl;\n        emit AdapterAdded(adapterId, adapterAddress, acl);\n    }\n\n    /**\n     * @notice Removes an adapter from the registry\n     * @param adapterId The unique identifier of the adapter\n     */\n    function removeAdapter(bytes32 adapterId)\n        external\n        hasAccess(this, FlagHelper.Flag.REMOVE_ADAPTER)\n    {\n        require(adapterId != bytes32(0), \"adapterId must not be empty\");\n        require(\n            registry[adapterId] != address(0x0),\n            \"adapterId not registered\"\n        );\n        delete inverseRegistry[registry[adapterId]];\n        delete registry[adapterId];\n        emit AdapterRemoved(adapterId);\n    }\n\n    /**\n     * @notice Looks up if there is an adapter of a given address\n     * @return Whether or not the address is an adapter\n     * @param adapterAddress The address to look up\n     */\n    function isAdapter(address adapterAddress) public view returns (bool) {\n        return inverseRegistry[adapterAddress].id != bytes32(0);\n    }\n\n    /**\n     * @notice Checks if an adapter has a given ACL flag\n     * @return Whether or not the given adapter has the given flag set\n     * @param adapterAddress The address to look up\n     * @param flag The ACL flag to check against the given address\n     */\n    function hasAdapterAccess(address adapterAddress, FlagHelper.Flag flag)\n        public\n        view\n        returns (bool)\n    {\n        return\n            inverseRegistry[adapterAddress].id != bytes32(0) &&\n            inverseRegistry[adapterAddress].acl.getFlag(flag);\n    }\n\n    /**\n     * @return The address of a given adapter ID\n     * @param adapterId The ID to look up\n     */\n    function getAdapterAddress(bytes32 adapterId)\n        external\n        view\n        returns (address)\n    {\n        return registry[adapterId];\n    }\n\n    /**\n     * @notice Jails a member\n     * @dev Sets all relevant flags and delegations to ensure a user can not participate\n     * @param memberAddr The member to jail\n     */\n    function jailMember(address memberAddr)\n        external\n        hasAccess(this, FlagHelper.Flag.JAIL_MEMBER)\n    {\n        Member storage member = members[memberAddr];\n        uint256 flags = member.flags;\n        require(flags.getFlag(FlagHelper.Flag.EXISTS), \"member does not exist\");\n        if (!flags.getFlag(FlagHelper.Flag.JAILED)) {\n            member.flags = flags.setFlag(FlagHelper.Flag.JAILED, true);\n\n            // Stop the member from voting at that point in time\n            _createNewDelegateCheckpoint(memberAddr, address(1)); // 1 instead of 0 to avoid existence check\n            emit MemberJailed(memberAddr);\n        }\n    }\n\n    /**\n     * @notice Unjails a member\n     * @dev Resets all relevant flags to allow participation\n     * @param memberAddr The member to unjail\n     */\n    function unjailMember(address memberAddr)\n        external\n        hasAccess(this, FlagHelper.Flag.UNJAIL_MEMBER)\n    {\n        Member storage member = members[memberAddr];\n        uint256 flags = member.flags;\n        require(flags.getFlag(FlagHelper.Flag.EXISTS), \"member does not exist\");\n        if (flags.getFlag(FlagHelper.Flag.JAILED)) {\n            member.flags = flags.setFlag(FlagHelper.Flag.JAILED, false);\n            _createNewDelegateCheckpoint(\n                memberAddr,\n                getPreviousDelegateKey(memberAddr)\n            ); // we do this to re-allow votes\n            emit MemberUnjailed(memberAddr);\n        }\n    }\n\n    /**\n     * @notice Executes an arbitrary function call\n     * @dev Calls a function and reverts if unsuccessful\n     * @return The return data of the function call\n     * @param _actionTo The address at which the function will be called\n     * @param _actionValue The value to pass in to function call\n     * @param _actionData The data to give the function call\n     */\n    function execute(\n        address _actionTo,\n        uint256 _actionValue,\n        bytes calldata _actionData\n    ) external hasAccess(this, FlagHelper.Flag.EXECUTE) returns (bytes memory) {\n        (bool success, bytes memory retData) =\n            _actionTo.call{value: _actionValue}(_actionData);\n\n        if (!success) {\n            string memory m = _getRevertMsg(retData);\n            revert(m);\n        }\n        return retData;\n    }\n\n    function withdraw(\n        address payable account,\n        address tokenAddr,\n        uint256 amount\n    ) external hasAccess(this, FlagHelper.Flag.WITHDRAW) {\n        require(\n            balanceOf(account, tokenAddr) >= amount,\n            \"dao::withdraw::not enough funds\"\n        );\n        subtractFromBalance(account, tokenAddr, amount);\n        if (tokenAddr == ETH_TOKEN) {\n            (bool success, ) = account.call{value: amount}(\"\");\n            require(success, \"withdraw failed\");\n        } else {\n            IERC20 erc20 = IERC20(tokenAddr);\n            erc20.transfer(account, amount);\n        }\n\n        emit Withdraw(account, tokenAddr, amount);\n    }\n\n    /**\n     * PROPOSALS\n     */\n    /**\n     * @notice Submit proposals to the DAO registry\n     */\n    function submitProposal(bytes32 proposalId)\n        external\n        hasAccess(this, FlagHelper.Flag.SUBMIT_PROPOSAL)\n    {\n        proposals[proposalId] = Proposal(msg.sender, 1);\n        emit SubmittedProposal(proposalId, 1);\n    }\n\n    /**\n     * @notice Sponsor proposals that were submitted to the DAO registry\n     * @dev adds SPONSORED to the proposal flag\n     * @param proposalId The ID of the proposal to sponsor\n     * @param sponsoringMember The member who is sponsoring the proposal\n     */\n    function sponsorProposal(bytes32 proposalId, address sponsoringMember)\n        external\n        hasAccess(this, FlagHelper.Flag.SPONSOR_PROPOSAL)\n    {\n        Proposal storage proposal =\n            _setProposalFlag(proposalId, FlagHelper.Flag.SPONSORED);\n\n        uint256 flags = proposal.flags;\n\n        require(\n            proposal.adapterAddress == msg.sender,\n            \"only the adapter that submitted the proposal can process it\"\n        );\n        require(\n            flags.getFlag(FlagHelper.Flag.EXISTS),\n            \"proposal does not exist\"\n        );\n        require(\n            !flags.getFlag(FlagHelper.Flag.PROCESSED),\n            \"proposal must not be processed\"\n        );\n        require(\n            isActiveMember(sponsoringMember),\n            \"only active members can sponsor proposals\"\n        );\n\n        emit SponsoredProposal(proposalId, flags);\n    }\n\n    /**\n     * @notice Mark a proposal as processed in the DAO registry\n     * @param proposalId The ID of the proposal that is being processed\n     */\n    function processProposal(bytes32 proposalId)\n        external\n        hasAccess(this, FlagHelper.Flag.PROCESS_PROPOSAL)\n    {\n        Proposal storage proposal =\n            _setProposalFlag(proposalId, FlagHelper.Flag.PROCESSED);\n        uint256 flags = proposal.flags;\n\n        emit ProcessedProposal(proposalId, flags);\n    }\n\n    /**\n     * @notice Sets a flag of a proposal\n     * @dev Reverts if the proposal is already processed\n     * @param proposalId The ID of the proposal to be changed\n     * @param flag The flag that will be set on the proposal\n     */\n    function _setProposalFlag(bytes32 proposalId, FlagHelper.Flag flag)\n        internal\n        returns (Proposal storage)\n    {\n        Proposal storage proposal = proposals[proposalId];\n\n        require(\n            proposal.adapterAddress == msg.sender,\n            \"only the adapter that submitted the proposal can set its flag\"\n        );\n\n        uint256 flags = proposal.flags;\n        require(\n            flags.getFlag(FlagHelper.Flag.EXISTS),\n            \"proposal does not exist for this dao\"\n        );\n\n        require(\n            !flags.getFlag(FlagHelper.Flag.PROCESSED),\n            \"proposal already processed\"\n        );\n        flags = flags.setFlag(flag, true);\n        proposals[proposalId].flags = flags;\n\n        return proposals[proposalId];\n    }\n\n    /**\n     * @return Whether or not the given token is an available internal token in the bank\n     * @param token The address of the token to look up\n     */\n    function isInternalToken(address token) external view returns (bool) {\n        return _bank.availableInternalTokens[token];\n    }\n\n    /**\n     * @return Whether or not the given token is an available token in the bank\n     * @param token The address of the token to look up\n     */\n    function isTokenAllowed(address token) external view returns (bool) {\n        return _bank.availableTokens[token];\n    }\n\n    /*\n     * MEMBERS\n     */\n\n    /**\n     * @return Whether or not a given address is an active member of the DAO\n     * @dev Requires the user to not be jailed and have a positive balance in either\n     *      SHARES, LOOT or LOCKED_LOOT\n     * @param addr The address to look up\n     */\n    function isActiveMember(address addr) public view returns (bool) {\n        address memberAddr = memberAddressesByDelegatedKey[addr];\n        uint256 memberFlags = members[memberAddr].flags;\n        return\n            memberFlags.getFlag(FlagHelper.Flag.EXISTS) &&\n            !memberFlags.getFlag(FlagHelper.Flag.JAILED) &&\n            (balanceOf(memberAddr, SHARES) > 0 ||\n                balanceOf(memberAddr, LOOT) > 0 ||\n                balanceOf(memberAddr, LOCKED_LOOT) > 0);\n    }\n\n    /**\n     * @return Whether or not a flag is set for a given proposal\n     * @param proposalId The proposal to check against flag\n     * @param flag The flag to check in the proposal\n     */\n    function getProposalFlag(bytes32 proposalId, FlagHelper.Flag flag)\n        external\n        view\n        returns (bool)\n    {\n        return proposals[proposalId].flags.getFlag(flag);\n    }\n\n    /**\n     * @notice Updates the delegate key of a member\n     * @param memberAddr The member doing the delegation\n     * @param newDelegateKey The member who is being delegated to\n     */\n    function updateDelegateKey(address memberAddr, address newDelegateKey)\n        external\n        hasAccess(this, FlagHelper.Flag.UPDATE_DELEGATE_KEY)\n    {\n        require(newDelegateKey != address(0), \"newDelegateKey cannot be 0\");\n\n        // skip checks if member is setting the delegate key to their member address\n        if (newDelegateKey != memberAddr) {\n            require(\n                // newDelegate must not be delegated to\n                memberAddressesByDelegatedKey[newDelegateKey] == address(0x0),\n                \"cannot overwrite existing members\"\n            );\n        }\n\n        Member storage member = members[memberAddr];\n        require(\n            member.flags.getFlag(FlagHelper.Flag.EXISTS),\n            \"member does not exist\"\n        );\n\n        // Reset the delegation of the previous delegate\n        memberAddressesByDelegatedKey[\n            getCurrentDelegateKey(memberAddr)\n        ] = address(0x0);\n\n        memberAddressesByDelegatedKey[newDelegateKey] = memberAddr;\n\n        _createNewDelegateCheckpoint(memberAddr, newDelegateKey);\n        emit UpdateDelegateKey(memberAddr, newDelegateKey);\n    }\n\n    /*\n     * BANK\n     */\n\n    /**\n     * @notice Registers a potential new token in the bank\n     * @dev Can not be a reserved token or an available internal token\n     * @param token The address of the token\n     */\n    function registerPotentialNewToken(address token)\n        external\n        hasAccess(this, FlagHelper.Flag.REGISTER_NEW_TOKEN)\n    {\n        require(isNotReservedAddress(token), \"reservedToken\");\n        require(!_bank.availableInternalTokens[token], \"internalToken\");\n\n        if (!_bank.availableTokens[token]) {\n            _bank.availableTokens[token] = true;\n            _bank.tokens.push(token);\n        }\n    }\n\n    /**\n     * @notice Registers a potential new internal token in the bank\n     * @dev Can not be a reserved token or an available token\n     * @param token The address of the token\n     */\n    function registerPotentialNewInternalToken(address token)\n        external\n        hasAccess(this, FlagHelper.Flag.REGISTER_NEW_INTERNAL_TOKEN)\n    {\n        require(isNotReservedAddress(token), \"reservedToken\");\n        require(!_bank.availableTokens[token], \"internalToken\");\n        if (!_bank.availableInternalTokens[token]) {\n            _bank.availableInternalTokens[token] = true;\n            _bank.internalTokens.push(token);\n        }\n    }\n\n    /**\n     * Public read-only functions\n     */\n\n    /**\n     * @return Whether or not a given address is reserved\n     * @dev Returns false if applicant address is one of the constants GUILD or TOTAL\n     * @param applicant The address to check\n     */\n    function isNotReservedAddress(address applicant)\n        public\n        pure\n        returns (bool)\n    {\n        return applicant != GUILD && applicant != TOTAL;\n    }\n\n    /**\n     * Internal bookkeeping\n     */\n\n    /**\n     * @return The token from the bank of a given index\n     * @param index The index to look up in the bank's tokens\n     */\n    function getToken(uint256 index) external view returns (address) {\n        return _bank.tokens[index];\n    }\n\n    /**\n     * @return The amount of token addresses in the bank\n     */\n    function nbTokens() external view returns (uint256) {\n        return _bank.tokens.length;\n    }\n\n    /**\n     * @return The internal token at a given index\n     * @param index The index to look up in the bank's array of internal tokens\n     */\n    function getInternalToken(uint256 index) external view returns (address) {\n        return _bank.internalTokens[index];\n    }\n\n    /**\n     * @return The amount of internal token addresses in the bank\n     */\n    function nbInternalTokens() external view returns (uint256) {\n        return _bank.internalTokens.length;\n    }\n\n    /**\n     * @notice Adds to a user's balance of a given token\n     * @param user The user whose balance will be updated\n     * @param token The token to update\n     * @param amount The new balance\n     */\n    function addToBalance(\n        address user,\n        address token,\n        uint256 amount\n    ) public payable hasAccess(this, FlagHelper.Flag.ADD_TO_BALANCE) {\n        require(\n            _bank.availableTokens[token] ||\n                _bank.availableInternalTokens[token],\n            \"unknown token address\"\n        );\n        uint256 newAmount = balanceOf(user, token) + amount;\n        uint256 newTotalAmount = balanceOf(TOTAL, token) + amount;\n\n        _createNewAmountCheckpoint(user, token, newAmount);\n        _createNewAmountCheckpoint(TOTAL, token, newTotalAmount);\n\n        Member storage member = members[user];\n        if (!member.flags.getFlag(FlagHelper.Flag.EXISTS)) {\n            member.flags = member.flags.setFlag(FlagHelper.Flag.EXISTS, true);\n            memberAddressesByDelegatedKey[user] = user;\n        }\n    }\n\n    /**\n     * @notice Remove from a user's balance of a given token\n     * @param user The user whose balance will be updated\n     * @param token The token to update\n     * @param amount The new balance\n     */\n    function subtractFromBalance(\n        address user,\n        address token,\n        uint256 amount\n    ) public hasAccess(this, FlagHelper.Flag.SUB_FROM_BALANCE) {\n        uint256 newAmount = balanceOf(user, token) - amount;\n        uint256 newTotalAmount = balanceOf(TOTAL, token) - amount;\n\n        _createNewAmountCheckpoint(user, token, newAmount);\n        _createNewAmountCheckpoint(TOTAL, token, newTotalAmount);\n    }\n\n    /**\n     * @notice Make an internal token transfer\n     * @param from The user who is sending tokens\n     * @param to The user who is receiving tokens\n     * @param amount The new amount to transfer\n     */\n    function internalTransfer(\n        address from,\n        address to,\n        address token,\n        uint256 amount\n    ) public hasAccess(this, FlagHelper.Flag.INTERNAL_TRANSFER) {\n        uint256 newAmount = balanceOf(from, token) - amount;\n        uint256 newAmount2 = balanceOf(to, token) + amount;\n\n        _createNewAmountCheckpoint(from, token, newAmount);\n        _createNewAmountCheckpoint(to, token, newAmount2);\n    }\n\n    /**\n     * @notice Returns an account's balance of a given token\n     * @param account The address to look up\n     * @param tokenAddr The token where the user's balance of which will be returned\n     * @return The amount in account's tokenAddr balance\n     */\n    function balanceOf(address account, address tokenAddr)\n        public\n        view\n        returns (uint256)\n    {\n        uint32 nCheckpoints = _bank.numCheckpoints[tokenAddr][account];\n        return\n            nCheckpoints > 0\n                ? _bank.checkpoints[tokenAddr][account][nCheckpoints - 1].amount\n                : 0;\n    }\n\n    /**\n     * @notice Determine the prior number of votes for an account as of a block number\n     * @dev Block number must be a finalized block or else this function will revert to prevent misinformation.\n     * @param account The address of the account to check\n     * @param blockNumber The block number to get the vote balance at\n     * @return The number of votes the account had as of the given block\n     */\n    function getPriorAmount(\n        address account,\n        address tokenAddr,\n        uint256 blockNumber\n    ) external view returns (uint256) {\n        require(\n            blockNumber < block.number,\n            \"Uni::getPriorAmount: not yet determined\"\n        );\n\n        uint32 nCheckpoints = _bank.numCheckpoints[tokenAddr][account];\n        if (nCheckpoints == 0) {\n            return 0;\n        }\n\n        // First check most recent balance\n        if (\n            _bank.checkpoints[tokenAddr][account][nCheckpoints - 1].fromBlock <=\n            blockNumber\n        ) {\n            return\n                _bank.checkpoints[tokenAddr][account][nCheckpoints - 1].amount;\n        }\n\n        // Next check implicit zero balance\n        if (_bank.checkpoints[tokenAddr][account][0].fromBlock > blockNumber) {\n            return 0;\n        }\n\n        uint32 lower = 0;\n        uint32 upper = nCheckpoints - 1;\n        while (upper > lower) {\n            uint32 center = upper - (upper - lower) / 2; // ceil, avoiding overflow\n            Checkpoint memory cp =\n                _bank.checkpoints[tokenAddr][account][center];\n            if (cp.fromBlock == blockNumber) {\n                return cp.amount;\n            } else if (cp.fromBlock < blockNumber) {\n                lower = center;\n            } else {\n                upper = center - 1;\n            }\n        }\n        return _bank.checkpoints[tokenAddr][account][lower].amount;\n    }\n\n    /**\n     * @param checkAddr The address to check for a delegate\n     * @return the delegated address or the checked address if it is not a delegate\n     */\n    function getAddressIfDelegated(address checkAddr)\n        public\n        view\n        returns (address)\n    {\n        address delegatedKey = memberAddressesByDelegatedKey[checkAddr];\n        return delegatedKey == address(0x0) ? checkAddr : delegatedKey;\n    }\n\n    /**\n     * @param memberAddr The member whose delegate will be returned\n     * @return the delegate key at the current time for a member\n     */\n    function getCurrentDelegateKey(address memberAddr)\n        public\n        view\n        returns (address)\n    {\n        uint32 nCheckpoints = numCheckpoints[memberAddr];\n        return\n            nCheckpoints > 0\n                ? checkpoints[memberAddr][nCheckpoints - 1].delegateKey\n                : memberAddr;\n    }\n\n    /**\n     * @param memberAddr The member address to look up\n     * @return The delegate key address for memberAddr at the second last checkpoint number\n     */\n    function getPreviousDelegateKey(address memberAddr)\n        public\n        view\n        returns (address)\n    {\n        uint32 nCheckpoints = numCheckpoints[memberAddr];\n        return\n            nCheckpoints > 1\n                ? checkpoints[memberAddr][nCheckpoints - 2].delegateKey\n                : memberAddr;\n    }\n\n    /**\n     * @notice Determine the prior number of votes for an account as of a block number\n     * @dev Block number must be a finalized block or else this function will revert to prevent misinformation.\n     * @param memberAddr The address of the account to check\n     * @param blockNumber The block number to get the vote balance at\n     * @return The number of votes the account had as of the given block\n     */\n    function getPriorDelegateKey(address memberAddr, uint256 blockNumber)\n        external\n        view\n        returns (address)\n    {\n        require(\n            blockNumber < block.number,\n            \"Uni::getPriorDelegateKey: not yet determined\"\n        );\n\n        uint32 nCheckpoints = numCheckpoints[memberAddr];\n        if (nCheckpoints == 0) {\n            return memberAddr;\n        }\n\n        // First check most recent balance\n        if (\n            checkpoints[memberAddr][nCheckpoints - 1].fromBlock <= blockNumber\n        ) {\n            return checkpoints[memberAddr][nCheckpoints - 1].delegateKey;\n        }\n\n        // Next check implicit zero balance\n        if (checkpoints[memberAddr][0].fromBlock > blockNumber) {\n            return memberAddr;\n        }\n\n        uint32 lower = 0;\n        uint32 upper = nCheckpoints - 1;\n        while (upper > lower) {\n            uint32 center = upper - (upper - lower) / 2; // ceil, avoiding overflow\n            DelegateCheckpoint memory cp = checkpoints[memberAddr][center];\n            if (cp.fromBlock == blockNumber) {\n                return cp.delegateKey;\n            } else if (cp.fromBlock < blockNumber) {\n                lower = center;\n            } else {\n                upper = center - 1;\n            }\n        }\n        return checkpoints[memberAddr][lower].delegateKey;\n    }\n\n    /**\n     * @notice Creates a new amount checkpoint for a token of a certain member\n     * @param member The member whose checkpoints will be added to\n     * @param tokenAddr The token of which the balance will be changed\n     * @param amount The amount to be written into the new checkpoint\n     */\n    function _createNewAmountCheckpoint(\n        address member,\n        address tokenAddr,\n        uint256 amount\n    ) internal {\n        uint32 srcRepNum = _bank.numCheckpoints[tokenAddr][member];\n        _writeAmountCheckpoint(member, tokenAddr, srcRepNum, amount);\n        emit NewBalance(member, tokenAddr, amount);\n    }\n\n    /**\n     * @notice Creates a new delegate checkpoint of a certain member\n     * @param member The member whose delegate checkpoints will be added to\n     * @param newDelegateKey The delegate key that will be written into the new checkpoint\n     */\n    function _createNewDelegateCheckpoint(\n        address member,\n        address newDelegateKey\n    ) internal {\n        uint32 srcRepNum = numCheckpoints[member];\n        _writeDelegateCheckpoint(member, srcRepNum, newDelegateKey);\n    }\n\n    /**\n     * @notice Writes to a delegate checkpoint of a certain checkpoint number\n     * @dev Creates a new checkpoint if there is not yet one of the given number\n     * @param member The member whose delegate checkpoints will overwritten\n     * @param nCheckpoints The number of the checkpoint to overwrite\n     * @param newDelegateKey The delegate key that will be written into the checkpoint\n     */\n    function _writeDelegateCheckpoint(\n        address member,\n        uint32 nCheckpoints,\n        address newDelegateKey\n    ) internal {\n        if (\n            nCheckpoints > 0 &&\n            checkpoints[member][nCheckpoints - 1].fromBlock == block.number\n        ) {\n            checkpoints[member][nCheckpoints - 1].delegateKey = newDelegateKey;\n        } else {\n            checkpoints[member][nCheckpoints] = DelegateCheckpoint(\n                uint96(block.number),\n                newDelegateKey\n            );\n            numCheckpoints[member] = nCheckpoints + 1;\n        }\n    }\n\n    /**\n     * @notice Writes to an amount checkpoint of a certain checkpoint number\n     * @dev Creates a new checkpoint if there is not yet one of the given number\n     * @param member The member whose delegate checkpoints will overwritten\n     * @param tokenAddr The token that will have its balance for the user udpated\n     * @param nCheckpoints The number of the checkpoint to overwrite\n     * @param _newAmount The amount to write into the specified checkpoint\n     */\n    function _writeAmountCheckpoint(\n        address member,\n        address tokenAddr,\n        uint32 nCheckpoints,\n        uint256 _newAmount\n    ) internal {\n        require(_newAmount < type(uint160).max, \"too big of a vote\");\n        uint160 newAmount = uint160(_newAmount);\n\n        if (\n            nCheckpoints > 0 &&\n            _bank.checkpoints[tokenAddr][member][nCheckpoints - 1].fromBlock ==\n            block.number\n        ) {\n            _bank.checkpoints[tokenAddr][member][nCheckpoints - 1]\n                .amount = newAmount;\n        } else {\n            _bank.checkpoints[tokenAddr][member][nCheckpoints] = Checkpoint(\n                uint96(block.number),\n                newAmount\n            );\n            _bank.numCheckpoints[tokenAddr][member] = nCheckpoints + 1;\n        }\n    }\n\n    /*\n     * Internal Utility Functions\n     */\n\n    /**\n     * @dev Get the revert message from a call\n     * @notice This is needed in order to get the human-readable revert message from a call\n     * @param _res Response of the call\n     * @return Revert message string\n     */\n    function _getRevertMsg(bytes memory _res)\n        internal\n        pure\n        returns (string memory)\n    {\n        // If the _res length is less than 68, then the transaction failed silently (without a revert message)\n        if (_res.length < 68) return \"Transaction reverted silently\";\n        bytes memory revertData = _slice(_res, 4, _res.length - 4); // Remove the selector which is the first 4 bytes\n        return abi.decode(revertData, (string)); // All that remains is the revert string\n    }\n\n    /**\n     * @notice Slices a bytes type\n     * @param _bytes The bytes that will be sliced\n     * @param _start The start index to begin slicing from\n     * @param _length The number of bytes to include in the slice, starting from _start\n     * @return A new bytes object, that is the same as _bytes, from indices _start to (_start + length)\n     */\n    function _slice(\n        bytes memory _bytes,\n        uint256 _start,\n        uint256 _length\n    ) internal pure returns (bytes memory) {\n        require(_bytes.length >= (_start + _length), \"Read out of bounds\");\n\n        bytes memory tempBytes;\n\n        assembly {\n            switch iszero(_length)\n                case 0 {\n                    // Get a location of some free memory and store it in tempBytes as\n                    // Solidity does for memory variables.\n                    tempBytes := mload(0x40)\n\n                    // The first word of the slice result is potentially a partial\n                    // word read from the original array. To read it, we calculate\n                    // the length of that partial word and start copying that many\n                    // bytes into the array. The first word we copy will start with\n                    // data we don't care about, but the last `lengthmod` bytes will\n                    // land at the beginning of the contents of the new array. When\n                    // we're done copying, we overwrite the full first word with\n                    // the actual length of the slice.\n                    let lengthmod := and(_length, 31)\n\n                    // The multiplication in the next line is necessary\n                    // because when slicing multiples of 32 bytes (lengthmod == 0)\n                    // the following copy loop was copying the origin's length\n                    // and then ending prematurely not copying everything it should.\n                    let mc := add(\n                        add(tempBytes, lengthmod),\n                        mul(0x20, iszero(lengthmod))\n                    )\n                    let end := add(mc, _length)\n\n                    for {\n                        // The multiplication in the next line has the same exact purpose\n                        // as the one above.\n                        let cc := add(\n                            add(\n                                add(_bytes, lengthmod),\n                                mul(0x20, iszero(lengthmod))\n                            ),\n                            _start\n                        )\n                    } lt(mc, end) {\n                        mc := add(mc, 0x20)\n                        cc := add(cc, 0x20)\n                    } {\n                        mstore(mc, mload(cc))\n                    }\n\n                    mstore(tempBytes, _length)\n\n                    //update free-memory pointer\n                    //allocating the array padded to 32 bytes like the compiler does now\n                    mstore(0x40, and(add(mc, 31), not(31)))\n                }\n                //if we want a zero-length slice let's just return a zero-length array\n                default {\n                    tempBytes := mload(0x40)\n\n                    mstore(0x40, add(tempBytes, 0x20))\n                }\n        }\n\n        return tempBytes;\n    }\n}\n",
  "sourcePath": "/Users/jd/openlaw/openlawteam/laoland/contracts/core/DaoRegistry.sol",
  "compiler": {
    "name": "solc",
    "version": "0.8.0+commit.c7dfd78e.Emscripten.clang"
  },
  "schemaVersion": "3.3.3",
  "updatedAt": "2021-01-12T16:42:58.247Z",
  "devdoc": {
    "events": {
      "MemberJailed(address)": {
        "details": "- Events for Bank"
      },
      "SubmittedProposal(bytes32,uint256)": {
        "details": "- Events for Proposals"
      },
      "UpdateDelegateKey(address,address)": {
        "details": "- Events for Members"
      }
    },
    "kind": "dev",
    "methods": {
      "addAdapter(bytes32,address,uint256)": {
        "params": {
          "acl": "The access control list of the adapter",
          "adapterAddress": "The address of the adapter",
          "adapterId": "The unique identifier of the new adapter"
        }
      },
      "addToBalance(address,address,uint256)": {
        "params": {
          "amount": "The new balance",
          "token": "The token to update",
          "user": "The user whose balance will be updated"
        }
      },
      "balanceOf(address,address)": {
        "params": {
          "account": "The address to look up",
          "tokenAddr": "The token where the user's balance of which will be returned"
        },
        "returns": {
          "_0": "The amount in account's tokenAddr balance"
        }
      },
      "execute(address,uint256,bytes)": {
        "details": "Calls a function and reverts if unsuccessful",
        "params": {
          "_actionData": "The data to give the function call",
          "_actionTo": "The address at which the function will be called",
          "_actionValue": "The value to pass in to function call"
        },
        "returns": {
          "_0": "The return data of the function call"
        }
      },
      "finalizeDao()": {
        "details": "Sets the state of the dao to READY"
      },
      "getAdapterAddress(bytes32)": {
        "params": {
          "adapterId": "The ID to look up"
        },
        "returns": {
          "_0": "The address of a given adapter ID"
        }
      },
      "getAddressConfiguration(bytes32)": {
        "params": {
          "key": "The key to look up in the configuration mapping"
        },
        "returns": {
          "_0": "The configuration value of a particular key"
        }
      },
      "getAddressIfDelegated(address)": {
        "params": {
          "checkAddr": "The address to check for a delegate"
        },
        "returns": {
          "_0": "the delegated address or the checked address if it is not a delegate"
        }
      },
      "getConfiguration(bytes32)": {
        "params": {
          "key": "The key to look up in the configuration mapping"
        },
        "returns": {
          "_0": "The configuration value of a particular key"
        }
      },
      "getCurrentDelegateKey(address)": {
        "params": {
          "memberAddr": "The member whose delegate will be returned"
        },
        "returns": {
          "_0": "the delegate key at the current time for a member"
        }
      },
      "getInternalToken(uint256)": {
        "params": {
          "index": "The index to look up in the bank's array of internal tokens"
        },
        "returns": {
          "_0": "The internal token at a given index"
        }
      },
      "getPreviousDelegateKey(address)": {
        "params": {
          "memberAddr": "The member address to look up"
        },
        "returns": {
          "_0": "The delegate key address for memberAddr at the second last checkpoint number"
        }
      },
      "getPriorAmount(address,address,uint256)": {
        "details": "Block number must be a finalized block or else this function will revert to prevent misinformation.",
        "params": {
          "account": "The address of the account to check",
          "blockNumber": "The block number to get the vote balance at"
        },
        "returns": {
          "_0": "The number of votes the account had as of the given block"
        }
      },
      "getPriorDelegateKey(address,uint256)": {
        "details": "Block number must be a finalized block or else this function will revert to prevent misinformation.",
        "params": {
          "blockNumber": "The block number to get the vote balance at",
          "memberAddr": "The address of the account to check"
        },
        "returns": {
          "_0": "The number of votes the account had as of the given block"
        }
      },
      "getProposalFlag(bytes32,uint8)": {
        "params": {
          "flag": "The flag to check in the proposal",
          "proposalId": "The proposal to check against flag"
        },
        "returns": {
          "_0": "Whether or not a flag is set for a given proposal"
        }
      },
      "getToken(uint256)": {
        "params": {
          "index": "The index to look up in the bank's tokens"
        },
        "returns": {
          "_0": "The token from the bank of a given index"
        }
      },
      "hasAdapterAccess(address,uint8)": {
        "params": {
          "adapterAddress": "The address to look up",
          "flag": "The ACL flag to check against the given address"
        },
        "returns": {
          "_0": "Whether or not the given adapter has the given flag set"
        }
      },
      "initialize(address)": {
        "details": "Involves initialising available tokens, checkpoints, and membership of creatorCan only be called once",
        "params": {
          "creator": "The DAO's creator, who will be the first member"
        }
      },
      "internalTransfer(address,address,address,uint256)": {
        "params": {
          "amount": "The new amount to transfer",
          "from": "The user who is sending tokens",
          "to": "The user who is receiving tokens"
        }
      },
      "isActiveMember(address)": {
        "details": "Requires the user to not be jailed and have a positive balance in either      SHARES, LOOT or LOCKED_LOOT",
        "params": {
          "addr": "The address to look up"
        },
        "returns": {
          "_0": "Whether or not a given address is an active member of the DAO"
        }
      },
      "isAdapter(address)": {
        "params": {
          "adapterAddress": "The address to look up"
        },
        "returns": {
          "_0": "Whether or not the address is an adapter"
        }
      },
      "isInternalToken(address)": {
        "params": {
          "token": "The address of the token to look up"
        },
        "returns": {
          "_0": "Whether or not the given token is an available internal token in the bank"
        }
      },
      "isNotReservedAddress(address)": {
        "details": "Returns false if applicant address is one of the constants GUILD or TOTAL",
        "params": {
          "applicant": "The address to check"
        },
        "returns": {
          "_0": "Whether or not a given address is reserved"
        }
      },
      "isTokenAllowed(address)": {
        "params": {
          "token": "The address of the token to look up"
        },
        "returns": {
          "_0": "Whether or not the given token is an available token in the bank"
        }
      },
      "jailMember(address)": {
        "details": "Sets all relevant flags and delegations to ensure a user can not participate",
        "params": {
          "memberAddr": "The member to jail"
        }
      },
      "nbInternalTokens()": {
        "returns": {
          "_0": "The amount of internal token addresses in the bank"
        }
      },
      "nbTokens()": {
        "returns": {
          "_0": "The amount of token addresses in the bank"
        }
      },
      "processProposal(bytes32)": {
        "params": {
          "proposalId": "The ID of the proposal that is being processed"
        }
      },
      "registerPotentialNewInternalToken(address)": {
        "details": "Can not be a reserved token or an available token",
        "params": {
          "token": "The address of the token"
        }
      },
      "registerPotentialNewToken(address)": {
        "details": "Can not be a reserved token or an available internal token",
        "params": {
          "token": "The address of the token"
        }
      },
      "removeAdapter(bytes32)": {
        "params": {
          "adapterId": "The unique identifier of the adapter"
        }
      },
      "setAddressConfiguration(bytes32,address)": {
        "details": "Changes the value of a key in the configuration mapping",
        "params": {
          "key": "The configuration key for which the value will be set",
          "value": "The value to set the key"
        }
      },
      "setConfiguration(bytes32,uint256)": {
        "details": "Changes the value of a key in the configuration mapping",
        "params": {
          "key": "The configuration key for which the value will be set",
          "value": "The value to set the key"
        }
      },
      "sponsorProposal(bytes32,address)": {
        "details": "adds SPONSORED to the proposal flag",
        "params": {
          "proposalId": "The ID of the proposal to sponsor",
          "sponsoringMember": "The member who is sponsoring the proposal"
        }
      },
      "subtractFromBalance(address,address,uint256)": {
        "params": {
          "amount": "The new balance",
          "token": "The token to update",
          "user": "The user whose balance will be updated"
        }
      },
      "unjailMember(address)": {
        "details": "Resets all relevant flags to allow participation",
        "params": {
          "memberAddr": "The member to unjail"
        }
      },
      "updateDelegateKey(address,address)": {
        "params": {
          "memberAddr": "The member doing the delegation",
          "newDelegateKey": "The member who is being delegated to"
        }
      }
    },
    "version": 1
  },
  "userdoc": {
    "kind": "user",
    "methods": {
      "GUILD()": {
        "notice": "The reserved address for Guild bank account"
      },
      "TOTAL()": {
        "notice": "The reserved address for Total funds bank account"
      },
      "addAdapter(bytes32,address,uint256)": {
        "notice": "Adds a new adapter to the registry"
      },
      "addToBalance(address,address,uint256)": {
        "notice": "Adds to a user's balance of a given token"
      },
      "balanceOf(address,address)": {
        "notice": "Returns an account's balance of a given token"
      },
      "execute(address,uint256,bytes)": {
        "notice": "Executes an arbitrary function call"
      },
      "getPriorAmount(address,address,uint256)": {
        "notice": "Determine the prior number of votes for an account as of a block number"
      },
      "getPriorDelegateKey(address,uint256)": {
        "notice": "Determine the prior number of votes for an account as of a block number"
      },
      "hasAdapterAccess(address,uint8)": {
        "notice": "Checks if an adapter has a given ACL flag"
      },
      "initialize(address)": {
        "notice": "Initialises the DAO"
      },
      "internalTransfer(address,address,address,uint256)": {
        "notice": "Make an internal token transfer"
      },
      "inverseRegistry(address)": {
        "notice": "The inverse map to get the adapter id based on its address"
      },
      "isAdapter(address)": {
        "notice": "Looks up if there is an adapter of a given address"
      },
      "jailMember(address)": {
        "notice": "Jails a member"
      },
      "mainConfiguration(bytes32)": {
        "notice": "The map that keeps track of configuration parameters for the DAO and adapters"
      },
      "processProposal(bytes32)": {
        "notice": "Mark a proposal as processed in the DAO registry"
      },
      "proposals(bytes32)": {
        "notice": "The map that keeps track of all proposasls submitted to the DAO"
      },
      "registerPotentialNewInternalToken(address)": {
        "notice": "Registers a potential new internal token in the bank"
      },
      "registerPotentialNewToken(address)": {
        "notice": "Registers a potential new token in the bank"
      },
      "registry(bytes32)": {
        "notice": "The map that keeps track of all adapters registered in the DAO"
      },
      "removeAdapter(bytes32)": {
        "notice": "Removes an adapter from the registry"
      },
      "setAddressConfiguration(bytes32,address)": {
        "notice": "Sets an configuration value"
      },
      "setConfiguration(bytes32,uint256)": {
        "notice": "Sets a configuration value"
      },
      "sponsorProposal(bytes32,address)": {
        "notice": "Sponsor proposals that were submitted to the DAO registry"
      },
      "submitProposal(bytes32)": {
        "notice": "Submit proposals to the DAO registry"
      },
      "subtractFromBalance(address,address,uint256)": {
        "notice": "Remove from a user's balance of a given token"
      },
      "unjailMember(address)": {
        "notice": "Unjails a member"
      },
      "updateDelegateKey(address,address)": {
        "notice": "Updates the delegate key of a member"
      }
    },
    "notice": "MIT License Copyright (c) 2020 Openlaw Permission is hereby granted, free of charge, to any person obtaining a copy of this software and associated documentation files (the \"Software\"), to deal in the Software without restriction, including without limitation the rights to use, copy, modify, merge, publish, distribute, sublicense, and/or sell copies of the Software, and to permit persons to whom the Software is furnished to do so, subject to the following conditions: The above copyright notice and this permission notice shall be included in all copies or substantial portions of the Software. THE SOFTWARE IS PROVIDED \"AS IS\", WITHOUT WARRANTY OF ANY KIND, EXPRESS OR IMPLIED, INCLUDING BUT NOT LIMITED TO THE WARRANTIES OF MERCHANTABILITY, FITNESS FOR A PARTICULAR PURPOSE AND NONINFRINGEMENT. IN NO EVENT SHALL THE AUTHORS OR COPYRIGHT HOLDERS BE LIABLE FOR ANY CLAIM, DAMAGES OR OTHER LIABILITY, WHETHER IN AN ACTION OF CONTRACT, TORT OR OTHERWISE, ARISING FROM, OUT OF OR IN CONNECTION WITH THE SOFTWARE OR THE USE OR OTHER DEALINGS IN THE SOFTWARE.",
    "version": 1
  }
}