{
  "contractName": "DaoRegistry",
  "abi": [
    {
      "anonymous": false,
      "inputs": [
        {
          "indexed": false,
          "internalType": "bytes32",
          "name": "adapterId",
          "type": "bytes32"
        },
        {
          "indexed": false,
          "internalType": "address",
          "name": "adapterAddress",
          "type": "address"
        },
        {
          "indexed": false,
          "internalType": "uint256",
          "name": "flags",
          "type": "uint256"
        }
      ],
      "name": "AdapterAdded",
      "type": "event"
    },
    {
      "anonymous": false,
      "inputs": [
        {
          "indexed": false,
          "internalType": "bytes32",
          "name": "adapterId",
          "type": "bytes32"
        }
      ],
      "name": "AdapterRemoved",
      "type": "event"
    },
    {
      "anonymous": false,
      "inputs": [
        {
          "indexed": false,
          "internalType": "bytes32",
          "name": "key",
          "type": "bytes32"
        },
        {
          "indexed": false,
          "internalType": "address",
          "name": "value",
          "type": "address"
        }
      ],
      "name": "AddressConfigurationUpdated",
      "type": "event"
    },
    {
      "anonymous": false,
      "inputs": [
        {
          "indexed": false,
          "internalType": "bytes32",
          "name": "key",
          "type": "bytes32"
        },
        {
          "indexed": false,
          "internalType": "uint256",
          "name": "value",
          "type": "uint256"
        }
      ],
      "name": "ConfigurationUpdated",
      "type": "event"
    },
    {
      "anonymous": false,
      "inputs": [
        {
          "indexed": false,
          "internalType": "bytes32",
          "name": "extensionId",
          "type": "bytes32"
        },
        {
          "indexed": false,
          "internalType": "address",
          "name": "extensionAddress",
          "type": "address"
        }
      ],
      "name": "ExtensionAdded",
      "type": "event"
    },
    {
      "anonymous": false,
      "inputs": [
        {
          "indexed": false,
          "internalType": "bytes32",
          "name": "extensionId",
          "type": "bytes32"
        }
      ],
      "name": "ExtensionRemoved",
      "type": "event"
    },
    {
      "anonymous": false,
      "inputs": [
        {
          "indexed": false,
          "internalType": "address",
          "name": "memberAddr",
          "type": "address"
        }
      ],
      "name": "MemberJailed",
      "type": "event"
    },
    {
      "anonymous": false,
      "inputs": [
        {
          "indexed": false,
          "internalType": "address",
          "name": "memberAddr",
          "type": "address"
        }
      ],
      "name": "MemberUnjailed",
      "type": "event"
    },
    {
      "anonymous": false,
      "inputs": [
        {
          "indexed": false,
          "internalType": "bytes32",
          "name": "proposalId",
          "type": "bytes32"
        },
        {
          "indexed": false,
          "internalType": "uint256",
          "name": "flags",
          "type": "uint256"
        }
      ],
      "name": "ProcessedProposal",
      "type": "event"
    },
    {
      "anonymous": false,
      "inputs": [
        {
          "indexed": false,
          "internalType": "bytes32",
          "name": "proposalId",
          "type": "bytes32"
        },
        {
          "indexed": false,
          "internalType": "uint256",
          "name": "flags",
          "type": "uint256"
        }
      ],
      "name": "SponsoredProposal",
      "type": "event"
    },
    {
      "anonymous": false,
      "inputs": [
        {
          "indexed": false,
          "internalType": "bytes32",
          "name": "proposalId",
          "type": "bytes32"
        },
        {
          "indexed": false,
          "internalType": "uint256",
          "name": "flags",
          "type": "uint256"
        }
      ],
      "name": "SubmittedProposal",
      "type": "event"
    },
    {
      "anonymous": false,
      "inputs": [
        {
          "indexed": false,
          "internalType": "address",
          "name": "memberAddress",
          "type": "address"
        },
        {
          "indexed": false,
          "internalType": "address",
          "name": "newDelegateKey",
          "type": "address"
        }
      ],
      "name": "UpdateDelegateKey",
      "type": "event"
    },
    {
      "inputs": [
        {
          "internalType": "bytes32",
          "name": "",
          "type": "bytes32"
        }
      ],
      "name": "adapters",
      "outputs": [
        {
          "internalType": "address",
          "name": "",
          "type": "address"
        }
      ],
      "stateMutability": "view",
      "type": "function"
    },
    {
      "inputs": [
        {
          "internalType": "bytes32",
          "name": "",
          "type": "bytes32"
        }
      ],
      "name": "addressConfiguration",
      "outputs": [
        {
          "internalType": "address",
          "name": "",
          "type": "address"
        }
      ],
      "stateMutability": "view",
      "type": "function"
    },
    {
      "inputs": [
        {
          "internalType": "bytes32",
          "name": "",
          "type": "bytes32"
        }
      ],
      "name": "extensions",
      "outputs": [
        {
          "internalType": "address",
          "name": "",
          "type": "address"
        }
      ],
      "stateMutability": "view",
      "type": "function"
    },
    {
      "inputs": [
        {
          "internalType": "uint256",
          "name": "flags",
          "type": "uint256"
        },
        {
          "internalType": "uint256",
          "name": "flag",
          "type": "uint256"
        }
      ],
      "name": "getFlag",
      "outputs": [
        {
          "internalType": "bool",
          "name": "",
          "type": "bool"
        }
      ],
      "stateMutability": "pure",
      "type": "function"
    },
    {
      "inputs": [],
      "name": "initialized",
      "outputs": [
        {
          "internalType": "bool",
          "name": "",
          "type": "bool"
        }
      ],
      "stateMutability": "view",
      "type": "function"
    },
    {
      "inputs": [
        {
          "internalType": "address",
          "name": "",
          "type": "address"
        }
      ],
      "name": "inverseAdapters",
      "outputs": [
        {
          "internalType": "bytes32",
          "name": "id",
          "type": "bytes32"
        },
        {
          "internalType": "uint256",
          "name": "acl",
          "type": "uint256"
        }
      ],
      "stateMutability": "view",
      "type": "function"
    },
    {
      "inputs": [
        {
          "internalType": "address",
          "name": "",
          "type": "address"
        }
      ],
      "name": "inverseExtensions",
      "outputs": [
        {
          "internalType": "bytes32",
          "name": "id",
          "type": "bytes32"
        }
      ],
      "stateMutability": "view",
      "type": "function"
    },
    {
      "inputs": [
        {
          "internalType": "bytes32",
          "name": "",
          "type": "bytes32"
        }
      ],
      "name": "mainConfiguration",
      "outputs": [
        {
          "internalType": "uint256",
          "name": "",
          "type": "uint256"
        }
      ],
      "stateMutability": "view",
      "type": "function"
    },
    {
      "inputs": [
        {
          "internalType": "address",
          "name": "",
          "type": "address"
        }
      ],
      "name": "memberAddressesByDelegatedKey",
      "outputs": [
        {
          "internalType": "address",
          "name": "",
          "type": "address"
        }
      ],
      "stateMutability": "view",
      "type": "function"
    },
    {
      "inputs": [
        {
          "internalType": "address",
          "name": "",
          "type": "address"
        }
      ],
      "name": "members",
      "outputs": [
        {
          "internalType": "uint256",
          "name": "flags",
          "type": "uint256"
        }
      ],
      "stateMutability": "view",
      "type": "function"
    },
    {
      "inputs": [
        {
          "internalType": "bytes32",
          "name": "",
          "type": "bytes32"
        }
      ],
      "name": "proposals",
      "outputs": [
        {
          "internalType": "address",
          "name": "adapterAddress",
          "type": "address"
        },
        {
          "internalType": "uint256",
          "name": "flags",
          "type": "uint256"
        }
      ],
      "stateMutability": "view",
      "type": "function"
    },
    {
      "inputs": [
        {
          "internalType": "uint256",
          "name": "flags",
          "type": "uint256"
        },
        {
          "internalType": "uint256",
          "name": "flag",
          "type": "uint256"
        },
        {
          "internalType": "bool",
          "name": "value",
          "type": "bool"
        }
      ],
      "name": "setFlag",
      "outputs": [
        {
          "internalType": "uint256",
          "name": "",
          "type": "uint256"
        }
      ],
      "stateMutability": "pure",
      "type": "function"
    },
    {
      "inputs": [],
      "name": "state",
      "outputs": [
        {
          "internalType": "enum DaoRegistry.DaoState",
          "name": "",
          "type": "uint8"
        }
      ],
      "stateMutability": "view",
      "type": "function"
    },
    {
      "stateMutability": "payable",
      "type": "receive"
    },
    {
      "inputs": [
        {
          "internalType": "address",
          "name": "creator",
          "type": "address"
        }
      ],
      "name": "initialize",
      "outputs": [],
      "stateMutability": "nonpayable",
      "type": "function"
    },
    {
      "inputs": [],
      "name": "finalizeDao",
      "outputs": [],
      "stateMutability": "nonpayable",
      "type": "function"
    },
    {
      "inputs": [
        {
          "internalType": "bytes32",
          "name": "key",
          "type": "bytes32"
        },
        {
          "internalType": "uint256",
          "name": "value",
          "type": "uint256"
        }
      ],
      "name": "setConfiguration",
      "outputs": [],
      "stateMutability": "nonpayable",
      "type": "function"
    },
    {
      "inputs": [
        {
          "internalType": "address",
          "name": "memberAddress",
          "type": "address"
        }
      ],
      "name": "potentialNewMember",
      "outputs": [],
      "stateMutability": "nonpayable",
      "type": "function"
    },
    {
      "inputs": [
        {
          "internalType": "bytes32",
          "name": "key",
          "type": "bytes32"
        },
        {
          "internalType": "address",
          "name": "value",
          "type": "address"
        }
      ],
      "name": "setAddressConfiguration",
      "outputs": [],
      "stateMutability": "nonpayable",
      "type": "function"
    },
    {
      "inputs": [
        {
          "internalType": "bytes32",
          "name": "key",
          "type": "bytes32"
        }
      ],
      "name": "getConfiguration",
      "outputs": [
        {
          "internalType": "uint256",
          "name": "",
          "type": "uint256"
        }
      ],
      "stateMutability": "view",
      "type": "function"
    },
    {
      "inputs": [
        {
          "internalType": "bytes32",
          "name": "key",
          "type": "bytes32"
        }
      ],
      "name": "getAddressConfiguration",
      "outputs": [
        {
          "internalType": "address",
          "name": "",
          "type": "address"
        }
      ],
      "stateMutability": "view",
      "type": "function"
    },
    {
      "inputs": [
        {
          "internalType": "bytes32",
          "name": "extensionId",
          "type": "bytes32"
        },
        {
          "internalType": "contract IExtension",
          "name": "extension",
          "type": "address"
        },
        {
          "internalType": "address",
          "name": "creator",
          "type": "address"
        }
      ],
      "name": "addExtension",
      "outputs": [],
      "stateMutability": "nonpayable",
      "type": "function"
    },
    {
      "inputs": [
        {
          "internalType": "bytes32",
          "name": "adapterId",
          "type": "bytes32"
        },
        {
          "internalType": "address",
          "name": "adapterAddress",
          "type": "address"
        },
        {
          "internalType": "uint256",
          "name": "acl",
          "type": "uint256"
        }
      ],
      "name": "addAdapter",
      "outputs": [],
      "stateMutability": "nonpayable",
      "type": "function"
    },
    {
      "inputs": [
        {
          "internalType": "address",
          "name": "extensionAddress",
          "type": "address"
        },
        {
          "internalType": "address",
          "name": "adapterAddress",
          "type": "address"
        },
        {
          "internalType": "uint256",
          "name": "acl",
          "type": "uint256"
        }
      ],
      "name": "setAclToExtensionForAdapter",
      "outputs": [],
      "stateMutability": "nonpayable",
      "type": "function"
    },
    {
      "inputs": [
        {
          "internalType": "bytes32",
          "name": "adapterId",
          "type": "bytes32"
        }
      ],
      "name": "removeAdapter",
      "outputs": [],
      "stateMutability": "nonpayable",
      "type": "function"
    },
    {
      "inputs": [
        {
          "internalType": "bytes32",
          "name": "extensionId",
          "type": "bytes32"
        }
      ],
      "name": "removeExtension",
      "outputs": [],
      "stateMutability": "nonpayable",
      "type": "function"
    },
    {
      "inputs": [
        {
          "internalType": "address",
          "name": "extensionAddr",
          "type": "address"
        }
      ],
      "name": "isExtension",
      "outputs": [
        {
          "internalType": "bool",
          "name": "",
          "type": "bool"
        }
      ],
      "stateMutability": "view",
      "type": "function"
    },
    {
      "inputs": [
        {
          "internalType": "address",
          "name": "adapterAddress",
          "type": "address"
        }
      ],
      "name": "isAdapter",
      "outputs": [
        {
          "internalType": "bool",
          "name": "",
          "type": "bool"
        }
      ],
      "stateMutability": "view",
      "type": "function"
    },
    {
      "inputs": [
        {
          "internalType": "address",
          "name": "adapterAddress",
          "type": "address"
        },
        {
          "internalType": "enum DaoRegistry.AclFlag",
          "name": "flag",
          "type": "uint8"
        }
      ],
      "name": "hasAdapterAccess",
      "outputs": [
        {
          "internalType": "bool",
          "name": "",
          "type": "bool"
        }
      ],
      "stateMutability": "view",
      "type": "function"
    },
    {
      "inputs": [
        {
          "internalType": "address",
          "name": "adapterAddress",
          "type": "address"
        },
        {
          "internalType": "address",
          "name": "extensionAddress",
          "type": "address"
        },
        {
          "internalType": "uint8",
          "name": "flag",
          "type": "uint8"
        }
      ],
      "name": "hasAdapterAccessToExtension",
      "outputs": [
        {
          "internalType": "bool",
          "name": "",
          "type": "bool"
        }
      ],
      "stateMutability": "view",
      "type": "function"
    },
    {
      "inputs": [
        {
          "internalType": "bytes32",
          "name": "adapterId",
          "type": "bytes32"
        }
      ],
      "name": "getAdapterAddress",
      "outputs": [
        {
          "internalType": "address",
          "name": "",
          "type": "address"
        }
      ],
      "stateMutability": "view",
      "type": "function"
    },
    {
      "inputs": [
        {
          "internalType": "bytes32",
          "name": "extensionId",
          "type": "bytes32"
        }
      ],
      "name": "getExtensionAddress",
      "outputs": [
        {
          "internalType": "address",
          "name": "",
          "type": "address"
        }
      ],
      "stateMutability": "view",
      "type": "function"
    },
    {
      "inputs": [
        {
          "internalType": "address",
          "name": "memberAddr",
          "type": "address"
        }
      ],
      "name": "jailMember",
      "outputs": [],
      "stateMutability": "nonpayable",
      "type": "function"
    },
    {
      "inputs": [
        {
          "internalType": "address",
          "name": "memberAddr",
          "type": "address"
        }
      ],
      "name": "unjailMember",
      "outputs": [],
      "stateMutability": "nonpayable",
      "type": "function"
    },
    {
      "inputs": [
        {
          "internalType": "bytes32",
          "name": "proposalId",
          "type": "bytes32"
        }
      ],
      "name": "submitProposal",
      "outputs": [],
      "stateMutability": "nonpayable",
      "type": "function"
    },
    {
      "inputs": [
        {
          "internalType": "bytes32",
          "name": "proposalId",
          "type": "bytes32"
        },
        {
          "internalType": "address",
          "name": "sponsoringMember",
          "type": "address"
        }
      ],
      "name": "sponsorProposal",
      "outputs": [],
      "stateMutability": "nonpayable",
      "type": "function"
    },
    {
      "inputs": [
        {
          "internalType": "bytes32",
          "name": "proposalId",
          "type": "bytes32"
        }
      ],
      "name": "processProposal",
      "outputs": [],
      "stateMutability": "nonpayable",
      "type": "function"
    },
    {
      "inputs": [
        {
          "internalType": "address",
          "name": "addr",
          "type": "address"
        }
      ],
      "name": "isActiveMember",
      "outputs": [
        {
          "internalType": "bool",
          "name": "",
          "type": "bool"
        }
      ],
      "stateMutability": "view",
      "type": "function"
    },
    {
      "inputs": [
        {
          "internalType": "bytes32",
          "name": "proposalId",
          "type": "bytes32"
        },
        {
          "internalType": "enum DaoRegistry.ProposalFlag",
          "name": "flag",
          "type": "uint8"
        }
      ],
      "name": "getProposalFlag",
      "outputs": [
        {
          "internalType": "bool",
          "name": "",
          "type": "bool"
        }
      ],
      "stateMutability": "view",
      "type": "function"
    },
    {
      "inputs": [
        {
          "internalType": "address",
          "name": "memberAddress",
          "type": "address"
        },
        {
          "internalType": "enum DaoRegistry.MemberFlag",
          "name": "flag",
          "type": "uint8"
        }
      ],
      "name": "getMemberFlag",
      "outputs": [
        {
          "internalType": "bool",
          "name": "",
          "type": "bool"
        }
      ],
      "stateMutability": "view",
      "type": "function"
    },
    {
      "inputs": [],
      "name": "getNbMember",
      "outputs": [
        {
          "internalType": "uint256",
          "name": "",
          "type": "uint256"
        }
      ],
      "stateMutability": "view",
      "type": "function"
    },
    {
      "inputs": [
        {
          "internalType": "uint256",
          "name": "index",
          "type": "uint256"
        }
      ],
      "name": "getMemberAddress",
      "outputs": [
        {
          "internalType": "address",
          "name": "",
          "type": "address"
        }
      ],
      "stateMutability": "view",
      "type": "function"
    },
    {
      "inputs": [
        {
          "internalType": "address",
          "name": "memberAddr",
          "type": "address"
        },
        {
          "internalType": "address",
          "name": "newDelegateKey",
          "type": "address"
        }
      ],
      "name": "updateDelegateKey",
      "outputs": [],
      "stateMutability": "nonpayable",
      "type": "function"
    },
    {
      "inputs": [
        {
          "internalType": "address",
          "name": "applicant",
          "type": "address"
        }
      ],
      "name": "isNotReservedAddress",
      "outputs": [
        {
          "internalType": "bool",
          "name": "",
          "type": "bool"
        }
      ],
      "stateMutability": "pure",
      "type": "function"
    },
    {
      "inputs": [
        {
          "internalType": "address",
          "name": "checkAddr",
          "type": "address"
        }
      ],
      "name": "getAddressIfDelegated",
      "outputs": [
        {
          "internalType": "address",
          "name": "",
          "type": "address"
        }
      ],
      "stateMutability": "view",
      "type": "function"
    },
    {
      "inputs": [
        {
          "internalType": "address",
          "name": "memberAddr",
          "type": "address"
        }
      ],
      "name": "getCurrentDelegateKey",
      "outputs": [
        {
          "internalType": "address",
          "name": "",
          "type": "address"
        }
      ],
      "stateMutability": "view",
      "type": "function"
    },
    {
      "inputs": [
        {
          "internalType": "address",
          "name": "memberAddr",
          "type": "address"
        }
      ],
      "name": "getPreviousDelegateKey",
      "outputs": [
        {
          "internalType": "address",
          "name": "",
          "type": "address"
        }
      ],
      "stateMutability": "view",
      "type": "function"
    },
    {
      "inputs": [
        {
          "internalType": "address",
          "name": "memberAddr",
          "type": "address"
        },
        {
          "internalType": "uint256",
          "name": "blockNumber",
          "type": "uint256"
        }
      ],
      "name": "getPriorDelegateKey",
      "outputs": [
        {
          "internalType": "address",
          "name": "",
          "type": "address"
        }
      ],
      "stateMutability": "view",
      "type": "function"
    }
  ],
  "bytecode": "0x60806040526000805460ff1916905534801561001a57600080fd5b50613c8d8061002a6000396000f3fe60806040526004361061030c5760003560e01c806381ff3b201161019a578063c19d93fb116100e1578063ef6a24991161008a578063fc25803111610064578063fc258031146108e6578063fd310d2914610906578063fefbd8751461092657610332565b8063ef6a249914610886578063f847ed48146108a6578063f941f691146108c657610332565b8063da0f6c70116100bb578063da0f6c7014610826578063dc929f4a14610846578063e24f905b1461086657610332565b8063c19d93fb146107c4578063c4d66de8146107e6578063c89bb8ba1461080657610332565b8063ac8359b811610143578063b59b11761161011d578063b59b117614610764578063b73dc38914610784578063c130c639146107a457610332565b8063ac8359b814610704578063ae7fdd6714610724578063b244a41d1461074457610332565b80639472497c116101745780639472497c146106965780639ef28a0a146106b6578063a9d93862146106d657610332565b806381ff3b20146106365780639029444a146106565780639283ae3a1461067657610332565b80633b4f921a1161025e578063593e96b6116102075780636cfdc32e116101e15780636cfdc32e146105d657806372c6838f146105f6578063815a2bf41461061657610332565b8063593e96b6146105815780636503287f146105a157806368c18beb146105b657610332565b80634a19d91e116102385780634a19d91e1461052c57806356275ce11461054c578063575d3f731461056157610332565b80633b4f921a146104cc57806342447c18146104ec57806345ecd02f1461050c57610332565b806317ba7d85116102c057806330490e911161029a57806330490e911461045e57806332ed5b121461047e578063397a6947146104ac57610332565b806317ba7d85146103f157806324658c511461041e5780632d1959631461043e57610332565b80630d53ab83116102f15780630d53ab831461038f578063158ef93e146103bc578063179986f8146103d157610332565b806308ae4b0c146103375780630ac9bd011461036d57610332565b366103325760405162461bcd60e51b815260040161032990613542565b60405180910390fd5b600080fd5b34801561034357600080fd5b50610357610352366004612fce565b610946565b60405161036491906132fd565b60405180910390f35b34801561037957600080fd5b5061038d610388366004613155565b610958565b005b34801561039b57600080fd5b506103af6103aa3660046130b1565b610b70565b60405161036491906132f2565b3480156103c857600080fd5b506103af610bc1565b3480156103dd57600080fd5b5061038d6103ec366004613022565b610bca565b3480156103fd57600080fd5b5061041161040c366004613155565b610d7c565b604051610364919061327e565b34801561042a57600080fd5b5061038d610439366004613191565b610d97565b34801561044a57600080fd5b50610357610459366004612fce565b610fde565b34801561046a57600080fd5b5061038d610479366004613155565b610ff0565b34801561048a57600080fd5b5061049e610499366004613155565b61116f565b6040516103649291906132d9565b3480156104b857600080fd5b506104116104c7366004612fce565b611194565b3480156104d857600080fd5b5061038d6104e736600461316d565b61121a565b3480156104f857600080fd5b5061038d610507366004612fce565b6113cf565b34801561051857600080fd5b506103af610527366004612fce565b6115af565b34801561053857600080fd5b5061041161054736600461310e565b611604565b34801561055857600080fd5b5061035761187a565b34801561056d57600080fd5b5061038d61057c366004612fce565b611880565b34801561058d57600080fd5b5061041161059c366004613155565b611a55565b3480156105ad57600080fd5b5061038d611aa5565b3480156105c257600080fd5b506103af6105d1366004612fce565b611ad2565b3480156105e257600080fd5b506103af6105f1366004613062565b611aef565b34801561060257600080fd5b50610411610611366004613155565b611b28565b34801561062257600080fd5b5061038d61063136600461316d565b611b43565b34801561064257600080fd5b50610411610651366004613155565b611d6d565b34801561066257600080fd5b50610411610671366004613155565b611d88565b34801561068257600080fd5b50610357610691366004613155565b611dc6565b3480156106a257600080fd5b506104116106b1366004612fce565b611dd8565b3480156106c257600080fd5b506103576106d1366004613155565b611df3565b3480156106e257600080fd5b506106f66106f1366004612fce565b611e05565b60405161036492919061333c565b34801561071057600080fd5b5061038d61071f366004612fea565b611e1e565b34801561073057600080fd5b506103af61073f3660046130e1565b6120bb565b34801561075057600080fd5b5061035761075f366004613251565b6120f9565b34801561077057600080fd5b5061038d61077f366004613155565b612152565b34801561079057600080fd5b5061038d61079f366004613155565b612363565b3480156107b057600080fd5b5061038d6107bf3660046131b7565b612529565b3480156107d057600080fd5b506107d96127a3565b604051610364919061334a565b3480156107f257600080fd5b5061038d610801366004612fce565b6127ac565b34801561081257600080fd5b50610411610821366004612fce565b612806565b34801561083257600080fd5b5061038d610841366004613214565b612836565b34801561085257600080fd5b5061038d610861366004612fce565b6129af565b34801561087257600080fd5b50610411610881366004612fce565b612ba2565b34801561089257600080fd5b506103af6108a1366004612fce565b612bf3565b3480156108b257600080fd5b506103af6108c1366004612fce565b612c20565b3480156108d257600080fd5b506103af6108e13660046131ed565b612c3d565b3480156108f257600080fd5b506103af610901366004613214565b612c73565b34801561091257600080fd5b50610411610921366004613155565b612c90565b34801561093257600080fd5b50610411610941366004613155565b612cab565b60016020526000908152604090205481565b30600a6000826001600160a01b031663c19d93fb6040518163ffffffff1660e01b815260040160206040518083038186803b15801561099657600080fd5b505afa1580156109aa573d6000803e3d6000fd5b505050506040513d601f19601f820116820180604052508101906109ce9190613235565b60018111156109ed57634e487b7160e01b600052602160045260246000fd5b1480610a725750604051630d53ab8360e01b81526001600160a01b03831690630d53ab8390610a2290339085906004016132ac565b60206040518083038186803b158015610a3a57600080fd5b505afa158015610a4e573d6000803e3d6000fd5b505050506040513d601f19601f82011682018060405250810190610a729190613139565b610a8e5760405162461bcd60e51b81526004016103299061350b565b82610aab5760405162461bcd60e51b8152600401610329906137c9565b6000838152600a60205260409020546001600160a01b0316610adf5760405162461bcd60e51b81526004016103299061395f565b6000838152600a6020818152604080842080546001600160a01b03168552600b83528185208590559387905291905281547fffffffffffffffffffffffff000000000000000000000000000000000000000016909155517f3387f97466c32037f6c1cd4dd0403c1235f07c5db670bd53c7a64af05783e50b90610b639085906132fd565b60405180910390a1505050565b6001600160a01b038216600090815260096020526040812060010154610bb89083600b811115610bb057634e487b7160e01b600052602160045260246000fd5b60ff16612c73565b90505b92915050565b60005460ff1681565b3060096000826001600160a01b031663c19d93fb6040518163ffffffff1660e01b815260040160206040518083038186803b158015610c0857600080fd5b505afa158015610c1c573d6000803e3d6000fd5b505050506040513d601f19601f82011682018060405250810190610c409190613235565b6001811115610c5f57634e487b7160e01b600052602160045260246000fd5b1480610ce45750604051630d53ab8360e01b81526001600160a01b03831690630d53ab8390610c9490339085906004016132ac565b60206040518083038186803b158015610cac57600080fd5b505afa158015610cc0573d6000803e3d6000fd5b505050506040513d601f19601f82011682018060405250810190610ce49190613139565b610d005760405162461bcd60e51b81526004016103299061350b565b610d0984611ad2565b610d255760405162461bcd60e51b81526004016103299061342f565b610d2e85612c20565b610d4a5760405162461bcd60e51b81526004016103299061359f565b50506001600160a01b039283166000908152600b60209081526040808320949095168252600190930190925291902055565b6000908152600860205260409020546001600160a01b031690565b30600080826001600160a01b031663c19d93fb6040518163ffffffff1660e01b815260040160206040518083038186803b158015610dd457600080fd5b505afa158015610de8573d6000803e3d6000fd5b505050506040513d601f19601f82011682018060405250810190610e0c9190613235565b6001811115610e2b57634e487b7160e01b600052602160045260246000fd5b1480610eb05750604051630d53ab8360e01b81526001600160a01b03831690630d53ab8390610e6090339085906004016132ac565b60206040518083038186803b158015610e7857600080fd5b505afa158015610e8c573d6000803e3d6000fd5b505050506040513d601f19601f82011682018060405250810190610eb09190613139565b610ecc5760405162461bcd60e51b81526004016103299061350b565b84610ee95760405162461bcd60e51b815260040161032990613928565b6001600160a01b038416610f0f5760405162461bcd60e51b8152600401610329906139cd565b6000858152600860205260409020546001600160a01b031615610f445760405162461bcd60e51b815260040161032990613364565b600085815260086020908152604080832080547fffffffffffffffffffffffff0000000000000000000000000000000000000000166001600160a01b0389169081179091558352600990915290819020868155600101849055517fbc26dad550c12a27c05821a0d30ad7aa6d360a53b05f8a6f4b767d714d401b3390610fcf9087908790879061331d565b60405180910390a15050505050565b600b6020526000908152604090205481565b3060066000826001600160a01b031663c19d93fb6040518163ffffffff1660e01b815260040160206040518083038186803b15801561102e57600080fd5b505afa158015611042573d6000803e3d6000fd5b505050506040513d601f19601f820116820180604052508101906110669190613235565b600181111561108557634e487b7160e01b600052602160045260246000fd5b148061110a5750604051630d53ab8360e01b81526001600160a01b03831690630d53ab83906110ba90339085906004016132ac565b60206040518083038186803b1580156110d257600080fd5b505afa1580156110e6573d6000803e3d6000fd5b505050506040513d601f19601f8201168201806040525081019061110a9190613139565b6111265760405162461bcd60e51b81526004016103299061350b565b6000611133846002612cc6565b90506000816001015490507fc18309f39ddacb9549656448966168cc2c7a000d42589e9bb8b458536d2fa3578582604051610fcf92919061333c565b600760205260009081526040902080546001909101546001600160a01b039091169082565b6001600160a01b03811660009081526005602052604081205463ffffffff16806111be5782611213565b6001600160a01b0383166000908152600460205260408120906111e2600184613ba9565b63ffffffff1681526020810191909152604001600020546c0100000000000000000000000090046001600160a01b03165b9392505050565b3060086000826001600160a01b031663c19d93fb6040518163ffffffff1660e01b815260040160206040518083038186803b15801561125857600080fd5b505afa15801561126c573d6000803e3d6000fd5b505050506040513d601f19601f820116820180604052508101906112909190613235565b60018111156112af57634e487b7160e01b600052602160045260246000fd5b14806113345750604051630d53ab8360e01b81526001600160a01b03831690630d53ab83906112e490339085906004016132ac565b60206040518083038186803b1580156112fc57600080fd5b505afa158015611310573d6000803e3d6000fd5b505050506040513d601f19601f820116820180604052508101906113349190613139565b6113505760405162461bcd60e51b81526004016103299061350b565b6000848152600d60205260409081902080547fffffffffffffffffffffffff0000000000000000000000000000000000000000166001600160a01b038616179055517f267dcb73663ad8bcfc5129e8f77b221d86951fc787ab6dd2fe5f27185af1afd0906113c19086908690613306565b60405180910390a150505050565b3060036000826001600160a01b031663c19d93fb6040518163ffffffff1660e01b815260040160206040518083038186803b15801561140d57600080fd5b505afa158015611421573d6000803e3d6000fd5b505050506040513d601f19601f820116820180604052508101906114459190613235565b600181111561146457634e487b7160e01b600052602160045260246000fd5b14806114e95750604051630d53ab8360e01b81526001600160a01b03831690630d53ab839061149990339085906004016132ac565b60206040518083038186803b1580156114b157600080fd5b505afa1580156114c5573d6000803e3d6000fd5b505050506040513d601f19601f820116820180604052508101906114e99190613139565b6115055760405162461bcd60e51b81526004016103299061350b565b6001600160a01b03831660009081526001602052604081208054909161152c908290610bb0565b6115485760405162461bcd60e51b815260040161032990613996565b611553816001610bb0565b156115a85761156581600160006120f9565b82556115798561157481612ba2565b612dd6565b7fcfceb094d9f542fa90d6c410bc762eeb53beaf4c83d87ebb54bb929737b81b9385604051610fcf919061327e565b5050505050565b6001600160a01b038082166000908152600360209081526040808320549093168083526001909152918120549091906115e88184610bb0565b80156115fc57506115fa816001610bb0565b155b949350505050565b60004382106116255760405162461bcd60e51b8152600401610329906136b2565b6001600160a01b03831660009081526005602052604090205463ffffffff16806116525783915050610bbb565b6001600160a01b03841660009081526004602052604081208491611677600185613ba9565b63ffffffff1681526020810191909152604001600020546bffffffffffffffffffffffff16116116fe576001600160a01b0384166000908152600460205260408120906116c5600184613ba9565b63ffffffff1681526020810191909152604001600020546c0100000000000000000000000090046001600160a01b03169150610bbb9050565b6001600160a01b03841660009081526004602090815260408083208380529091529020546bffffffffffffffffffffffff168310156117405783915050610bbb565b60008061174e600184613ba9565b90505b8163ffffffff168163ffffffff16111561183357600060026117738484613ba9565b61177d9190613a42565b6117879083613ba9565b6001600160a01b03808916600090815260046020908152604080832063ffffffff861684528252918290208251808401909352546bffffffffffffffffffffffff81168084526c01000000000000000000000000909104909316908201529192508714156117ff57602001519450610bbb9350505050565b80516bffffffffffffffffffffffff1687111561181e5781935061182c565b611829600183613ba9565b92505b5050611751565b506001600160a01b03948516600090815260046020908152604080832063ffffffff94909416835292905220546c0100000000000000000000000090049093169392505050565b60025490565b3060026000826001600160a01b031663c19d93fb6040518163ffffffff1660e01b815260040160206040518083038186803b1580156118be57600080fd5b505afa1580156118d2573d6000803e3d6000fd5b505050506040513d601f19601f820116820180604052508101906118f69190613235565b600181111561191557634e487b7160e01b600052602160045260246000fd5b148061199a5750604051630d53ab8360e01b81526001600160a01b03831690630d53ab839061194a90339085906004016132ac565b60206040518083038186803b15801561196257600080fd5b505afa158015611976573d6000803e3d6000fd5b505050506040513d601f19601f8201168201806040525081019061199a9190613139565b6119b65760405162461bcd60e51b81526004016103299061350b565b6001600160a01b0383166000908152600160205260408120805490916119dd908290610bb0565b6119f95760405162461bcd60e51b815260040161032990613996565b611a04816001610bb0565b6115a857611a198160015b60ff1660016120f9565b8255611a26856001612dd6565b7f7707cc703130eaf531ace85862a435d9155f1b2f1a1d5fe46f5d3181c1d6235585604051610fcf919061327e565b6000818152600a60205260408120546001600160a01b0316611a895760405162461bcd60e51b8152600401610329906135d6565b506000908152600a60205260409020546001600160a01b031690565b600680547fffffffffffffffffffffffffffffffffffffffffffffffffffffffffffffff00166001179055565b6001600160a01b0316600090815260096020526040902054151590565b6001600160a01b038083166000908152600b60209081526040808320938716835260019093019052908120546115fc9060ff8416612c73565b6008602052600090815260409020546001600160a01b031681565b3060056000826001600160a01b031663c19d93fb6040518163ffffffff1660e01b815260040160206040518083038186803b158015611b8157600080fd5b505afa158015611b95573d6000803e3d6000fd5b505050506040513d601f19601f82011682018060405250810190611bb99190613235565b6001811115611bd857634e487b7160e01b600052602160045260246000fd5b1480611c5d5750604051630d53ab8360e01b81526001600160a01b03831690630d53ab8390611c0d90339085906004016132ac565b60206040518083038186803b158015611c2557600080fd5b505afa158015611c39573d6000803e3d6000fd5b505050506040513d601f19601f82011682018060405250810190611c5d9190613139565b611c795760405162461bcd60e51b81526004016103299061350b565b6000611c86856001612cc6565b60018101548154919250906001600160a01b03163314611cb85760405162461bcd60e51b815260040161032990613894565b611cc3816000610bb0565b611cdf5760405162461bcd60e51b81526004016103299061360d565b611cea816002610bb0565b15611d075760405162461bcd60e51b8152600401610329906138f1565b611d10856115af565b611d2c5760405162461bcd60e51b81526004016103299061376c565b7f1eb4aad316f1991a2480976a3a00f1925d281500232e10b01cc6c7dc063cb6128682604051611d5d92919061333c565b60405180910390a1505050505050565b600d602052600090815260409020546001600160a01b031681565b600060028281548110611dab57634e487b7160e01b600052603260045260246000fd5b6000918252602090912001546001600160a01b031692915050565b6000908152600c602052604090205490565b6003602052600090815260409020546001600160a01b031681565b600c6020526000908152604090205481565b6009602052600090815260409020805460019091015482565b3060076000826001600160a01b031663c19d93fb6040518163ffffffff1660e01b815260040160206040518083038186803b158015611e5c57600080fd5b505afa158015611e70573d6000803e3d6000fd5b505050506040513d601f19601f82011682018060405250810190611e949190613235565b6001811115611eb357634e487b7160e01b600052602160045260246000fd5b1480611f385750604051630d53ab8360e01b81526001600160a01b03831690630d53ab8390611ee890339085906004016132ac565b60206040518083038186803b158015611f0057600080fd5b505afa158015611f14573d6000803e3d6000fd5b505050506040513d601f19601f82011682018060405250810190611f389190613139565b611f545760405162461bcd60e51b81526004016103299061350b565b6001600160a01b038316611f7a5760405162461bcd60e51b81526004016103299061385d565b836001600160a01b0316836001600160a01b031614611fcb576001600160a01b038381166000908152600360205260409020541615611fcb5760405162461bcd60e51b815260040161032990613800565b6001600160a01b038416600090815260016020526040812080549091611ff19190610bb0565b61200d5760405162461bcd60e51b815260040161032990613996565b60006003600061201c88611194565b6001600160a01b0390811682526020808301939093526040918201600090812080549583167fffffffffffffffffffffffff000000000000000000000000000000000000000096871617905588821681526003909352912080549188169190921617905561208a8585612dd6565b7fde7b64a369e10562cc2e71f0f1f944eaf144b75fead6ecb51fac9c4dd69348858585604051610fcf929190613292565b6001600160a01b0382166000908152600160208190526040822054610bb8918490811115610bb057634e487b7160e01b600052602160045260246000fd5b60008115156121088585612c73565b15151461214b57811561213157612120836002613aab565b61212a9085613a02565b9050611213565b61213c836002613aab565b61212a9085613b92565b611213565b5082611213565b3060016000826001600160a01b031663c19d93fb6040518163ffffffff1660e01b815260040160206040518083038186803b15801561219057600080fd5b505afa1580156121a4573d6000803e3d6000fd5b505050506040513d601f19601f820116820180604052508101906121c89190613235565b60018111156121e757634e487b7160e01b600052602160045260246000fd5b148061226c5750604051630d53ab8360e01b81526001600160a01b03831690630d53ab839061221c90339085906004016132ac565b60206040518083038186803b15801561223457600080fd5b505afa158015612248573d6000803e3d6000fd5b505050506040513d601f19601f8201168201806040525081019061226c9190613139565b6122885760405162461bcd60e51b81526004016103299061350b565b826122a55760405162461bcd60e51b815260040161032990613928565b6000838152600860205260409020546001600160a01b03166122d95760405162461bcd60e51b8152600401610329906134d4565b600083815260086020818152604080842080546001600160a01b03168552600983528185208581556001018590559387905291905281547fffffffffffffffffffffffff000000000000000000000000000000000000000016909155517f93ecc5e9aa51bb2adb2cf429a5108116cf98c4f717f0912d1be98e137ba6ef6090610b639085906132fd565b3060046000826001600160a01b031663c19d93fb6040518163ffffffff1660e01b815260040160206040518083038186803b1580156123a157600080fd5b505afa1580156123b5573d6000803e3d6000fd5b505050506040513d601f19601f820116820180604052508101906123d99190613235565b60018111156123f857634e487b7160e01b600052602160045260246000fd5b148061247d5750604051630d53ab8360e01b81526001600160a01b03831690630d53ab839061242d90339085906004016132ac565b60206040518083038186803b15801561244557600080fd5b505afa158015612459573d6000803e3d6000fd5b505050506040513d601f19601f8201168201806040525081019061247d9190613139565b6124995760405162461bcd60e51b81526004016103299061350b565b604080518082018252338152600160208083018281526000888152600790925290849020925183547fffffffffffffffffffffffff0000000000000000000000000000000000000000166001600160a01b03909116178355519181019190915590517f95a5e1e5dc3b7008a93a805f8c117e29f1427fe66a969a9ced6ec1e5448f6d0e91610b639186919061333c565b3060096000826001600160a01b031663c19d93fb6040518163ffffffff1660e01b815260040160206040518083038186803b15801561256757600080fd5b505afa15801561257b573d6000803e3d6000fd5b505050506040513d601f19601f8201168201806040525081019061259f9190613235565b60018111156125be57634e487b7160e01b600052602160045260246000fd5b14806126435750604051630d53ab8360e01b81526001600160a01b03831690630d53ab83906125f390339085906004016132ac565b60206040518083038186803b15801561260b57600080fd5b505afa15801561261f573d6000803e3d6000fd5b505050506040513d601f19601f820116820180604052508101906126439190613139565b61265f5760405162461bcd60e51b81526004016103299061350b565b8461267c5760405162461bcd60e51b81526004016103299061339b565b6000858152600a60205260409020546001600160a01b0316156126b15760405162461bcd60e51b81526004016103299061349d565b6000858152600a6020908152604080832080547fffffffffffffffffffffffff0000000000000000000000000000000000000000166001600160a01b038916908117909155808452600b9092529182902087905590517f485cc95500000000000000000000000000000000000000000000000000000000815263485cc955906127409030908790600401613292565b600060405180830381600087803b15801561275a57600080fd5b505af115801561276e573d6000803e3d6000fd5b505050507fe407cef646646daa0f25b0b9f08615b4db7188dffba941c46eef43dbc21aee4d8585604051610fcf929190613306565b60065460ff1681565b60005460ff16156127cf5760405162461bcd60e51b81526004016103299061367b565b6127d8816129af565b50600080547fffffffffffffffffffffffffffffffffffffffffffffffffffffffffffffff00166001179055565b6001600160a01b03808216600090815260036020526040812054909116801561282f5780611213565b5090919050565b3060086000826001600160a01b031663c19d93fb6040518163ffffffff1660e01b815260040160206040518083038186803b15801561287457600080fd5b505afa158015612888573d6000803e3d6000fd5b505050506040513d601f19601f820116820180604052508101906128ac9190613235565b60018111156128cb57634e487b7160e01b600052602160045260246000fd5b14806129505750604051630d53ab8360e01b81526001600160a01b03831690630d53ab839061290090339085906004016132ac565b60206040518083038186803b15801561291857600080fd5b505afa15801561292c573d6000803e3d6000fd5b505050506040513d601f19601f820116820180604052508101906129509190613139565b61296c5760405162461bcd60e51b81526004016103299061350b565b6000848152600c602052604090819020849055517f50bc2a45e7693135e6950fb78733dccb013ce4c6b62f17dbbda5131d8d0fac29906113c1908690869061333c565b30600b6000826001600160a01b031663c19d93fb6040518163ffffffff1660e01b815260040160206040518083038186803b1580156129ed57600080fd5b505afa158015612a01573d6000803e3d6000fd5b505050506040513d601f19601f82011682018060405250810190612a259190613235565b6001811115612a4457634e487b7160e01b600052602160045260246000fd5b1480612ac95750604051630d53ab8360e01b81526001600160a01b03831690630d53ab8390612a7990339085906004016132ac565b60206040518083038186803b158015612a9157600080fd5b505afa158015612aa5573d6000803e3d6000fd5b505050506040513d601f19601f82011682018060405250810190612ac99190613139565b612ae55760405162461bcd60e51b81526004016103299061350b565b6001600160a01b038316600090815260016020526040812080549091612b0b9190610bb0565b612b9c578054612b1c906000611a0f565b81556001600160a01b038416600081815260036020526040812080547fffffffffffffffffffffffff000000000000000000000000000000000000000090811684179091556002805460018101825592527f405787fa12a823e0f2b7631cc41b3ba8828b3321ca811111fa75cd3aa3bb5ace909101805490911690911790555b50505050565b6001600160a01b03811660009081526005602052604081205463ffffffff1660018111612bcf5782611213565b6001600160a01b0383166000908152600460205260408120906111e2600284613ba9565b60006001600160a01b03821661dead14801590610bbb57506001600160a01b03821661babe141592915050565b6001600160a01b03166000908152600b6020526040902054151590565b600082815260076020526040812060010154610bb890836002811115610bb057634e487b7160e01b600052602160045260246000fd5b6000612c86600260ff841685901c613bce565b6001149392505050565b6000908152600d60205260409020546001600160a01b031690565b600a602052600090815260409020546001600160a01b031681565b600082815260076020526040812080546001600160a01b03163314612cfd5760405162461bcd60e51b8152600401610329906133d2565b6001810154612d0d816000610bb0565b612d295760405162461bcd60e51b81526004016103299061370f565b612d4d81856002811115610bb057634e487b7160e01b600052602160045260246000fd5b15612d6a5760405162461bcd60e51b815260040161032990613466565b612d75816002610bb0565b15612d925760405162461bcd60e51b815260040161032990613644565b612db681856002811115611a0f57634e487b7160e01b600052602160045260246000fd5b600086815260076020526040902060018101919091559250505092915050565b6001600160a01b03821660009081526005602052604090205463ffffffff16612e00838284612e05565b505050565b60008263ffffffff16118015612e6257506001600160a01b03831660009081526004602052604081204391612e3b600186613ba9565b63ffffffff1681526020810191909152604001600020546bffffffffffffffffffffffff16145b15612eda576001600160a01b03831660009081526004602052604081208291612e8c600186613ba9565b63ffffffff168152602081019190915260400160002080546001600160a01b03929092166c01000000000000000000000000026bffffffffffffffffffffffff909216919091179055612e00565b6040805180820182526bffffffffffffffffffffffff43811682526001600160a01b03808516602080850191825288831660009081526004825286812063ffffffff8a168252909152949094209251835494519091166c01000000000000000000000000029082167fffffffffffffffffffffffffffffffffffffffff0000000000000000000000009094169390931716919091179055612f7c826001613a1a565b6001600160a01b0384166000908152600560205260409020805463ffffffff929092167fffffffffffffffffffffffffffffffffffffffffffffffffffffffff00000000909216919091179055505050565b600060208284031215612fdf578081fd5b813561121381613c24565b60008060408385031215612ffc578081fd5b823561300781613c24565b9150602083013561301781613c24565b809150509250929050565b600080600060608486031215613036578081fd5b833561304181613c24565b9250602084013561305181613c24565b929592945050506040919091013590565b600080600060608486031215613076578283fd5b833561308181613c24565b9250602084013561309181613c24565b9150604084013560ff811681146130a6578182fd5b809150509250925092565b600080604083850312156130c3578182fd5b82356130ce81613c24565b91506020830135600c8110613017578182fd5b600080604083850312156130f3578182fd5b82356130fe81613c24565b9150602083013561301781613c4a565b60008060408385031215613120578182fd5b823561312b81613c24565b946020939093013593505050565b60006020828403121561314a578081fd5b815161121381613c3c565b600060208284031215613166578081fd5b5035919050565b6000806040838503121561317f578182fd5b82359150602083013561301781613c24565b6000806000606084860312156131a5578283fd5b83359250602084013561305181613c24565b6000806000606084860312156131cb578283fd5b8335925060208401356131dd81613c24565b915060408401356130a681613c24565b600080604083850312156131ff578182fd5b82359150602083013560038110613017578182fd5b60008060408385031215613226578182fd5b50508035926020909101359150565b600060208284031215613246578081fd5b815161121381613c4a565b600080600060608486031215613265578081fd5b833592506020840135915060408401356130a681613c3c565b6001600160a01b0391909116815260200190565b6001600160a01b0392831681529116602082015260400190565b6001600160a01b038316815260408101600c83106132cc576132cc613c0e565b8260208301529392505050565b6001600160a01b03929092168252602082015260400190565b901515815260200190565b90815260200190565b9182526001600160a01b0316602082015260400190565b9283526001600160a01b03919091166020830152604082015260600190565b918252602082015260400190565b602081016002831061335e5761335e613c0e565b91905290565b60208082526018908201527f61646170746572496420616c726561647920696e207573650000000000000000604082015260600190565b6020808252601e908201527f657874656e73696f6e206964206d757374206e6f7420626520656d7074790000604082015260600190565b6020808252603d908201527f6f6e6c792074686520616461707465722074686174207375626d69747465642060408201527f7468652070726f706f73616c2063616e207365742069747320666c6167000000606082015260800190565b6020808252600e908201527f6e6f7420616e2061646170746572000000000000000000000000000000000000604082015260600190565b60208082526010908201527f666c616720616c72656164792073657400000000000000000000000000000000604082015260600190565b6020808252601b908201527f657874656e73696f6e20496420616c726561647920696e207573650000000000604082015260600190565b60208082526018908201527f616461707465724964206e6f7420726567697374657265640000000000000000604082015260600190565b60208082526009908201527f6861734163636573730000000000000000000000000000000000000000000000604082015260600190565b60208082526023908201527f796f752063616e6e6f742073656e64206d6f6e6579206261636b20646972656360408201527f746c790000000000000000000000000000000000000000000000000000000000606082015260800190565b60208082526010908201527f6e6f7420616e20657874656e73696f6e00000000000000000000000000000000604082015260600190565b60208082526013908201527f657874656e73696f6e206e6f7420666f756e6400000000000000000000000000604082015260600190565b60208082526017908201527f70726f706f73616c20646f6573206e6f74206578697374000000000000000000604082015260600190565b6020808252601a908201527f70726f706f73616c20616c72656164792070726f636573736564000000000000604082015260600190565b60208082526017908201527f64616f20616c726561647920696e697469616c697a6564000000000000000000604082015260600190565b6020808252602c908201527f556e693a3a6765745072696f7244656c65676174654b65793a206e6f7420796560408201527f742064657465726d696e65640000000000000000000000000000000000000000606082015260800190565b60208082526024908201527f70726f706f73616c20646f6573206e6f7420657869737420666f72207468697360408201527f2064616f00000000000000000000000000000000000000000000000000000000606082015260800190565b60208082526029908201527f6f6e6c7920616374697665206d656d626572732063616e2073706f6e736f722060408201527f70726f706f73616c730000000000000000000000000000000000000000000000606082015260800190565b6020808252601d908201527f657874656e73696f6e4964206d757374206e6f7420626520656d707479000000604082015260600190565b60208082526021908201527f63616e6e6f74206f7665727772697465206578697374696e67206d656d62657260408201527f7300000000000000000000000000000000000000000000000000000000000000606082015260800190565b6020808252601a908201527f6e657744656c65676174654b65792063616e6e6f742062652030000000000000604082015260600190565b6020808252603b908201527f6f6e6c792074686520616461707465722074686174207375626d69747465642060408201527f7468652070726f706f73616c2063616e2070726f636573732069740000000000606082015260800190565b6020808252601e908201527f70726f706f73616c206d757374206e6f742062652070726f6365737365640000604082015260600190565b6020808252601b908201527f616461707465724964206d757374206e6f7420626520656d7074790000000000604082015260600190565b6020808252601a908201527f657874656e73696f6e4964206e6f742072656769737465726564000000000000604082015260600190565b60208082526015908201527f6d656d62657220646f6573206e6f742065786973740000000000000000000000604082015260600190565b6020808252818101527f6164617074657241646472657373206d757374206e6f7420626520656d707479604082015260600190565b60008219821115613a1557613a15613be2565b500190565b600063ffffffff808316818516808303821115613a3957613a39613be2565b01949350505050565b600063ffffffff80841680613a5957613a59613bf8565b92169190910492915050565b80825b6001808611613a775750613aa2565b818704821115613a8957613a89613be2565b80861615613a9657918102915b9490941c938002613a68565b94509492505050565b6000610bb87fffffffffffffffffffffffffffffffffffffffffffffffffffffffffffffffff8484600082613ae257506001611213565b81613aef57506000611213565b8160018114613b055760028114613b0f57613b3c565b6001915050611213565b60ff841115613b2057613b20613be2565b6001841b915084821115613b3657613b36613be2565b50611213565b5060208310610133831016604e8410600b8410161715613b6a575081810a8381111561214657612146613be2565b613b778484846001613a65565b808604821115613b8957613b89613be2565b02949350505050565b600082821015613ba457613ba4613be2565b500390565b600063ffffffff83811690831681811015613bc657613bc6613be2565b039392505050565b600082613bdd57613bdd613bf8565b500690565b634e487b7160e01b600052601160045260246000fd5b634e487b7160e01b600052601260045260246000fd5b634e487b7160e01b600052602160045260246000fd5b6001600160a01b0381168114613c3957600080fd5b50565b8015158114613c3957600080fd5b60028110613c3957600080fdfea2646970667358221220b47bc225c181abcfd66d3151ee86bbf89dbddbafcf60e814d0a6ae0b4c3b932164736f6c63430008000033",
  "immutableReferences": {},
  "source": "pragma solidity ^0.8.0;\n\n// SPDX-License-Identifier: MIT\n\nimport \"./DaoConstants.sol\";\n\nimport \"../guards/AdapterGuard.sol\";\nimport \"../extensions/IExtension.sol\";\n\n/**\nMIT License\n\nCopyright (c) 2020 Openlaw\n\nPermission is hereby granted, free of charge, to any person obtaining a copy\nof this software and associated documentation files (the \"Software\"), to deal\nin the Software without restriction, including without limitation the rights\nto use, copy, modify, merge, publish, distribute, sublicense, and/or sell\ncopies of the Software, and to permit persons to whom the Software is\nfurnished to do so, subject to the following conditions:\n\nThe above copyright notice and this permission notice shall be included in all\ncopies or substantial portions of the Software.\n\nTHE SOFTWARE IS PROVIDED \"AS IS\", WITHOUT WARRANTY OF ANY KIND, EXPRESS OR\nIMPLIED, INCLUDING BUT NOT LIMITED TO THE WARRANTIES OF MERCHANTABILITY,\nFITNESS FOR A PARTICULAR PURPOSE AND NONINFRINGEMENT. IN NO EVENT SHALL THE\nAUTHORS OR COPYRIGHT HOLDERS BE LIABLE FOR ANY CLAIM, DAMAGES OR OTHER\nLIABILITY, WHETHER IN AN ACTION OF CONTRACT, TORT OR OTHERWISE, ARISING FROM,\nOUT OF OR IN CONNECTION WITH THE SOFTWARE OR THE USE OR OTHER DEALINGS IN THE\nSOFTWARE.\n */\n\ncontract DaoRegistry is DaoConstants, AdapterGuard {\n    bool public initialized = false; // internally tracks deployment under eip-1167 proxy pattern\n\n    enum DaoState {CREATION, READY}\n\n    /*\n     * EVENTS\n     */\n    /// @dev - Events for Proposals\n    event SubmittedProposal(bytes32 proposalId, uint256 flags);\n    event SponsoredProposal(bytes32 proposalId, uint256 flags);\n    event ProcessedProposal(bytes32 proposalId, uint256 flags);\n    event AdapterAdded(\n        bytes32 adapterId,\n        address adapterAddress,\n        uint256 flags\n    );\n    event AdapterRemoved(bytes32 adapterId);\n\n    event ExtensionAdded(bytes32 extensionId, address extensionAddress);\n    event ExtensionRemoved(bytes32 extensionId);\n\n    /// @dev - Events for Members\n    event UpdateDelegateKey(address memberAddress, address newDelegateKey);\n    event MemberJailed(address memberAddr);\n    event MemberUnjailed(address memberAddr);\n    event ConfigurationUpdated(bytes32 key, uint256 value);\n    event AddressConfigurationUpdated(bytes32 key, address value);\n\n    enum MemberFlag {EXISTS, JAILED}\n\n    enum ProposalFlag {EXISTS, SPONSORED, PROCESSED}\n\n    enum AclFlag {\n        ADD_ADAPTER,\n        REMOVE_ADAPTER,\n        JAIL_MEMBER,\n        UNJAIL_MEMBER,\n        SUBMIT_PROPOSAL,\n        SPONSOR_PROPOSAL,\n        PROCESS_PROPOSAL,\n        UPDATE_DELEGATE_KEY,\n        SET_CONFIGURATION,\n        ADD_EXTENSION,\n        REMOVE_EXTENSION,\n        NEW_MEMBER\n    }\n\n    /*\n     * STRUCTURES\n     */\n    struct Proposal {\n        // the structure to track all the proposals in the DAO\n        address adapterAddress; // the adapter address that called the functions to change the DAO state\n        uint256 flags; // flags to track the state of the proposal: exist, sponsored, processed, canceled, etc.\n    }\n\n    struct Member {\n        // the structure to track all the members in the DAO\n        uint256 flags; // flags to track the state of the member: exist, jailed, etc\n    }\n\n    struct Checkpoint {\n        // A checkpoint for marking number of votes from a given block\n        uint96 fromBlock;\n        uint160 amount;\n    }\n\n    struct DelegateCheckpoint {\n        // A checkpoint for marking number of votes from a given block\n        uint96 fromBlock;\n        address delegateKey;\n    }\n\n    struct AdapterEntry {\n        bytes32 id;\n        uint256 acl;\n    }\n\n    struct ExtensionEntry {\n        bytes32 id;\n        mapping(address => uint256) acl;\n    }\n\n    /*\n     * PUBLIC VARIABLES\n     */\n    mapping(address => Member) public members; // the map to track all members of the DAO\n    address[] private _members;\n\n    // delegate key => member address mapping\n    mapping(address => address) public memberAddressesByDelegatedKey;\n\n    // memberAddress => checkpointNum => DelegateCheckpoint\n    mapping(address => mapping(uint32 => DelegateCheckpoint)) checkpoints;\n    // memberAddress => numDelegateCheckpoints\n    mapping(address => uint32) numCheckpoints;\n\n    DaoState public state;\n\n    /// @notice The map that keeps track of all proposasls submitted to the DAO\n    mapping(bytes32 => Proposal) public proposals;\n    /// @notice The map that keeps track of all adapters registered in the DAO\n    mapping(bytes32 => address) public adapters;\n    /// @notice The inverse map to get the adapter id based on its address\n    mapping(address => AdapterEntry) public inverseAdapters;\n    /// @notice The map that keeps track of all extensions registered in the DAO\n    mapping(bytes32 => address) public extensions;\n    /// @notice The inverse map to get the extension id based on its address\n    mapping(address => ExtensionEntry) public inverseExtensions;\n    /// @notice The map that keeps track of configuration parameters for the DAO and adapters\n    mapping(bytes32 => uint256) public mainConfiguration;\n    mapping(bytes32 => address) public addressConfiguration;\n\n    /// @notice Clonable contract must have an empty constructor\n    // constructor() {\n    // }\n\n    //TODO: we may need to add some ACL to ensure only the factory is allowed to clone it, otherwise\n    //any will able to deploy it, and the first one to call this function is added to the DAO as a member.\n    /**\n     * @notice Initialises the DAO\n     * @dev Involves initialising available tokens, checkpoints, and membership of creator\n     * @dev Can only be called once\n     * @param creator The DAO's creator, who will be the first member\n     */\n    function initialize(address creator) external {\n        require(!initialized, \"dao already initialized\");\n        potentialNewMember(creator);\n\n        initialized = true;\n    }\n\n    receive() external payable {\n        revert(\"you cannot send money back directly\");\n    }\n\n    /**\n     * @dev Sets the state of the dao to READY\n     */\n    function finalizeDao() external {\n        state = DaoState.READY;\n    }\n\n    /**\n     * @notice Sets a configuration value\n     * @dev Changes the value of a key in the configuration mapping\n     * @param key The configuration key for which the value will be set\n     * @param value The value to set the key\n     */\n    function setConfiguration(bytes32 key, uint256 value)\n        external\n        hasAccess(this, AclFlag.SET_CONFIGURATION)\n    {\n        mainConfiguration[key] = value;\n\n        emit ConfigurationUpdated(key, value);\n    }\n\n    function potentialNewMember(address memberAddress)\n        public\n        hasAccess(this, AclFlag.NEW_MEMBER)\n    {\n        Member storage member = members[memberAddress];\n        if (!getFlag(member.flags, uint8(MemberFlag.EXISTS))) {\n            member.flags = setFlag(\n                member.flags,\n                uint8(MemberFlag.EXISTS),\n                true\n            );\n            memberAddressesByDelegatedKey[memberAddress] = memberAddress;\n            _members.push(memberAddress);\n        }\n    }\n\n    /**\n     * @notice Sets an configuration value\n     * @dev Changes the value of a key in the configuration mapping\n     * @param key The configuration key for which the value will be set\n     * @param value The value to set the key\n     */\n    function setAddressConfiguration(bytes32 key, address value)\n        external\n        hasAccess(this, AclFlag.SET_CONFIGURATION)\n    {\n        addressConfiguration[key] = value;\n\n        emit AddressConfigurationUpdated(key, value);\n    }\n\n    /**\n     * @return The configuration value of a particular key\n     * @param key The key to look up in the configuration mapping\n     */\n    function getConfiguration(bytes32 key) external view returns (uint256) {\n        return mainConfiguration[key];\n    }\n\n    /**\n     * @return The configuration value of a particular key\n     * @param key The key to look up in the configuration mapping\n     */\n    function getAddressConfiguration(bytes32 key)\n        external\n        view\n        returns (address)\n    {\n        return addressConfiguration[key];\n    }\n\n    /**\n     * @notice Adds a new adapter to the registry\n     * @param extensionId The unique identifier of the new adapter\n     * @param extension The address of the adapter\n     */\n    function addExtension(\n        bytes32 extensionId,\n        IExtension extension,\n        address creator\n    ) external hasAccess(this, AclFlag.ADD_EXTENSION) {\n        require(extensionId != bytes32(0), \"extension id must not be empty\");\n        require(\n            extensions[extensionId] == address(0x0),\n            \"extension Id already in use\"\n        );\n        extensions[extensionId] = address(extension);\n        inverseExtensions[address(extension)].id = extensionId;\n        extension.initialize(this, creator);\n        emit ExtensionAdded(extensionId, address(extension));\n    }\n\n    /**\n     * @notice Adds a new adapter to the registry\n     * @param adapterId The unique identifier of the new adapter\n     * @param adapterAddress The address of the adapter\n     * @param acl The access control list of the adapter\n     */\n    function addAdapter(\n        bytes32 adapterId,\n        address adapterAddress,\n        uint256 acl\n    ) external hasAccess(this, AclFlag.ADD_ADAPTER) {\n        require(adapterId != bytes32(0), \"adapterId must not be empty\");\n        require(\n            adapterAddress != address(0x0),\n            \"adapterAddress must not be empty\"\n        );\n        require(\n            adapters[adapterId] == address(0x0),\n            \"adapterId already in use\"\n        );\n        adapters[adapterId] = adapterAddress;\n        inverseAdapters[adapterAddress].id = adapterId;\n        inverseAdapters[adapterAddress].acl = acl;\n        emit AdapterAdded(adapterId, adapterAddress, acl);\n    }\n\n    function setAclToExtensionForAdapter(\n        address extensionAddress,\n        address adapterAddress,\n        uint256 acl\n    ) external hasAccess(this, AclFlag.ADD_EXTENSION) {\n        require(isAdapter(adapterAddress), \"not an adapter\");\n        require(isExtension(extensionAddress), \"not an extension\");\n        inverseExtensions[extensionAddress].acl[adapterAddress] = acl;\n    }\n\n    /**\n     * @notice Removes an adapter from the registry\n     * @param adapterId The unique identifier of the adapter\n     */\n    function removeAdapter(bytes32 adapterId)\n        external\n        hasAccess(this, AclFlag.REMOVE_ADAPTER)\n    {\n        require(adapterId != bytes32(0), \"adapterId must not be empty\");\n        require(\n            adapters[adapterId] != address(0x0),\n            \"adapterId not registered\"\n        );\n        delete inverseAdapters[adapters[adapterId]];\n        delete adapters[adapterId];\n        emit AdapterRemoved(adapterId);\n    }\n\n    /**\n     * @notice Removes an adapter from the registry\n     * @param extensionId The unique identifier of the extension\n     */\n    function removeExtension(bytes32 extensionId)\n        external\n        hasAccess(this, AclFlag.REMOVE_EXTENSION)\n    {\n        require(extensionId != bytes32(0), \"extensionId must not be empty\");\n        require(\n            extensions[extensionId] != address(0x0),\n            \"extensionId not registered\"\n        );\n        delete inverseExtensions[extensions[extensionId]];\n        delete extensions[extensionId];\n        emit ExtensionRemoved(extensionId);\n    }\n\n    /**\n     * @notice Looks up if there is an extension of a given address\n     * @return Whether or not the address is an extension\n     * @param extensionAddr The address to look up\n     */\n    function isExtension(address extensionAddr) public view returns (bool) {\n        return inverseExtensions[extensionAddr].id != bytes32(0);\n    }\n\n    /**\n     * @notice Looks up if there is an adapter of a given address\n     * @return Whether or not the address is an adapter\n     * @param adapterAddress The address to look up\n     */\n    function isAdapter(address adapterAddress) public view returns (bool) {\n        return inverseAdapters[adapterAddress].id != bytes32(0);\n    }\n\n    /**\n     * @notice Checks if an adapter has a given ACL flag\n     * @return Whether or not the given adapter has the given flag set\n     * @param adapterAddress The address to look up\n     * @param flag The ACL flag to check against the given address\n     */\n    function hasAdapterAccess(address adapterAddress, AclFlag flag)\n        public\n        view\n        returns (bool)\n    {\n        return getFlag(inverseAdapters[adapterAddress].acl, uint8(flag));\n    }\n\n    /**\n     * @notice Checks if an adapter has a given ACL flag\n     * @return Whether or not the given adapter has the given flag set\n     * @param adapterAddress The address to look up\n     * @param flag The ACL flag to check against the given address\n     */\n    function hasAdapterAccessToExtension(\n        address adapterAddress,\n        address extensionAddress,\n        uint8 flag\n    ) public view returns (bool) {\n        return\n            getFlag(\n                inverseExtensions[extensionAddress].acl[adapterAddress],\n                uint8(flag)\n            );\n    }\n\n    /**\n     * @return The address of a given adapter ID\n     * @param adapterId The ID to look up\n     */\n    function getAdapterAddress(bytes32 adapterId)\n        external\n        view\n        returns (address)\n    {\n        return adapters[adapterId];\n    }\n\n    /**\n     * @return The address of a given extension Id\n     * @param extensionId The ID to look up\n     */\n    function getExtensionAddress(bytes32 extensionId)\n        external\n        view\n        returns (address)\n    {\n        require(extensions[extensionId] != address(0), \"extension not found\");\n        return extensions[extensionId];\n    }\n\n    /**\n     * @notice Jails a member\n     * @dev Sets all relevant flags and delegations to ensure a user can not participate\n     * @param memberAddr The member to jail\n     */\n    function jailMember(address memberAddr)\n        external\n        hasAccess(this, AclFlag.JAIL_MEMBER)\n    {\n        Member storage member = members[memberAddr];\n        uint256 flags = member.flags;\n        require(\n            getFlag(flags, uint8(MemberFlag.EXISTS)),\n            \"member does not exist\"\n        );\n        if (!getFlag(flags, uint8(MemberFlag.JAILED))) {\n            member.flags = setFlag(flags, uint8(MemberFlag.JAILED), true);\n\n            // Stop the member from voting at that point in time\n            _createNewDelegateCheckpoint(memberAddr, address(1)); // 1 instead of 0 to avoid existence check\n            emit MemberJailed(memberAddr);\n        }\n    }\n\n    /**\n     * @notice Unjails a member\n     * @dev Resets all relevant flags to allow participation\n     * @param memberAddr The member to unjail\n     */\n    function unjailMember(address memberAddr)\n        external\n        hasAccess(this, AclFlag.UNJAIL_MEMBER)\n    {\n        Member storage member = members[memberAddr];\n        uint256 flags = member.flags;\n        require(\n            getFlag(flags, uint8(MemberFlag.EXISTS)),\n            \"member does not exist\"\n        );\n        if (getFlag(flags, uint8(MemberFlag.JAILED))) {\n            member.flags = setFlag(flags, uint8(MemberFlag.JAILED), false);\n            _createNewDelegateCheckpoint(\n                memberAddr,\n                getPreviousDelegateKey(memberAddr)\n            ); // we do this to re-allow votes\n            emit MemberUnjailed(memberAddr);\n        }\n    }\n\n    /**\n     * PROPOSALS\n     */\n    /**\n     * @notice Submit proposals to the DAO registry\n     */\n    function submitProposal(bytes32 proposalId)\n        external\n        hasAccess(this, AclFlag.SUBMIT_PROPOSAL)\n    {\n        proposals[proposalId] = Proposal(msg.sender, 1);\n        emit SubmittedProposal(proposalId, 1);\n    }\n\n    /**\n     * @notice Sponsor proposals that were submitted to the DAO registry\n     * @dev adds SPONSORED to the proposal flag\n     * @param proposalId The ID of the proposal to sponsor\n     * @param sponsoringMember The member who is sponsoring the proposal\n     */\n    function sponsorProposal(bytes32 proposalId, address sponsoringMember)\n        external\n        hasAccess(this, AclFlag.SPONSOR_PROPOSAL)\n    {\n        Proposal storage proposal =\n            _setProposalFlag(proposalId, ProposalFlag.SPONSORED);\n\n        uint256 flags = proposal.flags;\n\n        require(\n            proposal.adapterAddress == msg.sender,\n            \"only the adapter that submitted the proposal can process it\"\n        );\n        require(\n            getFlag(flags, uint8(ProposalFlag.EXISTS)),\n            \"proposal does not exist\"\n        );\n        require(\n            !getFlag(flags, uint8(ProposalFlag.PROCESSED)),\n            \"proposal must not be processed\"\n        );\n        require(\n            isActiveMember(sponsoringMember),\n            \"only active members can sponsor proposals\"\n        );\n\n        emit SponsoredProposal(proposalId, flags);\n    }\n\n    /**\n     * @notice Mark a proposal as processed in the DAO registry\n     * @param proposalId The ID of the proposal that is being processed\n     */\n    function processProposal(bytes32 proposalId)\n        external\n        hasAccess(this, AclFlag.PROCESS_PROPOSAL)\n    {\n        Proposal storage proposal =\n            _setProposalFlag(proposalId, ProposalFlag.PROCESSED);\n        uint256 flags = proposal.flags;\n\n        emit ProcessedProposal(proposalId, flags);\n    }\n\n    /**\n     * @notice Sets a flag of a proposal\n     * @dev Reverts if the proposal is already processed\n     * @param proposalId The ID of the proposal to be changed\n     * @param flag The flag that will be set on the proposal\n     */\n    function _setProposalFlag(bytes32 proposalId, ProposalFlag flag)\n        internal\n        returns (Proposal storage)\n    {\n        Proposal storage proposal = proposals[proposalId];\n\n        require(\n            proposal.adapterAddress == msg.sender,\n            \"only the adapter that submitted the proposal can set its flag\"\n        );\n\n        uint256 flags = proposal.flags;\n        require(\n            getFlag(flags, uint8(ProposalFlag.EXISTS)),\n            \"proposal does not exist for this dao\"\n        );\n\n        require(!getFlag(flags, uint8(flag)), \"flag already set\");\n\n        require(\n            !getFlag(flags, uint8(ProposalFlag.PROCESSED)),\n            \"proposal already processed\"\n        );\n        flags = setFlag(flags, uint8(flag), true);\n        proposals[proposalId].flags = flags;\n\n        return proposals[proposalId];\n    }\n\n    /*\n     * MEMBERS\n     */\n\n    /**\n     * @return Whether or not a given address is an active member of the DAO\n     * @dev Requires the user to not be jailed and have a positive balance in either\n     *      SHARES, LOOT or LOCKED_LOOT\n     * @param addr The address to look up\n     */\n    function isActiveMember(address addr) public view returns (bool) {\n        address memberAddr = memberAddressesByDelegatedKey[addr];\n        uint256 memberFlags = members[memberAddr].flags;\n        return\n            getFlag(memberFlags, uint8(MemberFlag.EXISTS)) &&\n            !getFlag(memberFlags, uint8(MemberFlag.JAILED));\n    }\n\n    /**\n     * @return Whether or not a flag is set for a given proposal\n     * @param proposalId The proposal to check against flag\n     * @param flag The flag to check in the proposal\n     */\n    function getProposalFlag(bytes32 proposalId, ProposalFlag flag)\n        external\n        view\n        returns (bool)\n    {\n        return getFlag(proposals[proposalId].flags, uint8(flag));\n    }\n\n    /**\n     * @return Whether or not a flag is set for a given member\n     * @param memberAddress The member to check against flag\n     * @param flag The flag to check in the member\n     */\n    function getMemberFlag(address memberAddress, MemberFlag flag)\n        external\n        view\n        returns (bool)\n    {\n        return getFlag(members[memberAddress].flags, uint8(flag));\n    }\n\n    function getNbMember() public view returns (uint256) {\n        return _members.length;\n    }\n\n    function getMemberAddress(uint256 index) public view returns (address) {\n        return _members[index];\n    }\n\n    /**\n     * @notice Updates the delegate key of a member\n     * @param memberAddr The member doing the delegation\n     * @param newDelegateKey The member who is being delegated to\n     */\n    function updateDelegateKey(address memberAddr, address newDelegateKey)\n        external\n        hasAccess(this, AclFlag.UPDATE_DELEGATE_KEY)\n    {\n        require(newDelegateKey != address(0), \"newDelegateKey cannot be 0\");\n\n        // skip checks if member is setting the delegate key to their member address\n        if (newDelegateKey != memberAddr) {\n            require(\n                // newDelegate must not be delegated to\n                memberAddressesByDelegatedKey[newDelegateKey] == address(0x0),\n                \"cannot overwrite existing members\"\n            );\n        }\n\n        Member storage member = members[memberAddr];\n        require(\n            getFlag(member.flags, uint8(MemberFlag.EXISTS)),\n            \"member does not exist\"\n        );\n\n        // Reset the delegation of the previous delegate\n        memberAddressesByDelegatedKey[\n            getCurrentDelegateKey(memberAddr)\n        ] = address(0x0);\n\n        memberAddressesByDelegatedKey[newDelegateKey] = memberAddr;\n\n        _createNewDelegateCheckpoint(memberAddr, newDelegateKey);\n        emit UpdateDelegateKey(memberAddr, newDelegateKey);\n    }\n\n    /**\n     * Public read-only functions\n     */\n\n    /**\n     * @return Whether or not a given address is reserved\n     * @dev Returns false if applicant address is one of the constants GUILD or TOTAL\n     * @param applicant The address to check\n     */\n    function isNotReservedAddress(address applicant)\n        public\n        pure\n        returns (bool)\n    {\n        return applicant != GUILD && applicant != TOTAL;\n    }\n\n    /**\n     * @param checkAddr The address to check for a delegate\n     * @return the delegated address or the checked address if it is not a delegate\n     */\n    function getAddressIfDelegated(address checkAddr)\n        public\n        view\n        returns (address)\n    {\n        address delegatedKey = memberAddressesByDelegatedKey[checkAddr];\n        return delegatedKey == address(0x0) ? checkAddr : delegatedKey;\n    }\n\n    /**\n     * @param memberAddr The member whose delegate will be returned\n     * @return the delegate key at the current time for a member\n     */\n    function getCurrentDelegateKey(address memberAddr)\n        public\n        view\n        returns (address)\n    {\n        uint32 nCheckpoints = numCheckpoints[memberAddr];\n        return\n            nCheckpoints > 0\n                ? checkpoints[memberAddr][nCheckpoints - 1].delegateKey\n                : memberAddr;\n    }\n\n    /**\n     * @param memberAddr The member address to look up\n     * @return The delegate key address for memberAddr at the second last checkpoint number\n     */\n    function getPreviousDelegateKey(address memberAddr)\n        public\n        view\n        returns (address)\n    {\n        uint32 nCheckpoints = numCheckpoints[memberAddr];\n        return\n            nCheckpoints > 1\n                ? checkpoints[memberAddr][nCheckpoints - 2].delegateKey\n                : memberAddr;\n    }\n\n    /**\n     * @notice Determine the prior number of votes for an account as of a block number\n     * @dev Block number must be a finalized block or else this function will revert to prevent misinformation.\n     * @param memberAddr The address of the account to check\n     * @param blockNumber The block number to get the vote balance at\n     * @return The number of votes the account had as of the given block\n     */\n    function getPriorDelegateKey(address memberAddr, uint256 blockNumber)\n        external\n        view\n        returns (address)\n    {\n        require(\n            blockNumber < block.number,\n            \"Uni::getPriorDelegateKey: not yet determined\"\n        );\n\n        uint32 nCheckpoints = numCheckpoints[memberAddr];\n        if (nCheckpoints == 0) {\n            return memberAddr;\n        }\n\n        // First check most recent balance\n        if (\n            checkpoints[memberAddr][nCheckpoints - 1].fromBlock <= blockNumber\n        ) {\n            return checkpoints[memberAddr][nCheckpoints - 1].delegateKey;\n        }\n\n        // Next check implicit zero balance\n        if (checkpoints[memberAddr][0].fromBlock > blockNumber) {\n            return memberAddr;\n        }\n\n        uint32 lower = 0;\n        uint32 upper = nCheckpoints - 1;\n        while (upper > lower) {\n            uint32 center = upper - (upper - lower) / 2; // ceil, avoiding overflow\n            DelegateCheckpoint memory cp = checkpoints[memberAddr][center];\n            if (cp.fromBlock == blockNumber) {\n                return cp.delegateKey;\n            } else if (cp.fromBlock < blockNumber) {\n                lower = center;\n            } else {\n                upper = center - 1;\n            }\n        }\n        return checkpoints[memberAddr][lower].delegateKey;\n    }\n\n    /**\n     * @notice Creates a new delegate checkpoint of a certain member\n     * @param member The member whose delegate checkpoints will be added to\n     * @param newDelegateKey The delegate key that will be written into the new checkpoint\n     */\n    function _createNewDelegateCheckpoint(\n        address member,\n        address newDelegateKey\n    ) internal {\n        uint32 srcRepNum = numCheckpoints[member];\n        _writeDelegateCheckpoint(member, srcRepNum, newDelegateKey);\n    }\n\n    /**\n     * @notice Writes to a delegate checkpoint of a certain checkpoint number\n     * @dev Creates a new checkpoint if there is not yet one of the given number\n     * @param member The member whose delegate checkpoints will overwritten\n     * @param nCheckpoints The number of the checkpoint to overwrite\n     * @param newDelegateKey The delegate key that will be written into the checkpoint\n     */\n    function _writeDelegateCheckpoint(\n        address member,\n        uint32 nCheckpoints,\n        address newDelegateKey\n    ) internal {\n        if (\n            nCheckpoints > 0 &&\n            checkpoints[member][nCheckpoints - 1].fromBlock == block.number\n        ) {\n            checkpoints[member][nCheckpoints - 1].delegateKey = newDelegateKey;\n        } else {\n            checkpoints[member][nCheckpoints] = DelegateCheckpoint(\n                uint96(block.number),\n                newDelegateKey\n            );\n            numCheckpoints[member] = nCheckpoints + 1;\n        }\n    }\n}\n",
  "sourcePath": "/Users/jtrein/code/laoland/contracts/core/DaoRegistry.sol",
  "compiler": {
    "name": "solc",
    "version": "0.8.0+commit.c7dfd78e.Emscripten.clang"
  },
  "schemaVersion": "3.3.3",
  "updatedAt": "2021-01-28T13:27:44.432Z",
  "devdoc": {
    "events": {
      "SubmittedProposal(bytes32,uint256)": {
        "details": "- Events for Proposals"
      },
      "UpdateDelegateKey(address,address)": {
        "details": "- Events for Members"
      }
    },
    "kind": "dev",
    "methods": {
      "addAdapter(bytes32,address,uint256)": {
        "params": {
          "acl": "The access control list of the adapter",
          "adapterAddress": "The address of the adapter",
          "adapterId": "The unique identifier of the new adapter"
        }
      },
      "addExtension(bytes32,address,address)": {
        "params": {
          "extension": "The address of the adapter",
          "extensionId": "The unique identifier of the new adapter"
        }
      },
      "finalizeDao()": {
        "details": "Sets the state of the dao to READY"
      },
      "getAdapterAddress(bytes32)": {
        "params": {
          "adapterId": "The ID to look up"
        },
        "returns": {
          "_0": "The address of a given adapter ID"
        }
      },
      "getAddressConfiguration(bytes32)": {
        "params": {
          "key": "The key to look up in the configuration mapping"
        },
        "returns": {
          "_0": "The configuration value of a particular key"
        }
      },
      "getAddressIfDelegated(address)": {
        "params": {
          "checkAddr": "The address to check for a delegate"
        },
        "returns": {
          "_0": "the delegated address or the checked address if it is not a delegate"
        }
      },
      "getConfiguration(bytes32)": {
        "params": {
          "key": "The key to look up in the configuration mapping"
        },
        "returns": {
          "_0": "The configuration value of a particular key"
        }
      },
      "getCurrentDelegateKey(address)": {
        "params": {
          "memberAddr": "The member whose delegate will be returned"
        },
        "returns": {
          "_0": "the delegate key at the current time for a member"
        }
      },
      "getExtensionAddress(bytes32)": {
        "params": {
          "extensionId": "The ID to look up"
        },
        "returns": {
          "_0": "The address of a given extension Id"
        }
      },
      "getMemberFlag(address,uint8)": {
        "params": {
          "flag": "The flag to check in the member",
          "memberAddress": "The member to check against flag"
        },
        "returns": {
          "_0": "Whether or not a flag is set for a given member"
        }
      },
      "getPreviousDelegateKey(address)": {
        "params": {
          "memberAddr": "The member address to look up"
        },
        "returns": {
          "_0": "The delegate key address for memberAddr at the second last checkpoint number"
        }
      },
      "getPriorDelegateKey(address,uint256)": {
        "details": "Block number must be a finalized block or else this function will revert to prevent misinformation.",
        "params": {
          "blockNumber": "The block number to get the vote balance at",
          "memberAddr": "The address of the account to check"
        },
        "returns": {
          "_0": "The number of votes the account had as of the given block"
        }
      },
      "getProposalFlag(bytes32,uint8)": {
        "params": {
          "flag": "The flag to check in the proposal",
          "proposalId": "The proposal to check against flag"
        },
        "returns": {
          "_0": "Whether or not a flag is set for a given proposal"
        }
      },
      "hasAdapterAccess(address,uint8)": {
        "params": {
          "adapterAddress": "The address to look up",
          "flag": "The ACL flag to check against the given address"
        },
        "returns": {
          "_0": "Whether or not the given adapter has the given flag set"
        }
      },
      "hasAdapterAccessToExtension(address,address,uint8)": {
        "params": {
          "adapterAddress": "The address to look up",
          "flag": "The ACL flag to check against the given address"
        },
        "returns": {
          "_0": "Whether or not the given adapter has the given flag set"
        }
      },
      "initialize(address)": {
        "details": "Involves initialising available tokens, checkpoints, and membership of creatorCan only be called once",
        "params": {
          "creator": "The DAO's creator, who will be the first member"
        }
      },
      "isActiveMember(address)": {
        "details": "Requires the user to not be jailed and have a positive balance in either      SHARES, LOOT or LOCKED_LOOT",
        "params": {
          "addr": "The address to look up"
        },
        "returns": {
          "_0": "Whether or not a given address is an active member of the DAO"
        }
      },
      "isAdapter(address)": {
        "params": {
          "adapterAddress": "The address to look up"
        },
        "returns": {
          "_0": "Whether or not the address is an adapter"
        }
      },
      "isExtension(address)": {
        "params": {
          "extensionAddr": "The address to look up"
        },
        "returns": {
          "_0": "Whether or not the address is an extension"
        }
      },
      "isNotReservedAddress(address)": {
        "details": "Returns false if applicant address is one of the constants GUILD or TOTAL",
        "params": {
          "applicant": "The address to check"
        },
        "returns": {
          "_0": "Whether or not a given address is reserved"
        }
      },
      "jailMember(address)": {
        "details": "Sets all relevant flags and delegations to ensure a user can not participate",
        "params": {
          "memberAddr": "The member to jail"
        }
      },
      "processProposal(bytes32)": {
        "params": {
          "proposalId": "The ID of the proposal that is being processed"
        }
      },
      "removeAdapter(bytes32)": {
        "params": {
          "adapterId": "The unique identifier of the adapter"
        }
      },
      "removeExtension(bytes32)": {
        "params": {
          "extensionId": "The unique identifier of the extension"
        }
      },
      "setAddressConfiguration(bytes32,address)": {
        "details": "Changes the value of a key in the configuration mapping",
        "params": {
          "key": "The configuration key for which the value will be set",
          "value": "The value to set the key"
        }
      },
      "setConfiguration(bytes32,uint256)": {
        "details": "Changes the value of a key in the configuration mapping",
        "params": {
          "key": "The configuration key for which the value will be set",
          "value": "The value to set the key"
        }
      },
      "sponsorProposal(bytes32,address)": {
        "details": "adds SPONSORED to the proposal flag",
        "params": {
          "proposalId": "The ID of the proposal to sponsor",
          "sponsoringMember": "The member who is sponsoring the proposal"
        }
      },
      "unjailMember(address)": {
        "details": "Resets all relevant flags to allow participation",
        "params": {
          "memberAddr": "The member to unjail"
        }
      },
      "updateDelegateKey(address,address)": {
        "params": {
          "memberAddr": "The member doing the delegation",
          "newDelegateKey": "The member who is being delegated to"
        }
      }
    },
    "version": 1
  },
  "userdoc": {
    "kind": "user",
    "methods": {
      "adapters(bytes32)": {
        "notice": "The map that keeps track of all adapters registered in the DAO"
      },
      "addAdapter(bytes32,address,uint256)": {
        "notice": "Adds a new adapter to the registry"
      },
      "addExtension(bytes32,address,address)": {
        "notice": "Adds a new adapter to the registry"
      },
      "extensions(bytes32)": {
        "notice": "The map that keeps track of all extensions registered in the DAO"
      },
      "getPriorDelegateKey(address,uint256)": {
        "notice": "Determine the prior number of votes for an account as of a block number"
      },
      "hasAdapterAccess(address,uint8)": {
        "notice": "Checks if an adapter has a given ACL flag"
      },
      "hasAdapterAccessToExtension(address,address,uint8)": {
        "notice": "Checks if an adapter has a given ACL flag"
      },
      "initialize(address)": {
        "notice": "Initialises the DAO"
      },
      "inverseAdapters(address)": {
        "notice": "The inverse map to get the adapter id based on its address"
      },
      "inverseExtensions(address)": {
        "notice": "The inverse map to get the extension id based on its address"
      },
      "isAdapter(address)": {
        "notice": "Looks up if there is an adapter of a given address"
      },
      "isExtension(address)": {
        "notice": "Looks up if there is an extension of a given address"
      },
      "jailMember(address)": {
        "notice": "Jails a member"
      },
      "mainConfiguration(bytes32)": {
        "notice": "The map that keeps track of configuration parameters for the DAO and adapters"
      },
      "processProposal(bytes32)": {
        "notice": "Mark a proposal as processed in the DAO registry"
      },
      "proposals(bytes32)": {
        "notice": "The map that keeps track of all proposasls submitted to the DAO"
      },
      "removeAdapter(bytes32)": {
        "notice": "Removes an adapter from the registry"
      },
      "removeExtension(bytes32)": {
        "notice": "Removes an adapter from the registry"
      },
      "setAddressConfiguration(bytes32,address)": {
        "notice": "Sets an configuration value"
      },
      "setConfiguration(bytes32,uint256)": {
        "notice": "Sets a configuration value"
      },
      "sponsorProposal(bytes32,address)": {
        "notice": "Sponsor proposals that were submitted to the DAO registry"
      },
      "submitProposal(bytes32)": {
        "notice": "Submit proposals to the DAO registry"
      },
      "unjailMember(address)": {
        "notice": "Unjails a member"
      },
      "updateDelegateKey(address,address)": {
        "notice": "Updates the delegate key of a member"
      }
    },
    "notice": "MIT License Copyright (c) 2020 Openlaw Permission is hereby granted, free of charge, to any person obtaining a copy of this software and associated documentation files (the \"Software\"), to deal in the Software without restriction, including without limitation the rights to use, copy, modify, merge, publish, distribute, sublicense, and/or sell copies of the Software, and to permit persons to whom the Software is furnished to do so, subject to the following conditions: The above copyright notice and this permission notice shall be included in all copies or substantial portions of the Software. THE SOFTWARE IS PROVIDED \"AS IS\", WITHOUT WARRANTY OF ANY KIND, EXPRESS OR IMPLIED, INCLUDING BUT NOT LIMITED TO THE WARRANTIES OF MERCHANTABILITY, FITNESS FOR A PARTICULAR PURPOSE AND NONINFRINGEMENT. IN NO EVENT SHALL THE AUTHORS OR COPYRIGHT HOLDERS BE LIABLE FOR ANY CLAIM, DAMAGES OR OTHER LIABILITY, WHETHER IN AN ACTION OF CONTRACT, TORT OR OTHERWISE, ARISING FROM, OUT OF OR IN CONNECTION WITH THE SOFTWARE OR THE USE OR OTHER DEALINGS IN THE SOFTWARE.",
    "version": 1
  }
}