{
  "contractName": "FinancingContract",
  "abi": [
    {
      "inputs": [
        {
          "internalType": "uint256",
          "name": "flags",
          "type": "uint256"
        },
        {
          "internalType": "uint256",
          "name": "flag",
          "type": "uint256"
        }
      ],
      "name": "getFlag",
      "outputs": [
        {
          "internalType": "bool",
          "name": "",
          "type": "bool"
        }
      ],
      "stateMutability": "pure",
      "type": "function"
    },
    {
      "inputs": [
        {
          "internalType": "address",
          "name": "",
          "type": "address"
        },
        {
          "internalType": "bytes32",
          "name": "",
          "type": "bytes32"
        }
      ],
      "name": "proposals",
      "outputs": [
        {
          "internalType": "address",
          "name": "applicant",
          "type": "address"
        },
        {
          "internalType": "uint256",
          "name": "amount",
          "type": "uint256"
        },
        {
          "internalType": "address",
          "name": "token",
          "type": "address"
        },
        {
          "internalType": "bytes32",
          "name": "details",
          "type": "bytes32"
        }
      ],
      "stateMutability": "view",
      "type": "function"
    },
    {
      "inputs": [
        {
          "internalType": "uint256",
          "name": "flags",
          "type": "uint256"
        },
        {
          "internalType": "uint256",
          "name": "flag",
          "type": "uint256"
        },
        {
          "internalType": "bool",
          "name": "value",
          "type": "bool"
        }
      ],
      "name": "setFlag",
      "outputs": [
        {
          "internalType": "uint256",
          "name": "",
          "type": "uint256"
        }
      ],
      "stateMutability": "pure",
      "type": "function"
    },
    {
      "stateMutability": "payable",
      "type": "receive"
    },
    {
      "inputs": [
        {
          "internalType": "contract DaoRegistry",
          "name": "dao",
          "type": "address"
        },
        {
          "internalType": "bytes32",
          "name": "proposalId",
          "type": "bytes32"
        },
        {
          "internalType": "address",
          "name": "applicant",
          "type": "address"
        },
        {
          "internalType": "address",
          "name": "token",
          "type": "address"
        },
        {
          "internalType": "uint256",
          "name": "amount",
          "type": "uint256"
        },
        {
          "internalType": "bytes32",
          "name": "details",
          "type": "bytes32"
        }
      ],
      "name": "createFinancingRequest",
      "outputs": [],
      "stateMutability": "nonpayable",
      "type": "function"
    },
    {
      "inputs": [
        {
          "internalType": "contract DaoRegistry",
          "name": "dao",
          "type": "address"
        },
        {
          "internalType": "bytes32",
          "name": "proposalId",
          "type": "bytes32"
        },
        {
          "internalType": "bytes",
          "name": "data",
          "type": "bytes"
        }
      ],
      "name": "sponsorProposal",
      "outputs": [],
      "stateMutability": "nonpayable",
      "type": "function"
    },
    {
      "inputs": [
        {
          "internalType": "contract DaoRegistry",
          "name": "dao",
          "type": "address"
        },
        {
          "internalType": "bytes32",
          "name": "proposalId",
          "type": "bytes32"
        }
      ],
      "name": "processProposal",
      "outputs": [],
      "stateMutability": "nonpayable",
      "type": "function"
    }
  ],
  "bytecode": "0x608060405234801561001057600080fd5b50611459806100206000396000f3fe6080604052600436106100695760003560e01c8063c330a52011610043578063c330a52014610136578063cd0e42ed14610156578063fc25803114610176576100a9565b80635cb75276146100ae5780639573167d146100e7578063b244a41d14610109576100a9565b366100a9576040517f08c379a00000000000000000000000000000000000000000000000000000000081526004016100a090611191565b60405180910390fd5b600080fd5b3480156100ba57600080fd5b506100ce6100c9366004610d00565b6101a3565b6040516100de9493929190610fcd565b60405180910390f35b3480156100f357600080fd5b50610107610102366004610d47565b6101ed565b005b34801561011557600080fd5b50610129610124366004610eda565b61066d565b6040516100de919061100f565b34801561014257600080fd5b50610107610151366004610d59565b6106c9565b34801561016257600080fd5b50610107610171366004610dbd565b610a7b565b34801561018257600080fd5b50610196610191366004610eb9565b610beb565b6040516100de9190611004565b6000602081815292815260408082209093529081522080546001820154600283015460039093015473ffffffffffffffffffffffffffffffffffffffff9283169391929091169084565b73ffffffffffffffffffffffffffffffffffffffff80831660008181526020818152604080832086845282528083208151608081018352815487168152600182015493810193909352600281015490951682820152600390940154606082015292517f17ba7d850000000000000000000000000000000000000000000000000000000081529091906317ba7d85906102a9907f0e49311626a26ba5be58a3b13d239908e80ce0dffdd5c50bf1d9c82ff35d1ab39060040161100f565b60206040518083038186803b1580156102c157600080fd5b505afa1580156102d5573d6000803e3d6000fd5b505050506040513d601f19601f820116820180604052508101906102f99190610ce4565b905060026040517f76225e7300000000000000000000000000000000000000000000000000000000815273ffffffffffffffffffffffffffffffffffffffff8316906376225e73906103519088908890600401611088565b602060405180830381600087803b15801561036b57600080fd5b505af115801561037f573d6000803e3d6000fd5b505050506040513d601f19601f820116820180604052508101906103a39190610e9a565b60058111156103db577f4e487b7100000000000000000000000000000000000000000000000000000000600052602160045260246000fd5b14610412576040517f08c379a00000000000000000000000000000000000000000000000000000000081526004016100a09061115a565b6040517f30490e9100000000000000000000000000000000000000000000000000000000815273ffffffffffffffffffffffffffffffffffffffff8516906330490e919061046490869060040161100f565b600060405180830381600087803b15801561047e57600080fd5b505af1158015610492573d6000803e3d6000fd5b50506040517f593e96b60000000000000000000000000000000000000000000000000000000081526000925073ffffffffffffffffffffffffffffffffffffffff8716915063593e96b69061050b907fea0ca03c7adbe41dc655fec28a9209dc8e6e042f3d991a67765ba285b9cf73a09060040161100f565b60206040518083038186803b15801561052357600080fd5b505afa158015610537573d6000803e3d6000fd5b505050506040513d601f19601f8201168201806040525081019061055b9190610ce4565b90508073ffffffffffffffffffffffffffffffffffffffff1663e3a05cc161dead856040015186602001516040518463ffffffff1660e01b81526004016105a493929190610f9c565b600060405180830381600087803b1580156105be57600080fd5b505af11580156105d2573d6000803e3d6000fd5b50508451604080870151602088015191517fc57d5fe900000000000000000000000000000000000000000000000000000000815273ffffffffffffffffffffffffffffffffffffffff8716955063c57d5fe99450610634939290600401610f9c565b600060405180830381600087803b15801561064e57600080fd5b505af1158015610662573d6000803e3d6000fd5b505050505050505050565b600081151561067c8585610beb565b1515146106bf5781156106a55761069483600261125b565b61069e90856111fd565b90506106c2565b6106b083600261125b565b61069e9085611342565b6106c2565b50825b9392505050565b60008211610703576040517f08c379a00000000000000000000000000000000000000000000000000000000081526004016100a0906110ec565b6040517f593e96b600000000000000000000000000000000000000000000000000000000815260009073ffffffffffffffffffffffffffffffffffffffff88169063593e96b690610778907fea0ca03c7adbe41dc655fec28a9209dc8e6e042f3d991a67765ba285b9cf73a09060040161100f565b60206040518083038186803b15801561079057600080fd5b505afa1580156107a4573d6000803e3d6000fd5b505050506040513d601f19601f820116820180604052508101906107c89190610ce4565b6040517ff9eaee0d00000000000000000000000000000000000000000000000000000000815290915073ffffffffffffffffffffffffffffffffffffffff82169063f9eaee0d9061081d908790600401610f7b565b60206040518083038186803b15801561083557600080fd5b505afa158015610849573d6000803e3d6000fd5b505050506040513d601f19601f8201168201806040525081019061086d9190610d2b565b6108a3576040517f08c379a00000000000000000000000000000000000000000000000000000000081526004016100a090611123565b6040517fef6a249900000000000000000000000000000000000000000000000000000000815273ffffffffffffffffffffffffffffffffffffffff88169063ef6a2499906108f5908890600401610f7b565b60206040518083038186803b15801561090d57600080fd5b505afa158015610921573d6000803e3d6000fd5b505050506040513d601f19601f820116820180604052508101906109459190610d2b565b61097b576040517f08c379a00000000000000000000000000000000000000000000000000000000081526004016100a0906111c8565b6040517fb73dc38900000000000000000000000000000000000000000000000000000000815273ffffffffffffffffffffffffffffffffffffffff88169063b73dc389906109cd90899060040161100f565b600060405180830381600087803b1580156109e757600080fd5b505af11580156109fb573d6000803e3d6000fd5b50505073ffffffffffffffffffffffffffffffffffffffff9788166000908152602081815260408083209983529890529690962080549588167fffffffffffffffffffffffff0000000000000000000000000000000000000000968716178155600181019390935550600382015560020180549190941691161790915550565b6040517f17ba7d8500000000000000000000000000000000000000000000000000000000815260009073ffffffffffffffffffffffffffffffffffffffff8516906317ba7d8590610af0907f0e49311626a26ba5be58a3b13d239908e80ce0dffdd5c50bf1d9c82ff35d1ab39060040161100f565b60206040518083038186803b158015610b0857600080fd5b505afa158015610b1c573d6000803e3d6000fd5b505050506040513d601f19601f82011682018060405250810190610b409190610ce4565b905060008173ffffffffffffffffffffffffffffffffffffffff1663966917d0863086336040518563ffffffff1660e01b8152600401610b83949392919061103c565b602060405180830381600087803b158015610b9d57600080fd5b505af1158015610bb1573d6000803e3d6000fd5b505050506040513d601f19601f82011682018060405250810190610bd59190610ce4565b9050610be48585858486610c08565b5050505050565b6000610bfe600260ff841685901c611359565b6001149392505050565b6040517f815a2bf400000000000000000000000000000000000000000000000000000000815273ffffffffffffffffffffffffffffffffffffffff86169063815a2bf490610c5c9087908690600401611018565b600060405180830381600087803b158015610c7657600080fd5b505af1158015610c8a573d6000803e3d6000fd5b50506040517f2b0974d000000000000000000000000000000000000000000000000000000000815273ffffffffffffffffffffffffffffffffffffffff84169250632b0974d09150610634908890889088906004016110ae565b600060208284031215610cf5578081fd5b81516106c2816113f0565b60008060408385031215610d12578081fd5b8235610d1d816113f0565b946020939093013593505050565b600060208284031215610d3c578081fd5b81516106c281611415565b60008060408385031215610d12578182fd5b60008060008060008060c08789031215610d71578182fd5b8635610d7c816113f0565b9550602087013594506040870135610d93816113f0565b93506060870135610da3816113f0565b9598949750929560808101359460a0909101359350915050565b600080600060608486031215610dd1578283fd5b8335610ddc816113f0565b92506020848101359250604085013567ffffffffffffffff80821115610e00578384fd5b818701915087601f830112610e13578384fd5b813581811115610e2557610e256113c1565b604051847fffffffffffffffffffffffffffffffffffffffffffffffffffffffffffffffe0601f8401168201018181108482111715610e6657610e666113c1565b60405281815283820185018a1015610e7c578586fd5b81858501868301378585838301015280955050505050509250925092565b600060208284031215610eab578081fd5b8151600681106106c2578182fd5b60008060408385031215610ecb578182fd5b50508035926020909101359150565b600080600060608486031215610eee578283fd5b83359250602084013591506040840135610f0781611415565b809150509250925092565b60008151808452815b81811015610f3757602081850181015186830182015201610f1b565b81811115610f485782602083870101525b50601f017fffffffffffffffffffffffffffffffffffffffffffffffffffffffffffffffe0169290920160200192915050565b73ffffffffffffffffffffffffffffffffffffffff91909116815260200190565b73ffffffffffffffffffffffffffffffffffffffff9384168152919092166020820152604081019190915260600190565b73ffffffffffffffffffffffffffffffffffffffff9485168152602081019390935292166040820152606081019190915260800190565b901515815260200190565b90815260200190565b91825273ffffffffffffffffffffffffffffffffffffffff16602082015260400190565b600073ffffffffffffffffffffffffffffffffffffffff80871683528086166020840152608060408401526110746080840186610f12565b915080841660608401525095945050505050565b73ffffffffffffffffffffffffffffffffffffffff929092168252602082015260400190565b600073ffffffffffffffffffffffffffffffffffffffff85168252836020830152606060408301526110e36060830184610f12565b95945050505050565b60208082526018908201527f696e76616c69642072657175657374656420616d6f756e740000000000000000604082015260600190565b60208082526011908201527f746f6b656e206e6f7420616c6c6f776564000000000000000000000000000000604082015260600190565b60208082526016908201527f70726f706f73616c206e6565647320746f207061737300000000000000000000604082015260600190565b6020808252600f908201527f66616c6c6261636b207265766572740000000000000000000000000000000000604082015260600190565b6020808252818101527f6170706c6963616e74207573696e672072657365727665642061646472657373604082015260600190565b6000821982111561121057611210611392565b500190565b80825b60018086116112275750611252565b81870482111561123957611239611392565b8086161561124657918102915b9490941c938002611218565b94509492505050565b60006106c27fffffffffffffffffffffffffffffffffffffffffffffffffffffffffffffffff8484600082611292575060016106c2565b8161129f575060006106c2565b81600181146112b557600281146112bf576112ec565b60019150506106c2565b60ff8411156112d0576112d0611392565b6001841b9150848211156112e6576112e6611392565b506106c2565b5060208310610133831016604e8410600b841016171561131a575081810a838111156106ba576106ba611392565b6113278484846001611215565b80860482111561133957611339611392565b02949350505050565b60008282101561135457611354611392565b500390565b60008261138d577f4e487b710000000000000000000000000000000000000000000000000000000081526012600452602481fd5b500690565b7f4e487b7100000000000000000000000000000000000000000000000000000000600052601160045260246000fd5b7f4e487b7100000000000000000000000000000000000000000000000000000000600052604160045260246000fd5b73ffffffffffffffffffffffffffffffffffffffff8116811461141257600080fd5b50565b801515811461141257600080fdfea2646970667358221220e5149b0c521af45db171e028f18098692d408ac7597dbea01dca27cef812766a64736f6c63430008000033",
  "immutableReferences": {},
  "source": "pragma solidity ^0.8.0;\n\n// SPDX-License-Identifier: MIT\n\nimport \"./interfaces/IFinancing.sol\";\nimport \"../core/DaoConstants.sol\";\nimport \"../core/DaoRegistry.sol\";\nimport \"../extensions/Bank.sol\";\nimport \"../adapters/interfaces/IVoting.sol\";\nimport \"../guards/MemberGuard.sol\";\n\n/**\nMIT License\n\nCopyright (c) 2020 Openlaw\n\nPermission is hereby granted, free of charge, to any person obtaining a copy\nof this software and associated documentation files (the \"Software\"), to deal\nin the Software without restriction, including without limitation the rights\nto use, copy, modify, merge, publish, distribute, sublicense, and/or sell\ncopies of the Software, and to permit persons to whom the Software is\nfurnished to do so, subject to the following conditions:\n\nThe above copyright notice and this permission notice shall be included in all\ncopies or substantial portions of the Software.\n\nTHE SOFTWARE IS PROVIDED \"AS IS\", WITHOUT WARRANTY OF ANY KIND, EXPRESS OR\nIMPLIED, INCLUDING BUT NOT LIMITED TO THE WARRANTIES OF MERCHANTABILITY,\nFITNESS FOR A PARTICULAR PURPOSE AND NONINFRINGEMENT. IN NO EVENT SHALL THE\nAUTHORS OR COPYRIGHT HOLDERS BE LIABLE FOR ANY CLAIM, DAMAGES OR OTHER\nLIABILITY, WHETHER IN AN ACTION OF CONTRACT, TORT OR OTHERWISE, ARISING FROM,\nOUT OF OR IN CONNECTION WITH THE SOFTWARE OR THE USE OR OTHER DEALINGS IN THE\nSOFTWARE.\n */\n\ncontract FinancingContract is IFinancing, DaoConstants, MemberGuard {\n    struct ProposalDetails {\n        address applicant; // the proposal applicant address, can not be a reserved address\n        uint256 amount; // the amount requested for funding\n        address token; // the token address in which the funding must be sent to\n        bytes32 details; // additional details about the financing proposal\n    }\n\n    // keeps track of all financing proposals handled by each dao\n    mapping(address => mapping(bytes32 => ProposalDetails)) public proposals;\n\n    /**\n     * @notice default fallback function to prevent from sending ether to the contract.\n     */\n    receive() external payable {\n        revert(\"fallback revert\");\n    }\n\n    /**\n     * @notice Creates a financing proposal.\n     * @dev Applicant address must not be reserved.\n     * @dev Token address must be allowed/supported by the DAO Bank.\n     * @dev Requested amount must be greater than zero.\n     * @param dao The DAO Address.\n     * @param proposalId The proposal id.\n     * @param applicant The applicant address.\n     * @param token The token to receive the funds.\n     * @param amount The desired amount.\n     * @param details Additional detais about the financing proposal.\n     */\n    function createFinancingRequest(\n        DaoRegistry dao,\n        bytes32 proposalId,\n        address applicant,\n        address token,\n        uint256 amount,\n        bytes32 details\n    ) external override {\n        require(amount > 0, \"invalid requested amount\");\n        BankExtension bank = BankExtension(dao.getExtensionAddress(BANK));\n        require(bank.isTokenAllowed(token), \"token not allowed\");\n        require(\n            dao.isNotReservedAddress(applicant),\n            \"applicant using reserved address\"\n        );\n        dao.submitProposal(proposalId);\n\n        ProposalDetails storage proposal = proposals[address(dao)][proposalId];\n        proposal.applicant = applicant;\n        proposal.amount = amount;\n        proposal.details = details;\n        proposal.token = token;\n    }\n\n    /**\n     * @notice Sponsor a financing proposal to start the voting process.\n     * @dev Only members of the DAO can sponsor a financing proposal.\n     * @param dao The DAO Address.\n     * @param proposalId The proposal id.\n     * @param data Additional details about the sponsorship process.\n     */\n    function sponsorProposal(\n        DaoRegistry dao,\n        bytes32 proposalId,\n        bytes memory data\n    ) external override {\n        IVoting votingContract = IVoting(dao.getAdapterAddress(VOTING));\n        address sponsoredBy =\n            votingContract.getSenderAddress(\n                dao,\n                address(this),\n                data,\n                msg.sender\n            );\n        _sponsorProposal(dao, proposalId, data, sponsoredBy, votingContract);\n    }\n\n    /**\n     * @notice Sponsors a financing proposal to start the voting process.\n     * @dev Only members of the DAO can sponsor a financing proposal.\n     * @param dao The DAO Address.\n     * @param proposalId The proposal id.\n     * @param data Additional details about the sponsorship process.\n     * @param sponsoredBy The address of the sponsoring member.\n     * @param votingContract The voting contract used by the DAO.\n     */\n    function _sponsorProposal(\n        DaoRegistry dao,\n        bytes32 proposalId,\n        bytes memory data,\n        address sponsoredBy,\n        IVoting votingContract\n    ) internal {\n        dao.sponsorProposal(proposalId, sponsoredBy);\n        votingContract.startNewVotingForProposal(dao, proposalId, data);\n    }\n\n    /**\n     * @notice Processing a financing proposal to grant the requested funds.\n     * @dev Only proposals that were not processed are accepted.\n     * @dev Only proposals that were sponsored are accepted.\n     * @dev Only proposals that passed can get processed and have the funds released.\n     * @param dao The DAO Address.\n     * @param proposalId The proposal id.\n     */\n    function processProposal(DaoRegistry dao, bytes32 proposalId)\n        external\n        override\n    {\n        ProposalDetails memory details = proposals[address(dao)][proposalId];\n\n        IVoting votingContract = IVoting(dao.getAdapterAddress(VOTING));\n        require(\n            votingContract.voteResult(dao, proposalId) ==\n                IVoting.VotingState.PASS,\n            \"proposal needs to pass\"\n        );\n        dao.processProposal(proposalId);\n        BankExtension bank = BankExtension(dao.getExtensionAddress(BANK));\n\n        bank.subtractFromBalance(GUILD, details.token, details.amount);\n        bank.addToBalance(details.applicant, details.token, details.amount);\n    }\n}\n",
  "sourcePath": "/Users/sophia/OPENLAWTEAM/laoland/contracts/adapters/Financing.sol",
  "compiler": {
    "name": "solc",
    "version": "0.8.0+commit.c7dfd78e.Emscripten.clang"
  },
  "schemaVersion": "3.3.3",
  "updatedAt": "2021-02-09T09:36:52.539Z",
  "devdoc": {
    "kind": "dev",
    "methods": {
      "createFinancingRequest(address,bytes32,address,address,uint256,bytes32)": {
        "details": "Applicant address must not be reserved.Token address must be allowed/supported by the DAO Bank.Requested amount must be greater than zero.",
        "params": {
          "amount": "The desired amount.",
          "applicant": "The applicant address.",
          "dao": "The DAO Address.",
          "details": "Additional detais about the financing proposal.",
          "proposalId": "The proposal id.",
          "token": "The token to receive the funds."
        }
      },
      "processProposal(address,bytes32)": {
        "details": "Only proposals that were not processed are accepted.Only proposals that were sponsored are accepted.Only proposals that passed can get processed and have the funds released.",
        "params": {
          "dao": "The DAO Address.",
          "proposalId": "The proposal id."
        }
      },
      "sponsorProposal(address,bytes32,bytes)": {
        "details": "Only members of the DAO can sponsor a financing proposal.",
        "params": {
          "dao": "The DAO Address.",
          "data": "Additional details about the sponsorship process.",
          "proposalId": "The proposal id."
        }
      }
    },
    "version": 1
  },
  "userdoc": {
    "kind": "user",
    "methods": {
      "createFinancingRequest(address,bytes32,address,address,uint256,bytes32)": {
        "notice": "Creates a financing proposal."
      },
      "processProposal(address,bytes32)": {
        "notice": "Processing a financing proposal to grant the requested funds."
      },
      "sponsorProposal(address,bytes32,bytes)": {
        "notice": "Sponsor a financing proposal to start the voting process."
      }
    },
    "notice": "MIT License Copyright (c) 2020 Openlaw Permission is hereby granted, free of charge, to any person obtaining a copy of this software and associated documentation files (the \"Software\"), to deal in the Software without restriction, including without limitation the rights to use, copy, modify, merge, publish, distribute, sublicense, and/or sell copies of the Software, and to permit persons to whom the Software is furnished to do so, subject to the following conditions: The above copyright notice and this permission notice shall be included in all copies or substantial portions of the Software. THE SOFTWARE IS PROVIDED \"AS IS\", WITHOUT WARRANTY OF ANY KIND, EXPRESS OR IMPLIED, INCLUDING BUT NOT LIMITED TO THE WARRANTIES OF MERCHANTABILITY, FITNESS FOR A PARTICULAR PURPOSE AND NONINFRINGEMENT. IN NO EVENT SHALL THE AUTHORS OR COPYRIGHT HOLDERS BE LIABLE FOR ANY CLAIM, DAMAGES OR OTHER LIABILITY, WHETHER IN AN ACTION OF CONTRACT, TORT OR OTHERWISE, ARISING FROM, OUT OF OR IN CONNECTION WITH THE SOFTWARE OR THE USE OR OTHER DEALINGS IN THE SOFTWARE.",
    "version": 1
  }
}