{
  "contractName": "FinancingContract",
  "abi": [
    {
      "inputs": [],
      "name": "ETH_TOKEN",
      "outputs": [
        {
          "internalType": "address",
          "name": "",
          "type": "address"
        }
      ],
      "stateMutability": "view",
      "type": "function"
    },
    {
      "inputs": [],
      "name": "FINANCING",
      "outputs": [
        {
          "internalType": "bytes32",
          "name": "",
          "type": "bytes32"
        }
      ],
      "stateMutability": "view",
      "type": "function"
    },
    {
      "inputs": [],
      "name": "GUILD",
      "outputs": [
        {
          "internalType": "address",
          "name": "",
          "type": "address"
        }
      ],
      "stateMutability": "view",
      "type": "function"
    },
    {
      "inputs": [],
      "name": "GUILDKICK",
      "outputs": [
        {
          "internalType": "bytes32",
          "name": "",
          "type": "bytes32"
        }
      ],
      "stateMutability": "view",
      "type": "function"
    },
    {
      "inputs": [],
      "name": "LOCKED_LOOT",
      "outputs": [
        {
          "internalType": "address",
          "name": "",
          "type": "address"
        }
      ],
      "stateMutability": "view",
      "type": "function"
    },
    {
      "inputs": [],
      "name": "LOOT",
      "outputs": [
        {
          "internalType": "address",
          "name": "",
          "type": "address"
        }
      ],
      "stateMutability": "view",
      "type": "function"
    },
    {
      "inputs": [],
      "name": "MANAGING",
      "outputs": [
        {
          "internalType": "bytes32",
          "name": "",
          "type": "bytes32"
        }
      ],
      "stateMutability": "view",
      "type": "function"
    },
    {
      "inputs": [],
      "name": "NONVOTING_ONBOARDING",
      "outputs": [
        {
          "internalType": "bytes32",
          "name": "",
          "type": "bytes32"
        }
      ],
      "stateMutability": "view",
      "type": "function"
    },
    {
      "inputs": [],
      "name": "ONBOARDING",
      "outputs": [
        {
          "internalType": "bytes32",
          "name": "",
          "type": "bytes32"
        }
      ],
      "stateMutability": "view",
      "type": "function"
    },
    {
      "inputs": [],
      "name": "RAGEQUIT",
      "outputs": [
        {
          "internalType": "bytes32",
          "name": "",
          "type": "bytes32"
        }
      ],
      "stateMutability": "view",
      "type": "function"
    },
    {
      "inputs": [],
      "name": "SHARES",
      "outputs": [
        {
          "internalType": "address",
          "name": "",
          "type": "address"
        }
      ],
      "stateMutability": "view",
      "type": "function"
    },
    {
      "inputs": [],
      "name": "TOTAL",
      "outputs": [
        {
          "internalType": "address",
          "name": "",
          "type": "address"
        }
      ],
      "stateMutability": "view",
      "type": "function"
    },
    {
      "inputs": [],
      "name": "VOTING",
      "outputs": [
        {
          "internalType": "bytes32",
          "name": "",
          "type": "bytes32"
        }
      ],
      "stateMutability": "view",
      "type": "function"
    },
    {
      "inputs": [
        {
          "internalType": "address",
          "name": "",
          "type": "address"
        },
        {
          "internalType": "uint256",
          "name": "",
          "type": "uint256"
        }
      ],
      "name": "proposals",
      "outputs": [
        {
          "internalType": "address",
          "name": "applicant",
          "type": "address"
        },
        {
          "internalType": "uint256",
          "name": "amount",
          "type": "uint256"
        },
        {
          "internalType": "address",
          "name": "token",
          "type": "address"
        },
        {
          "internalType": "bytes32",
          "name": "details",
          "type": "bytes32"
        }
      ],
      "stateMutability": "view",
      "type": "function"
    },
    {
      "stateMutability": "payable",
      "type": "receive"
    },
    {
      "inputs": [
        {
          "internalType": "contract DaoRegistry",
          "name": "dao",
          "type": "address"
        },
        {
          "internalType": "address",
          "name": "applicant",
          "type": "address"
        },
        {
          "internalType": "address",
          "name": "token",
          "type": "address"
        },
        {
          "internalType": "uint256",
          "name": "amount",
          "type": "uint256"
        },
        {
          "internalType": "bytes32",
          "name": "details",
          "type": "bytes32"
        }
      ],
      "name": "createFinancingRequest",
      "outputs": [
        {
          "internalType": "uint64",
          "name": "",
          "type": "uint64"
        }
      ],
      "stateMutability": "nonpayable",
      "type": "function"
    },
    {
      "inputs": [
        {
          "internalType": "contract DaoRegistry",
          "name": "dao",
          "type": "address"
        },
        {
          "internalType": "uint256",
          "name": "_proposalId",
          "type": "uint256"
        },
        {
          "internalType": "bytes",
          "name": "data",
          "type": "bytes"
        }
      ],
      "name": "sponsorProposal",
      "outputs": [],
      "stateMutability": "nonpayable",
      "type": "function"
    },
    {
      "inputs": [
        {
          "internalType": "contract DaoRegistry",
          "name": "dao",
          "type": "address"
        },
        {
          "internalType": "uint256",
          "name": "_proposalId",
          "type": "uint256"
        }
      ],
      "name": "processProposal",
      "outputs": [],
      "stateMutability": "nonpayable",
      "type": "function"
    }
  ],
  "bytecode": "0x608060405234801561001057600080fd5b506114c2806100206000396000f3fe6080604052600436106101125760003560e01c80638e23a2f5116100a5578063c1254a5511610074578063da4dfce611610059578063da4dfce61461045c578063ebfda085146104a2578063f5d54c77146104b75761017e565b8063c1254a5514610432578063d482301c146104475761017e565b80638e23a2f514610356578063987e6eae146103f3578063a276f35914610408578063aa1927d31461041d5761017e565b806351340a5b116100e157806351340a5b1461027657806358bc83371461028b5780636d85e14d146102a05780637eb9b674146102b55761017e565b8063269e1d1a1461018357806327efc086146101aa5780633027329a146101e85780634086ee9d146102615761017e565b3661017e57604080517f08c379a000000000000000000000000000000000000000000000000000000000815260206004820152600f60248201527f66616c6c6261636b207265766572740000000000000000000000000000000000604482015290519081900360640190fd5b600080fd5b34801561018f57600080fd5b506101986104cc565b60408051918252519081900360200190f35b3480156101b657600080fd5b506101bf6104f0565b6040805173ffffffffffffffffffffffffffffffffffffffff9092168252519081900360200190f35b3480156101f457600080fd5b50610244600480360360a081101561020b57600080fd5b5073ffffffffffffffffffffffffffffffffffffffff8135811691602081013582169160408201351690606081013590608001356104f6565b6040805167ffffffffffffffff9092168252519081900360200190f35b34801561026d57600080fd5b50610198610865565b34801561028257600080fd5b50610198610889565b34801561029757600080fd5b506101bf6108ad565b3480156102ac57600080fd5b506101986108b2565b3480156102c157600080fd5b50610354600480360360608110156102d857600080fd5b73ffffffffffffffffffffffffffffffffffffffff8235169160208101359181019060608101604082013564010000000081111561031557600080fd5b82018360208201111561032757600080fd5b8035906020019184600183028401116401000000008311171561034957600080fd5b5090925090506108d6565b005b34801561036257600080fd5b5061039c6004803603604081101561037957600080fd5b5073ffffffffffffffffffffffffffffffffffffffff8135169060200135610bf4565b604051808573ffffffffffffffffffffffffffffffffffffffff1681526020018481526020018373ffffffffffffffffffffffffffffffffffffffff16815260200182815260200194505050505060405180910390f35b3480156103ff57600080fd5b50610198610c3e565b34801561041457600080fd5b50610198610c62565b34801561042957600080fd5b506101bf610c86565b34801561043e57600080fd5b506101bf610c8e565b34801561045357600080fd5b50610198610c95565b34801561046857600080fd5b506103546004803603604081101561047f57600080fd5b5073ffffffffffffffffffffffffffffffffffffffff8135169060200135610cb9565b3480156104ae57600080fd5b506101bf6113ca565b3480156104c357600080fd5b506101bf6113d2565b7f0e49311626a26ba5be58a3b13d239908e80ce0dffdd5c50bf1d9c82ff35d1ab381565b61babe81565b600080831161056657604080517f08c379a000000000000000000000000000000000000000000000000000000000815260206004820152601860248201527f696e76616c69642072657175657374656420616d6f756e740000000000000000604482015290519081900360640190fd5b8573ffffffffffffffffffffffffffffffffffffffff1663f9eaee0d856040518263ffffffff1660e01b8152600401808273ffffffffffffffffffffffffffffffffffffffff16815260200191505060206040518083038186803b1580156105cd57600080fd5b505afa1580156105e1573d6000803e3d6000fd5b505050506040513d60208110156105f757600080fd5b505161066457604080517f08c379a000000000000000000000000000000000000000000000000000000000815260206004820152601160248201527f746f6b656e206e6f7420616c6c6f776564000000000000000000000000000000604482015290519081900360640190fd5b8573ffffffffffffffffffffffffffffffffffffffff1663ef6a2499866040518263ffffffff1660e01b8152600401808273ffffffffffffffffffffffffffffffffffffffff16815260200191505060206040518083038186803b1580156106cb57600080fd5b505afa1580156106df573d6000803e3d6000fd5b505050506040513d60208110156106f557600080fd5b505161076257604080517f08c379a000000000000000000000000000000000000000000000000000000000815260206004820181905260248201527f6170706c6963616e74207573696e672072657365727665642061646472657373604482015290519081900360640190fd5b60008673ffffffffffffffffffffffffffffffffffffffff1663c18839026040518163ffffffff1660e01b8152600401602060405180830381600087803b1580156107ac57600080fd5b505af11580156107c0573d6000803e3d6000fd5b505050506040513d60208110156107d657600080fd5b505173ffffffffffffffffffffffffffffffffffffffff97881660009081526020818152604080832067ffffffffffffffff85168452909152902080549789167fffffffffffffffffffffffff00000000000000000000000000000000000000009889161781556001810195909555600385019390935550506002909101805492909416919092161790915590565b7f54527537e04b80d3b3bd9dfa43834f03d4b745f8411ca72260a3c7e02ea7fa3f81565b7fb5d1b10526b91c1951e75295138b32c80917c8ba0b96f19926ef2008a82b651181565b600081565b7f68c24fc24acf5b51ccf67c01fea706e9e0e110825d4f88d07623f64f32f55d8981565b838073ffffffffffffffffffffffffffffffffffffffff166345ecd02f336040518263ffffffff1660e01b8152600401808273ffffffffffffffffffffffffffffffffffffffff16815260200191505060206040518083038186803b15801561093e57600080fd5b505afa158015610952573d6000803e3d6000fd5b505050506040513d602081101561096857600080fd5b50516109d557604080517f08c379a000000000000000000000000000000000000000000000000000000000815260206004820152600a60248201527f6f6e6c794d656d62657200000000000000000000000000000000000000000000604482015290519081900360640190fd5b60006109e0856113d8565b905060008673ffffffffffffffffffffffffffffffffffffffff166317ba7d857f0e49311626a26ba5be58a3b13d239908e80ce0dffdd5c50bf1d9c82ff35d1ab36040518263ffffffff1660e01b81526004018082815260200191505060206040518083038186803b158015610a5557600080fd5b505afa158015610a69573d6000803e3d6000fd5b505050506040513d6020811015610a7f57600080fd5b50516040517fbc785a9b00000000000000000000000000000000000000000000000000000000815273ffffffffffffffffffffffffffffffffffffffff8981166004830190815267ffffffffffffffff86166024840152606060448401908152606484018990529394509084169263bc785a9b928b9287928b928b929190608401848480828437600081840152601f19601f82011690508083019250505095505050505050600060405180830381600087803b158015610b3e57600080fd5b505af1158015610b52573d6000803e3d6000fd5b5050604080517fb196217500000000000000000000000000000000000000000000000000000000815267ffffffffffffffff86166004820152336024820152905173ffffffffffffffffffffffffffffffffffffffff8b16935063b19621759250604480830192600092919082900301818387803b158015610bd357600080fd5b505af1158015610be7573d6000803e3d6000fd5b5050505050505050505050565b6000602081815292815260408082209093529081522080546001820154600283015460039093015473ffffffffffffffffffffffffffffffffffffffff9283169391929091169084565b7f33c50675c08bf6495444473b20b4c359e484c6bf5c6999f6256e86bf7bb08b2b81565b7f903b70ab7c13e94d5db58ae5205461e75e7c006ddff7cb26a3d9c1b246a62a5f81565b63baaaaaad81565b620ff1ce81565b7f4722c0c42f5a72a0f6d23d275ea955749ebe30a53b8e8fcf3a65906f339afc0e81565b818073ffffffffffffffffffffffffffffffffffffffff166345ecd02f336040518263ffffffff1660e01b8152600401808273ffffffffffffffffffffffffffffffffffffffff16815260200191505060206040518083038186803b158015610d2157600080fd5b505afa158015610d35573d6000803e3d6000fd5b505050506040513d6020811015610d4b57600080fd5b5051610db857604080517f08c379a000000000000000000000000000000000000000000000000000000000815260206004820152600a60248201527f6f6e6c794d656d62657200000000000000000000000000000000000000000000604482015290519081900360640190fd5b6000610dc3836113d8565b9050610dcd61143f565b5073ffffffffffffffffffffffffffffffffffffffff84811660008181526020818152604080832067ffffffffffffffff871680855290835292819020815160808101835281548716815260018201548185015260028083015490971681840152600390910154606082015281517f181538c0000000000000000000000000000000000000000000000000000000008152600481019490945260248401959095525163181538c0926044808201939291829003018186803b158015610e9157600080fd5b505afa158015610ea5573d6000803e3d6000fd5b505050506040513d6020811015610ebb57600080fd5b505115610f2957604080517f08c379a000000000000000000000000000000000000000000000000000000000815260206004820152601a60248201527f70726f706f73616c20616c72656164792070726f636573736564000000000000604482015290519081900360640190fd5b604080517f181538c000000000000000000000000000000000000000000000000000000000815267ffffffffffffffff8416600482015260016024820152905173ffffffffffffffffffffffffffffffffffffffff87169163181538c0916044808301926020929190829003018186803b158015610fa657600080fd5b505afa158015610fba573d6000803e3d6000fd5b505050506040513d6020811015610fd057600080fd5b505161103d57604080517f08c379a000000000000000000000000000000000000000000000000000000000815260206004820152601a60248201527f70726f706f73616c206e6f742073706f6e736f72656420796574000000000000604482015290519081900360640190fd5b60008573ffffffffffffffffffffffffffffffffffffffff166317ba7d857f0e49311626a26ba5be58a3b13d239908e80ce0dffdd5c50bf1d9c82ff35d1ab36040518263ffffffff1660e01b81526004018082815260200191505060206040518083038186803b1580156110b057600080fd5b505afa1580156110c4573d6000803e3d6000fd5b505050506040513d60208110156110da57600080fd5b5051604080517f8df8ca2c00000000000000000000000000000000000000000000000000000000815273ffffffffffffffffffffffffffffffffffffffff898116600483015267ffffffffffffffff87166024830152915192935090831691638df8ca2c916044808201926020929091908290030181600087803b15801561116157600080fd5b505af1158015611175573d6000803e3d6000fd5b505050506040513d602081101561118b57600080fd5b50516002146111fb57604080517f08c379a000000000000000000000000000000000000000000000000000000000815260206004820152601660248201527f70726f706f73616c206e6565647320746f207061737300000000000000000000604482015290519081900360640190fd5b8573ffffffffffffffffffffffffffffffffffffffff1663e3a05cc161dead846040015185602001516040518463ffffffff1660e01b8152600401808473ffffffffffffffffffffffffffffffffffffffff1681526020018373ffffffffffffffffffffffffffffffffffffffff1681526020018281526020019350505050600060405180830381600087803b15801561129457600080fd5b505af11580156112a8573d6000803e3d6000fd5b50508351604080860151602087015182517fc57d5fe900000000000000000000000000000000000000000000000000000000815273ffffffffffffffffffffffffffffffffffffffff9485166004820152918416602483015260448201529051918a16935063c57d5fe9925060648082019260009290919082900301818387803b15801561133557600080fd5b505af1158015611349573d6000803e3d6000fd5b505050508573ffffffffffffffffffffffffffffffffffffffff1663311842a1846040518263ffffffff1660e01b8152600401808267ffffffffffffffff168152602001915050600060405180830381600087803b1580156113aa57600080fd5b505af11580156113be573d6000803e3d6000fd5b50505050505050505050565b63b105f00d81565b61dead81565b600068010000000000000000821061143b576040517f08c379a00000000000000000000000000000000000000000000000000000000081526004018080602001828103825260268152602001806114676026913960400191505060405180910390fd5b5090565b6040805160808101825260008082526020820181905291810182905260608101919091529056fe53616665436173743a2076616c756520646f65736e27742066697420696e2036342062697473a2646970667358221220a9716465a1f2c5d0fec3c5beb82aec911e114dca01f0b1c1174d455e22811afb64736f6c63430007010033",
  "immutableReferences": {},
  "source": "pragma solidity ^0.7.0;\n\n// SPDX-License-Identifier: MIT\n\nimport \"./interfaces/IFinancing.sol\";\nimport \"../core/DaoConstants.sol\";\nimport \"../core/DaoRegistry.sol\";\nimport \"../adapters/interfaces/IVoting.sol\";\nimport \"../guards/MemberGuard.sol\";\nimport \"../helpers/FlagHelper.sol\";\nimport \"../utils/SafeMath.sol\";\nimport \"../utils/SafeCast.sol\";\n\n/**\nMIT License\n\nCopyright (c) 2020 Openlaw\n\nPermission is hereby granted, free of charge, to any person obtaining a copy\nof this software and associated documentation files (the \"Software\"), to deal\nin the Software without restriction, including without limitation the rights\nto use, copy, modify, merge, publish, distribute, sublicense, and/or sell\ncopies of the Software, and to permit persons to whom the Software is\nfurnished to do so, subject to the following conditions:\n\nThe above copyright notice and this permission notice shall be included in all\ncopies or substantial portions of the Software.\n\nTHE SOFTWARE IS PROVIDED \"AS IS\", WITHOUT WARRANTY OF ANY KIND, EXPRESS OR\nIMPLIED, INCLUDING BUT NOT LIMITED TO THE WARRANTIES OF MERCHANTABILITY,\nFITNESS FOR A PARTICULAR PURPOSE AND NONINFRINGEMENT. IN NO EVENT SHALL THE\nAUTHORS OR COPYRIGHT HOLDERS BE LIABLE FOR ANY CLAIM, DAMAGES OR OTHER\nLIABILITY, WHETHER IN AN ACTION OF CONTRACT, TORT OR OTHERWISE, ARISING FROM,\nOUT OF OR IN CONNECTION WITH THE SOFTWARE OR THE USE OR OTHER DEALINGS IN THE\nSOFTWARE.\n */\n\ncontract FinancingContract is IFinancing, DaoConstants, MemberGuard {\n    using SafeMath for uint256;\n    using SafeCast for uint256;\n\n    struct ProposalDetails {\n        address applicant;\n        uint256 amount;\n        address token;\n        bytes32 details;\n    }\n\n    mapping(address => mapping(uint256 => ProposalDetails)) public proposals;\n\n    /*\n     * default fallback function to prevent from sending ether to the contract\n     */\n    receive() external payable {\n        revert(\"fallback revert\");\n    }\n\n    function createFinancingRequest(\n        DaoRegistry dao,\n        address applicant,\n        address token,\n        uint256 amount,\n        bytes32 details\n    ) external override returns (uint64) {\n        require(amount > 0, \"invalid requested amount\");\n        require(dao.isTokenAllowed(token), \"token not allowed\");\n        require(\n            dao.isNotReservedAddress(applicant),\n            \"applicant using reserved address\"\n        );\n\n        uint64 proposalId = dao.submitProposal();\n\n        ProposalDetails storage proposal = proposals[address(dao)][proposalId];\n        proposal.applicant = applicant;\n        proposal.amount = amount;\n        proposal.details = details;\n        proposal.token = token;\n        return proposalId;\n    }\n\n    function sponsorProposal(\n        DaoRegistry dao,\n        uint256 _proposalId,\n        bytes calldata data\n    ) external override onlyMember(dao) {\n        uint64 proposalId = SafeCast.toUint64(_proposalId);\n        IVoting votingContract = IVoting(dao.getAdapterAddress(VOTING));\n        votingContract.startNewVotingForProposal(dao, proposalId, data);\n        dao.sponsorProposal(proposalId, msg.sender);\n    }\n\n    function processProposal(DaoRegistry dao, uint256 _proposalId)\n        external\n        override\n        onlyMember(dao)\n    {\n        uint64 proposalId = SafeCast.toUint64(_proposalId);\n        ProposalDetails memory details = proposals[address(dao)][proposalId];\n\n        require(\n            !dao.getProposalFlag(proposalId, FlagHelper.Flag.PROCESSED),\n            \"proposal already processed\"\n        );\n        require(\n            dao.getProposalFlag(proposalId, FlagHelper.Flag.SPONSORED),\n            \"proposal not sponsored yet\"\n        );\n\n        IVoting votingContract = IVoting(dao.getAdapterAddress(VOTING));\n        require(\n            votingContract.voteResult(dao, proposalId) == 2,\n            \"proposal needs to pass\"\n        );\n\n        dao.subtractFromBalance(GUILD, details.token, details.amount);\n        dao.addToBalance(details.applicant, details.token, details.amount);\n        dao.processProposal(proposalId);\n    }\n}\n",
  "sourcePath": "/Users/jd/openlaw/openlawteam/laoland/contracts/adapters/Financing.sol",
  "compiler": {
    "name": "solc",
    "version": "0.7.1+commit.f4a555be.Emscripten.clang"
  },
  "schemaVersion": "3.3.3",
  "updatedAt": "2020-12-29T05:49:15.808Z",
  "devdoc": {
    "kind": "dev",
    "methods": {},
    "version": 1
  },
  "userdoc": {
    "kind": "user",
    "methods": {
      "GUILD()": {
        "notice": "The reserved address for Guild bank account"
      },
      "TOTAL()": {
        "notice": "The reserved address for Total funds bank account"
      }
    },
    "notice": "MIT License Copyright (c) 2020 Openlaw Permission is hereby granted, free of charge, to any person obtaining a copy of this software and associated documentation files (the \"Software\"), to deal in the Software without restriction, including without limitation the rights to use, copy, modify, merge, publish, distribute, sublicense, and/or sell copies of the Software, and to permit persons to whom the Software is furnished to do so, subject to the following conditions: The above copyright notice and this permission notice shall be included in all copies or substantial portions of the Software. THE SOFTWARE IS PROVIDED \"AS IS\", WITHOUT WARRANTY OF ANY KIND, EXPRESS OR IMPLIED, INCLUDING BUT NOT LIMITED TO THE WARRANTIES OF MERCHANTABILITY, FITNESS FOR A PARTICULAR PURPOSE AND NONINFRINGEMENT. IN NO EVENT SHALL THE AUTHORS OR COPYRIGHT HOLDERS BE LIABLE FOR ANY CLAIM, DAMAGES OR OTHER LIABILITY, WHETHER IN AN ACTION OF CONTRACT, TORT OR OTHERWISE, ARISING FROM, OUT OF OR IN CONNECTION WITH THE SOFTWARE OR THE USE OR OTHER DEALINGS IN THE SOFTWARE.",
    "version": 1
  }
}