{
  "contractName": "GuildKickContract",
  "abi": [
    {
      "inputs": [
        {
          "internalType": "uint256",
          "name": "flags",
          "type": "uint256"
        },
        {
          "internalType": "uint256",
          "name": "flag",
          "type": "uint256"
        }
      ],
      "name": "getFlag",
      "outputs": [
        {
          "internalType": "bool",
          "name": "",
          "type": "bool"
        }
      ],
      "stateMutability": "pure",
      "type": "function"
    },
    {
      "inputs": [
        {
          "internalType": "address",
          "name": "",
          "type": "address"
        },
        {
          "internalType": "bytes32",
          "name": "",
          "type": "bytes32"
        }
      ],
      "name": "kicks",
      "outputs": [
        {
          "internalType": "address",
          "name": "memberToKick",
          "type": "address"
        },
        {
          "internalType": "enum GuildKickContract.GuildKickStatus",
          "name": "status",
          "type": "uint8"
        },
        {
          "internalType": "uint256",
          "name": "tokensToBurn",
          "type": "uint256"
        },
        {
          "internalType": "uint256",
          "name": "currentIndex",
          "type": "uint256"
        },
        {
          "internalType": "uint256",
          "name": "blockNumber",
          "type": "uint256"
        }
      ],
      "stateMutability": "view",
      "type": "function"
    },
    {
      "inputs": [
        {
          "internalType": "address",
          "name": "",
          "type": "address"
        }
      ],
      "name": "ongoingKicks",
      "outputs": [
        {
          "internalType": "bytes32",
          "name": "",
          "type": "bytes32"
        }
      ],
      "stateMutability": "view",
      "type": "function"
    },
    {
      "inputs": [
        {
          "internalType": "uint256",
          "name": "flags",
          "type": "uint256"
        },
        {
          "internalType": "uint256",
          "name": "flag",
          "type": "uint256"
        },
        {
          "internalType": "bool",
          "name": "value",
          "type": "bool"
        }
      ],
      "name": "setFlag",
      "outputs": [
        {
          "internalType": "uint256",
          "name": "",
          "type": "uint256"
        }
      ],
      "stateMutability": "pure",
      "type": "function"
    },
    {
      "stateMutability": "payable",
      "type": "receive"
    },
    {
      "inputs": [
        {
          "internalType": "contract DaoRegistry",
          "name": "dao",
          "type": "address"
        },
        {
          "internalType": "bytes32",
          "name": "proposalId",
          "type": "bytes32"
        },
        {
          "internalType": "address",
          "name": "memberToKick",
          "type": "address"
        },
        {
          "internalType": "bytes",
          "name": "data",
          "type": "bytes"
        }
      ],
      "name": "submitKickProposal",
      "outputs": [],
      "stateMutability": "nonpayable",
      "type": "function"
    },
    {
      "inputs": [
        {
          "internalType": "contract DaoRegistry",
          "name": "dao",
          "type": "address"
        },
        {
          "internalType": "bytes32",
          "name": "proposalId",
          "type": "bytes32"
        }
      ],
      "name": "processProposal",
      "outputs": [],
      "stateMutability": "nonpayable",
      "type": "function"
    },
    {
      "inputs": [
        {
          "internalType": "contract DaoRegistry",
          "name": "dao",
          "type": "address"
        },
        {
          "internalType": "uint256",
          "name": "toIndex",
          "type": "uint256"
        }
      ],
      "name": "rageKick",
      "outputs": [],
      "stateMutability": "nonpayable",
      "type": "function"
    }
  ],
  "bytecode": "0x608060405234801561001057600080fd5b506124e3806100206000396000f3fe6080604052600436106100745760003560e01c80638a634a5c1161004e5780638a634a5c146101355780639573167d14610162578063b244a41d14610182578063fc258031146101a2576100b4565b806329e5ab96146100b95780633981538e146100db5780637f5d336f14610115576100b4565b366100b4576040517f08c379a00000000000000000000000000000000000000000000000000000000081526004016100ab906121c3565b60405180910390fd5b600080fd5b3480156100c557600080fd5b506100d96100d4366004611c9e565b6101cf565b005b3480156100e757600080fd5b506100fb6100f6366004611c57565b61092f565b60405161010c959493929190611e9e565b60405180910390f35b34801561012157600080fd5b506100d9610130366004611cb0565b610983565b34801561014157600080fd5b50610155610150366004611c1f565b610b2a565b60405161010c9190611f12565b34801561016e57600080fd5b506100d961017d366004611c9e565b610b3c565b34801561018e57600080fd5b5061015561019d366004611da2565b6112d8565b3480156101ae57600080fd5b506101c26101bd366004611d81565b611334565b60405161010c9190611f07565b6001600160a01b03821660009081526001602081815260408084205484835281852081865290925290922060038101549091825474010000000000000000000000000000000000000000900460ff166002811115610256577f4e487b7100000000000000000000000000000000000000000000000000000000600052602160045260246000fd5b1461028d576040517f08c379a00000000000000000000000000000000000000000000000000000000081526004016100ab9061202d565b6002820154848111156102cc576040517f08c379a00000000000000000000000000000000000000000000000000000000081526004016100ab90611fbf565b6040517f593e96b60000000000000000000000000000000000000000000000000000000081526000906001600160a01b0388169063593e96b690610334907fea0ca03c7adbe41dc655fec28a9209dc8e6e042f3d991a67765ba285b9cf73a090600401611f12565b60206040518083038186803b15801561034c57600080fd5b505afa158015610360573d6000803e3d6000fd5b505050506040513d601f19601f820116820180604052508101906103849190611c3b565b90506000816001600160a01b0316637de66b6d6040518163ffffffff1660e01b815260040160206040518083038186803b1580156103c157600080fd5b505afa1580156103d5573d6000803e3d6000fd5b505050506040513d601f19601f820116820180604052508101906103f99190611d69565b905086818111156104075750805b6040517ffaaf38b30000000000000000000000000000000000000000000000000000000081526000906001600160a01b0385169063faaf38b3906104599061babe9063baaaaaad908b90600401611e7a565b60206040518083038186803b15801561047157600080fd5b505afa158015610485573d6000803e3d6000fd5b505050506040513d601f19601f820116820180604052508101906104a99190611d69565b6040517ffaaf38b30000000000000000000000000000000000000000000000000000000081526001600160a01b0386169063faaf38b3906104f89061babe9063b105f00d908c90600401611e7a565b60206040518083038186803b15801561051057600080fd5b505afa158015610524573d6000803e3d6000fd5b505050506040513d601f19601f820116820180604052508101906105489190611d69565b6040517ffaaf38b30000000000000000000000000000000000000000000000000000000081526001600160a01b0387169063faaf38b3906105969061babe90620ff1ce908d90600401611e7a565b60206040518083038186803b1580156105ae57600080fd5b505afa1580156105c2573d6000803e3d6000fd5b505050506040513d601f19601f820116820180604052508101906105e69190611d69565b6105f0919061222f565b6105fa919061222f565b875460018901549192506001600160a01b031690865b848110156107dd576040517fe4b50cb80000000000000000000000000000000000000000000000000000000081526000906001600160a01b0389169063e4b50cb890610660908590600401611f12565b60206040518083038186803b15801561067857600080fd5b505afa15801561068c573d6000803e3d6000fd5b505050506040513d601f19601f820116820180604052508101906106b09190611c3b565b90506000610740896001600160a01b031663faaf38b361dead858f6040518463ffffffff1660e01b81526004016106e993929190611e7a565b60206040518083038186803b15801561070157600080fd5b505afa158015610715573d6000803e3d6000fd5b505050506040513d601f19601f820116820180604052508101906107399190611d69565b8588611351565b905080156107c8576040517f44a29e2a0000000000000000000000000000000000000000000000000000000081526001600160a01b038a16906344a29e2a906107959061dead90899087908790600401611e50565b600060405180830381600087803b1580156107af57600080fd5b505af11580156107c3573d6000803e3d6000fd5b505050505b505080806107d5906123dc565b915050610610565b506002890184905584841415610921576040517fe3a05cc10000000000000000000000000000000000000000000000000000000081526001600160a01b0387169063e3a05cc19061083a90859063b105f00d908690600401611e7a565b600060405180830381600087803b15801561085457600080fd5b505af1158015610868573d6000803e3d6000fd5b50506040517f42447c180000000000000000000000000000000000000000000000000000000081526001600160a01b038f1692506342447c1891506108b1908590600401611e22565b600060405180830381600087803b1580156108cb57600080fd5b505af11580156108df573d6000803e3d6000fd5b50508a547fffffffffffffffffffffff00ffffffffffffffffffffffffffffffffffffffff1674020000000000000000000000000000000000000000178b5550505b505050505050505050505050565b600060208181529281526040808220909352908152208054600182015460028301546003909301546001600160a01b038316937401000000000000000000000000000000000000000090930460ff16929085565b6040517f17ba7d850000000000000000000000000000000000000000000000000000000081526000906001600160a01b038716906317ba7d85906109eb907f0e49311626a26ba5be58a3b13d239908e80ce0dffdd5c50bf1d9c82ff35d1ab390600401611f12565b60206040518083038186803b158015610a0357600080fd5b505afa158015610a17573d6000803e3d6000fd5b505050506040513d601f19601f82011682018060405250810190610a3b9190611c3b565b90506000816001600160a01b031663966917d088308787336040518663ffffffff1660e01b8152600401610a73959493929190611f32565b602060405180830381600087803b158015610a8d57600080fd5b505af1158015610aa1573d6000803e3d6000fd5b505050506040513d601f19601f82011682018060405250810190610ac59190611c3b565b9050846001600160a01b0316816001600160a01b03161415610b13576040517f08c379a00000000000000000000000000000000000000000000000000000000081526004016100ab90612155565b610b218787878787866113db565b50505050505050565b60016020526000908152604090205481565b6040517f30490e910000000000000000000000000000000000000000000000000000000081526001600160a01b038316906330490e9190610b81908490600401611f12565b600060405180830381600087803b158015610b9b57600080fd5b505af1158015610baf573d6000803e3d6000fd5b5050506001600160a01b03831660009081526020818152604080832085845290915281209150815474010000000000000000000000000000000000000000900460ff166002811115610c2a577f4e487b7100000000000000000000000000000000000000000000000000000000600052602160045260246000fd5b14610c61576040517f08c379a00000000000000000000000000000000000000000000000000000000081526004016100ab906120c1565b6001600160a01b038316600090815260016020526040902054801580610cfc575060016001600160a01b03851660009081526020818152604080832085845290915290205474010000000000000000000000000000000000000000900460ff166002811115610cf9577f4e487b7100000000000000000000000000000000000000000000000000000000600052602160045260246000fd5b14155b610d32576040517f08c379a00000000000000000000000000000000000000000000000000000000081526004016100ab906121fa565b6040517f17ba7d850000000000000000000000000000000000000000000000000000000081526000906001600160a01b038616906317ba7d8590610d9a907f0e49311626a26ba5be58a3b13d239908e80ce0dffdd5c50bf1d9c82ff35d1ab390600401611f12565b60206040518083038186803b158015610db257600080fd5b505afa158015610dc6573d6000803e3d6000fd5b505050506040513d601f19601f82011682018060405250810190610dea9190611c3b565b905060026040517f76225e730000000000000000000000000000000000000000000000000000000081526001600160a01b038316906376225e7390610e359089908990600401611f73565b602060405180830381600087803b158015610e4f57600080fd5b505af1158015610e63573d6000803e3d6000fd5b505050506040513d601f19601f82011682018060405250810190610e879190611d4a565b6005811115610ebf577f4e487b7100000000000000000000000000000000000000000000000000000000600052602160045260246000fd5b14610ef6576040517f08c379a00000000000000000000000000000000000000000000000000000000081526004016100ab90611ff6565b6040517f593e96b60000000000000000000000000000000000000000000000000000000081526000906001600160a01b0387169063593e96b690610f5e907fea0ca03c7adbe41dc655fec28a9209dc8e6e042f3d991a67765ba285b9cf73a090600401611f12565b60206040518083038186803b158015610f7657600080fd5b505afa158015610f8a573d6000803e3d6000fd5b505050506040513d601f19601f82011682018060405250810190610fae9190611c3b565b84546040517ff7888aec0000000000000000000000000000000000000000000000000000000081529192506001600160a01b039081169160009184169063f7888aec90611004908590620ff1ce90600401611e36565b60206040518083038186803b15801561101c57600080fd5b505afa158015611030573d6000803e3d6000fd5b505050506040513d601f19601f820116820180604052508101906110549190611d69565b6040517fe3a05cc10000000000000000000000000000000000000000000000000000000081529091506001600160a01b0384169063e3a05cc1906110a3908590620ff1ce908690600401611e7a565b600060405180830381600087803b1580156110bd57600080fd5b505af11580156110d1573d6000803e3d6000fd5b50506040517fc57d5fe90000000000000000000000000000000000000000000000000000000081526001600160a01b038616925063c57d5fe9915061112290859063b105f00d908690600401611e7a565b600060405180830381600087803b15801561113c57600080fd5b505af1158015611150573d6000803e3d6000fd5b50506040517ff7888aec000000000000000000000000000000000000000000000000000000008152600092506001600160a01b038616915063f7888aec906111a290869063b105f00d90600401611e36565b60206040518083038186803b1580156111ba57600080fd5b505afa1580156111ce573d6000803e3d6000fd5b505050506040513d601f19601f820116820180604052508101906111f29190611d69565b6040517f575d3f730000000000000000000000000000000000000000000000000000000081529091506001600160a01b038a169063575d3f739061123a908690600401611e22565b600060405180830381600087803b15801561125457600080fd5b505af1158015611268573d6000803e3d6000fd5b505088547fffffffffffffffffffffff00ffffffffffffffffffffffffffffffffffffffff16740100000000000000000000000000000000000000001789555050436003880155600196870155505050506001600160a01b03939093166000908152602091909152604090205550565b60008115156112e78585611334565b15151461132a578115611310576112ff8360026122a1565b611309908561222f565b905061132d565b61131b8360026122a1565b61130990856123c5565b61132d565b50825b9392505050565b6000611347600260ff841685901c612415565b6001149392505050565b60008161138a576040517f08c379a00000000000000000000000000000000000000000000000000000000081526004016100ab9061218c565b836113975750600061132d565b838302836113a58683612247565b14156113bd576113b58382612247565b91505061132d565b836113c88487612247565b6113d29190612388565b95945050505050565b85816113e78282611930565b6040517fb73dc3890000000000000000000000000000000000000000000000000000000081526001600160a01b0389169063b73dc3899061142c908a90600401611f12565b600060405180830381600087803b15801561144657600080fd5b505af115801561145a573d6000803e3d6000fd5b50506040517f593e96b6000000000000000000000000000000000000000000000000000000008152600092506001600160a01b038b16915063593e96b6906114c6907fea0ca03c7adbe41dc655fec28a9209dc8e6e042f3d991a67765ba285b9cf73a090600401611f12565b60206040518083038186803b1580156114de57600080fd5b505afa1580156114f2573d6000803e3d6000fd5b505050506040513d601f19601f820116820180604052508101906115169190611c3b565b90506000816001600160a01b031663f7888aec89620ff1ce6040518363ffffffff1660e01b815260040161154b929190611e36565b60206040518083038186803b15801561156357600080fd5b505afa158015611577573d6000803e3d6000fd5b505050506040513d601f19601f8201168201806040525081019061159b9190611d69565b90506000826001600160a01b031663f7888aec8a63b105f00d6040518363ffffffff1660e01b81526004016115d1929190611e36565b60206040518083038186803b1580156115e957600080fd5b505afa1580156115fd573d6000803e3d6000fd5b505050506040513d601f19601f820116820180604052508101906116219190611d69565b9050600061162f828461222f565b11611666576040517f08c379a00000000000000000000000000000000000000000000000000000000081526004016100ab9061208a565b6040805160a081019091526001600160a01b038a16815260208101600081526020016000815260200160008152602001438152506000808d6001600160a01b03166001600160a01b0316815260200190815260200160002060008c815260200190815260200160002060008201518160000160006101000a8154816001600160a01b0302191690836001600160a01b0316021790555060208201518160000160146101000a81548160ff0219169083600281111561174d577f4e487b7100000000000000000000000000000000000000000000000000000000600052602160045260246000fd5b0217905550604082810151600183015560608301516002830155608090920151600390910155517f17ba7d850000000000000000000000000000000000000000000000000000000081526000906001600160a01b038d16906317ba7d85906117d9907f0e49311626a26ba5be58a3b13d239908e80ce0dffdd5c50bf1d9c82ff35d1ab390600401611f12565b60206040518083038186803b1580156117f157600080fd5b505afa158015611805573d6000803e3d6000fd5b505050506040513d601f19601f820116820180604052508101906118299190611c3b565b6040517f2b0974d00000000000000000000000000000000000000000000000000000000081529091506001600160a01b03821690632b0974d090611877908f908f908e908e90600401611f8c565b600060405180830381600087803b15801561189157600080fd5b505af11580156118a5573d6000803e3d6000fd5b50506040517f815a2bf40000000000000000000000000000000000000000000000000000000081526001600160a01b038f16925063815a2bf491506118f0908e908b90600401611f1b565b600060405180830381600087803b15801561190a57600080fd5b505af115801561191e573d6000803e3d6000fd5b50505050505050505050505050505050565b6040517ffefbd8750000000000000000000000000000000000000000000000000000000081526000906001600160a01b0384169063fefbd87590611998907fea0ca03c7adbe41dc655fec28a9209dc8e6e042f3d991a67765ba285b9cf73a090600401611f12565b60206040518083038186803b1580156119b057600080fd5b505afa1580156119c4573d6000803e3d6000fd5b505050506040513d601f19601f820116820180604052508101906119e89190611c3b565b90506001600160a01b03811615611b4f576040517fc89bb8ba0000000000000000000000000000000000000000000000000000000081526000906001600160a01b0385169063c89bb8ba90611a41908690600401611e22565b60206040518083038186803b158015611a5957600080fd5b505afa158015611a6d573d6000803e3d6000fd5b505050506040513d601f19601f82011682018060405250810190611a919190611c3b565b90506000826001600160a01b031663f7888aec83620ff1ce6040518363ffffffff1660e01b8152600401611ac6929190611e36565b60206040518083038186803b158015611ade57600080fd5b505afa158015611af2573d6000803e3d6000fd5b505050506040513d601f19601f82011682018060405250810190611b169190611d69565b11611b4d576040517f08c379a00000000000000000000000000000000000000000000000000000000081526004016100ab9061211e565b505b6040517f45ecd02f0000000000000000000000000000000000000000000000000000000081526001600160a01b038416906345ecd02f90611b94908590600401611e22565b60206040518083038186803b158015611bac57600080fd5b505afa158015611bc0573d6000803e3d6000fd5b505050506040513d601f19601f82011682018060405250810190611be49190611c82565b611c1a576040517f08c379a00000000000000000000000000000000000000000000000000000000081526004016100ab9061211e565b505050565b600060208284031215611c30578081fd5b813561132d81612487565b600060208284031215611c4c578081fd5b815161132d81612487565b60008060408385031215611c69578081fd5b8235611c7481612487565b946020939093013593505050565b600060208284031215611c93578081fd5b815161132d8161249f565b60008060408385031215611c69578182fd5b600080600080600060808688031215611cc7578081fd5b8535611cd281612487565b9450602086013593506040860135611ce981612487565b9250606086013567ffffffffffffffff80821115611d05578283fd5b818801915088601f830112611d18578283fd5b813581811115611d26578384fd5b896020828501011115611d37578384fd5b9699959850939650602001949392505050565b600060208284031215611d5b578081fd5b81516006811061132d578182fd5b600060208284031215611d7a578081fd5b5051919050565b60008060408385031215611d93578182fd5b50508035926020909101359150565b600080600060608486031215611db6578283fd5b83359250602084013591506040840135611dcf8161249f565b809150509250925092565b600082845282826020860137806020848601015260207fffffffffffffffffffffffffffffffffffffffffffffffffffffffffffffffe0601f85011685010190509392505050565b6001600160a01b0391909116815260200190565b6001600160a01b0392831681529116602082015260400190565b6001600160a01b039485168152928416602084015292166040820152606081019190915260800190565b6001600160a01b039384168152919092166020820152604081019190915260600190565b6001600160a01b038616815260a0810160038610611ee5577f4e487b7100000000000000000000000000000000000000000000000000000000600052602160045260246000fd5b8560208301528460408301528360608301528260808301529695505050505050565b901515815260200190565b90815260200190565b9182526001600160a01b0316602082015260400190565b60006001600160a01b038088168352808716602084015260806040840152611f5e608084018688611dda565b91508084166060840152509695505050505050565b6001600160a01b03929092168252602082015260400190565b60006001600160a01b038616825284602083015260606040830152611fb5606083018486611dda565b9695505050505050565b6020808252600f908201527f746f496e64657820746f6f206c6f770000000000000000000000000000000000604082015260600190565b60208082526015908201527f70726f706f73616c20646964206e6f7420706173730000000000000000000000604082015260600190565b60208082526026908201527f6775696c64206b69636b20636f6d706c65746564206f7220646f6573206e6f7460408201527f2065786973740000000000000000000000000000000000000000000000000000606082015260800190565b60208082526011908201527f6e6f20736861726573206f72206c6f6f74000000000000000000000000000000604082015260600190565b6020808252602b908201527f6775696c64206b69636b20616c726561647920636f6d706c65746564206f722060408201527f696e2070726f6772657373000000000000000000000000000000000000000000606082015260800190565b6020808252600a908201527f6f6e6c794d656d62657200000000000000000000000000000000000000000000604082015260600190565b60208082526019908201527f796f752063616e206e6f74206b69636b20796f757273656c6600000000000000604082015260600190565b6020808252601c908201527f746f74616c207368617265732073686f756c64206e6f74206265203000000000604082015260600190565b6020808252600f908201527f66616c6c6261636b207265766572740000000000000000000000000000000000604082015260600190565b6020808252818101527f616e6f74686572206b69636b20616c726561647920696e2070726f6772657373604082015260600190565b6000821982111561224257612242612429565b500190565b60008261225657612256612458565b500490565b80825b600180861161226d5750612298565b81870482111561227f5761227f612429565b8086161561228c57918102915b9490941c93800261225e565b94509492505050565b600061132d7fffffffffffffffffffffffffffffffffffffffffffffffffffffffffffffffff84846000826122d85750600161132d565b816122e55750600061132d565b81600181146122fb576002811461230557612332565b600191505061132d565b60ff84111561231657612316612429565b6001841b91508482111561232c5761232c612429565b5061132d565b5060208310610133831016604e8410600b8410161715612360575081810a8381111561132557611325612429565b61236d848484600161225b565b80860482111561237f5761237f612429565b02949350505050565b6000817fffffffffffffffffffffffffffffffffffffffffffffffffffffffffffffffff04831182151516156123c0576123c0612429565b500290565b6000828210156123d7576123d7612429565b500390565b60007fffffffffffffffffffffffffffffffffffffffffffffffffffffffffffffffff82141561240e5761240e612429565b5060010190565b60008261242457612424612458565b500690565b7f4e487b7100000000000000000000000000000000000000000000000000000000600052601160045260246000fd5b7f4e487b7100000000000000000000000000000000000000000000000000000000600052601260045260246000fd5b6001600160a01b038116811461249c57600080fd5b50565b801515811461249c57600080fdfea264697066735822122006c5a7ea6393d8cb4baedfacd7b5a42ea1eea791137f9fbeae12ef38b122e32064736f6c63430008000033",
  "immutableReferences": {},
  "source": "pragma solidity ^0.8.0;\n\n// SPDX-License-Identifier: MIT\n\nimport \"../core/DaoConstants.sol\";\nimport \"../core/DaoRegistry.sol\";\nimport \"../guards/MemberGuard.sol\";\nimport \"./interfaces/IGuildKick.sol\";\nimport \"../adapters/interfaces/IVoting.sol\";\nimport \"../helpers/FairShareHelper.sol\";\nimport \"../extensions/Bank.sol\";\n\n/**\nMIT License\n\nCopyright (c) 2020 Openlaw\n\nPermission is hereby granted, free of charge, to any person obtaining a copy\nof this software and associated documentation files (the \"Software\"), to deal\nin the Software without restriction, including without limitation the rights\nto use, copy, modify, merge, publish, distribute, sublicense, and/or sell\ncopies of the Software, and to permit persons to whom the Software is\nfurnished to do so, subject to the following conditions:\n\nThe above copyright notice and this permission notice shall be included in all\ncopies or substantial portions of the Software.\n\nTHE SOFTWARE IS PROVIDED \"AS IS\", WITHOUT WARRANTY OF ANY KIND, EXPRESS OR\nIMPLIED, INCLUDING BUT NOT LIMITED TO THE WARRANTIES OF MERCHANTABILITY,\nFITNESS FOR A PARTICULAR PURPOSE AND NONINFRINGEMENT. IN NO EVENT SHALL THE\nAUTHORS OR COPYRIGHT HOLDERS BE LIABLE FOR ANY CLAIM, DAMAGES OR OTHER\nLIABILITY, WHETHER IN AN ACTION OF CONTRACT, TORT OR OTHERWISE, ARISING FROM,\nOUT OF OR IN CONNECTION WITH THE SOFTWARE OR THE USE OR OTHER DEALINGS IN THE\nSOFTWARE.\n */\n\ncontract GuildKickContract is IGuildKick, DaoConstants, MemberGuard {\n    // The kick status\n    enum GuildKickStatus {NOT_STARTED, IN_PROGRESS, DONE}\n\n    // State of the guild kick proposal\n    struct GuildKick {\n        // The address of the member to kick out of the DAO.\n        address memberToKick;\n        // The kick status.\n        GuildKickStatus status;\n        // The number of shares of the member that should be burned.\n        uint256 tokensToBurn;\n        // Current iteration index to control the cached for-loop.\n        uint256 currentIndex;\n        // The block number in which the guild kick proposal has been created.\n        uint256 blockNumber;\n    }\n\n    // Keeps track of all the kicks executed per DAO.\n    mapping(address => mapping(bytes32 => GuildKick)) public kicks;\n\n    // Keeps track of the latest ongoing kick proposal per DAO to ensure only 1 kick happens at a time.\n    mapping(address => bytes32) public ongoingKicks;\n\n    /**\n     * @notice default fallback function to prevent from sending ether to the contract.\n     */\n    receive() external payable {\n        revert(\"fallback revert\");\n    }\n\n    /**\n     * @notice Creates a guild kick proposal, opens it for voting, and sponsors it.\n     * @dev A member can not kick himself.\n     * @dev Only one kick per DAO can be executed at time.\n     * @dev Only members that have shares or loot can be kicked out.\n     * @dev Proposal ids can not be reused.\n     * @param dao The dao address.\n     * @param proposalId The guild kick proposal id.\n     * @param memberToKick The member address that should be kicked out of the DAO.\n     * @param data Additional information related to the kick proposal.\n     */\n    function submitKickProposal(\n        DaoRegistry dao,\n        bytes32 proposalId,\n        address memberToKick,\n        bytes calldata data\n    ) external override {\n        IVoting votingContract = IVoting(dao.getAdapterAddress(VOTING));\n        address submittedBy =\n            votingContract.getSenderAddress(\n                dao,\n                address(this),\n                data,\n                msg.sender\n            );\n        // Checks if the sender address is not the same as the member to kick to prevent auto kick.\n        require(submittedBy != memberToKick, \"you can not kick yourself\");\n        _submitKickProposal(dao, proposalId, memberToKick, data, submittedBy);\n    }\n\n    /**\n     * @notice Converts the shares into loot to remove the voting power, and sponsors the kick proposal.\n     * @dev Only members that have shares or loot can be kicked out.\n     * @dev Proposal ids can not be reused.\n     * @param dao The dao address.\n     * @param proposalId The guild kick proposal id.\n     * @param memberToKick The member address that should be kicked out of the DAO.\n     * @param data Additional information related to the kick proposal.\n     * @param submittedBy The address of the individual that created the kick proposal.\n     */\n    function _submitKickProposal(\n        DaoRegistry dao,\n        bytes32 proposalId,\n        address memberToKick,\n        bytes calldata data,\n        address submittedBy\n    ) internal onlyMember2(dao, submittedBy) {\n        // Creates a guild kick proposal.\n        dao.submitProposal(proposalId);\n\n        BankExtension bank = BankExtension(dao.getExtensionAddress(BANK));\n        // Gets the number of shares of the member\n        uint256 sharesToBurn = bank.balanceOf(memberToKick, SHARES);\n\n        // Gets the number of loot of the member\n        uint256 lootToBurn = bank.balanceOf(memberToKick, LOOT);\n\n        // Checks if the member has enough shares to be converted to loot.\n        require(sharesToBurn + lootToBurn > 0, \"no shares or loot\");\n\n        // Saves the state of the guild kick proposal.\n        kicks[address(dao)][proposalId] = GuildKick(\n            memberToKick,\n            GuildKickStatus.NOT_STARTED,\n            0,\n            0,\n            block.number\n        );\n\n        // Starts the voting process for the guild kick proposal.\n        IVoting votingContract = IVoting(dao.getAdapterAddress(VOTING));\n        votingContract.startNewVotingForProposal(dao, proposalId, data);\n\n        // Sponsors the guild kick proposal.\n        dao.sponsorProposal(proposalId, submittedBy);\n    }\n\n    /**\n     * @notice Process the guild kick proposal, converts the member's shares into loot.\n     * @notice The kicked member is put in jail, so he can not perform any other action in the DAO.\n     * @dev A kick proposal must be in progress.\n     * @dev Only one kick per DAO can be executed at time.\n     * @dev Only active members can be kicked out.\n     * @dev Only proposals that passed the voting can be set to In Progress status.\n     * @param dao The dao address.\n     * @param proposalId The guild kick proposal id.\n     */\n    function processProposal(DaoRegistry dao, bytes32 proposalId)\n        external\n        override\n    {\n        dao.processProposal(proposalId);\n        // Checks if the proposal exists or is not in progress yet.\n        GuildKick storage kick = kicks[address(dao)][proposalId];\n        require(\n            kick.status == GuildKickStatus.NOT_STARTED,\n            \"guild kick already completed or in progress\"\n        );\n\n        // Checks if there is an ongoing kick proposal, only one kick can be executed at time.\n        bytes32 ongoingProposalId = ongoingKicks[address(dao)];\n        require(\n            ongoingProposalId == bytes32(0) ||\n                kicks[address(dao)][ongoingProposalId].status !=\n                GuildKickStatus.IN_PROGRESS,\n            \"another kick already in progress\"\n        );\n\n        // Checks if the proposal has passed.\n        IVoting votingContract = IVoting(dao.getAdapterAddress(VOTING));\n        require(\n            votingContract.voteResult(dao, proposalId) ==\n                IVoting.VotingState.PASS,\n            \"proposal did not pass\"\n        );\n\n        // Calculates the total shares, loot of the member.\n        BankExtension bank = BankExtension(dao.getExtensionAddress(BANK));\n        address memberToKick = kick.memberToKick;\n        // Gets the number of shares of the member\n        uint256 sharesToBurn = bank.balanceOf(memberToKick, SHARES);\n        // Burns / subtracts from member's balance the number of shares to burn.\n        bank.subtractFromBalance(memberToKick, SHARES, sharesToBurn);\n        // Burns / subtracts from member's balance the number of loot to burn.\n        // bank.subtractFromBalance(memberToKick, LOOT, kick.lootToBurn);\n        bank.addToBalance(memberToKick, LOOT, sharesToBurn);\n\n        uint256 tokensToBurn = bank.balanceOf(memberToKick, LOOT);\n\n        // Member is sent to jail to prevent any actions in the DAO anymore.\n        dao.jailMember(memberToKick);\n\n        // Set the kick proposal to done/completed.\n        kick.status = GuildKickStatus.IN_PROGRESS;\n\n        kick.blockNumber = block.number;\n        kick.tokensToBurn = tokensToBurn;\n\n        // Set the current kick proposal to done/completed.\n        ongoingKicks[address(dao)] = proposalId;\n    }\n\n    /**\n     * @notice Transfers the funds from the Guild account to the kicked member account.\n     * @notice The amount of funds is caculated using the historical balance when the proposal was created.\n     * @notice loot\n     * @notice The kicked member is put in jail, so he can not perform any other action in the DAO.\n     * @dev A kick proposal must be in progress.\n     * @dev Only one kick per DAO can be executed at time.\n     * @dev Only active members can be kicked out.\n     * @dev Only proposals that passed the voting can be completed.\n     * @param dao The dao address.\n     * @param toIndex The index to control the cached for-loop.\n     */\n    function rageKick(DaoRegistry dao, uint256 toIndex) external override {\n        //should be open it so the kicked member is able to call this function?\n        // Checks if the kick proposal does not exist or is not completed yet\n        bytes32 ongoingProposalId = ongoingKicks[address(dao)];\n        GuildKick storage kick = kicks[address(dao)][ongoingProposalId];\n        uint256 kickBlockNumber = kick.blockNumber;\n        require(\n            kick.status == GuildKickStatus.IN_PROGRESS,\n            \"guild kick completed or does not exist\"\n        );\n\n        // Check if the given index was already processed\n        uint256 currentIndex = kick.currentIndex;\n        require(currentIndex <= toIndex, \"toIndex too low\");\n\n        // Get the bank extension\n        BankExtension bank = BankExtension(dao.getExtensionAddress(BANK));\n\n        // Set the max index supported\n        uint256 nbTokens = bank.nbTokens();\n        uint256 maxIndex = toIndex;\n        if (maxIndex > nbTokens) {\n            maxIndex = nbTokens;\n        }\n\n        // Calculates the total shares, loot and locked loot before any internal transfers\n        // it considers the locked loot to be able to calculate the fair amount to ragequit,\n        // but locked loot can not be burned.\n        uint256 initialTotalSharesAndLoot =\n            bank.getPriorAmount(TOTAL, SHARES, kickBlockNumber) +\n                bank.getPriorAmount(TOTAL, LOOT, kickBlockNumber) +\n                bank.getPriorAmount(TOTAL, LOCKED_LOOT, kickBlockNumber);\n\n        // Get the member address to kick out of the DAO\n        address kickedMember = kick.memberToKick;\n        // Get amount of shares and loot to burn\n        uint256 sharesAndLootToBurn = kick.tokensToBurn;\n\n        // Transfers the funds from the internal Guild account to the internal member's account.\n        for (uint256 i = currentIndex; i < maxIndex; i++) {\n            address token = bank.getToken(i);\n            // Calculates the fair amount of funds to ragequit based on the token, shares and loot.\n            // It takes into account the historical guild balance when the kick proposal was created.\n            uint256 amountToRagequit =\n                FairShareHelper.calc(\n                    bank.getPriorAmount(GUILD, token, kickBlockNumber),\n                    sharesAndLootToBurn,\n                    initialTotalSharesAndLoot\n                );\n\n            // Ony execute the internal transfer if the user has enough funds to receive.\n            if (amountToRagequit > 0) {\n                // gas optimization to allow a higher maximum token limit\n                // deliberately not using safemath here to keep overflows from preventing the function execution\n                // (which would break ragekicks) if a token overflows,\n                // it is because the supply was artificially inflated to oblivion, so we probably don\"t care about it anyways\n                bank.internalTransfer(\n                    GUILD,\n                    kickedMember,\n                    token,\n                    amountToRagequit\n                );\n            }\n        }\n\n        kick.currentIndex = maxIndex;\n        if (maxIndex == nbTokens) {\n            // Burns the Loot+Shares, because the Shares were converted to Loot during the kick process.\n            bank.subtractFromBalance(kickedMember, LOOT, sharesAndLootToBurn);\n            // Unjail the member once the internal transfer is completed.\n            dao.unjailMember(kickedMember);\n            kick.status = GuildKickStatus.DONE;\n        }\n    }\n}\n",
  "sourcePath": "/Users/sophia/OPENLAWTEAM/laoland/contracts/adapters/GuildKick.sol",
  "compiler": {
    "name": "solc",
    "version": "0.8.0+commit.c7dfd78e.Emscripten.clang"
  },
  "schemaVersion": "3.3.3",
  "updatedAt": "2021-02-09T09:36:52.550Z",
  "devdoc": {
    "kind": "dev",
    "methods": {
      "processProposal(address,bytes32)": {
        "details": "A kick proposal must be in progress.Only one kick per DAO can be executed at time.Only active members can be kicked out.Only proposals that passed the voting can be set to In Progress status.",
        "params": {
          "dao": "The dao address.",
          "proposalId": "The guild kick proposal id."
        }
      },
      "rageKick(address,uint256)": {
        "details": "A kick proposal must be in progress.Only one kick per DAO can be executed at time.Only active members can be kicked out.Only proposals that passed the voting can be completed.",
        "params": {
          "dao": "The dao address.",
          "toIndex": "The index to control the cached for-loop."
        }
      },
      "submitKickProposal(address,bytes32,address,bytes)": {
        "details": "A member can not kick himself.Only one kick per DAO can be executed at time.Only members that have shares or loot can be kicked out.Proposal ids can not be reused.",
        "params": {
          "dao": "The dao address.",
          "data": "Additional information related to the kick proposal.",
          "memberToKick": "The member address that should be kicked out of the DAO.",
          "proposalId": "The guild kick proposal id."
        }
      }
    },
    "version": 1
  },
  "userdoc": {
    "kind": "user",
    "methods": {
      "processProposal(address,bytes32)": {
        "notice": "Process the guild kick proposal, converts the member's shares into loot.The kicked member is put in jail, so he can not perform any other action in the DAO."
      },
      "rageKick(address,uint256)": {
        "notice": "Transfers the funds from the Guild account to the kicked member account.The amount of funds is caculated using the historical balance when the proposal was created.lootThe kicked member is put in jail, so he can not perform any other action in the DAO."
      },
      "submitKickProposal(address,bytes32,address,bytes)": {
        "notice": "Creates a guild kick proposal, opens it for voting, and sponsors it."
      }
    },
    "notice": "MIT License Copyright (c) 2020 Openlaw Permission is hereby granted, free of charge, to any person obtaining a copy of this software and associated documentation files (the \"Software\"), to deal in the Software without restriction, including without limitation the rights to use, copy, modify, merge, publish, distribute, sublicense, and/or sell copies of the Software, and to permit persons to whom the Software is furnished to do so, subject to the following conditions: The above copyright notice and this permission notice shall be included in all copies or substantial portions of the Software. THE SOFTWARE IS PROVIDED \"AS IS\", WITHOUT WARRANTY OF ANY KIND, EXPRESS OR IMPLIED, INCLUDING BUT NOT LIMITED TO THE WARRANTIES OF MERCHANTABILITY, FITNESS FOR A PARTICULAR PURPOSE AND NONINFRINGEMENT. IN NO EVENT SHALL THE AUTHORS OR COPYRIGHT HOLDERS BE LIABLE FOR ANY CLAIM, DAMAGES OR OTHER LIABILITY, WHETHER IN AN ACTION OF CONTRACT, TORT OR OTHERWISE, ARISING FROM, OUT OF OR IN CONNECTION WITH THE SOFTWARE OR THE USE OR OTHER DEALINGS IN THE SOFTWARE.",
    "version": 1
  }
}