{
  "contractName": "ManagingContract",
  "abi": [
    {
      "inputs": [
        {
          "internalType": "uint256",
          "name": "flags",
          "type": "uint256"
        },
        {
          "internalType": "uint256",
          "name": "flag",
          "type": "uint256"
        }
      ],
      "name": "getFlag",
      "outputs": [
        {
          "internalType": "bool",
          "name": "",
          "type": "bool"
        }
      ],
      "stateMutability": "pure",
      "type": "function"
    },
    {
      "inputs": [
        {
          "internalType": "address",
          "name": "",
          "type": "address"
        },
        {
          "internalType": "bytes32",
          "name": "",
          "type": "bytes32"
        }
      ],
      "name": "proposals",
      "outputs": [
        {
          "internalType": "bytes32",
          "name": "adapterId",
          "type": "bytes32"
        },
        {
          "internalType": "address",
          "name": "adapterAddress",
          "type": "address"
        },
        {
          "internalType": "uint128",
          "name": "flags",
          "type": "uint128"
        }
      ],
      "stateMutability": "view",
      "type": "function"
    },
    {
      "inputs": [
        {
          "internalType": "uint256",
          "name": "flags",
          "type": "uint256"
        },
        {
          "internalType": "uint256",
          "name": "flag",
          "type": "uint256"
        },
        {
          "internalType": "bool",
          "name": "value",
          "type": "bool"
        }
      ],
      "name": "setFlag",
      "outputs": [
        {
          "internalType": "uint256",
          "name": "",
          "type": "uint256"
        }
      ],
      "stateMutability": "pure",
      "type": "function"
    },
    {
      "stateMutability": "payable",
      "type": "receive"
    },
    {
      "inputs": [
        {
          "internalType": "contract DaoRegistry",
          "name": "dao",
          "type": "address"
        },
        {
          "internalType": "bytes32",
          "name": "proposalId",
          "type": "bytes32"
        },
        {
          "internalType": "bytes32",
          "name": "adapterId",
          "type": "bytes32"
        },
        {
          "internalType": "address",
          "name": "adapterAddress",
          "type": "address"
        },
        {
          "internalType": "bytes32[]",
          "name": "keys",
          "type": "bytes32[]"
        },
        {
          "internalType": "uint256[]",
          "name": "values",
          "type": "uint256[]"
        },
        {
          "internalType": "uint256",
          "name": "_flags",
          "type": "uint256"
        }
      ],
      "name": "createAdapterChangeRequest",
      "outputs": [],
      "stateMutability": "nonpayable",
      "type": "function"
    },
    {
      "inputs": [
        {
          "internalType": "contract DaoRegistry",
          "name": "dao",
          "type": "address"
        },
        {
          "internalType": "bytes32",
          "name": "proposalId",
          "type": "bytes32"
        },
        {
          "internalType": "bytes",
          "name": "data",
          "type": "bytes"
        }
      ],
      "name": "sponsorProposal",
      "outputs": [],
      "stateMutability": "nonpayable",
      "type": "function"
    },
    {
      "inputs": [
        {
          "internalType": "contract DaoRegistry",
          "name": "dao",
          "type": "address"
        },
        {
          "internalType": "bytes32",
          "name": "proposalId",
          "type": "bytes32"
        }
      ],
      "name": "processProposal",
      "outputs": [],
      "stateMutability": "nonpayable",
      "type": "function"
    }
  ],
  "bytecode": "0x608060405234801561001057600080fd5b50611b53806100206000396000f3fe6080604052600436106100695760003560e01c8063b244a41d11610043578063b244a41d14610128578063cd0e42ed14610155578063fc25803114610175576100a9565b8063509f9299146100ae5780635cb75276146100d05780639573167d14610108576100a9565b366100a9576040517f08c379a00000000000000000000000000000000000000000000000000000000081526004016100a0906118b6565b60405180910390fd5b600080fd5b3480156100ba57600080fd5b506100ce6100c936600461138e565b6101a2565b005b3480156100dc57600080fd5b506100f06100eb366004611335565b610531565b6040516100ff939291906115cf565b60405180910390f35b34801561011457600080fd5b506100ce61012336600461137c565b610582565b34801561013457600080fd5b50610148610143366004611517565b610c0f565b6040516100ff91906115a2565b34801561016157600080fd5b506100ce61017036600461143b565b610c6b565b34801561018157600080fd5b506101956101903660046114f6565b610e0e565b6040516100ff9190611597565b886101ad8133610e2b565b8483146101e6576040517f08c379a00000000000000000000000000000000000000000000000000000000081526004016100a090611822565b6fffffffffffffffffffffffffffffffff821061022f576040517f08c379a00000000000000000000000000000000000000000000000000000000081526004016100a09061187f565b6040517fef6a2499000000000000000000000000000000000000000000000000000000008152829073ffffffffffffffffffffffffffffffffffffffff8c169063ef6a249990610283908b9060040161154f565b60206040518083038186803b15801561029b57600080fd5b505afa1580156102af573d6000803e3d6000fd5b505050506040513d601f19601f820116820180604052508101906102d39190611360565b610309576040517f08c379a00000000000000000000000000000000000000000000000000000000081526004016100a090611757565b6040517fb73dc38900000000000000000000000000000000000000000000000000000000815273ffffffffffffffffffffffffffffffffffffffff8c169063b73dc3899061035b908d906004016115a2565b600060405180830381600087803b15801561037557600080fd5b505af1158015610389573d6000803e3d6000fd5b505050506040518060a001604052808a81526020018973ffffffffffffffffffffffffffffffffffffffff168152602001888880806020026020016040519081016040528093929190818152602001838360200280828437600092019190915250505090825250604080516020888102828101820190935288825292830192909189918991829185019084908082843760009201829052509385525050506fffffffffffffffffffffffffffffffff841660209283015273ffffffffffffffffffffffffffffffffffffffff8e8116825281835260408083208f845284529182902084518155848401516001820180547fffffffffffffffffffffffff000000000000000000000000000000000000000016919093161790915590830151805191926104bd92600285019290910190611270565b50606082015180516104d9916003840191602090910190611270565b5060809190910151600490910180547fffffffffffffffffffffffffffffffff00000000000000000000000000000000166fffffffffffffffffffffffffffffffff9092169190911790555050505050505050505050565b6000602081815292815260408082209093529081522080546001820154600490920154909173ffffffffffffffffffffffffffffffffffffffff16906fffffffffffffffffffffffffffffffff1683565b73ffffffffffffffffffffffffffffffffffffffff8083166000908152602081815260408083208584528252808320815160a08101835281548152600182015490951685840152600281018054835181860281018601855281815295969592949386019383018282801561061557602002820191906000526020600020905b815481526020019060010190808311610601575b505050505081526020016003820180548060200260200160405190810160405280929190818152602001828054801561066d57602002820191906000526020600020905b815481526020019060010190808311610659575b50505091835250506004918201546fffffffffffffffffffffffffffffffff166020909101526040517f17ba7d8500000000000000000000000000000000000000000000000000000000815291925060009173ffffffffffffffffffffffffffffffffffffffff8616916317ba7d8591610709917f0e49311626a26ba5be58a3b13d239908e80ce0dffdd5c50bf1d9c82ff35d1ab391016115a2565b60206040518083038186803b15801561072157600080fd5b505afa158015610735573d6000803e3d6000fd5b505050506040513d601f19601f820116820180604052508101906107599190611319565b905060026040517f76225e7300000000000000000000000000000000000000000000000000000000815273ffffffffffffffffffffffffffffffffffffffff8316906376225e73906107b1908890889060040161169b565b602060405180830381600087803b1580156107cb57600080fd5b505af11580156107df573d6000803e3d6000fd5b505050506040513d601f19601f8201168201806040525081019061080391906114bf565b600581111561083b577f4e487b7100000000000000000000000000000000000000000000000000000000600052602160045260246000fd5b14610872576040517f08c379a00000000000000000000000000000000000000000000000000000000081526004016100a0906117b4565b6040517f30490e9100000000000000000000000000000000000000000000000000000000815273ffffffffffffffffffffffffffffffffffffffff8516906330490e91906108c49086906004016115a2565b600060405180830381600087803b1580156108de57600080fd5b505af11580156108f2573d6000803e3d6000fd5b505083516040517f72c6838f0000000000000000000000000000000000000000000000000000000081526000935073ffffffffffffffffffffffffffffffffffffffff881692506372c6838f9161094b916004016115a2565b60206040518083038186803b15801561096357600080fd5b505afa158015610977573d6000803e3d6000fd5b505050506040513d601f19601f8201168201806040525081019061099b9190611319565b73ffffffffffffffffffffffffffffffffffffffff1614610a3c5781516040517fb59b117600000000000000000000000000000000000000000000000000000000815273ffffffffffffffffffffffffffffffffffffffff86169163b59b117691610a0991906004016115a2565b600060405180830381600087803b158015610a2357600080fd5b505af1158015610a37573d6000803e3d6000fd5b505050505b6040820151606083015160005b8251811015610b52578673ffffffffffffffffffffffffffffffffffffffff1663da0f6c70848381518110610aa7577f4e487b7100000000000000000000000000000000000000000000000000000000600052603260045260246000fd5b6020026020010151848481518110610ae8577f4e487b7100000000000000000000000000000000000000000000000000000000600052603260045260246000fd5b60200260200101516040518363ffffffff1660e01b8152600401610b0d92919061160d565b600060405180830381600087803b158015610b2757600080fd5b505af1158015610b3b573d6000803e3d6000fd5b505050508080610b4a90611a49565b915050610a49565b50602084015173ffffffffffffffffffffffffffffffffffffffff1615610c07578351602085015160808601516040517f24658c5100000000000000000000000000000000000000000000000000000000815273ffffffffffffffffffffffffffffffffffffffff8a16936324658c5193610bd49391929091906004016115cf565b600060405180830381600087803b158015610bee57600080fd5b505af1158015610c02573d6000803e3d6000fd5b505050505b505050505050565b6000811515610c1e8585610e0e565b151514610c61578115610c4757610c3683600261194b565b610c4090856118ed565b9050610c64565b610c5283600261194b565b610c409085611a32565b610c64565b50825b9392505050565b6040517f17ba7d8500000000000000000000000000000000000000000000000000000000815260009073ffffffffffffffffffffffffffffffffffffffff8616906317ba7d8590610ce0907f0e49311626a26ba5be58a3b13d239908e80ce0dffdd5c50bf1d9c82ff35d1ab3906004016115a2565b60206040518083038186803b158015610cf857600080fd5b505afa158015610d0c573d6000803e3d6000fd5b505050506040513d601f19601f82011682018060405250810190610d309190611319565b905060008173ffffffffffffffffffffffffffffffffffffffff1663966917d087308787336040518663ffffffff1660e01b8152600401610d7595949392919061161b565b602060405180830381600087803b158015610d8f57600080fd5b505af1158015610da3573d6000803e3d6000fd5b505050506040513d601f19601f82011682018060405250810190610dc79190611319565b9050610c07868686868080601f01602080910402602001604051908101604052809392919081815260200183838082843760009201919091525087925088915061115b9050565b6000610e21600260ff841685901c611a82565b6001149392505050565b6040517ffefbd87500000000000000000000000000000000000000000000000000000000815260009073ffffffffffffffffffffffffffffffffffffffff84169063fefbd87590610ea0907fea0ca03c7adbe41dc655fec28a9209dc8e6e042f3d991a67765ba285b9cf73a0906004016115a2565b60206040518083038186803b158015610eb857600080fd5b505afa158015610ecc573d6000803e3d6000fd5b505050506040513d601f19601f82011682018060405250810190610ef09190611319565b905073ffffffffffffffffffffffffffffffffffffffff81161561107e576040517fc89bb8ba00000000000000000000000000000000000000000000000000000000815260009073ffffffffffffffffffffffffffffffffffffffff85169063c89bb8ba90610f6390869060040161154f565b60206040518083038186803b158015610f7b57600080fd5b505afa158015610f8f573d6000803e3d6000fd5b505050506040513d601f19601f82011682018060405250810190610fb39190611319565b905060008273ffffffffffffffffffffffffffffffffffffffff1663f7888aec83620ff1ce6040518363ffffffff1660e01b8152600401610ff5929190611570565b60206040518083038186803b15801561100d57600080fd5b505afa158015611021573d6000803e3d6000fd5b505050506040513d601f19601f8201168201806040525081019061104591906114de565b1161107c576040517f08c379a00000000000000000000000000000000000000000000000000000000081526004016100a0906117eb565b505b6040517f45ecd02f00000000000000000000000000000000000000000000000000000000815273ffffffffffffffffffffffffffffffffffffffff8416906345ecd02f906110d090859060040161154f565b60206040518083038186803b1580156110e857600080fd5b505afa1580156110fc573d6000803e3d6000fd5b505050506040513d601f19601f820116820180604052508101906111209190611360565b611156576040517f08c379a00000000000000000000000000000000000000000000000000000000081526004016100a0906117eb565b505050565b6040517f815a2bf400000000000000000000000000000000000000000000000000000000815273ffffffffffffffffffffffffffffffffffffffff86169063815a2bf4906111af90879086906004016115ab565b600060405180830381600087803b1580156111c957600080fd5b505af11580156111dd573d6000803e3d6000fd5b50506040517f2b0974d000000000000000000000000000000000000000000000000000000000815273ffffffffffffffffffffffffffffffffffffffff84169250632b0974d09150611237908890889088906004016116c1565b600060405180830381600087803b15801561125157600080fd5b505af1158015611265573d6000803e3d6000fd5b505050505050505050565b8280548282559060005260206000209081019282156112ab579160200282015b828111156112ab578251825591602001919060010190611290565b506112b79291506112bb565b5090565b5b808211156112b757600081556001016112bc565b60008083601f8401126112e1578182fd5b50813567ffffffffffffffff8111156112f8578182fd5b602083019150836020808302850101111561131257600080fd5b9250929050565b60006020828403121561132a578081fd5b8151610c6481611aea565b60008060408385031215611347578081fd5b823561135281611aea565b946020939093013593505050565b600060208284031215611371578081fd5b8151610c6481611b0f565b60008060408385031215611347578182fd5b600080600080600080600080600060e08a8c0312156113ab578485fd5b89356113b681611aea565b985060208a0135975060408a0135965060608a01356113d481611aea565b955060808a013567ffffffffffffffff808211156113f0578687fd5b6113fc8d838e016112d0565b909750955060a08c0135915080821115611414578485fd5b506114218c828d016112d0565b9a9d999c50979a9699959894979660c00135949350505050565b60008060008060608587031215611450578384fd5b843561145b81611aea565b935060208501359250604085013567ffffffffffffffff8082111561147e578384fd5b818701915087601f830112611491578384fd5b81358181111561149f578485fd5b8860208285010111156114b0578485fd5b95989497505060200194505050565b6000602082840312156114d0578081fd5b815160068110610c64578182fd5b6000602082840312156114ef578081fd5b5051919050565b60008060408385031215611508578182fd5b50508035926020909101359150565b60008060006060848603121561152b578283fd5b8335925060208401359150604084013561154481611b0f565b809150509250925092565b73ffffffffffffffffffffffffffffffffffffffff91909116815260200190565b73ffffffffffffffffffffffffffffffffffffffff92831681529116602082015260400190565b901515815260200190565b90815260200190565b91825273ffffffffffffffffffffffffffffffffffffffff16602082015260400190565b92835273ffffffffffffffffffffffffffffffffffffffff9190911660208301526fffffffffffffffffffffffffffffffff16604082015260600190565b918252602082015260400190565b600073ffffffffffffffffffffffffffffffffffffffff8088168352808716602084015260806040840152846080840152848660a08501378160a0868501015260a07fffffffffffffffffffffffffffffffffffffffffffffffffffffffffffffffe0601f87011684010191508084166060840152509695505050505050565b73ffffffffffffffffffffffffffffffffffffffff929092168252602082015260400190565b600073ffffffffffffffffffffffffffffffffffffffff8516825260208481840152606060408401528351806060850152825b81811015611710578581018301518582016080015282016116f4565b818111156117215783608083870101525b50601f017fffffffffffffffffffffffffffffffffffffffffffffffffffffffffffffffe0169290920160800195945050505050565b60208082526023908201527f616461707465722061646472657373206973207265736572766564206164647260408201527f6573730000000000000000000000000000000000000000000000000000000000606082015260800190565b60208082526015908201527f70726f706f73616c20646964206e6f7420706173730000000000000000000000604082015260600190565b6020808252600a908201527f6f6e6c794d656d62657200000000000000000000000000000000000000000000604082015260600190565b60208082526031908201527f6d75737420626520616e20657175616c206e756d626572206f6620636f6e666960408201527f67206b65797320616e642076616c756573000000000000000000000000000000606082015260800190565b60208082526018908201527f666c61677320706172616d65746572206f766572666c6f770000000000000000604082015260600190565b6020808252600f908201527f66616c6c6261636b207265766572740000000000000000000000000000000000604082015260600190565b6000821982111561190057611900611abb565b500190565b80825b60018086116119175750611942565b81870482111561192957611929611abb565b8086161561193657918102915b9490941c938002611908565b94509492505050565b6000610c647fffffffffffffffffffffffffffffffffffffffffffffffffffffffffffffffff848460008261198257506001610c64565b8161198f57506000610c64565b81600181146119a557600281146119af576119dc565b6001915050610c64565b60ff8411156119c0576119c0611abb565b6001841b9150848211156119d6576119d6611abb565b50610c64565b5060208310610133831016604e8410600b8410161715611a0a575081810a83811115610c5c57610c5c611abb565b611a178484846001611905565b808604821115611a2957611a29611abb565b02949350505050565b600082821015611a4457611a44611abb565b500390565b60007fffffffffffffffffffffffffffffffffffffffffffffffffffffffffffffffff821415611a7b57611a7b611abb565b5060010190565b600082611ab6577f4e487b710000000000000000000000000000000000000000000000000000000081526012600452602481fd5b500690565b7f4e487b7100000000000000000000000000000000000000000000000000000000600052601160045260246000fd5b73ffffffffffffffffffffffffffffffffffffffff81168114611b0c57600080fd5b50565b8015158114611b0c57600080fdfea26469706673582212208927fe40e92d3c11f5711b6eda216f762c1bc81b1a210cb713f4ed074496c6aa64736f6c63430008000033",
  "immutableReferences": {},
  "source": "pragma solidity ^0.8.0;\n\n// SPDX-License-Identifier: MIT\n\nimport \"./interfaces/IManaging.sol\";\nimport \"../core/DaoConstants.sol\";\nimport \"../core/DaoRegistry.sol\";\nimport \"../adapters/interfaces/IVoting.sol\";\nimport \"../guards/MemberGuard.sol\";\n\n/**\nMIT License\n\nCopyright (c) 2020 Openlaw\n\nPermission is hereby granted, free of charge, to any person obtaining a copy\nof this software and associated documentation files (the \"Software\"), to deal\nin the Software without restriction, including without limitation the rights\nto use, copy, modify, merge, publish, distribute, sublicense, and/or sell\ncopies of the Software, and to permit persons to whom the Software is\nfurnished to do so, subject to the following conditions:\n\nThe above copyright notice and this permission notice shall be included in all\ncopies or substantial portions of the Software.\n\nTHE SOFTWARE IS PROVIDED \"AS IS\", WITHOUT WARRANTY OF ANY KIND, EXPRESS OR\nIMPLIED, INCLUDING BUT NOT LIMITED TO THE WARRANTIES OF MERCHANTABILITY,\nFITNESS FOR A PARTICULAR PURPOSE AND NONINFRINGEMENT. IN NO EVENT SHALL THE\nAUTHORS OR COPYRIGHT HOLDERS BE LIABLE FOR ANY CLAIM, DAMAGES OR OTHER\nLIABILITY, WHETHER IN AN ACTION OF CONTRACT, TORT OR OTHERWISE, ARISING FROM,\nOUT OF OR IN CONNECTION WITH THE SOFTWARE OR THE USE OR OTHER DEALINGS IN THE\nSOFTWARE.\n */\n\ncontract ManagingContract is IManaging, DaoConstants, MemberGuard {\n    struct ProposalDetails {\n        bytes32 adapterId;\n        address adapterAddress;\n        bytes32[] keys;\n        uint256[] values;\n        uint128 flags;\n    }\n\n    mapping(address => mapping(bytes32 => ProposalDetails)) public proposals;\n\n    /*\n     * default fallback function to prevent from sending ether to the contract\n     */\n    receive() external payable {\n        revert(\"fallback revert\");\n    }\n\n    function createAdapterChangeRequest(\n        DaoRegistry dao,\n        bytes32 proposalId,\n        bytes32 adapterId,\n        address adapterAddress,\n        bytes32[] calldata keys,\n        uint256[] calldata values,\n        uint256 _flags\n    ) external override onlyMember(dao) {\n        require(\n            keys.length == values.length,\n            \"must be an equal number of config keys and values\"\n        );\n\n        require(_flags < type(uint128).max, \"flags parameter overflow\");\n        uint128 flags = uint128(_flags);\n\n        require(\n            dao.isNotReservedAddress(adapterAddress),\n            \"adapter address is reserved address\"\n        );\n\n        dao.submitProposal(proposalId);\n\n        proposals[address(dao)][proposalId] = ProposalDetails(\n            adapterId,\n            adapterAddress,\n            keys,\n            values,\n            flags\n        );\n    }\n\n    function sponsorProposal(\n        DaoRegistry dao,\n        bytes32 proposalId,\n        bytes calldata data\n    ) external override {\n        IVoting votingContract = IVoting(dao.getAdapterAddress(VOTING));\n        address sponsoredBy =\n            votingContract.getSenderAddress(\n                dao,\n                address(this),\n                data,\n                msg.sender\n            );\n        _sponsorProposal(dao, proposalId, data, sponsoredBy, votingContract);\n    }\n\n    function _sponsorProposal(\n        DaoRegistry dao,\n        bytes32 proposalId,\n        bytes memory data,\n        address sponsoredBy,\n        IVoting votingContract\n    ) internal {\n        dao.sponsorProposal(proposalId, sponsoredBy);\n        votingContract.startNewVotingForProposal(dao, proposalId, data);\n    }\n\n    function processProposal(DaoRegistry dao, bytes32 proposalId)\n        external\n        override\n    {\n        ProposalDetails memory proposal = proposals[address(dao)][proposalId];\n\n        IVoting votingContract = IVoting(dao.getAdapterAddress(VOTING));\n        require(\n            votingContract.voteResult(dao, proposalId) ==\n                IVoting.VotingState.PASS,\n            \"proposal did not pass\"\n        );\n\n        dao.processProposal(proposalId);\n\n        if (dao.adapters(proposal.adapterId) != address(0x0)) {\n            dao.removeAdapter(proposal.adapterId);\n        }\n\n        bytes32[] memory keys = proposal.keys;\n        uint256[] memory values = proposal.values;\n        for (uint256 i = 0; i < keys.length; i++) {\n            dao.setConfiguration(keys[i], values[i]);\n        }\n\n        if (proposal.adapterAddress != address(0x0)) {\n            dao.addAdapter(\n                proposal.adapterId,\n                proposal.adapterAddress,\n                proposal.flags\n            );\n        }\n    }\n}\n",
  "sourcePath": "/Users/sophia/OPENLAWTEAM/laoland/contracts/adapters/Managing.sol",
  "compiler": {
    "name": "solc",
    "version": "0.8.0+commit.c7dfd78e.Emscripten.clang"
  },
  "schemaVersion": "3.3.3",
  "updatedAt": "2021-02-09T09:36:52.568Z",
  "devdoc": {
    "kind": "dev",
    "methods": {},
    "version": 1
  },
  "userdoc": {
    "kind": "user",
    "methods": {},
    "notice": "MIT License Copyright (c) 2020 Openlaw Permission is hereby granted, free of charge, to any person obtaining a copy of this software and associated documentation files (the \"Software\"), to deal in the Software without restriction, including without limitation the rights to use, copy, modify, merge, publish, distribute, sublicense, and/or sell copies of the Software, and to permit persons to whom the Software is furnished to do so, subject to the following conditions: The above copyright notice and this permission notice shall be included in all copies or substantial portions of the Software. THE SOFTWARE IS PROVIDED \"AS IS\", WITHOUT WARRANTY OF ANY KIND, EXPRESS OR IMPLIED, INCLUDING BUT NOT LIMITED TO THE WARRANTIES OF MERCHANTABILITY, FITNESS FOR A PARTICULAR PURPOSE AND NONINFRINGEMENT. IN NO EVENT SHALL THE AUTHORS OR COPYRIGHT HOLDERS BE LIABLE FOR ANY CLAIM, DAMAGES OR OTHER LIABILITY, WHETHER IN AN ACTION OF CONTRACT, TORT OR OTHERWISE, ARISING FROM, OUT OF OR IN CONNECTION WITH THE SOFTWARE OR THE USE OR OTHER DEALINGS IN THE SOFTWARE.",
    "version": 1
  }
}