{
  "contractName": "OffchainVotingContract",
  "abi": [
    {
      "inputs": [
        {
          "internalType": "contract VotingContract",
          "name": "_c",
          "type": "address"
        },
        {
          "internalType": "uint256",
          "name": "_chainId",
          "type": "uint256"
        }
      ],
      "stateMutability": "nonpayable",
      "type": "constructor"
    },
    {
      "inputs": [],
      "name": "EIP712_DOMAIN",
      "outputs": [
        {
          "internalType": "string",
          "name": "",
          "type": "string"
        }
      ],
      "stateMutability": "view",
      "type": "function"
    },
    {
      "inputs": [],
      "name": "EIP712_DOMAIN_TYPEHASH",
      "outputs": [
        {
          "internalType": "bytes32",
          "name": "",
          "type": "bytes32"
        }
      ],
      "stateMutability": "view",
      "type": "function"
    },
    {
      "inputs": [],
      "name": "ETH_TOKEN",
      "outputs": [
        {
          "internalType": "address",
          "name": "",
          "type": "address"
        }
      ],
      "stateMutability": "view",
      "type": "function"
    },
    {
      "inputs": [],
      "name": "FINANCING",
      "outputs": [
        {
          "internalType": "bytes32",
          "name": "",
          "type": "bytes32"
        }
      ],
      "stateMutability": "view",
      "type": "function"
    },
    {
      "inputs": [],
      "name": "GUILD",
      "outputs": [
        {
          "internalType": "address",
          "name": "",
          "type": "address"
        }
      ],
      "stateMutability": "view",
      "type": "function"
    },
    {
      "inputs": [],
      "name": "GUILDKICK",
      "outputs": [
        {
          "internalType": "bytes32",
          "name": "",
          "type": "bytes32"
        }
      ],
      "stateMutability": "view",
      "type": "function"
    },
    {
      "inputs": [],
      "name": "LOCKED_LOOT",
      "outputs": [
        {
          "internalType": "address",
          "name": "",
          "type": "address"
        }
      ],
      "stateMutability": "view",
      "type": "function"
    },
    {
      "inputs": [],
      "name": "LOOT",
      "outputs": [
        {
          "internalType": "address",
          "name": "",
          "type": "address"
        }
      ],
      "stateMutability": "view",
      "type": "function"
    },
    {
      "inputs": [],
      "name": "MANAGING",
      "outputs": [
        {
          "internalType": "bytes32",
          "name": "",
          "type": "bytes32"
        }
      ],
      "stateMutability": "view",
      "type": "function"
    },
    {
      "inputs": [],
      "name": "NONVOTING_ONBOARDING",
      "outputs": [
        {
          "internalType": "bytes32",
          "name": "",
          "type": "bytes32"
        }
      ],
      "stateMutability": "view",
      "type": "function"
    },
    {
      "inputs": [],
      "name": "ONBOARDING",
      "outputs": [
        {
          "internalType": "bytes32",
          "name": "",
          "type": "bytes32"
        }
      ],
      "stateMutability": "view",
      "type": "function"
    },
    {
      "inputs": [],
      "name": "PROPOSAL_MESSAGE_TYPE",
      "outputs": [
        {
          "internalType": "string",
          "name": "",
          "type": "string"
        }
      ],
      "stateMutability": "view",
      "type": "function"
    },
    {
      "inputs": [],
      "name": "PROPOSAL_MESSAGE_TYPEHASH",
      "outputs": [
        {
          "internalType": "bytes32",
          "name": "",
          "type": "bytes32"
        }
      ],
      "stateMutability": "view",
      "type": "function"
    },
    {
      "inputs": [],
      "name": "PROPOSAL_PAYLOAD_TYPE",
      "outputs": [
        {
          "internalType": "string",
          "name": "",
          "type": "string"
        }
      ],
      "stateMutability": "view",
      "type": "function"
    },
    {
      "inputs": [],
      "name": "PROPOSAL_PAYLOAD_TYPEHASH",
      "outputs": [
        {
          "internalType": "bytes32",
          "name": "",
          "type": "bytes32"
        }
      ],
      "stateMutability": "view",
      "type": "function"
    },
    {
      "inputs": [],
      "name": "RAGEQUIT",
      "outputs": [
        {
          "internalType": "bytes32",
          "name": "",
          "type": "bytes32"
        }
      ],
      "stateMutability": "view",
      "type": "function"
    },
    {
      "inputs": [],
      "name": "SHARES",
      "outputs": [
        {
          "internalType": "address",
          "name": "",
          "type": "address"
        }
      ],
      "stateMutability": "view",
      "type": "function"
    },
    {
      "inputs": [],
      "name": "TOTAL",
      "outputs": [
        {
          "internalType": "address",
          "name": "",
          "type": "address"
        }
      ],
      "stateMutability": "view",
      "type": "function"
    },
    {
      "inputs": [],
      "name": "VOTE_MESSAGE_TYPE",
      "outputs": [
        {
          "internalType": "string",
          "name": "",
          "type": "string"
        }
      ],
      "stateMutability": "view",
      "type": "function"
    },
    {
      "inputs": [],
      "name": "VOTE_MESSAGE_TYPEHASH",
      "outputs": [
        {
          "internalType": "bytes32",
          "name": "",
          "type": "bytes32"
        }
      ],
      "stateMutability": "view",
      "type": "function"
    },
    {
      "inputs": [],
      "name": "VOTE_PAYLOAD_TYPE",
      "outputs": [
        {
          "internalType": "string",
          "name": "",
          "type": "string"
        }
      ],
      "stateMutability": "view",
      "type": "function"
    },
    {
      "inputs": [],
      "name": "VOTE_PAYLOAD_TYPEHASH",
      "outputs": [
        {
          "internalType": "bytes32",
          "name": "",
          "type": "bytes32"
        }
      ],
      "stateMutability": "view",
      "type": "function"
    },
    {
      "inputs": [],
      "name": "VOTE_RESULT_NODE_TYPE",
      "outputs": [
        {
          "internalType": "string",
          "name": "",
          "type": "string"
        }
      ],
      "stateMutability": "view",
      "type": "function"
    },
    {
      "inputs": [],
      "name": "VOTE_RESULT_NODE_TYPEHASH",
      "outputs": [
        {
          "internalType": "bytes32",
          "name": "",
          "type": "bytes32"
        }
      ],
      "stateMutability": "view",
      "type": "function"
    },
    {
      "inputs": [],
      "name": "VOTE_RESULT_ROOT_TYPE",
      "outputs": [
        {
          "internalType": "string",
          "name": "",
          "type": "string"
        }
      ],
      "stateMutability": "view",
      "type": "function"
    },
    {
      "inputs": [],
      "name": "VOTE_RESULT_ROOT_TYPEHASH",
      "outputs": [
        {
          "internalType": "bytes32",
          "name": "",
          "type": "bytes32"
        }
      ],
      "stateMutability": "view",
      "type": "function"
    },
    {
      "inputs": [],
      "name": "VOTING",
      "outputs": [
        {
          "internalType": "bytes32",
          "name": "",
          "type": "bytes32"
        }
      ],
      "stateMutability": "view",
      "type": "function"
    },
    {
      "inputs": [
        {
          "internalType": "address",
          "name": "",
          "type": "address"
        },
        {
          "internalType": "uint64",
          "name": "",
          "type": "uint64"
        }
      ],
      "name": "votes",
      "outputs": [
        {
          "internalType": "uint256",
          "name": "snapshot",
          "type": "uint256"
        },
        {
          "internalType": "bytes32",
          "name": "proposalHash",
          "type": "bytes32"
        },
        {
          "internalType": "address",
          "name": "reporter",
          "type": "address"
        },
        {
          "internalType": "bytes32",
          "name": "resultRoot",
          "type": "bytes32"
        },
        {
          "internalType": "uint256",
          "name": "nbVoters",
          "type": "uint256"
        },
        {
          "internalType": "uint256",
          "name": "nbYes",
          "type": "uint256"
        },
        {
          "internalType": "uint256",
          "name": "nbNo",
          "type": "uint256"
        },
        {
          "internalType": "uint256",
          "name": "index",
          "type": "uint256"
        },
        {
          "internalType": "uint256",
          "name": "startingTime",
          "type": "uint256"
        },
        {
          "internalType": "uint256",
          "name": "gracePeriodStartingTime",
          "type": "uint256"
        },
        {
          "internalType": "bool",
          "name": "isChallenged",
          "type": "bool"
        },
        {
          "internalType": "uint256",
          "name": "fallbackVotesCount",
          "type": "uint256"
        }
      ],
      "stateMutability": "view",
      "type": "function"
    },
    {
      "inputs": [
        {
          "internalType": "contract DaoRegistry",
          "name": "dao",
          "type": "address"
        },
        {
          "internalType": "address",
          "name": "actionId",
          "type": "address"
        }
      ],
      "name": "DOMAIN_SEPARATOR",
      "outputs": [
        {
          "internalType": "bytes32",
          "name": "",
          "type": "bytes32"
        }
      ],
      "stateMutability": "view",
      "type": "function"
    },
    {
      "inputs": [
        {
          "internalType": "contract DaoRegistry",
          "name": "dao",
          "type": "address"
        },
        {
          "internalType": "address",
          "name": "actionId",
          "type": "address"
        },
        {
          "components": [
            {
              "internalType": "uint256",
              "name": "timestamp",
              "type": "uint256"
            },
            {
              "internalType": "bytes32",
              "name": "spaceHash",
              "type": "bytes32"
            },
            {
              "components": [
                {
                  "internalType": "bytes32",
                  "name": "nameHash",
                  "type": "bytes32"
                },
                {
                  "internalType": "bytes32",
                  "name": "bodyHash",
                  "type": "bytes32"
                },
                {
                  "internalType": "string[]",
                  "name": "choices",
                  "type": "string[]"
                },
                {
                  "internalType": "uint256",
                  "name": "start",
                  "type": "uint256"
                },
                {
                  "internalType": "uint256",
                  "name": "end",
                  "type": "uint256"
                },
                {
                  "internalType": "string",
                  "name": "snapshot",
                  "type": "string"
                }
              ],
              "internalType": "struct OffchainVotingContract.ProposalPayload",
              "name": "payload",
              "type": "tuple"
            },
            {
              "internalType": "bytes",
              "name": "sig",
              "type": "bytes"
            }
          ],
          "internalType": "struct OffchainVotingContract.ProposalMessage",
          "name": "message",
          "type": "tuple"
        }
      ],
      "name": "hashMessage",
      "outputs": [
        {
          "internalType": "bytes32",
          "name": "",
          "type": "bytes32"
        }
      ],
      "stateMutability": "view",
      "type": "function"
    },
    {
      "inputs": [
        {
          "internalType": "contract DaoRegistry",
          "name": "dao",
          "type": "address"
        },
        {
          "internalType": "address",
          "name": "actionId",
          "type": "address"
        },
        {
          "internalType": "bytes32",
          "name": "resultRoot",
          "type": "bytes32"
        }
      ],
      "name": "hashResultRoot",
      "outputs": [
        {
          "internalType": "bytes32",
          "name": "",
          "type": "bytes32"
        }
      ],
      "stateMutability": "view",
      "type": "function"
    },
    {
      "inputs": [
        {
          "components": [
            {
              "internalType": "uint256",
              "name": "timestamp",
              "type": "uint256"
            },
            {
              "internalType": "bytes32",
              "name": "spaceHash",
              "type": "bytes32"
            },
            {
              "components": [
                {
                  "internalType": "bytes32",
                  "name": "nameHash",
                  "type": "bytes32"
                },
                {
                  "internalType": "bytes32",
                  "name": "bodyHash",
                  "type": "bytes32"
                },
                {
                  "internalType": "string[]",
                  "name": "choices",
                  "type": "string[]"
                },
                {
                  "internalType": "uint256",
                  "name": "start",
                  "type": "uint256"
                },
                {
                  "internalType": "uint256",
                  "name": "end",
                  "type": "uint256"
                },
                {
                  "internalType": "string",
                  "name": "snapshot",
                  "type": "string"
                }
              ],
              "internalType": "struct OffchainVotingContract.ProposalPayload",
              "name": "payload",
              "type": "tuple"
            },
            {
              "internalType": "bytes",
              "name": "sig",
              "type": "bytes"
            }
          ],
          "internalType": "struct OffchainVotingContract.ProposalMessage",
          "name": "message",
          "type": "tuple"
        }
      ],
      "name": "hashProposalMessage",
      "outputs": [
        {
          "internalType": "bytes32",
          "name": "",
          "type": "bytes32"
        }
      ],
      "stateMutability": "pure",
      "type": "function"
    },
    {
      "inputs": [
        {
          "components": [
            {
              "internalType": "bytes32",
              "name": "nameHash",
              "type": "bytes32"
            },
            {
              "internalType": "bytes32",
              "name": "bodyHash",
              "type": "bytes32"
            },
            {
              "internalType": "string[]",
              "name": "choices",
              "type": "string[]"
            },
            {
              "internalType": "uint256",
              "name": "start",
              "type": "uint256"
            },
            {
              "internalType": "uint256",
              "name": "end",
              "type": "uint256"
            },
            {
              "internalType": "string",
              "name": "snapshot",
              "type": "string"
            }
          ],
          "internalType": "struct OffchainVotingContract.ProposalPayload",
          "name": "payload",
          "type": "tuple"
        }
      ],
      "name": "hashProposalPayload",
      "outputs": [
        {
          "internalType": "bytes32",
          "name": "",
          "type": "bytes32"
        }
      ],
      "stateMutability": "pure",
      "type": "function"
    },
    {
      "inputs": [
        {
          "internalType": "contract DaoRegistry",
          "name": "dao",
          "type": "address"
        },
        {
          "internalType": "address",
          "name": "actionId",
          "type": "address"
        },
        {
          "components": [
            {
              "internalType": "uint256",
              "name": "timestamp",
              "type": "uint256"
            },
            {
              "components": [
                {
                  "internalType": "uint256",
                  "name": "choice",
                  "type": "uint256"
                },
                {
                  "internalType": "bytes32",
                  "name": "proposalHash",
                  "type": "bytes32"
                }
              ],
              "internalType": "struct OffchainVotingContract.VotePayload",
              "name": "payload",
              "type": "tuple"
            }
          ],
          "internalType": "struct OffchainVotingContract.VoteMessage",
          "name": "message",
          "type": "tuple"
        }
      ],
      "name": "hashVote",
      "outputs": [
        {
          "internalType": "bytes32",
          "name": "",
          "type": "bytes32"
        }
      ],
      "stateMutability": "view",
      "type": "function"
    },
    {
      "inputs": [
        {
          "components": [
            {
              "internalType": "uint256",
              "name": "timestamp",
              "type": "uint256"
            },
            {
              "components": [
                {
                  "internalType": "uint256",
                  "name": "choice",
                  "type": "uint256"
                },
                {
                  "internalType": "bytes32",
                  "name": "proposalHash",
                  "type": "bytes32"
                }
              ],
              "internalType": "struct OffchainVotingContract.VotePayload",
              "name": "payload",
              "type": "tuple"
            }
          ],
          "internalType": "struct OffchainVotingContract.VoteMessage",
          "name": "message",
          "type": "tuple"
        }
      ],
      "name": "hashVoteInternal",
      "outputs": [
        {
          "internalType": "bytes32",
          "name": "",
          "type": "bytes32"
        }
      ],
      "stateMutability": "pure",
      "type": "function"
    },
    {
      "inputs": [
        {
          "components": [
            {
              "internalType": "uint256",
              "name": "choice",
              "type": "uint256"
            },
            {
              "internalType": "bytes32",
              "name": "proposalHash",
              "type": "bytes32"
            }
          ],
          "internalType": "struct OffchainVotingContract.VotePayload",
          "name": "payload",
          "type": "tuple"
        }
      ],
      "name": "hashVotePayload",
      "outputs": [
        {
          "internalType": "bytes32",
          "name": "",
          "type": "bytes32"
        }
      ],
      "stateMutability": "pure",
      "type": "function"
    },
    {
      "inputs": [
        {
          "components": [
            {
              "internalType": "address",
              "name": "account",
              "type": "address"
            },
            {
              "internalType": "uint256",
              "name": "timestamp",
              "type": "uint256"
            },
            {
              "internalType": "uint256",
              "name": "nbNo",
              "type": "uint256"
            },
            {
              "internalType": "uint256",
              "name": "nbYes",
              "type": "uint256"
            },
            {
              "internalType": "bytes",
              "name": "sig",
              "type": "bytes"
            },
            {
              "internalType": "bytes",
              "name": "rootSig",
              "type": "bytes"
            },
            {
              "internalType": "uint256",
              "name": "index",
              "type": "uint256"
            },
            {
              "internalType": "uint256",
              "name": "choice",
              "type": "uint256"
            },
            {
              "internalType": "bytes32",
              "name": "proposalHash",
              "type": "bytes32"
            },
            {
              "internalType": "bytes32[]",
              "name": "proof",
              "type": "bytes32[]"
            }
          ],
          "internalType": "struct OffchainVotingContract.VoteResultNode",
          "name": "node",
          "type": "tuple"
        }
      ],
      "name": "hashVotingResultNode",
      "outputs": [
        {
          "internalType": "bytes32",
          "name": "",
          "type": "bytes32"
        }
      ],
      "stateMutability": "pure",
      "type": "function"
    },
    {
      "inputs": [
        {
          "internalType": "contract DaoRegistry",
          "name": "dao",
          "type": "address"
        },
        {
          "internalType": "address",
          "name": "actionId",
          "type": "address"
        },
        {
          "components": [
            {
              "internalType": "address",
              "name": "account",
              "type": "address"
            },
            {
              "internalType": "uint256",
              "name": "timestamp",
              "type": "uint256"
            },
            {
              "internalType": "uint256",
              "name": "nbNo",
              "type": "uint256"
            },
            {
              "internalType": "uint256",
              "name": "nbYes",
              "type": "uint256"
            },
            {
              "internalType": "bytes",
              "name": "sig",
              "type": "bytes"
            },
            {
              "internalType": "bytes",
              "name": "rootSig",
              "type": "bytes"
            },
            {
              "internalType": "uint256",
              "name": "index",
              "type": "uint256"
            },
            {
              "internalType": "uint256",
              "name": "choice",
              "type": "uint256"
            },
            {
              "internalType": "bytes32",
              "name": "proposalHash",
              "type": "bytes32"
            },
            {
              "internalType": "bytes32[]",
              "name": "proof",
              "type": "bytes32[]"
            }
          ],
          "internalType": "struct OffchainVotingContract.VoteResultNode",
          "name": "node",
          "type": "tuple"
        }
      ],
      "name": "nodeHash",
      "outputs": [
        {
          "internalType": "bytes32",
          "name": "",
          "type": "bytes32"
        }
      ],
      "stateMutability": "view",
      "type": "function"
    },
    {
      "inputs": [
        {
          "internalType": "contract DaoRegistry",
          "name": "dao",
          "type": "address"
        },
        {
          "internalType": "uint256",
          "name": "votingPeriod",
          "type": "uint256"
        },
        {
          "internalType": "uint256",
          "name": "gracePeriod",
          "type": "uint256"
        },
        {
          "internalType": "uint256",
          "name": "fallbackThreshold",
          "type": "uint256"
        }
      ],
      "name": "configureDao",
      "outputs": [],
      "stateMutability": "nonpayable",
      "type": "function"
    },
    {
      "inputs": [
        {
          "internalType": "contract DaoRegistry",
          "name": "dao",
          "type": "address"
        },
        {
          "internalType": "uint256",
          "name": "_proposalId",
          "type": "uint256"
        },
        {
          "internalType": "bytes32",
          "name": "resultRoot",
          "type": "bytes32"
        },
        {
          "components": [
            {
              "internalType": "address",
              "name": "account",
              "type": "address"
            },
            {
              "internalType": "uint256",
              "name": "timestamp",
              "type": "uint256"
            },
            {
              "internalType": "uint256",
              "name": "nbNo",
              "type": "uint256"
            },
            {
              "internalType": "uint256",
              "name": "nbYes",
              "type": "uint256"
            },
            {
              "internalType": "bytes",
              "name": "sig",
              "type": "bytes"
            },
            {
              "internalType": "bytes",
              "name": "rootSig",
              "type": "bytes"
            },
            {
              "internalType": "uint256",
              "name": "index",
              "type": "uint256"
            },
            {
              "internalType": "uint256",
              "name": "choice",
              "type": "uint256"
            },
            {
              "internalType": "bytes32",
              "name": "proposalHash",
              "type": "bytes32"
            },
            {
              "internalType": "bytes32[]",
              "name": "proof",
              "type": "bytes32[]"
            }
          ],
          "internalType": "struct OffchainVotingContract.VoteResultNode",
          "name": "result",
          "type": "tuple"
        }
      ],
      "name": "submitVoteResult",
      "outputs": [],
      "stateMutability": "nonpayable",
      "type": "function"
    },
    {
      "inputs": [
        {
          "internalType": "contract DaoRegistry",
          "name": "dao",
          "type": "address"
        },
        {
          "internalType": "address",
          "name": "actionId",
          "type": "address"
        },
        {
          "internalType": "bytes",
          "name": "data",
          "type": "bytes"
        },
        {
          "internalType": "address",
          "name": "",
          "type": "address"
        }
      ],
      "name": "getSenderAddress",
      "outputs": [
        {
          "internalType": "address",
          "name": "",
          "type": "address"
        }
      ],
      "stateMutability": "view",
      "type": "function"
    },
    {
      "inputs": [
        {
          "internalType": "contract DaoRegistry",
          "name": "dao",
          "type": "address"
        },
        {
          "internalType": "uint256",
          "name": "_proposalId",
          "type": "uint256"
        },
        {
          "internalType": "bytes",
          "name": "data",
          "type": "bytes"
        }
      ],
      "name": "startNewVotingForProposal",
      "outputs": [],
      "stateMutability": "nonpayable",
      "type": "function"
    },
    {
      "inputs": [
        {
          "internalType": "contract DaoRegistry",
          "name": "dao",
          "type": "address"
        },
        {
          "internalType": "uint256",
          "name": "_proposalId",
          "type": "uint256"
        }
      ],
      "name": "voteResult",
      "outputs": [
        {
          "internalType": "uint256",
          "name": "state",
          "type": "uint256"
        }
      ],
      "stateMutability": "view",
      "type": "function"
    },
    {
      "inputs": [
        {
          "internalType": "contract DaoRegistry",
          "name": "dao",
          "type": "address"
        },
        {
          "internalType": "uint256",
          "name": "_proposalId",
          "type": "uint256"
        },
        {
          "components": [
            {
              "internalType": "address",
              "name": "account",
              "type": "address"
            },
            {
              "internalType": "uint256",
              "name": "timestamp",
              "type": "uint256"
            },
            {
              "internalType": "uint256",
              "name": "nbNo",
              "type": "uint256"
            },
            {
              "internalType": "uint256",
              "name": "nbYes",
              "type": "uint256"
            },
            {
              "internalType": "bytes",
              "name": "sig",
              "type": "bytes"
            },
            {
              "internalType": "bytes",
              "name": "rootSig",
              "type": "bytes"
            },
            {
              "internalType": "uint256",
              "name": "index",
              "type": "uint256"
            },
            {
              "internalType": "uint256",
              "name": "choice",
              "type": "uint256"
            },
            {
              "internalType": "bytes32",
              "name": "proposalHash",
              "type": "bytes32"
            },
            {
              "internalType": "bytes32[]",
              "name": "proof",
              "type": "bytes32[]"
            }
          ],
          "internalType": "struct OffchainVotingContract.VoteResultNode",
          "name": "nodeCurrent",
          "type": "tuple"
        }
      ],
      "name": "challengeWrongSignature",
      "outputs": [],
      "stateMutability": "nonpayable",
      "type": "function"
    },
    {
      "inputs": [
        {
          "internalType": "contract DaoRegistry",
          "name": "dao",
          "type": "address"
        },
        {
          "internalType": "uint256",
          "name": "_proposalId",
          "type": "uint256"
        },
        {
          "components": [
            {
              "internalType": "address",
              "name": "account",
              "type": "address"
            },
            {
              "internalType": "uint256",
              "name": "timestamp",
              "type": "uint256"
            },
            {
              "internalType": "uint256",
              "name": "nbNo",
              "type": "uint256"
            },
            {
              "internalType": "uint256",
              "name": "nbYes",
              "type": "uint256"
            },
            {
              "internalType": "bytes",
              "name": "sig",
              "type": "bytes"
            },
            {
              "internalType": "bytes",
              "name": "rootSig",
              "type": "bytes"
            },
            {
              "internalType": "uint256",
              "name": "index",
              "type": "uint256"
            },
            {
              "internalType": "uint256",
              "name": "choice",
              "type": "uint256"
            },
            {
              "internalType": "bytes32",
              "name": "proposalHash",
              "type": "bytes32"
            },
            {
              "internalType": "bytes32[]",
              "name": "proof",
              "type": "bytes32[]"
            }
          ],
          "internalType": "struct OffchainVotingContract.VoteResultNode",
          "name": "node1",
          "type": "tuple"
        },
        {
          "components": [
            {
              "internalType": "address",
              "name": "account",
              "type": "address"
            },
            {
              "internalType": "uint256",
              "name": "timestamp",
              "type": "uint256"
            },
            {
              "internalType": "uint256",
              "name": "nbNo",
              "type": "uint256"
            },
            {
              "internalType": "uint256",
              "name": "nbYes",
              "type": "uint256"
            },
            {
              "internalType": "bytes",
              "name": "sig",
              "type": "bytes"
            },
            {
              "internalType": "bytes",
              "name": "rootSig",
              "type": "bytes"
            },
            {
              "internalType": "uint256",
              "name": "index",
              "type": "uint256"
            },
            {
              "internalType": "uint256",
              "name": "choice",
              "type": "uint256"
            },
            {
              "internalType": "bytes32",
              "name": "proposalHash",
              "type": "bytes32"
            },
            {
              "internalType": "bytes32[]",
              "name": "proof",
              "type": "bytes32[]"
            }
          ],
          "internalType": "struct OffchainVotingContract.VoteResultNode",
          "name": "node2",
          "type": "tuple"
        }
      ],
      "name": "challengeDuplicate",
      "outputs": [],
      "stateMutability": "nonpayable",
      "type": "function"
    },
    {
      "inputs": [
        {
          "internalType": "contract DaoRegistry",
          "name": "dao",
          "type": "address"
        },
        {
          "internalType": "uint256",
          "name": "_proposalId",
          "type": "uint256"
        },
        {
          "components": [
            {
              "internalType": "address",
              "name": "account",
              "type": "address"
            },
            {
              "internalType": "uint256",
              "name": "timestamp",
              "type": "uint256"
            },
            {
              "internalType": "uint256",
              "name": "nbNo",
              "type": "uint256"
            },
            {
              "internalType": "uint256",
              "name": "nbYes",
              "type": "uint256"
            },
            {
              "internalType": "bytes",
              "name": "sig",
              "type": "bytes"
            },
            {
              "internalType": "bytes",
              "name": "rootSig",
              "type": "bytes"
            },
            {
              "internalType": "uint256",
              "name": "index",
              "type": "uint256"
            },
            {
              "internalType": "uint256",
              "name": "choice",
              "type": "uint256"
            },
            {
              "internalType": "bytes32",
              "name": "proposalHash",
              "type": "bytes32"
            },
            {
              "internalType": "bytes32[]",
              "name": "proof",
              "type": "bytes32[]"
            }
          ],
          "internalType": "struct OffchainVotingContract.VoteResultNode",
          "name": "nodePrevious",
          "type": "tuple"
        },
        {
          "components": [
            {
              "internalType": "address",
              "name": "account",
              "type": "address"
            },
            {
              "internalType": "uint256",
              "name": "timestamp",
              "type": "uint256"
            },
            {
              "internalType": "uint256",
              "name": "nbNo",
              "type": "uint256"
            },
            {
              "internalType": "uint256",
              "name": "nbYes",
              "type": "uint256"
            },
            {
              "internalType": "bytes",
              "name": "sig",
              "type": "bytes"
            },
            {
              "internalType": "bytes",
              "name": "rootSig",
              "type": "bytes"
            },
            {
              "internalType": "uint256",
              "name": "index",
              "type": "uint256"
            },
            {
              "internalType": "uint256",
              "name": "choice",
              "type": "uint256"
            },
            {
              "internalType": "bytes32",
              "name": "proposalHash",
              "type": "bytes32"
            },
            {
              "internalType": "bytes32[]",
              "name": "proof",
              "type": "bytes32[]"
            }
          ],
          "internalType": "struct OffchainVotingContract.VoteResultNode",
          "name": "nodeCurrent",
          "type": "tuple"
        }
      ],
      "name": "challengeWrongStep",
      "outputs": [],
      "stateMutability": "nonpayable",
      "type": "function"
    },
    {
      "inputs": [
        {
          "internalType": "contract DaoRegistry",
          "name": "dao",
          "type": "address"
        },
        {
          "internalType": "uint256",
          "name": "_proposalId",
          "type": "uint256"
        }
      ],
      "name": "requestFallback",
      "outputs": [],
      "stateMutability": "nonpayable",
      "type": "function"
    },
    {
      "inputs": [
        {
          "internalType": "bytes32",
          "name": "snapshotRoot",
          "type": "bytes32"
        },
        {
          "internalType": "address",
          "name": "dao",
          "type": "address"
        },
        {
          "internalType": "uint256",
          "name": "_proposalId",
          "type": "uint256"
        }
      ],
      "name": "getSignedHash",
      "outputs": [
        {
          "internalType": "bytes32",
          "name": "",
          "type": "bytes32"
        }
      ],
      "stateMutability": "pure",
      "type": "function"
    },
    {
      "inputs": [
        {
          "internalType": "bytes32",
          "name": "snapshotRoot",
          "type": "bytes32"
        },
        {
          "internalType": "address",
          "name": "dao",
          "type": "address"
        },
        {
          "internalType": "uint256",
          "name": "_proposalId",
          "type": "uint256"
        },
        {
          "internalType": "bytes",
          "name": "sig",
          "type": "bytes"
        }
      ],
      "name": "getSignedAddress",
      "outputs": [
        {
          "internalType": "address",
          "name": "",
          "type": "address"
        }
      ],
      "stateMutability": "pure",
      "type": "function"
    },
    {
      "inputs": [
        {
          "internalType": "bytes32",
          "name": "hash",
          "type": "bytes32"
        },
        {
          "internalType": "bytes",
          "name": "sig",
          "type": "bytes"
        }
      ],
      "name": "recover",
      "outputs": [
        {
          "internalType": "address",
          "name": "",
          "type": "address"
        }
      ],
      "stateMutability": "pure",
      "type": "function"
    },
    {
      "inputs": [
        {
          "internalType": "bytes32",
          "name": "root",
          "type": "bytes32"
        },
        {
          "internalType": "bytes32",
          "name": "leaf",
          "type": "bytes32"
        },
        {
          "internalType": "bytes32[]",
          "name": "proof",
          "type": "bytes32[]"
        }
      ],
      "name": "verify",
      "outputs": [
        {
          "internalType": "bool",
          "name": "",
          "type": "bool"
        }
      ],
      "stateMutability": "pure",
      "type": "function"
    }
  ],
  "bytecode": "0x60806040523480156200001157600080fd5b5060405162004ef138038062004ef183398101604081905262000034916200005e565b600180546001600160a01b0319166001600160a01b03939093169290921790915560005562000098565b6000806040838503121562000071578182fd5b82516001600160a01b038116811462000088578283fd5b6020939093015192949293505050565b614e4980620000a86000396000f3fe608060405234801561001057600080fd5b50600436106103415760003560e01c8063966917d0116101bd578063c1254a55116100f9578063ebfda085116100a2578063f596c26c1161007c578063f596c26c146105fa578063f5d54c7714610625578063f83ae4bb1461062d578063fefbf7ce1461063557610341565b8063ebfda085146105d7578063ee3e7a28146105df578063f38f576f146105e757610341565b8063e0ffa33a116100d3578063e0ffa33a146105a9578063e1b11da4146105bc578063e2d28188146105c457610341565b8063c1254a5514610591578063c7977be714610599578063d482301c146105a157610341565b8063aa1927d311610166578063b8eb886711610140578063b8eb886714610550578063bb387d9c14610563578063bc785a9b1461056b578063bca3ee581461057e57610341565b8063aa1927d31461052d578063afe257c714610535578063b7b803781461054857610341565b8063a0e320f611610197578063a0e320f614610515578063a276f3591461051d578063a4d08a9c1461052557610341565b8063966917d0146104f2578063987e6eae146105055780639c9535731461050d57610341565b80634a87400b1161028c5780635bae28f5116102355780638df8ca2c1161020f5780638df8ca2c146104b15780638f0d48ce146104c4578063938d8d21146104d7578063944fe521146104df57610341565b80635bae28f51461048e5780636d85e14d14610496578063769b1cec1461049e57610341565b806356b71dd31161026657806356b71dd31461046057806358bc833714610473578063591e23711461047b57610341565b80634a87400b14610432578063503394371461044557806351340a5b1461045857610341565b8063269e1d1a116102ee5780633423e548116102c85780633423e548146103f75780634086ee9d14610417578063462f90951461041f57610341565b8063269e1d1a146103d457806327efc086146103dc5780632985fb28146103e457610341565b8063148a722c1161031f578063148a722c1461039957806319045a25146103ac57806321c0bc49146103cc57610341565b806307b47ae8146103465780630a48423c146103645780630c1de0ba14610384575b600080fd5b61034e61063d565b60405161035b9190614287565b60405180910390f35b610377610372366004613b9f565b610659565b60405161035b9190614152565b610397610392366004613c92565b61069e565b005b6103776103a7366004613f94565b61084c565b6103bf6103ba366004613a8b565b6108cf565b60405161035b91906140dc565b61037761099a565b6103776109dc565b6103bf610a00565b6103976103f2366004613cbd565b610a06565b61040a610405366004613a3d565b610af8565b60405161035b9190614147565b610377610bcd565b61037761042d366004613fca565b610bf1565b610377610440366004613afd565b610c6d565b610377610453366004613bf5565b610d0e565b610377610d23565b61039761046e366004613d6b565b610d47565b6103bf610fc7565b610377610489366004613ad0565b610fcc565b610377611087565b6103776110b0565b6103776104ac366004613f61565b6110d4565b6103776104bf366004613c92565b61119d565b6103776104d2366004613e76565b6113e6565b61034e611451565b6103976104ed366004613e1d565b61146d565b6103bf610500366004613b2c565b61181e565b61037761185b565b61037761187f565b61034e6118a8565b6103776118c4565b61034e6118e8565b6103bf611921565b610377610543366004613faf565b611929565b610377611986565b61037761055e366004613975565b6119af565b61034e611a21565b610397610579366004613d1e565b611a3d565b61037761058c366004613c3c565b611d58565b6103bf611d6d565b610377611d74565b610377611d9d565b6103976105b7366004613dac565b611dc1565b61034e612028565b6103bf6105d23660046139ac565b612044565b6103bf61211c565b610377612124565b6103976105f5366004613dac565b61216a565b61060d610608366004613911565b6122fa565b60405161035b9c9b9a999897969594939291906148ec565b6103bf612370565b61034e612376565b610377612392565b6040518060a0016040528060648152602001614d396064913981565b60006106658484610fcc565b61066e836113e6565b60405160200161067f9291906140a6565b6040516020818303038152906040528051906020012090509392505050565b6040517f45ecd02f00000000000000000000000000000000000000000000000000000000815282906001600160a01b038216906345ecd02f906106e59033906004016140dc565b60206040518083038186803b1580156106fd57600080fd5b505afa158015610711573d6000803e3d6000fd5b505050506040513d601f19601f820116820180604052508101906107359190613955565b61075a5760405162461bcd60e51b81526004016107519061455f565b60405180910390fd5b6000610765836123bb565b6001600160a01b038516600090815260026020908152604080832067ffffffffffffffff851684528252808320338452600b0190915290205490915060ff16156107c15760405162461bcd60e51b815260040161075190614596565b6001600160a01b038416600090815260026020908152604080832067ffffffffffffffff8516808552818452828520338652600b8101855292852080547fffffffffffffffffffffffffffffffffffffffffffffffffffffffffffffff001660019081179091559085529252600c018054919290916108419084906149f4565b909155505050505050565b60006040518060a0016040528060648152602001614d39606491396040516020016108779190614059565b60405160208183030381529060405280519060200120826000015161089f8460200151611929565b6040516020016108b193929190614238565b6040516020818303038152906040528051906020012090505b919050565b60008060008084516041146108ea5760009350505050610994565b50505060208201516040830151606084015160001a601b81101561091657610913601b82614a0c565b90505b8060ff16601b1415801561092e57508060ff16601c14155b1561093f5760009350505050610994565b600186828585604051600081526020016040526040516109629493929190614269565b6020604051602081039080840390855afa158015610984573d6000803e3d6000fd5b5050506020604051035193505050505b92915050565b6040518060a0016040528060648152602001614d39606491396040516020016109c39190614059565b6040516020818303038152906040528051906020012081565b7f0e49311626a26ba5be58a3b13d239908e80ce0dffdd5c50bf1d9c82ff35d1ab381565b61babe81565b6000610a11846123bb565b6001600160a01b038616600090815260026020908152604080832067ffffffffffffffff851684529091529020805491925090610a605760405162461bcd60e51b81526004016107519061435b565b60038101541580610a755750600a81015460ff165b15610abc57610a8e8682856060015186604001516123e9565b610aaa5760405162461bcd60e51b815260040161075190614778565b610ab786828486886125a7565b610af0565b80600701548360c0015111610ae35760405162461bcd60e51b8152600401610751906142d8565b610af086828486886125a7565b505050505050565b600082815b8351811015610bc2576000848281518110610b41577f4e487b7100000000000000000000000000000000000000000000000000000000600052603260045260246000fd5b6020026020010151905080831015610b83578281604051602001610b6692919061404b565b604051602081830303815290604052805190602001209250610baf565b8083604051602001610b9692919061404b565b6040516020818303038152906040528051906020012092505b5080610bba81614ad8565b915050610afd565b509093149392505050565b7f54527537e04b80d3b3bd9dfa43834f03d4b745f8411ca72260a3c7e02ea7fa3f81565b60006040518060a0016040528060778152602001614d9d60779139604051602001610c1c9190614059565b6040516020818303038152906040528051906020012082600001518360200151846060015185604001518660c001518760e001518861010001516040516020016108b198979695949392919061415b565b6000610c798484610fcc565b6040518060400160405280601581526020017f4d657373616765286279746573333220726f6f74290000000000000000000000815250604051602001610cbf9190614059565b6040516020818303038152906040528051906020012083604051602001610ce792919061404b565b6040516020818303038152906040528051906020012060405160200161067f9291906140a6565b6000610d1a8484610fcc565b61066e8361084c565b7fb5d1b10526b91c1951e75295138b32c80917c8ba0b96f19926ef2008a82b651181565b6000610d52836123bb565b6001600160a01b038516600081815260026020908152604080832067ffffffffffffffff861684529091528082206003810154815492517f31c5eec800000000000000000000000000000000000000000000000000000000815295965090949093919291906331c5eec890610dcb90889060040161494b565b604080518083038186803b158015610de257600080fd5b505afa158015610df6573d6000803e3d6000fd5b505050506040513d601f19601f82011682018060405250810190610e1a91906138e4565b50905082610e3a5760405162461bcd60e51b8152600401610751906143ef565b6000610e47898389611d58565b9050610e598482896101200151610af8565b610e755760405162461bcd60e51b815260040161075190614494565b86516040517f4a19d91e0000000000000000000000000000000000000000000000000000000081526000916001600160a01b038c1691634a19d91e91610ebf91889060040161412e565b60206040518083038186803b158015610ed757600080fd5b505afa158015610eeb573d6000803e3d6000fd5b505050506040513d601f19601f82011682018060405250810190610f0f91906138c1565b905060008a6001600160a01b03166331c5eec8896040518263ffffffff1660e01b8152600401610f3f919061494b565b604080518083038186803b158015610f5657600080fd5b505afa158015610f6a573d6000803e3d6000fd5b505050506040513d601f19601f82011682018060405250810190610f8e91906138e4565b509050610fac8b82848c602001518d61010001518e608001516128ab565b610fba57610fba8b89612989565b5050505050505050505050565b600081565b60006040518060a0016040528060638152602001614bf460639139604051602001610ff79190614059565b604051602081830303815290604052805190602001207fe2ffb2e2c8bf0b9b360ecefb7de0735865e605d6ba933b6c7e12cee0e178c8bf7f13600b294191fc92924bb3ce4b969c1e7e2bab8f4c93c3fc6d0a51733df3c0606000548686604051602001611069969594939291906141f3565b60405160208183030381529060405280519060200120905092915050565b6040518060a0016040528060778152602001614d9d607791396040516020016109c39190614059565b7f68c24fc24acf5b51ccf67c01fea706e9e0e110825d4f88d07623f64f32f55d8981565b60006040518060a00160405280606c8152602001614b88606c91396040516020016110ff9190614059565b604051602081830303815290604052805190602001208260000151836020015161112c8560400151612b23565b60405160200161113c9190614015565b60405160208183030381529060405280519060200120856060015186608001518760a001516040516020016111719190614059565b604051602081830303815290604052805190602001206040516020016108b197969594939291906141c3565b6001600160a01b038216600090815260026020908152604080832067ffffffffffffffff85168452909152812060088101548391906111e157600092505050610994565b600a81015460ff16156111f957600492505050610994565b6040517f9283ae3a0000000000000000000000000000000000000000000000000000000081526001600160a01b03861690639283ae3a9061125e907f5747c91a28cbec9252486e322546a68a0eb195f6f01518b0442207980ad3884c90600401614152565b60206040518083038186803b15801561127657600080fd5b505afa15801561128a573d6000803e3d6000fd5b505050506040513d601f19601f820116820180604052508101906112ae9190613ffd565b81600801546112bd91906149f4565b4210156112cf57600492505050610994565b6040517f9283ae3a0000000000000000000000000000000000000000000000000000000081526001600160a01b03861690639283ae3a90611334907f2324ddf5530d2241228494f4f2da5f930e5133943b8dd5669a10fe763085bf8c90600401614152565b60206040518083038186803b15801561134c57600080fd5b505afa158015611360573d6000803e3d6000fd5b505050506040513d601f19601f820116820180604052508101906113849190613ffd565b816009015461139391906149f4565b4210156113a557600492505050610994565b8060060154816005015411156113c057600292505050610994565b8060060154816005015410156113db57600392505050610994565b506001949350505050565b60006040518060e0016040528060af8152602001614c5760af91396040516020016114119190614059565b604051602081830303815290604052805190602001208260000151836020015161143e85604001516110d4565b6040516020016108b1949392919061424e565b604051806060016040528060338152602001614d066033913981565b836000816001600160a01b031663c19d93fb6040518163ffffffff1660e01b815260040160206040518083038186803b1580156114a957600080fd5b505afa1580156114bd573d6000803e3d6000fd5b505050506040513d601f19601f820116820180604052508101906114e19190613e57565b6001811115611519577f4e487b7100000000000000000000000000000000000000000000000000000000600052602160045260246000fd5b14806115b557506040517f68c18beb0000000000000000000000000000000000000000000000000000000081526001600160a01b038216906368c18beb906115659033906004016140dc565b60206040518083038186803b15801561157d57600080fd5b505afa158015611591573d6000803e3d6000fd5b505050506040513d601f19601f820116820180604052508101906115b59190613955565b6115d15760405162461bcd60e51b81526004016107519061470a565b6040517fda0f6c700000000000000000000000000000000000000000000000000000000081526001600160a01b0386169063da0f6c7090611638907f5747c91a28cbec9252486e322546a68a0eb195f6f01518b0442207980ad3884c90889060040161404b565b600060405180830381600087803b15801561165257600080fd5b505af1158015611666573d6000803e3d6000fd5b50506040517fda0f6c700000000000000000000000000000000000000000000000000000000081526001600160a01b038816925063da0f6c7091506116d1907f2324ddf5530d2241228494f4f2da5f930e5133943b8dd5669a10fe763085bf8c90879060040161404b565b600060405180830381600087803b1580156116eb57600080fd5b505af11580156116ff573d6000803e3d6000fd5b50506040517fda0f6c700000000000000000000000000000000000000000000000000000000081526001600160a01b038816925063da0f6c70915061176a907f7781b80638de1bad375fa02f17b809bb0037ecfaca3f762ca34d55e5b296873290869060040161404b565b600060405180830381600087803b15801561178457600080fd5b505af1158015611798573d6000803e3d6000fd5b50506040517ff7e15acf0000000000000000000000000000000000000000000000000000000081526001600160a01b038816925063f7e15acf91506117e59063baaaaaad906004016140dc565b600060405180830381600087803b1580156117ff57600080fd5b505af1158015611813573d6000803e3d6000fd5b505050505050505050565b600080838060200190518101906118359190613ea9565b905061184f611845878784610659565b82606001516108cf565b9150505b949350505050565b7f33c50675c08bf6495444473b20b4c359e484c6bf5c6999f6256e86bf7bb08b2b81565b604051806060016040528060338152602001614d06603391396040516020016109c39190614059565b6040518060a00160405280606c8152602001614b88606c913981565b7f903b70ab7c13e94d5db58ae5205461e75e7c006ddff7cb26a3d9c1b246a62a5f81565b6040518060400160405280601581526020017f4d657373616765286279746573333220726f6f7429000000000000000000000081525081565b63baaaaaad81565b6000604051806060016040528060338152602001614d06603391396040516020016119549190614059565b60405160208183030381529060405280519060200120826000015183602001516040516020016108b193929190614238565b6040518060a00160405280606c8152602001614b88606c91396040516020016109c39190614059565b6000806119bb836123bb565b905060008585836040516020016119d49392919061419a565b604051602081830303815290604052805190602001209050806001604051602001611a00929190614227565b60405160208183030381529060405280519060200120925050509392505050565b6040518060e0016040528060af8152602001614c5760af913981565b826000816001600160a01b031663c19d93fb6040518163ffffffff1660e01b815260040160206040518083038186803b158015611a7957600080fd5b505afa158015611a8d573d6000803e3d6000fd5b505050506040513d601f19601f82011682018060405250810190611ab19190613e57565b6001811115611ae9577f4e487b7100000000000000000000000000000000000000000000000000000000600052602160045260246000fd5b1480611b8557506040517f68c18beb0000000000000000000000000000000000000000000000000000000081526001600160a01b038216906368c18beb90611b359033906004016140dc565b60206040518083038186803b158015611b4d57600080fd5b505afa158015611b61573d6000803e3d6000fd5b505050506040513d601f19601f82011682018060405250810190611b859190613955565b611ba15760405162461bcd60e51b81526004016107519061470a565b6000611bac846123bb565b9050600083806020019051810190611bc49190613ea9565b9050600080611bda836040015160a00151612c61565b9150915081611bfb5760405162461bcd60e51b815260040161075190614741565b6000611c08893386610659565b90506000611c1a8286606001516108cf565b6040517f45ecd02f0000000000000000000000000000000000000000000000000000000081529091506001600160a01b038b16906345ecd02f90611c629084906004016140dc565b60206040518083038186803b158015611c7a57600080fd5b505afa158015611c8e573d6000803e3d6000fd5b505050506040513d601f19601f82011682018060405250810190611cb29190613955565b611cce5760405162461bcd60e51b81526004016107519061487e565b438310611ced5760405162461bcd60e51b815260040161075190614650565b60008311611d0d5760405162461bcd60e51b8152600401610751906144f1565b506001600160a01b0398909816600090815260026020908152604080832067ffffffffffffffff97909716835295905293909320426008820155928355505060010193909355505050565b6000611d648484610fcc565b61066e83610bf1565b620ff1ce81565b6040518060a0016040528060638152602001614bf4606391396040516020016109c39190614059565b7f4722c0c42f5a72a0f6d23d275ea955749ebe30a53b8e8fcf3a65906f339afc0e81565b6000611dcc846123bb565b6001600160a01b038616600081815260026020908152604080832067ffffffffffffffff86168452909152808220600381015491517f31c5eec8000000000000000000000000000000000000000000000000000000008152949550939092906331c5eec890611e3f90879060040161494b565b604080518083038186803b158015611e5657600080fd5b505afa158015611e6a573d6000803e3d6000fd5b505050506040513d601f19601f82011682018060405250810190611e8e91906138e4565b50905081611eae5760405162461bcd60e51b8152600401610751906143ef565b6000611ebb898388611d58565b90506000611eca8a848a611d58565b9050611edc8483896101200151610af8565b611ef85760405162461bcd60e51b815260040161075190614494565b611f0884828a6101200151610af8565b611f245760405162461bcd60e51b8152600401610751906146ad565b60c0880151611f349060016149f4565b8760c0015114611f565760405162461bcd60e51b815260040161075190614426565b875187516001600160a01b0391821691161115611f7757611f778a87612989565b6040517f31c5eec80000000000000000000000000000000000000000000000000000000081526000906001600160a01b038c16906331c5eec890611fbf908a9060040161494b565b604080518083038186803b158015611fd657600080fd5b505afa158015611fea573d6000803e3d6000fd5b505050506040513d601f19601f8201168201806040525081019061200e91906138e4565b509050610fba8b828a8c8b67ffffffffffffffff16612d9d565b6040518060a0016040528060638152602001614bf46063913981565b600080612050856123bb565b905060008787836040516020016120699392919061419a565b604051602081830303815290604052805190602001209050612110816001604051602001612098929190614227565b604051602081830303815290604052805190602001206040516020016120be9190614075565b6040516020818303038152906040528051906020012086868080601f0160208091040260200160405190810160405280939291908181526020018383808284376000920191909152506108cf92505050565b98975050505050505050565b63b105f00d81565b6040518060400160405280601581526020017f4d657373616765286279746573333220726f6f742900000000000000000000008152506040516020016109c39190614059565b6000612175846123bb565b6001600160a01b038616600081815260026020908152604080832067ffffffffffffffff86168452909152808220600381015491517f31c5eec8000000000000000000000000000000000000000000000000000000008152949550939092906331c5eec8906121e890879060040161494b565b604080518083038186803b1580156121ff57600080fd5b505afa158015612213573d6000803e3d6000fd5b505050506040513d601f19601f8201168201806040525081019061223791906138e4565b509050816122575760405162461bcd60e51b8152600401610751906143ef565b6000612264898389611d58565b905060006122738a8489611d58565b905061228584838a6101200151610af8565b6122a15760405162461bcd60e51b815260040161075190614494565b6122b18482896101200151610af8565b6122cd5760405162461bcd60e51b8152600401610751906146ad565b865188516001600160a01b03908116911614156122ee576122ee8a87612989565b50505050505050505050565b6002602081815260009384526040808520909152918352912080546001820154928201546003830154600484015460058501546006860154600787015460088801546009890154600a8a0154600c909a0154989a996001600160a01b0390981698969795969495939492939192909160ff16908c565b61dead81565b6040518060a0016040528060778152602001614d9d6077913981565b6040518060e0016040528060af8152602001614c5760af91396040516020016109c39190614059565b60006801000000000000000082106123e55760405162461bcd60e51b8152600401610751906145f3565b5090565b6000808285600501541115612409576124028385614a6e565b9050612416565b6124138484614a6e565b90505b84546040517ffaaf38b30000000000000000000000000000000000000000000000000000000081526001600160a01b0388169163faaf38b3916124659161babe91620ff1ce919060040161410a565b60206040518083038186803b15801561247d57600080fd5b505afa158015612491573d6000803e3d6000fd5b505050506040513d601f19601f820116820180604052508101906124b59190613ffd565b6124c0826002614a31565b11156124d0576001915050611853565b6040517f9283ae3a0000000000000000000000000000000000000000000000000000000081526000906001600160a01b03881690639283ae3a90612538907f5747c91a28cbec9252486e322546a68a0eb195f6f01518b0442207980ad3884c90600401614152565b60206040518083038186803b15801561255057600080fd5b505afa158015612564573d6000803e3d6000fd5b505050506040513d601f19601f820116820180604052508101906125889190613ffd565b90504281876008015461259b91906149f4565b11979650505050505050565b6040517f31c5eec80000000000000000000000000000000000000000000000000000000081526000906001600160a01b038716906331c5eec8906125ef90879060040161494b565b604080518083038186803b15801561260657600080fd5b505afa15801561261a573d6000803e3d6000fd5b505050506040513d601f19601f8201168201806040525081019061263e91906138e4565b509050600061264e878386611d58565b8654909150600061266d6126638a8688610c6d565b8760a001516108cf565b86516040517f4a19d91e0000000000000000000000000000000000000000000000000000000081529192506000916001600160a01b038c1691634a19d91e916126bb9190879060040161412e565b60206040518083038186803b1580156126d357600080fd5b505afa1580156126e7573d6000803e3d6000fd5b505050506040513d601f19601f8201168201806040525081019061270b91906138c1565b905061271d8685896101200151610af8565b6127395760405162461bcd60e51b815260040161075190614821565b6040517f31c5eec80000000000000000000000000000000000000000000000000000000081526000906001600160a01b038c16906331c5eec890612781908c9060040161494b565b604080518083038186803b15801561279857600080fd5b505afa1580156127ac573d6000803e3d6000fd5b505050506040513d601f19601f820116820180604052508101906127d091906138e4565b5090506127ee8b82848b602001518c61010001518d608001516128ab565b61280a5760405162461bcd60e51b81526004016107519061445d565b6128148b84612fb3565b5050604086015160068901556060860151600589015560c090950151600788015550505060038401556002830180547fffffffffffffffffffffffff0000000000000000000000000000000000000000166001600160a01b0390921691909117905550600a810180547fffffffffffffffffffffffffffffffffffffffffffffffffffffffffffffff001690554260099091015550565b6000806128e2888860405180604001604052808981526020016040518060400160405280600181526020018a815250815250610d0e565b9050600061291a898960405180604001604052808a81526020016040518060400160405280600281526020018b815250815250610d0e565b9050866001600160a01b031661293083866108cf565b6001600160a01b0316141561294a5760019250505061297f565b866001600160a01b031661295e82866108cf565b6001600160a01b031614156129785760029250505061297f565b6000925050505b9695505050505050565b6001600160a01b03808316600081815260026020818152604080842067ffffffffffffffff8816855290915291829020015490517f9283ae3a000000000000000000000000000000000000000000000000000000008152919263e3a05cc19291169063baaaaaad908490639283ae3a90612a27907f713dfe84061c56f955f5f1dab20cb63608b61aecddf14eef9812668a4cd4017290600401614152565b60206040518083038186803b158015612a3f57600080fd5b505afa158015612a53573d6000803e3d6000fd5b505050506040513d601f19601f82011682018060405250810190612a779190613ffd565b6040518463ffffffff1660e01b8152600401612a959392919061410a565b600060405180830381600087803b158015612aaf57600080fd5b505af1158015612ac3573d6000803e3d6000fd5b5050506001600160a01b03909216600090815260026020908152604080832067ffffffffffffffff909416835292905220600a0180547fffffffffffffffffffffffffffffffffffffffffffffffffffffffffffffff0016600117905550565b6060815167ffffffffffffffff811115612b66577f4e487b7100000000000000000000000000000000000000000000000000000000600052604160045260246000fd5b604051908082528060200260200182016040528015612b8f578160200160208202803683370190505b50905060005b8251811015612c5b57828181518110612bd7577f4e487b7100000000000000000000000000000000000000000000000000000000600052603260045260246000fd5b6020026020010151604051602001612bef9190614059565b60405160208183030381529060405280519060200120828281518110612c3e577f4e487b7100000000000000000000000000000000000000000000000000000000600052603260045260246000fd5b602090810291909101015280612c5381614ad8565b915050612b95565b50919050565b60008082815b8151811015612d96576030828281518110612cab577f4e487b7100000000000000000000000000000000000000000000000000000000600052603260045260246000fd5b016020015160f81c10801590612d0257506039828281518110612cf7577f4e487b7100000000000000000000000000000000000000000000000000000000600052603260045260246000fd5b016020015160f81c11155b15612d77576030828281518110612d42577f4e487b7100000000000000000000000000000000000000000000000000000000600052603260045260246000fd5b0160200151612d54919060f81c614a85565b60ff16612d6284600a614a31565b612d6c91906149f4565b925060019350612d84565b6000925060009350612d96565b80612d8e81614ad8565b915050612c67565b5050915091565b6000612da8826123bb565b6001600160a01b038716600081815260026020908152604080832067ffffffffffffffff861684529091528082208851815492517f4a19d91e0000000000000000000000000000000000000000000000000000000081529596509094929392634a19d91e92612e1a929160040161412e565b60206040518083038186803b158015612e3257600080fd5b505afa158015612e46573d6000803e3d6000fd5b505050506040513d601f19601f82011682018060405250810190612e6a91906138c1565b865183546040517ffaaf38b30000000000000000000000000000000000000000000000000000000081529293506000926001600160a01b038c169263faaf38b392612ebd92620ff1ce919060040161410a565b60206040518083038186803b158015612ed557600080fd5b505afa158015612ee9573d6000803e3d6000fd5b505050506040513d601f19601f82011682018060405250810190612f0d9190613ffd565b9050612f2a8989848a602001518b61010001518c608001516132dd565b15612f76578660600151818760600151612f4491906149f4565b14612f5857612f538985612989565b612f71565b8660400151866040015114612f7157612f718985612989565b611813565b8660600151866060015114612f8f57612f718985612989565b8660400151818760400151612fa491906149f4565b14611813576118138985612989565b6040517f9283ae3a0000000000000000000000000000000000000000000000000000000081526000906001600160a01b03841690639283ae3a9061301b907f713dfe84061c56f955f5f1dab20cb63608b61aecddf14eef9812668a4cd4017290600401614152565b60206040518083038186803b15801561303357600080fd5b505afa158015613047573d6000803e3d6000fd5b505050506040513d601f19601f8201168201806040525081019061306b9190613ffd565b6040517f45ecd02f0000000000000000000000000000000000000000000000000000000081529091506001600160a01b038416906345ecd02f906130b39085906004016140dc565b60206040518083038186803b1580156130cb57600080fd5b505afa1580156130df573d6000803e3d6000fd5b505050506040513d601f19601f820116820180604052508101906131039190613955565b61311f5760405162461bcd60e51b815260040161075190614528565b6040517ff7888aec00000000000000000000000000000000000000000000000000000000815281906001600160a01b0385169063f7888aec9061316c90869063b105f00d906004016140f0565b60206040518083038186803b15801561318457600080fd5b505afa158015613198573d6000803e3d6000fd5b505050506040513d601f19601f820116820180604052508101906131bc9190613ffd565b10156131da5760405162461bcd60e51b8152600401610751906148b5565b6040517fc57d5fe90000000000000000000000000000000000000000000000000000000081526001600160a01b0384169063c57d5fe99061322790859063baaaaaad90869060040161410a565b600060405180830381600087803b15801561324157600080fd5b505af1158015613255573d6000803e3d6000fd5b50506040517fe3a05cc10000000000000000000000000000000000000000000000000000000081526001600160a01b038616925063e3a05cc191506132a690859063b105f00d90869060040161410a565b600060405180830381600087803b1580156132c057600080fd5b505af11580156132d4573d6000803e3d6000fd5b50505050505050565b600080613314888860405180604001604052808981526020016040518060400160405280600181526020018a815250815250610d0e565b9050600061334c898960405180604001604052808a81526020016040518060400160405280600281526020018b815250815250610d0e565b9050866001600160a01b031661336283866108cf565b6001600160a01b0316141561337c5760019250505061297f565b866001600160a01b031661339082866108cf565b6001600160a01b031614156133aa5760009250505061297f565b60405162461bcd60e51b815260040161075190614392565b80356108ca81614b6f565b600082601f8301126133dd578081fd5b813560206133f26133ed8361498a565b614960565b828152818101908583018385028701840188101561340e578586fd5b855b8581101561342c57813584529284019290840190600101613410565b5090979650505050505050565b600082601f830112613449578081fd5b813560206134596133ed8361498a565b82815281810190858301855b8581101561342c5761347c898684358b01016134e3565b84529284019290840190600101613465565b600082601f83011261349e578081fd5b815160206134ae6133ed8361498a565b82815281810190858301855b8581101561342c576134d1898684518b010161352f565b845292840192908401906001016134ba565b600082601f8301126134f3578081fd5b81356135016133ed826149ae565b818152846020838601011115613515578283fd5b816020850160208301379081016020019190915292915050565b600082601f83011261353f578081fd5b815161354d6133ed826149ae565b818152846020838601011115613561578283fd5b611853826020830160208701614aa8565b600060808284031215613583578081fd5b6040516080810167ffffffffffffffff82821081831117156135a7576135a7614b40565b81604052829350843583526020850135602084015260408501359150808211156135d057600080fd5b6135dc8683870161360f565b604084015260608501359150808211156135f557600080fd5b50613602858286016134e3565b6060830152505092915050565b600060c08284031215613620578081fd5b61362a60c0614960565b90508135815260208201356020820152604082013567ffffffffffffffff8082111561365557600080fd5b61366185838601613439565b6040840152606084013560608401526080840135608084015260a084013591508082111561368e57600080fd5b5061369b848285016134e3565b60a08301525092915050565b600060c082840312156136b8578081fd5b6136c260c0614960565b90508151815260208201516020820152604082015167ffffffffffffffff808211156136ed57600080fd5b6136f98583860161348e565b6040840152606084015160608401526080840151608084015260a084015191508082111561372657600080fd5b5061369b8482850161352f565b600060608284031215613744578081fd5b6040516040810181811067ffffffffffffffff8211171561376757613767614b40565b6040528235815290508061377e846020850161378a565b60208201525092915050565b60006040828403121561379b578081fd5b6040516040810181811067ffffffffffffffff821117156137be576137be614b40565b604052823581526020928301359281019290925250919050565b60006101408083850312156137eb578182fd5b6137f481614960565b915050613800826133c2565b8152602082013560208201526040820135604082015260608201356060820152608082013567ffffffffffffffff8082111561383b57600080fd5b613847858386016134e3565b608084015260a084013591508082111561386057600080fd5b61386c858386016134e3565b60a084015260c084013560c084015260e084013560e084015261010091508184013582840152610120915081840135818111156138a857600080fd5b6138b4868287016133cd565b8385015250505092915050565b6000602082840312156138d2578081fd5b81516138dd81614b6f565b9392505050565b600080604083850312156138f6578081fd5b825161390181614b6f565b6020939093015192949293505050565b60008060408385031215613923578182fd5b823561392e81614b6f565b9150602083013567ffffffffffffffff8116811461394a578182fd5b809150509250929050565b600060208284031215613966578081fd5b815180151581146138dd578182fd5b600080600060608486031215613989578081fd5b83359250602084013561399b81614b6f565b929592945050506040919091013590565b6000806000806000608086880312156139c3578283fd5b8535945060208601356139d581614b6f565b935060408601359250606086013567ffffffffffffffff808211156139f8578283fd5b818801915088601f830112613a0b578283fd5b813581811115613a19578384fd5b896020828501011115613a2a578384fd5b9699959850939650602001949392505050565b600080600060608486031215613a51578081fd5b8335925060208401359150604084013567ffffffffffffffff811115613a75578182fd5b613a81868287016133cd565b9150509250925092565b60008060408385031215613a9d578182fd5b82359150602083013567ffffffffffffffff811115613aba578182fd5b613ac6858286016134e3565b9150509250929050565b60008060408385031215613ae2578182fd5b8235613aed81614b6f565b9150602083013561394a81614b6f565b600080600060608486031215613b11578081fd5b8335613b1c81614b6f565b9250602084013561399b81614b6f565b60008060008060808587031215613b41578182fd5b8435613b4c81614b6f565b93506020850135613b5c81614b6f565b9250604085013567ffffffffffffffff811115613b77578283fd5b613b83878288016134e3565b9250506060850135613b9481614b6f565b939692955090935050565b600080600060608486031215613bb3578081fd5b8335613bbe81614b6f565b92506020840135613bce81614b6f565b9150604084013567ffffffffffffffff811115613be9578182fd5b613a8186828701613572565b600080600060a08486031215613c09578081fd5b8335613c1481614b6f565b92506020840135613c2481614b6f565b9150613c338560408601613733565b90509250925092565b600080600060608486031215613c50578081fd5b8335613c5b81614b6f565b92506020840135613c6b81614b6f565b9150604084013567ffffffffffffffff811115613c86578182fd5b613a81868287016137d8565b60008060408385031215613ca4578182fd5b8235613caf81614b6f565b946020939093013593505050565b60008060008060808587031215613cd2578182fd5b8435613cdd81614b6f565b93506020850135925060408501359150606085013567ffffffffffffffff811115613d06578182fd5b613d12878288016137d8565b91505092959194509250565b600080600060608486031215613d32578081fd5b8335613d3d81614b6f565b925060208401359150604084013567ffffffffffffffff811115613d5f578182fd5b613a81868287016134e3565b600080600060608486031215613d7f578081fd5b8335613d8a81614b6f565b925060208401359150604084013567ffffffffffffffff811115613c86578182fd5b60008060008060808587031215613dc1578182fd5b8435613dcc81614b6f565b935060208501359250604085013567ffffffffffffffff80821115613def578384fd5b613dfb888389016137d8565b93506060870135915080821115613e10578283fd5b50613d12878288016137d8565b60008060008060808587031215613e32578182fd5b8435613e3d81614b6f565b966020860135965060408601359560600135945092505050565b600060208284031215613e68578081fd5b8151600281106138dd578182fd5b600060208284031215613e87578081fd5b813567ffffffffffffffff811115613e9d578182fd5b61185384828501613572565b600060208284031215613eba578081fd5b815167ffffffffffffffff80821115613ed1578283fd5b9083019060808286031215613ee4578283fd5b604051608081018181108382111715613eff57613eff614b40565b80604052508251815260208301516020820152604083015182811115613f23578485fd5b613f2f878286016136a7565b604083015250606083015182811115613f46578485fd5b613f528782860161352f565b60608301525095945050505050565b600060208284031215613f72578081fd5b813567ffffffffffffffff811115613f88578182fd5b6118538482850161360f565b600060608284031215613fa5578081fd5b6138dd8383613733565b600060408284031215613fc0578081fd5b6138dd838361378a565b600060208284031215613fdb578081fd5b813567ffffffffffffffff811115613ff1578182fd5b611853848285016137d8565b60006020828403121561400e578081fd5b5051919050565b815160009082906020808601845b8381101561403f57815185529382019390820190600101614023565b50929695505050505050565b918252602082015260400190565b6000825161406b818460208701614aa8565b9190910192915050565b7f19457468657265756d205369676e6564204d6573736167653a0a3332000000008152601c810191909152603c0190565b7f190100000000000000000000000000000000000000000000000000000000000081526002810192909252602282015260420190565b6001600160a01b0391909116815260200190565b6001600160a01b0392831681529116602082015260400190565b6001600160a01b039384168152919092166020820152604081019190915260600190565b6001600160a01b03929092168252602082015260400190565b901515815260200190565b90815260200190565b9788526001600160a01b0396909616602088015260408701949094526060860192909252608085015260a084015260c083015260e08201526101000190565b9283526001600160a01b0391909116602083015267ffffffffffffffff16604082015260600190565b968752602087019590955260408601939093526060850191909152608084015260a083015260c082015260e00190565b9586526020860194909452604085019290925260608401526001600160a01b0390811660808401521660a082015260c00190565b91825260ff16602082015260400190565b9283526020830191909152604082015260600190565b93845260208401929092526040830152606082015260800190565b93845260ff9290921660208401526040830152606082015260800190565b60006020825282518060208401526142a6816040850160208701614aa8565b601f017fffffffffffffffffffffffffffffffffffffffffffffffffffffffffffffffe0169190910160400192915050565b60208082526052908201527f746f206f76657272696465206120726573756c742c207468652073756d206f6660408201527f2079657320616e64206e6f2068617320746f206265206772656174657220746860608201527f616e207468652063757272656e74206f6e650000000000000000000000000000608082015260a00190565b6020808252601c908201527f74686520766f746520686173206e6f7420737461727465642079657400000000604082015260600190565b60208082526032908201527f696e76616c6964207369676e6174757265206f72207369676e656420666f722060408201527f6e65697468657220796573206e6f72206e6f0000000000000000000000000000606082015260800190565b60208082526018908201527f6e6f20726573756c7420617661696c61626c6520796574210000000000000000604082015260600190565b6020808252601f908201527f74686f7365206e6f64657320617265206e6f7420636f6e736563757469766500604082015260600190565b60208082526015908201527f77726f6e6720766f7465207369676e6174757265210000000000000000000000604082015260600190565b60208082526030908201527f70726f6f6620636865636b20666f722063757272656e7420696e76616c69642060408201527f666f722063757272656e74206e6f646500000000000000000000000000000000606082015260800190565b60208082526018908201527f626c6f636b206e756d6265722063616e6e6f7420626520300000000000000000604082015260600190565b60208082526018908201527f6d75737420626520616e20616374697665206d656d6265720000000000000000604082015260600190565b6020808252600a908201527f6f6e6c794d656d62657200000000000000000000000000000000000000000000604082015260600190565b60208082526036908201527f746865206d656d6265722068617320616c726561647920766f74656420666f7260408201527f207468697320766f746520746f2066616c6c6261636b00000000000000000000606082015260800190565b60208082526026908201527f53616665436173743a2076616c756520646f65736e27742066697420696e203660408201527f3420626974730000000000000000000000000000000000000000000000000000606082015260800190565b60208082526031908201527f736e617073686f7420626c6f636b206e756d6265722073686f756c64206e6f7460408201527f20626520696e2074686520667574757265000000000000000000000000000000606082015260800190565b60208082526032908201527f70726f6f6620636865636b20666f722070726576696f757320696e76616c696460408201527f20666f722070726576696f7573206e6f64650000000000000000000000000000606082015260800190565b6020808252600b908201527f6f6e6c7941646170746572000000000000000000000000000000000000000000604082015260600190565b60208082526019908201527f736e617073686f7420636f6e76657273696f6e206572726f7200000000000000604082015260600190565b60208082526068908201527f74686520766f74696e6720706572696f64206e65656420746f20656e64206f7260408201527f2074686520646966666572656e6365206265747765656e2079657320616e642060608201527f6e6f206e65656420746f206265206d6f7265207468616e20353025206f66207460808201527f686520766f74657300000000000000000000000000000000000000000000000060a082015260c00190565b60208082526031908201527f726573756c74206e6f6465202620726573756c74206d65726b6c6520726f6f7460408201527f202f2070726f6f66206d69736d61746368000000000000000000000000000000606082015260800190565b6020808252600e908201527f6e6f4163746976654d656d626572000000000000000000000000000000000000604082015260600190565b60208082526011908201527f696e73756666696369656e74206c6f6f74000000000000000000000000000000604082015260600190565b9b8c5260208c019a909a526001600160a01b039890981660408b015260608a0196909652608089019490945260a088019290925260c087015260e086015261010085015261012084015215156101408301526101608201526101800190565b67ffffffffffffffff91909116815260200190565b60405181810167ffffffffffffffff8111828210171561498257614982614b40565b604052919050565b600067ffffffffffffffff8211156149a4576149a4614b40565b5060209081020190565b600067ffffffffffffffff8211156149c8576149c8614b40565b50601f017fffffffffffffffffffffffffffffffffffffffffffffffffffffffffffffffe01660200190565b60008219821115614a0757614a07614b11565b500190565b600060ff821660ff84168060ff03821115614a2957614a29614b11565b019392505050565b6000817fffffffffffffffffffffffffffffffffffffffffffffffffffffffffffffffff0483118215151615614a6957614a69614b11565b500290565b600082821015614a8057614a80614b11565b500390565b600060ff821660ff841680821015614a9f57614a9f614b11565b90039392505050565b60005b83811015614ac3578181015183820152602001614aab565b83811115614ad2576000848401525b50505050565b60007fffffffffffffffffffffffffffffffffffffffffffffffffffffffffffffffff821415614b0a57614b0a614b11565b5060010190565b7f4e487b7100000000000000000000000000000000000000000000000000000000600052601160045260246000fd5b7f4e487b7100000000000000000000000000000000000000000000000000000000600052604160045260246000fd5b6001600160a01b0381168114614b8457600080fd5b5056fe4d6573736167655061796c6f61642862797465733332206e616d65486173682c6279746573333220626f6479486173682c737472696e675b5d2063686f696365732c75696e743235362073746172742c75696e7432353620656e642c737472696e6720736e617073686f7429454950373132446f6d61696e28737472696e67206e616d652c737472696e672076657273696f6e2c75696e7432353620636861696e49642c6164647265737320766572696679696e67436f6e74726163742c6164647265737320616374696f6e4964294d6573736167652875696e743235362074696d657374616d702c62797465733332207370616365486173682c4d6573736167655061796c6f6164207061796c6f6164294d6573736167655061796c6f61642862797465733332206e616d65486173682c6279746573333220626f6479486173682c737472696e675b5d2063686f696365732c75696e743235362073746172742c75696e7432353620656e642c737472696e6720736e617073686f74294d6573736167655061796c6f61642875696e743235362063686f6963652c627974657333322070726f706f73616c48617368294d6573736167652875696e743235362074696d657374616d702c4d6573736167655061796c6f6164207061796c6f6164294d6573736167655061796c6f61642875696e743235362063686f6963652c627974657333322070726f706f73616c48617368294d6573736167652861646472657373206163636f756e742c75696e743235362074696d657374616d702c75696e74323536206e625965732c75696e74323536206e624e6f2c75696e7432353620696e6465782c75696e743235362063686f6963652c627974657333322070726f706f73616c4861736829a26469706673582212203fe45e571fdc49ad0180b1354b2201f61d3e50eb555251fadd18d53d24a1ed2664736f6c63430008000033",
  "immutableReferences": {},
  "source": "pragma solidity ^0.8.0;\npragma experimental ABIEncoderV2;\n\n// SPDX-License-Identifier: MIT\n\nimport \"../../core/DaoRegistry.sol\";\nimport \"../../core/DaoConstants.sol\";\nimport \"../../guards/MemberGuard.sol\";\nimport \"../../guards/AdapterGuard.sol\";\nimport \"../../utils/SafeCast.sol\";\nimport \"../interfaces/IVoting.sol\";\nimport \"./Voting.sol\";\n\n/**\nMIT License\n\nCopyright (c) 2020 Openlaw\n\nPermission is hereby granted, free of charge, to any person obtaining a copy\nof this software and associated documentation files (the \"Software\"), to deal\nin the Software without restriction, including without limitation the rights\nto use, copy, modify, merge, publish, distribute, sublicense, and/or sell\ncopies of the Software, and to permit persons to whom the Software is\nfurnished to do so, subject to the following conditions:\n\nThe above copyright notice and this permission notice shall be included in all\ncopies or substantial portions of the Software.\n\nTHE SOFTWARE IS PROVIDED \"AS IS\", WITHOUT WARRANTY OF ANY KIND, EXPRESS OR\nIMPLIED, INCLUDING BUT NOT LIMITED TO THE WARRANTIES OF MERCHANTABILITY,\nFITNESS FOR A PARTICULAR PURPOSE AND NONINFRINGEMENT. IN NO EVENT SHALL THE\nAUTHORS OR COPYRIGHT HOLDERS BE LIABLE FOR ANY CLAIM, DAMAGES OR OTHER\nLIABILITY, WHETHER IN AN ACTION OF CONTRACT, TORT OR OTHERWISE, ARISING FROM,\nOUT OF OR IN CONNECTION WITH THE SOFTWARE OR THE USE OR OTHER DEALINGS IN THE\nSOFTWARE.\n */\n\ncontract OffchainVotingContract is\n    IVoting,\n    DaoConstants,\n    MemberGuard,\n    AdapterGuard\n{\n    using SafeCast for uint256;\n\n    string public constant EIP712_DOMAIN =\n        \"EIP712Domain(string name,string version,uint256 chainId,address verifyingContract,address actionId)\";\n    string public constant PROPOSAL_MESSAGE_TYPE =\n        \"Message(uint256 timestamp,bytes32 spaceHash,MessagePayload payload)MessagePayload(bytes32 nameHash,bytes32 bodyHash,string[] choices,uint256 start,uint256 end,string snapshot)\";\n    string public constant PROPOSAL_PAYLOAD_TYPE =\n        \"MessagePayload(bytes32 nameHash,bytes32 bodyHash,string[] choices,uint256 start,uint256 end,string snapshot)\";\n    string public constant VOTE_MESSAGE_TYPE =\n        \"Message(uint256 timestamp,MessagePayload payload)MessagePayload(uint256 choice,bytes32 proposalHash)\";\n    string public constant VOTE_PAYLOAD_TYPE =\n        \"MessagePayload(uint256 choice,bytes32 proposalHash)\";\n    string public constant VOTE_RESULT_NODE_TYPE =\n        \"Message(address account,uint256 timestamp,uint256 nbYes,uint256 nbNo,uint256 index,uint256 choice,bytes32 proposalHash)\";\n\n    string public constant VOTE_RESULT_ROOT_TYPE = \"Message(bytes32 root)\";\n\n    bytes32 public constant EIP712_DOMAIN_TYPEHASH =\n        keccak256(abi.encodePacked(EIP712_DOMAIN));\n    bytes32 public constant PROPOSAL_MESSAGE_TYPEHASH =\n        keccak256(abi.encodePacked(PROPOSAL_MESSAGE_TYPE));\n    bytes32 public constant PROPOSAL_PAYLOAD_TYPEHASH =\n        keccak256(abi.encodePacked(PROPOSAL_PAYLOAD_TYPE));\n    bytes32 public constant VOTE_MESSAGE_TYPEHASH =\n        keccak256(abi.encodePacked(VOTE_MESSAGE_TYPE));\n    bytes32 public constant VOTE_PAYLOAD_TYPEHASH =\n        keccak256(abi.encodePacked(VOTE_PAYLOAD_TYPE));\n    bytes32 public constant VOTE_RESULT_NODE_TYPEHASH =\n        keccak256(abi.encodePacked(VOTE_RESULT_NODE_TYPE));\n    bytes32 public constant VOTE_RESULT_ROOT_TYPEHASH =\n        keccak256(abi.encodePacked(VOTE_RESULT_ROOT_TYPE));\n    uint256 chainId;\n\n    function DOMAIN_SEPARATOR(DaoRegistry dao, address actionId)\n        public\n        view\n        returns (bytes32)\n    {\n        return\n            keccak256(\n                abi.encode(\n                    EIP712_DOMAIN_TYPEHASH,\n                    keccak256(\"Snapshot Message\"), // string name\n                    keccak256(\"4\"), // string version\n                    chainId, // uint256 chainId\n                    address(dao), // address verifyingContract,\n                    actionId\n                )\n            );\n    }\n\n    VotingContract private _fallbackVoting;\n\n    struct Voting {\n        uint256 snapshot;\n        bytes32 proposalHash;\n        address reporter;\n        bytes32 resultRoot;\n        uint256 nbVoters;\n        uint256 nbYes;\n        uint256 nbNo;\n        uint256 index;\n        uint256 startingTime;\n        uint256 gracePeriodStartingTime;\n        bool isChallenged;\n        mapping(address => bool) fallbackVotes;\n        uint256 fallbackVotesCount;\n    }\n\n    struct VoteResultNode {\n        address account;\n        uint256 timestamp;\n        uint256 nbNo;\n        uint256 nbYes;\n        bytes sig;\n        bytes rootSig;\n        uint256 index;\n        uint256 choice;\n        bytes32 proposalHash;\n        bytes32[] proof;\n    }\n\n    struct ProposalMessage {\n        uint256 timestamp;\n        bytes32 spaceHash;\n        ProposalPayload payload;\n        bytes sig;\n    }\n\n    struct ProposalPayload {\n        bytes32 nameHash;\n        bytes32 bodyHash;\n        string[] choices;\n        uint256 start;\n        uint256 end;\n        string snapshot;\n    }\n\n    struct VoteMessage {\n        uint256 timestamp;\n        VotePayload payload;\n    }\n\n    struct VotePayload {\n        uint256 choice;\n        bytes32 proposalHash;\n    }\n\n    bytes32 constant VotingPeriod = keccak256(\"offchainvoting.votingPeriod\");\n    bytes32 constant GracePeriod = keccak256(\"offchainvoting.gracePeriod\");\n    bytes32 constant StakingAmount = keccak256(\"offchainvoting.stakingAmount\");\n    bytes32 constant FallbackThreshold =\n        keccak256(\"offchainvoting.fallbackThreshold\");\n\n    mapping(address => mapping(uint64 => Voting)) public votes;\n\n    constructor(VotingContract _c, uint256 _chainId) {\n        _fallbackVoting = _c;\n        chainId = _chainId;\n    }\n\n    function hashMessage(\n        DaoRegistry dao,\n        address actionId,\n        ProposalMessage memory message\n    ) public view returns (bytes32) {\n        return\n            keccak256(\n                abi.encodePacked(\n                    \"\\x19\\x01\",\n                    DOMAIN_SEPARATOR(dao, actionId),\n                    hashProposalMessage(message)\n                )\n            );\n    }\n\n    function hashResultRoot(\n        DaoRegistry dao,\n        address actionId,\n        bytes32 resultRoot\n    ) public view returns (bytes32) {\n        return\n            keccak256(\n                abi.encodePacked(\n                    \"\\x19\\x01\",\n                    DOMAIN_SEPARATOR(dao, actionId),\n                    keccak256(abi.encode(VOTE_RESULT_ROOT_TYPEHASH, resultRoot))\n                )\n            );\n    }\n\n    function hashProposalMessage(ProposalMessage memory message)\n        public\n        pure\n        returns (bytes32)\n    {\n        return\n            keccak256(\n                abi.encode(\n                    PROPOSAL_MESSAGE_TYPEHASH,\n                    message.timestamp,\n                    message.spaceHash,\n                    hashProposalPayload(message.payload)\n                )\n            );\n    }\n\n    function hashProposalPayload(ProposalPayload memory payload)\n        public\n        pure\n        returns (bytes32)\n    {\n        return\n            keccak256(\n                abi.encode(\n                    PROPOSAL_PAYLOAD_TYPEHASH,\n                    payload.nameHash,\n                    payload.bodyHash,\n                    keccak256(abi.encodePacked(toHashArray(payload.choices))),\n                    payload.start,\n                    payload.end,\n                    keccak256(abi.encodePacked(payload.snapshot))\n                )\n            );\n    }\n\n    function hashVote(\n        DaoRegistry dao,\n        address actionId,\n        VoteMessage memory message\n    ) public view returns (bytes32) {\n        return\n            keccak256(\n                abi.encodePacked(\n                    \"\\x19\\x01\",\n                    DOMAIN_SEPARATOR(dao, actionId),\n                    hashVoteInternal(message)\n                )\n            );\n    }\n\n    function hashVoteInternal(VoteMessage memory message)\n        public\n        pure\n        returns (bytes32)\n    {\n        return\n            keccak256(\n                abi.encode(\n                    VOTE_MESSAGE_TYPEHASH,\n                    message.timestamp,\n                    hashVotePayload(message.payload)\n                )\n            );\n    }\n\n    function hashVotePayload(VotePayload memory payload)\n        public\n        pure\n        returns (bytes32)\n    {\n        return\n            keccak256(\n                abi.encode(\n                    VOTE_PAYLOAD_TYPEHASH,\n                    payload.choice,\n                    payload.proposalHash\n                )\n            );\n    }\n\n    function hashVotingResultNode(VoteResultNode memory node)\n        public\n        pure\n        returns (bytes32)\n    {\n        return\n            keccak256(\n                abi.encode(\n                    VOTE_RESULT_NODE_TYPEHASH,\n                    node.account,\n                    node.timestamp,\n                    node.nbYes,\n                    node.nbNo,\n                    node.index,\n                    node.choice,\n                    node.proposalHash\n                )\n            );\n    }\n\n    function nodeHash(\n        DaoRegistry dao,\n        address actionId,\n        VoteResultNode memory node\n    ) public view returns (bytes32) {\n        return\n            keccak256(\n                abi.encodePacked(\n                    \"\\x19\\x01\",\n                    DOMAIN_SEPARATOR(dao, actionId),\n                    hashVotingResultNode(node)\n                )\n            );\n    }\n\n    function toHashArray(string[] memory arr)\n        internal\n        pure\n        returns (bytes32[] memory result)\n    {\n        result = new bytes32[](arr.length);\n        for (uint256 i = 0; i < arr.length; i++) {\n            result[i] = keccak256(abi.encodePacked(arr[i]));\n        }\n    }\n\n    function configureDao(\n        DaoRegistry dao,\n        uint256 votingPeriod,\n        uint256 gracePeriod,\n        uint256 fallbackThreshold\n    ) external onlyAdapter(dao) {\n        dao.setConfiguration(VotingPeriod, votingPeriod);\n        dao.setConfiguration(GracePeriod, gracePeriod);\n        dao.setConfiguration(FallbackThreshold, fallbackThreshold);\n\n        dao.registerPotentialNewInternalToken(LOCKED_LOOT);\n    }\n\n    /** \n        What needs to be checked before submitting a vote result\n        - if the grace period has ended, do nothing\n        - if it's the first result, is this a right time to submit it?\n             * is the diff between nbYes and nbNo +50% of the votes ?\n             * is this after the voting period ?\n        - if we already have a result that has been challenged\n            * same as if there were no result yet\n\n        - if we already have a result that has not been challenged\n            * is the new one heavier than the previous one ?\n         **/\n\n    function submitVoteResult(\n        DaoRegistry dao,\n        uint256 _proposalId,\n        bytes32 resultRoot,\n        VoteResultNode memory result\n    ) external {\n        uint64 proposalId = SafeCast.toUint64(_proposalId);\n        Voting storage vote = votes[address(dao)][proposalId];\n        require(vote.snapshot > 0, \"the vote has not started yet\");\n\n        if (vote.resultRoot == bytes32(0) || vote.isChallenged) {\n            require(\n                _readyToSubmitResult(dao, vote, result.nbYes, result.nbNo),\n                \"the voting period need to end or the difference between yes and no need to be more than 50% of the votes\"\n            );\n            _submitVoteResult(dao, vote, proposalId, result, resultRoot);\n        } else {\n            //TODO: we shouldnt' check nbYes + nbNo but rather the index (the number of voters)\n            require(\n                result.index > vote.index,\n                \"to override a result, the sum of yes and no has to be greater than the current one\"\n            );\n            _submitVoteResult(dao, vote, proposalId, result, resultRoot);\n        }\n    }\n\n    //TODO: generale challenge to go through each node to see which vote has been missing\n\n    function _readyToSubmitResult(\n        DaoRegistry dao,\n        Voting storage vote,\n        uint256 nbYes,\n        uint256 nbNo\n    ) internal view returns (bool) {\n        uint256 diff;\n        if (vote.nbYes > nbNo) {\n            diff = nbYes - nbNo;\n        } else {\n            diff = nbNo - nbYes;\n        }\n        if (diff * 2 > dao.getPriorAmount(TOTAL, SHARES, vote.snapshot)) {\n            return true;\n        }\n\n        uint256 votingPeriod = dao.getConfiguration(VotingPeriod);\n\n        return vote.startingTime + votingPeriod > block.timestamp;\n    }\n\n    function _submitVoteResult(\n        DaoRegistry dao,\n        Voting storage vote,\n        uint64 proposalId,\n        VoteResultNode memory result,\n        bytes32 resultRoot\n    ) internal {\n        (address adapterAddress, ) = dao.proposals(proposalId);\n        bytes32 hashCurrent = nodeHash(dao, adapterAddress, result);\n        uint256 blockNumber = vote.snapshot;\n        address reporter =\n            recover(\n                hashResultRoot(dao, adapterAddress, resultRoot),\n                result.rootSig\n            );\n        address voter = dao.getPriorDelegateKey(result.account, blockNumber);\n        require(\n            verify(resultRoot, hashCurrent, result.proof),\n            \"result node & result merkle root / proof mismatch\"\n        );\n        (address actionId, ) = dao.proposals(proposalId);\n        require(\n            _hasVoted(\n                dao,\n                actionId,\n                voter,\n                result.timestamp,\n                result.proposalHash,\n                result.sig\n            ) != 0,\n            \"wrong vote signature!\"\n        );\n\n        _lockFunds(dao, reporter);\n        vote.nbNo = result.nbNo;\n        vote.nbYes = result.nbYes;\n        vote.index = result.index;\n        vote.resultRoot = resultRoot;\n        vote.reporter = reporter;\n        vote.isChallenged = false;\n        vote.gracePeriodStartingTime = block.timestamp;\n    }\n\n    function _lockFunds(DaoRegistry dao, address memberAddr) internal {\n        uint256 lootToLock = dao.getConfiguration(StakingAmount);\n        //lock if member has enough loot\n        require(dao.isActiveMember(memberAddr), \"must be an active member\");\n        require(\n            dao.balanceOf(memberAddr, LOOT) >= lootToLock,\n            \"insufficient loot\"\n        );\n\n        // lock loot\n        dao.addToBalance(memberAddr, LOCKED_LOOT, lootToLock);\n        dao.subtractFromBalance(memberAddr, LOOT, lootToLock);\n    }\n\n    function _releaseFunds(DaoRegistry dao, address memberAddr) internal {\n        uint256 lootToRelease = dao.getConfiguration(StakingAmount);\n        //release if member has enough locked loot\n        require(dao.isActiveMember(memberAddr), \"must be an active member\");\n        require(\n            dao.balanceOf(memberAddr, LOCKED_LOOT) >= lootToRelease,\n            \"insufficient loot locked\"\n        );\n\n        // release loot\n        dao.addToBalance(memberAddr, LOOT, lootToRelease);\n        dao.subtractFromBalance(memberAddr, LOCKED_LOOT, lootToRelease);\n    }\n\n    function _stringToUint(string memory s)\n        internal\n        pure\n        returns (bool success, uint256 result)\n    {\n        bytes memory b = bytes(s);\n        result = 0;\n        success = false;\n        for (uint256 i = 0; i < b.length; i++) {\n            if (uint8(b[i]) >= 48 && uint8(b[i]) <= 57) {\n                result = result * 10 + (uint8(b[i]) - 48);\n                success = true;\n            } else {\n                result = 0;\n                success = false;\n                break;\n            }\n        }\n        return (success, result);\n    }\n\n    function getSenderAddress(\n        DaoRegistry dao,\n        address actionId,\n        bytes memory data,\n        address\n    ) external view override returns (address) {\n        ProposalMessage memory proposal = abi.decode(data, (ProposalMessage));\n        return recover(hashMessage(dao, actionId, proposal), proposal.sig);\n    }\n\n    function startNewVotingForProposal(\n        DaoRegistry dao,\n        uint256 _proposalId,\n        bytes memory data\n    ) public override onlyAdapter(dao) {\n        uint64 proposalId = SafeCast.toUint64(_proposalId);\n        // it is called from Registry\n        ProposalMessage memory proposal = abi.decode(data, (ProposalMessage));\n        (bool success, uint256 blockNumber) =\n            _stringToUint(proposal.payload.snapshot);\n        require(success, \"snapshot conversion error\");\n\n        bytes32 proposalHash = hashMessage(dao, msg.sender, proposal);\n        address addr = recover(proposalHash, proposal.sig);\n\n        require(dao.isActiveMember(addr), \"noActiveMember\");\n        require(\n            blockNumber < block.number,\n            \"snapshot block number should not be in the future\"\n        );\n        require(blockNumber > 0, \"block number cannot be 0\");\n\n        votes[address(dao)][proposalId].startingTime = block.timestamp;\n        votes[address(dao)][proposalId].snapshot = blockNumber;\n        votes[address(dao)][proposalId].proposalHash = proposalHash;\n    }\n\n    /**\n    possible results here:\n    0: has not started\n    1: tie\n    2: pass\n    3: not pass\n    4: in progress\n     */\n    function voteResult(DaoRegistry dao, uint256 _proposalId)\n        external\n        view\n        override\n        returns (uint256 state)\n    {\n        uint64 proposalId = uint64(_proposalId);\n        Voting storage vote = votes[address(dao)][proposalId];\n        if (vote.startingTime == 0) {\n            return 0;\n        }\n\n        if (vote.isChallenged) {\n            return 4;\n        }\n\n        if (\n            block.timestamp <\n            vote.startingTime + dao.getConfiguration(VotingPeriod)\n        ) {\n            return 4;\n        }\n\n        if (\n            block.timestamp <\n            vote.gracePeriodStartingTime + dao.getConfiguration(GracePeriod)\n        ) {\n            return 4;\n        }\n\n        if (vote.nbYes > vote.nbNo) {\n            return 2;\n        }\n        if (vote.nbYes < vote.nbNo) {\n            return 3;\n        }\n\n        return 1;\n    }\n\n    function challengeWrongSignature(\n        DaoRegistry dao,\n        uint256 _proposalId,\n        VoteResultNode memory nodeCurrent\n    ) external {\n        uint64 proposalId = SafeCast.toUint64(_proposalId);\n        Voting storage vote = votes[address(dao)][proposalId];\n        bytes32 resultRoot = vote.resultRoot;\n        uint256 blockNumber = vote.snapshot;\n        (address adapterAddress, ) = dao.proposals(proposalId);\n        require(resultRoot != bytes32(0), \"no result available yet!\");\n        bytes32 hashCurrent = nodeHash(dao, adapterAddress, nodeCurrent);\n        require(\n            verify(resultRoot, hashCurrent, nodeCurrent.proof),\n            \"proof check for current invalid for current node\"\n        );\n\n        //return 1 if yes, 2 if no and 0 if the vote is incorrect\n        address voter =\n            dao.getPriorDelegateKey(nodeCurrent.account, blockNumber);\n\n        (address actionId, ) = dao.proposals(proposalId);\n\n        if (\n            _hasVoted(\n                dao,\n                actionId,\n                voter,\n                nodeCurrent.timestamp,\n                nodeCurrent.proposalHash,\n                nodeCurrent.sig\n            ) == 0\n        ) {\n            _challengeResult(dao, proposalId);\n        }\n    }\n\n    function challengeDuplicate(\n        DaoRegistry dao,\n        uint256 _proposalId,\n        VoteResultNode memory node1,\n        VoteResultNode memory node2\n    ) external {\n        uint64 proposalId = SafeCast.toUint64(_proposalId);\n        Voting storage vote = votes[address(dao)][proposalId];\n        bytes32 resultRoot = vote.resultRoot;\n        (address adapterAddress, ) = dao.proposals(proposalId);\n        require(resultRoot != bytes32(0), \"no result available yet!\");\n        bytes32 hashCurrent = nodeHash(dao, adapterAddress, node1);\n        bytes32 hashPrevious = nodeHash(dao, adapterAddress, node2);\n        require(\n            verify(resultRoot, hashCurrent, node1.proof),\n            \"proof check for current invalid for current node\"\n        );\n        require(\n            verify(resultRoot, hashPrevious, node2.proof),\n            \"proof check for previous invalid for previous node\"\n        );\n\n        if (node1.account == node2.account) {\n            _challengeResult(dao, proposalId);\n        }\n    }\n\n    function challengeWrongStep(\n        DaoRegistry dao,\n        uint256 _proposalId,\n        VoteResultNode memory nodePrevious,\n        VoteResultNode memory nodeCurrent\n    ) external {\n        uint64 proposalId = SafeCast.toUint64(_proposalId);\n        Voting storage vote = votes[address(dao)][proposalId];\n        bytes32 resultRoot = vote.resultRoot;\n\n        (address adapterAddress, ) = dao.proposals(proposalId);\n        require(resultRoot != bytes32(0), \"no result available yet!\");\n        bytes32 hashCurrent = nodeHash(dao, adapterAddress, nodeCurrent);\n        bytes32 hashPrevious = nodeHash(dao, adapterAddress, nodePrevious);\n        require(\n            verify(resultRoot, hashCurrent, nodeCurrent.proof),\n            \"proof check for current invalid for current node\"\n        );\n        require(\n            verify(resultRoot, hashPrevious, nodePrevious.proof),\n            \"proof check for previous invalid for previous node\"\n        );\n\n        require(\n            nodeCurrent.index == nodePrevious.index + 1,\n            \"those nodes are not consecutive\"\n        );\n\n        //voters not in order\n        if (nodeCurrent.account > nodePrevious.account) {\n            _challengeResult(dao, proposalId);\n        }\n        (address actionId, ) = dao.proposals(proposalId);\n\n        _checkStep(dao, actionId, nodeCurrent, nodePrevious, proposalId);\n    }\n\n    function requestFallback(DaoRegistry dao, uint256 _proposalId)\n        external\n        onlyMember(dao)\n    {\n        uint64 proposalId = SafeCast.toUint64(_proposalId);\n        require(\n            votes[address(dao)][proposalId].fallbackVotes[msg.sender] == false,\n            \"the member has already voted for this vote to fallback\"\n        );\n        votes[address(dao)][proposalId].fallbackVotes[msg.sender] = true;\n        votes[address(dao)][proposalId].fallbackVotesCount += 1;\n    }\n\n    function _checkStep(\n        DaoRegistry dao,\n        address actionId,\n        VoteResultNode memory nodeCurrent,\n        VoteResultNode memory nodePrevious,\n        uint256 _proposalId\n    ) internal {\n        uint64 proposalId = SafeCast.toUint64(_proposalId);\n        Voting storage vote = votes[address(dao)][proposalId];\n        address voter =\n            dao.getPriorDelegateKey(nodeCurrent.account, vote.snapshot);\n        uint256 weight =\n            dao.getPriorAmount(nodeCurrent.account, SHARES, vote.snapshot);\n\n        if (\n            _hasVotedYes(\n                dao,\n                actionId,\n                voter,\n                nodeCurrent.timestamp,\n                nodeCurrent.proposalHash,\n                nodeCurrent.sig\n            )\n        ) {\n            if (nodePrevious.nbYes + weight != nodeCurrent.nbYes) {\n                _challengeResult(dao, proposalId);\n            } else if (nodePrevious.nbNo != nodeCurrent.nbNo) {\n                _challengeResult(dao, proposalId);\n            }\n        } else {\n            if (nodePrevious.nbYes != nodeCurrent.nbYes) {\n                _challengeResult(dao, proposalId);\n            } else if (nodePrevious.nbNo + weight != nodeCurrent.nbNo) {\n                _challengeResult(dao, proposalId);\n            }\n        }\n    }\n\n    function _challengeResult(DaoRegistry dao, uint64 proposalId) internal {\n        // burn locked loot\n        dao.subtractFromBalance(\n            votes[address(dao)][proposalId].reporter,\n            LOCKED_LOOT,\n            dao.getConfiguration(StakingAmount)\n        );\n        votes[address(dao)][proposalId].isChallenged = true;\n    }\n\n    function getSignedHash(\n        bytes32 snapshotRoot,\n        address dao,\n        uint256 _proposalId\n    ) external pure returns (bytes32) {\n        uint64 proposalId = SafeCast.toUint64(_proposalId);\n        bytes32 proposalHash =\n            keccak256(abi.encode(snapshotRoot, dao, proposalId));\n        return keccak256(abi.encode(proposalHash, 1));\n    }\n\n    function getSignedAddress(\n        bytes32 snapshotRoot,\n        address dao,\n        uint256 _proposalId,\n        bytes calldata sig\n    ) external pure returns (address) {\n        uint64 proposalId = SafeCast.toUint64(_proposalId);\n        bytes32 proposalHash =\n            keccak256(abi.encode(snapshotRoot, dao, proposalId));\n        return\n            recover(\n                keccak256(\n                    abi.encodePacked(\n                        \"\\x19Ethereum Signed Message:\\n32\",\n                        keccak256(abi.encode(proposalHash, 1))\n                    )\n                ),\n                sig\n            );\n    }\n\n    function _hasVotedYes(\n        DaoRegistry dao,\n        address actionId,\n        address voter,\n        uint256 timestamp,\n        bytes32 proposalHash,\n        bytes memory sig\n    ) internal view returns (bool) {\n        bytes32 voteHashYes =\n            hashVote(\n                dao,\n                actionId,\n                VoteMessage(timestamp, VotePayload(1, proposalHash))\n            );\n\n        bytes32 voteHashNo =\n            hashVote(\n                dao,\n                actionId,\n                VoteMessage(timestamp, VotePayload(2, proposalHash))\n            );\n\n        if (recover(voteHashYes, sig) == voter) {\n            return true;\n        } else if (recover(voteHashNo, sig) == voter) {\n            return false;\n        } else {\n            revert(\"invalid signature or signed for neither yes nor no\");\n        }\n    }\n\n    function _hasVoted(\n        DaoRegistry dao,\n        address actionId,\n        address voter,\n        uint256 timestamp,\n        bytes32 proposalHash,\n        bytes memory sig\n    ) internal view returns (uint256) {\n        bytes32 voteHashYes =\n            hashVote(\n                dao,\n                actionId,\n                VoteMessage(timestamp, VotePayload(1, proposalHash))\n            );\n\n        bytes32 voteHashNo =\n            hashVote(\n                dao,\n                actionId,\n                VoteMessage(timestamp, VotePayload(2, proposalHash))\n            );\n\n        if (recover(voteHashYes, sig) == voter) {\n            return 1;\n        } else if (recover(voteHashNo, sig) == voter) {\n            return 2;\n        } else {\n            return 0;\n        }\n    }\n\n    /**\n     * @dev Recover signer address from a message by using his signature\n     * @param hash bytes32 message, the hash is the signed message. What is recovered is the signer address.\n     * @param sig bytes signature, the signature is generated using web3.eth.sign()\n     */\n    function recover(bytes32 hash, bytes memory sig)\n        public\n        pure\n        returns (address)\n    {\n        bytes32 r;\n        bytes32 s;\n        uint8 v;\n\n        //Check the signature length\n        if (sig.length != 65) {\n            return (address(0));\n        }\n\n        // Divide the signature in r, s and v variables\n        assembly {\n            r := mload(add(sig, 32))\n            s := mload(add(sig, 64))\n            v := byte(0, mload(add(sig, 96)))\n        }\n\n        // Version of signature should be 27 or 28, but 0 and 1 are also possible versions\n        if (v < 27) {\n            v += 27;\n        }\n\n        // If the version is correct return the signer address\n        if (v != 27 && v != 28) {\n            return (address(0));\n        }\n        return ecrecover(hash, v, r, s);\n    }\n\n    function verify(\n        bytes32 root,\n        bytes32 leaf,\n        bytes32[] memory proof\n    ) public pure returns (bool) {\n        bytes32 computedHash = leaf;\n\n        for (uint256 i = 0; i < proof.length; i++) {\n            bytes32 proofElement = proof[i];\n            if (computedHash < proofElement) {\n                // Hash(current computed hash + current element of the proof)\n                computedHash = keccak256(\n                    abi.encodePacked(computedHash, proofElement)\n                );\n            } else {\n                // Hash(current element of the proof + current computed hash)\n                computedHash = keccak256(\n                    abi.encodePacked(proofElement, computedHash)\n                );\n            }\n        }\n\n        // Check if the computed hash (root) is equal to the provided root\n        return computedHash == root;\n    }\n}\n",
  "sourcePath": "/Users/jd/openlaw/openlawteam/laoland/contracts/adapters/voting/OffchainVoting.sol",
  "compiler": {
    "name": "solc",
    "version": "0.8.0+commit.c7dfd78e.Emscripten.clang"
  },
  "schemaVersion": "3.3.3",
  "updatedAt": "2021-01-06T17:50:58.717Z",
  "devdoc": {
    "kind": "dev",
    "methods": {
      "recover(bytes32,bytes)": {
        "details": "Recover signer address from a message by using his signature",
        "params": {
          "hash": "bytes32 message, the hash is the signed message. What is recovered is the signer address.",
          "sig": "bytes signature, the signature is generated using web3.eth.sign()"
        }
      }
    },
    "version": 1
  },
  "userdoc": {
    "kind": "user",
    "methods": {
      "GUILD()": {
        "notice": "The reserved address for Guild bank account"
      },
      "TOTAL()": {
        "notice": "The reserved address for Total funds bank account"
      },
      "submitVoteResult(address,uint256,bytes32,(address,uint256,uint256,uint256,bytes,bytes,uint256,uint256,bytes32,bytes32[]))": {
        "notice": "What needs to be checked before submitting a vote result - if the grace period has ended, do nothing - if it's the first result, is this a right time to submit it? is the diff between nbYes and nbNo +50% of the votes ? is this after the voting period ? - if we already have a result that has been challenged same as if there were no result yet - if we already have a result that has not been challenged is the new one heavier than the previous one ?*"
      },
      "voteResult(address,uint256)": {
        "notice": "possible results here: 0: has not started 1: tie 2: pass 3: not pass 4: in progress"
      }
    },
    "notice": "MIT License Copyright (c) 2020 Openlaw Permission is hereby granted, free of charge, to any person obtaining a copy of this software and associated documentation files (the \"Software\"), to deal in the Software without restriction, including without limitation the rights to use, copy, modify, merge, publish, distribute, sublicense, and/or sell copies of the Software, and to permit persons to whom the Software is furnished to do so, subject to the following conditions: The above copyright notice and this permission notice shall be included in all copies or substantial portions of the Software. THE SOFTWARE IS PROVIDED \"AS IS\", WITHOUT WARRANTY OF ANY KIND, EXPRESS OR IMPLIED, INCLUDING BUT NOT LIMITED TO THE WARRANTIES OF MERCHANTABILITY, FITNESS FOR A PARTICULAR PURPOSE AND NONINFRINGEMENT. IN NO EVENT SHALL THE AUTHORS OR COPYRIGHT HOLDERS BE LIABLE FOR ANY CLAIM, DAMAGES OR OTHER LIABILITY, WHETHER IN AN ACTION OF CONTRACT, TORT OR OTHERWISE, ARISING FROM, OUT OF OR IN CONNECTION WITH THE SOFTWARE OR THE USE OR OTHER DEALINGS IN THE SOFTWARE.",
    "version": 1
  }
}