{
  "contractName": "OnboardingContract",
  "abi": [
    {
      "inputs": [
        {
          "internalType": "uint256",
          "name": "flags",
          "type": "uint256"
        },
        {
          "internalType": "uint256",
          "name": "flag",
          "type": "uint256"
        }
      ],
      "name": "getFlag",
      "outputs": [
        {
          "internalType": "bool",
          "name": "",
          "type": "bool"
        }
      ],
      "stateMutability": "pure",
      "type": "function"
    },
    {
      "inputs": [
        {
          "internalType": "address",
          "name": "",
          "type": "address"
        },
        {
          "internalType": "bytes32",
          "name": "",
          "type": "bytes32"
        }
      ],
      "name": "proposals",
      "outputs": [
        {
          "internalType": "bytes32",
          "name": "id",
          "type": "bytes32"
        },
        {
          "internalType": "address",
          "name": "tokenToMint",
          "type": "address"
        },
        {
          "internalType": "uint256",
          "name": "amount",
          "type": "uint256"
        },
        {
          "internalType": "uint256",
          "name": "sharesRequested",
          "type": "uint256"
        },
        {
          "internalType": "address",
          "name": "token",
          "type": "address"
        },
        {
          "internalType": "address payable",
          "name": "applicant",
          "type": "address"
        },
        {
          "internalType": "address payable",
          "name": "proposer",
          "type": "address"
        }
      ],
      "stateMutability": "view",
      "type": "function"
    },
    {
      "inputs": [
        {
          "internalType": "uint256",
          "name": "flags",
          "type": "uint256"
        },
        {
          "internalType": "uint256",
          "name": "flag",
          "type": "uint256"
        },
        {
          "internalType": "bool",
          "name": "value",
          "type": "bool"
        }
      ],
      "name": "setFlag",
      "outputs": [
        {
          "internalType": "uint256",
          "name": "",
          "type": "uint256"
        }
      ],
      "stateMutability": "pure",
      "type": "function"
    },
    {
      "inputs": [
        {
          "internalType": "address",
          "name": "",
          "type": "address"
        },
        {
          "internalType": "address",
          "name": "",
          "type": "address"
        }
      ],
      "name": "shares",
      "outputs": [
        {
          "internalType": "uint256",
          "name": "",
          "type": "uint256"
        }
      ],
      "stateMutability": "view",
      "type": "function"
    },
    {
      "inputs": [
        {
          "internalType": "contract DaoRegistry",
          "name": "dao",
          "type": "address"
        },
        {
          "internalType": "address",
          "name": "tokenAddrToMint",
          "type": "address"
        },
        {
          "internalType": "uint256",
          "name": "chunkSize",
          "type": "uint256"
        },
        {
          "internalType": "uint256",
          "name": "sharesPerChunk",
          "type": "uint256"
        },
        {
          "internalType": "uint256",
          "name": "maximumChunks",
          "type": "uint256"
        },
        {
          "internalType": "address",
          "name": "tokenAddr",
          "type": "address"
        }
      ],
      "name": "configureDao",
      "outputs": [],
      "stateMutability": "nonpayable",
      "type": "function"
    },
    {
      "inputs": [
        {
          "internalType": "contract DaoRegistry",
          "name": "dao",
          "type": "address"
        },
        {
          "internalType": "bytes32",
          "name": "proposalId",
          "type": "bytes32"
        },
        {
          "internalType": "address payable",
          "name": "applicant",
          "type": "address"
        },
        {
          "internalType": "address",
          "name": "tokenToMint",
          "type": "address"
        },
        {
          "internalType": "uint256",
          "name": "tokenAmount",
          "type": "uint256"
        },
        {
          "internalType": "bytes",
          "name": "data",
          "type": "bytes"
        }
      ],
      "name": "onboardAndSponsor",
      "outputs": [],
      "stateMutability": "payable",
      "type": "function"
    },
    {
      "inputs": [
        {
          "internalType": "contract DaoRegistry",
          "name": "dao",
          "type": "address"
        },
        {
          "internalType": "bytes32",
          "name": "proposalId",
          "type": "bytes32"
        },
        {
          "internalType": "address payable",
          "name": "applicant",
          "type": "address"
        },
        {
          "internalType": "address",
          "name": "tokenToMint",
          "type": "address"
        },
        {
          "internalType": "uint256",
          "name": "tokenAmount",
          "type": "uint256"
        }
      ],
      "name": "onboard",
      "outputs": [],
      "stateMutability": "payable",
      "type": "function"
    },
    {
      "inputs": [
        {
          "internalType": "contract DaoRegistry",
          "name": "dao",
          "type": "address"
        },
        {
          "internalType": "address",
          "name": "delegateKey",
          "type": "address"
        }
      ],
      "name": "updateDelegateKey",
      "outputs": [],
      "stateMutability": "nonpayable",
      "type": "function"
    },
    {
      "inputs": [
        {
          "internalType": "contract DaoRegistry",
          "name": "dao",
          "type": "address"
        },
        {
          "internalType": "bytes32",
          "name": "proposalId",
          "type": "bytes32"
        },
        {
          "internalType": "bytes",
          "name": "data",
          "type": "bytes"
        }
      ],
      "name": "sponsorProposal",
      "outputs": [],
      "stateMutability": "nonpayable",
      "type": "function"
    },
    {
      "inputs": [
        {
          "internalType": "contract DaoRegistry",
          "name": "dao",
          "type": "address"
        },
        {
          "internalType": "bytes32",
          "name": "proposalId",
          "type": "bytes32"
        }
      ],
      "name": "cancelProposal",
      "outputs": [],
      "stateMutability": "nonpayable",
      "type": "function"
    },
    {
      "inputs": [
        {
          "internalType": "contract DaoRegistry",
          "name": "dao",
          "type": "address"
        },
        {
          "internalType": "bytes32",
          "name": "proposalId",
          "type": "bytes32"
        }
      ],
      "name": "processProposal",
      "outputs": [],
      "stateMutability": "nonpayable",
      "type": "function"
    }
  ],
  "bytecode": "0x608060405234801561001057600080fd5b506133ec806100206000396000f3fe6080604052600436106100bc5760003560e01c8063ac14496311610074578063bbc8b5f21161004e578063bbc8b5f2146101d2578063cd0e42ed146101f2578063fc25803114610212576100bc565b8063ac1449631461017f578063ac8359b814610192578063b244a41d146101b2576100bc565b80635cb75276116100a55780635cb75276146100f65780637df44647146101325780639573167d1461015f576100bc565b80633380a767146100c157806348020ae4146100d6575b600080fd5b6100d46100cf366004612778565b61023f565b005b3480156100e257600080fd5b506100d46100f136600461265f565b610528565b34801561010257600080fd5b5061011661011136600461265f565b6106dc565b60405161012997969594939291906129fa565b60405180910390f35b34801561013e57600080fd5b5061015261014d366004612627565b610731565b60405161012991906129da565b34801561016b57600080fd5b506100d461017a36600461265f565b61074e565b6100d461018d36600461271e565b610d9b565b34801561019e57600080fd5b506100d46101ad3660046126a6565b6111c9565b3480156101be57600080fd5b506101526101cd3660046128b7565b611246565b3480156101de57600080fd5b506100d46101ed3660046126b8565b6112a2565b3480156101fe57600080fd5b506100d461020d366004612805565b61183d565b34801561021e57600080fd5b5061023261022d366004612896565b611cd4565b60405161012991906129cf565b61024c8787878787610d9b565b6040517f17ba7d850000000000000000000000000000000000000000000000000000000081526000906001600160a01b038916906317ba7d85906102b4907f0e49311626a26ba5be58a3b13d239908e80ce0dffdd5c50bf1d9c82ff35d1ab3906004016129da565b60206040518083038186803b1580156102cc57600080fd5b505afa1580156102e0573d6000803e3d6000fd5b505050506040513d601f19601f82011682018060405250810190610304919061260b565b6040517f2b0974d00000000000000000000000000000000000000000000000000000000081529091506001600160a01b03821690632b0974d090610352908b908b9088908890600401612a9d565b600060405180830381600087803b15801561036c57600080fd5b505af192505050801561037d575060015b6103ff576103896132ae565b8061039457506103b7565b8060405162461bcd60e51b81526004016103ae9190612ad0565b60405180910390fd5b3d8080156103e1576040519150601f19603f3d011682016040523d82523d6000602084013e6103e6565b606091505b5060405162461bcd60e51b81526004016103ae90612be6565b6040517f966917d00000000000000000000000000000000000000000000000000000000081526000906001600160a01b0383169063966917d09061044f908c903090899089903390600401612a5c565b602060405180830381600087803b15801561046957600080fd5b505af115801561047d573d6000803e3d6000fd5b505050506040513d601f19601f820116820180604052508101906104a1919061260b565b6040517f815a2bf40000000000000000000000000000000000000000000000000000000081529091506001600160a01b038a169063815a2bf4906104eb908b9085906004016129e3565b600060405180830381600087803b15801561050557600080fd5b505af1158015610519573d6000803e3d6000fd5b50505050505050505050505050565b6001600160a01b03821660009081526020818152604080832084845290915290205481146105685760405162461bcd60e51b81526004016103ae90612cf9565b6040517ff941f6910000000000000000000000000000000000000000000000000000000081526001600160a01b0383169063f941f691906105b0908490600190600401612a37565b60206040518083038186803b1580156105c857600080fd5b505afa1580156105dc573d6000803e3d6000fd5b505050506040513d601f19601f82011682018060405250810190610600919061268a565b1561061d5760405162461bcd60e51b81526004016103ae90612baf565b6040517f30490e910000000000000000000000000000000000000000000000000000000081526001600160a01b038316906330490e91906106629084906004016129da565b600060405180830381600087803b15801561067c57600080fd5b505af1158015610690573d6000803e3d6000fd5b5050506001600160a01b0380841660009081526020818152604080832086845290915290206004810154600682015460028301549294506106d79391821692911690611cf1565b505050565b6000602081815292815260408082209093529081522080546001820154600283015460038401546004850154600586015460069096015494956001600160a01b03948516959394929391831692908116911687565b600160209081526000928352604080842090915290825290205481565b6001600160a01b038216600090815260208181526040808320848452909152902054811461078e5760405162461bcd60e51b81526004016103ae90612cf9565b6040517ff941f6910000000000000000000000000000000000000000000000000000000081526001600160a01b0383169063f941f691906107d6908490600290600401612a37565b60206040518083038186803b1580156107ee57600080fd5b505afa158015610802573d6000803e3d6000fd5b505050506040513d601f19601f82011682018060405250810190610826919061268a565b156108435760405162461bcd60e51b81526004016103ae90612d30565b6040517f17ba7d850000000000000000000000000000000000000000000000000000000081526000906001600160a01b038416906317ba7d85906108ab907f0e49311626a26ba5be58a3b13d239908e80ce0dffdd5c50bf1d9c82ff35d1ab3906004016129da565b60206040518083038186803b1580156108c357600080fd5b505afa1580156108d7573d6000803e3d6000fd5b505050506040513d601f19601f820116820180604052508101906108fb919061260b565b90506000816001600160a01b03166376225e7385856040518363ffffffff1660e01b815260040161092d929190612989565b602060405180830381600087803b15801561094757600080fd5b505af115801561095b573d6000803e3d6000fd5b505050506040513d601f19601f8201168201806040525081019061097f919061287e565b6001600160a01b03851660009081526020818152604080832087845290915290209091506002821415610cc6576040517f593e96b60000000000000000000000000000000000000000000000000000000081526000906001600160a01b0387169063593e96b690610a14907fea0ca03c7adbe41dc655fec28a9209dc8e6e042f3d991a67765ba285b9cf73a0906004016129da565b60206040518083038186803b158015610a2c57600080fd5b505afa158015610a40573d6000803e3d6000fd5b505050506040513d601f19601f82011682018060405250810190610a64919061260b565b600183015460058401546003850154929350610a8f9289926001600160a01b03908116921690611dfa565b60048201546001600160a01b031680610b295760028301546040517fc57d5fe90000000000000000000000000000000000000000000000000000000081526001600160a01b0384169163c57d5fe991610af29061dead9086908490600401612965565b6000604051808303818588803b158015610b0b57600080fd5b505af1158015610b1f573d6000803e3d6000fd5b5050505050610c4b565b60028301546040517fc57d5fe90000000000000000000000000000000000000000000000000000000081526001600160a01b0384169163c57d5fe991610b789161dead91869190600401612965565b600060405180830381600087803b158015610b9257600080fd5b505af1158015610ba6573d6000803e3d6000fd5b50505060028401546040517fa9059cbb0000000000000000000000000000000000000000000000000000000081528392506001600160a01b0383169163a9059cbb91610bf6918c91600401612989565b602060405180830381600087803b158015610c1057600080fd5b505af1158015610c24573d6000803e3d6000fd5b505050506040513d601f19601f82011682018060405250810190610c48919061268a565b50505b60038301546001808501546001600160a01b0390811660009081526020928352604080822060058901549093168252919092528120549091610c8c9161305a565b6001858101546001600160a01b0390811660009081526020928352604080822060058a015490931682529190925290205550610d1d915050565b8160031480610cd55750816001145b15610d0557600481015460068201546002830154610d00926001600160a01b03908116921690611cf1565b610d1d565b60405162461bcd60e51b81526004016103ae90612dfb565b6040517f30490e910000000000000000000000000000000000000000000000000000000081526001600160a01b038616906330490e9190610d629087906004016129da565b600060405180830381600087803b158015610d7c57600080fd5b505af1158015610d90573d6000803e3d6000fd5b505050505050505050565b6040517fef6a24990000000000000000000000000000000000000000000000000000000081526001600160a01b0386169063ef6a249990610de0908690600401612937565b60206040518083038186803b158015610df857600080fd5b505afa158015610e0c573d6000803e3d6000fd5b505050506040513d601f19601f82011682018060405250810190610e30919061268a565b610e4c5760405162461bcd60e51b81526004016103ae90612c1d565b6000856001600160a01b031663fd310d29610e87857fca5e51d871c2bd0fbb1f1e373766b041e8f8bc14987d5ac31c3115292d1338406120db565b6040518263ffffffff1660e01b8152600401610ea391906129da565b60206040518083038186803b158015610ebb57600080fd5b505afa158015610ecf573d6000803e3d6000fd5b505050506040513d601f19601f82011682018060405250810190610ef3919061260b565b90506001600160a01b038116610f2b5760003411610f235760405162461bcd60e51b81526004016103ae90612cc2565b34915061109d565b6040517fdd62ed3e000000000000000000000000000000000000000000000000000000008152819083906001600160a01b0383169063dd62ed3e90610f76903390309060040161294b565b60206040518083038186803b158015610f8e57600080fd5b505afa158015610fa2573d6000803e3d6000fd5b505050506040513d601f19601f82011682018060405250810190610fc6919061287e565b1015610fe45760405162461bcd60e51b81526004016103ae90612b78565b6040517f23b872dd0000000000000000000000000000000000000000000000000000000081526001600160a01b038216906323b872dd9061102d90339030908890600401612965565b602060405180830381600087803b15801561104757600080fd5b505af115801561105b573d6000803e3d6000fd5b505050506040513d601f19601f8201168201806040525081019061107f919061268a565b61109b5760405162461bcd60e51b81526004016103ae90612b41565b505b60006110ae8787868833888861210e565b9050828110156111c05760006110c482856131f0565b90506001600160a01b03831661110757604051339082156108fc029083906000818181858888f19350505050158015611101573d6000803e3d6000fd5b506111be565b6040517fa9059cbb00000000000000000000000000000000000000000000000000000000815283906001600160a01b0382169063a9059cbb906111509033908690600401612989565b602060405180830381600087803b15801561116a57600080fd5b505af115801561117e573d6000803e3d6000fd5b505050506040513d601f19601f820116820180604052508101906111a2919061268a565b610d905760405162461bcd60e51b81526004016103ae90612c54565b505b50505050505050565b6040517fac8359b80000000000000000000000000000000000000000000000000000000081526001600160a01b0383169063ac8359b890611210903390859060040161294b565b600060405180830381600087803b15801561122a57600080fd5b505af115801561123e573d6000803e3d6000fd5b505050505050565b60008115156112558585611cd4565b15151461129857811561127e5761126d8360026130cc565b611277908561305a565b905061129b565b6112898360026130cc565b61127790856131f0565b61129b565b50825b9392505050565b856000816001600160a01b031663c19d93fb6040518163ffffffff1660e01b815260040160206040518083038186803b1580156112de57600080fd5b505afa1580156112f2573d6000803e3d6000fd5b505050506040513d601f19601f82011682018060405250810190611316919061285f565b600181111561134e577f4e487b7100000000000000000000000000000000000000000000000000000000600052602160045260246000fd5b14806113ea57506040517f68c18beb0000000000000000000000000000000000000000000000000000000081526001600160a01b038216906368c18beb9061139a903390600401612937565b60206040518083038186803b1580156113b257600080fd5b505afa1580156113c6573d6000803e3d6000fd5b505050506040513d601f19601f820116820180604052508101906113ea919061268a565b6114065760405162461bcd60e51b81526004016103ae90612fec565b600083116114265760405162461bcd60e51b81526004016103ae90612eec565b600085116114465760405162461bcd60e51b81526004016103ae90613023565b600084116114665760405162461bcd60e51b81526004016103ae90612d67565b866001600160a01b031663da0f6c7061149f887f4db46213baf202d5a8ce8e25a9de875449eb3e84a2ada17e34244b3195e199fd6120db565b856040518363ffffffff1660e01b81526004016114bd929190612a4e565b600060405180830381600087803b1580156114d757600080fd5b505af11580156114eb573d6000803e3d6000fd5b50505050866001600160a01b031663da0f6c70611528887fa4de78b7a2e3ac2c4deb7d71d777f1d6eca4a7c95700e5cf48246bd8fef00f3d6120db565b876040518363ffffffff1660e01b8152600401611546929190612a4e565b600060405180830381600087803b15801561156057600080fd5b505af1158015611574573d6000803e3d6000fd5b50505050866001600160a01b031663da0f6c706115b1887fa1702fa142f46ec1dab933c7d773aa973cfef37c96457923e6d4b850458a648b6120db565b866040518363ffffffff1660e01b81526004016115cf929190612a4e565b600060405180830381600087803b1580156115e957600080fd5b505af11580156115fd573d6000803e3d6000fd5b50505050866001600160a01b0316633b4f921a61163a887fca5e51d871c2bd0fbb1f1e373766b041e8f8bc14987d5ac31c3115292d1338406120db565b846040518363ffffffff1660e01b81526004016116589291906129e3565b600060405180830381600087803b15801561167257600080fd5b505af1158015611686573d6000803e3d6000fd5b50506040517f593e96b6000000000000000000000000000000000000000000000000000000008152600092506001600160a01b038a16915063593e96b6906116f2907fea0ca03c7adbe41dc655fec28a9209dc8e6e042f3d991a67765ba285b9cf73a0906004016129da565b60206040518083038186803b15801561170a57600080fd5b505afa15801561171e573d6000803e3d6000fd5b505050506040513d601f19601f82011682018060405250810190611742919061260b565b6040517ff7e15acf0000000000000000000000000000000000000000000000000000000081529091506001600160a01b0382169063f7e15acf9061178a908a90600401612937565b600060405180830381600087803b1580156117a457600080fd5b505af11580156117b8573d6000803e3d6000fd5b50506040517f69af242f0000000000000000000000000000000000000000000000000000000081526001600160a01b03841692506369af242f9150611801908690600401612937565b600060405180830381600087803b15801561181b57600080fd5b505af115801561182f573d6000803e3d6000fd5b505050505050505050505050565b836000816001600160a01b031663fefbd8757fea0ca03c7adbe41dc655fec28a9209dc8e6e042f3d991a67765ba285b9cf73a06040518263ffffffff1660e01b815260040161188c91906129da565b60206040518083038186803b1580156118a457600080fd5b505afa1580156118b8573d6000803e3d6000fd5b505050506040513d601f19601f820116820180604052508101906118dc919061260b565b90506001600160a01b03811615611a29576040517fc89bb8ba0000000000000000000000000000000000000000000000000000000081526000906001600160a01b0384169063c89bb8ba90611935903390600401612937565b60206040518083038186803b15801561194d57600080fd5b505afa158015611961573d6000803e3d6000fd5b505050506040513d601f19601f82011682018060405250810190611985919061260b565b90506000826001600160a01b031663f7888aec83620ff1ce6040518363ffffffff1660e01b81526004016119ba92919061294b565b60206040518083038186803b1580156119d257600080fd5b505afa1580156119e6573d6000803e3d6000fd5b505050506040513d601f19601f82011682018060405250810190611a0a919061287e565b11611a275760405162461bcd60e51b81526004016103ae90612dc4565b505b6040517f45ecd02f0000000000000000000000000000000000000000000000000000000081526001600160a01b038316906345ecd02f90611a6e903390600401612937565b60206040518083038186803b158015611a8657600080fd5b505afa158015611a9a573d6000803e3d6000fd5b505050506040513d601f19601f82011682018060405250810190611abe919061268a565b611ada5760405162461bcd60e51b81526004016103ae90612dc4565b6001600160a01b0386166000908152602081815260408083208884529091529020548514611b1a5760405162461bcd60e51b81526004016103ae90612cf9565b6040517f17ba7d850000000000000000000000000000000000000000000000000000000081526000906001600160a01b038816906317ba7d8590611b82907f0e49311626a26ba5be58a3b13d239908e80ce0dffdd5c50bf1d9c82ff35d1ab3906004016129da565b60206040518083038186803b158015611b9a57600080fd5b505afa158015611bae573d6000803e3d6000fd5b505050506040513d601f19601f82011682018060405250810190611bd2919061260b565b6040517f2b0974d00000000000000000000000000000000000000000000000000000000081529091506001600160a01b03821690632b0974d090611c20908a908a908a908a90600401612a9d565b600060405180830381600087803b158015611c3a57600080fd5b505af1158015611c4e573d6000803e3d6000fd5b50506040517f815a2bf40000000000000000000000000000000000000000000000000000000081526001600160a01b038a16925063815a2bf49150611c9990899033906004016129e3565b600060405180830381600087803b158015611cb357600080fd5b505af1158015611cc7573d6000803e3d6000fd5b5050505050505050505050565b6000611ce7600260ff841685901c613207565b6001149392505050565b6001600160a01b038316611d3b576040516001600160a01b0383169082156108fc029083906000818181858888f19350505050158015611d35573d6000803e3d6000fd5b506106d7565b6040517f23b872dd00000000000000000000000000000000000000000000000000000000815283906001600160a01b038216906323b872dd90611d8690309087908790600401612965565b602060405180830381600087803b158015611da057600080fd5b505af1158015611db4573d6000803e3d6000fd5b505050506040513d601f19601f82011682018060405250810190611dd8919061268a565b611df45760405162461bcd60e51b81526004016103ae90612b41565b50505050565b6040517f593e96b60000000000000000000000000000000000000000000000000000000081526000906001600160a01b0386169063593e96b690611e62907fea0ca03c7adbe41dc655fec28a9209dc8e6e042f3d991a67765ba285b9cf73a0906004016129da565b60206040518083038186803b158015611e7a57600080fd5b505afa158015611e8e573d6000803e3d6000fd5b505050506040513d601f19601f82011682018060405250810190611eb2919061260b565b6040517f14a332160000000000000000000000000000000000000000000000000000000081529091506001600160a01b038216906314a3321690611efa908790600401612937565b60206040518083038186803b158015611f1257600080fd5b505afa158015611f26573d6000803e3d6000fd5b505050506040513d601f19601f82011682018060405250810190611f4a919061268a565b611f665760405162461bcd60e51b81526004016103ae90612fb7565b6040517fae7fdd670000000000000000000000000000000000000000000000000000000081526001600160a01b0386169063ae7fdd6790611fae9086906001906004016129a2565b60206040518083038186803b158015611fc657600080fd5b505afa158015611fda573d6000803e3d6000fd5b505050506040513d601f19601f82011682018060405250810190611ffe919061268a565b1561201b5760405162461bcd60e51b81526004016103ae90612f80565b6040517fdc929f4a0000000000000000000000000000000000000000000000000000000081526001600160a01b0386169063dc929f4a90612060908690600401612937565b600060405180830381600087803b15801561207a57600080fd5b505af115801561208e573d6000803e3d6000fd5b50506040517fc57d5fe90000000000000000000000000000000000000000000000000000000081526001600160a01b038416925063c57d5fe99150610d6290869088908790600401612965565b600082826040516020016120f0929190612989565b60405160208183030381529060405280519060200120905092915050565b600061211861258e565b886001600160a01b0316639283ae3a612151897fa4de78b7a2e3ac2c4deb7d71d777f1d6eca4a7c95700e5cf48246bd8fef00f3d6120db565b6040518263ffffffff1660e01b815260040161216d91906129da565b60206040518083038186803b15801561218557600080fd5b505afa158015612199573d6000803e3d6000fd5b505050506040513d601f19601f820116820180604052508101906121bd919061287e565b8082526121dc5760405162461bcd60e51b81526004016103ae90612eb5565b80516121e89085613072565b6020820181905261220b5760405162461bcd60e51b81526004016103ae90612f49565b886001600160a01b0316639283ae3a612244897fa1702fa142f46ec1dab933c7d773aa973cfef37c96457923e6d4b850458a648b6120db565b6040518263ffffffff1660e01b815260040161226091906129da565b60206040518083038186803b15801561227857600080fd5b505afa15801561228c573d6000803e3d6000fd5b505050506040513d601f19601f820116820180604052508101906122b0919061287e565b604082018190526122d35760405162461bcd60e51b81526004016103ae90612c8b565b805160208201516122e491906131b3565b6060820152604081015160208201516122fd91906131b3565b608082018190526001600160a01b038088166000908152600160209081526040808320938c1683529290522054612334919061305a565b60a08201526001600160a01b038916639283ae3a612372897f4db46213baf202d5a8ce8e25a9de875449eb3e84a2ada17e34244b3195e199fd6120db565b6040518263ffffffff1660e01b815260040161238e91906129da565b60206040518083038186803b1580156123a657600080fd5b505afa1580156123ba573d6000803e3d6000fd5b505050506040513d601f19601f820116820180604052508101906123de919061287e565b81604001518260a001516123f29190613072565b1061240f5760405162461bcd60e51b81526004016103ae90612e58565b6124278989898989866080015187606001518a612437565b6060015198975050505050505050565b6040517fb73dc3890000000000000000000000000000000000000000000000000000000081526001600160a01b0389169063b73dc3899061247c908a906004016129da565b600060405180830381600087803b15801561249657600080fd5b505af11580156124aa573d6000803e3d6000fd5b50506040805160e0810182528a81526001600160a01b03998a16602080830191825282840197885260608301988952958b1660808301908152998b1660a08301908152988b1660c083019081529c8b1660009081528087528381209c81529b9095529920985189555050516001870180547fffffffffffffffffffffffff00000000000000000000000000000000000000009081169288169290921790559051600287015590516003860155915160048501805484169185169190911790555160058401805483169184169190911790559251600690920180549093169116179055565b6040518060c001604052806000815260200160008152602001600081526020016000815260200160008152602001600081525090565b60008083601f8401126125d5578182fd5b50813567ffffffffffffffff8111156125ec578182fd5b60208301915083602082850101111561260457600080fd5b9250929050565b60006020828403121561261c578081fd5b815161129b81613390565b60008060408385031215612639578081fd5b823561264481613390565b9150602083013561265481613390565b809150509250929050565b60008060408385031215612671578182fd5b823561267c81613390565b946020939093013593505050565b60006020828403121561269b578081fd5b815161129b816133a8565b60008060408385031215612639578182fd5b60008060008060008060c087890312156126d0578182fd5b86356126db81613390565b955060208701356126eb81613390565b945060408701359350606087013592506080870135915060a087013561271081613390565b809150509295509295509295565b600080600080600060a08688031215612735578081fd5b853561274081613390565b945060208601359350604086013561275781613390565b9250606086013561276781613390565b949793965091946080013592915050565b600080600080600080600060c0888a031215612792578081fd5b873561279d81613390565b96506020880135955060408801356127b481613390565b945060608801356127c481613390565b93506080880135925060a088013567ffffffffffffffff8111156127e6578182fd5b6127f28a828b016125c4565b989b979a50959850939692959293505050565b6000806000806060858703121561281a578384fd5b843561282581613390565b935060208501359250604085013567ffffffffffffffff811115612847578283fd5b612853878288016125c4565b95989497509550505050565b600060208284031215612870578081fd5b81516002811061129b578182fd5b60006020828403121561288f578081fd5b5051919050565b600080604083850312156128a8578182fd5b50508035926020909101359150565b6000806000606084860312156128cb578081fd5b833592506020840135915060408401356128e4816133a8565b809150509250925092565b600082845282826020860137806020848601015260207fffffffffffffffffffffffffffffffffffffffffffffffffffffffffffffffe0601f85011685010190509392505050565b6001600160a01b0391909116815260200190565b6001600160a01b0392831681529116602082015260400190565b6001600160a01b039384168152919092166020820152604081019190915260600190565b6001600160a01b03929092168252602082015260400190565b6001600160a01b038316815260408101600283106129c2576129c2613279565b8260208301529392505050565b901515815260200190565b90815260200190565b9182526001600160a01b0316602082015260400190565b9687526001600160a01b0395861660208801526040870194909452606086019290925283166080850152821660a08401521660c082015260e00190565b82815260408101600383106129c2576129c2613279565b918252602082015260400190565b60006001600160a01b038088168352808716602084015260806040840152612a886080840186886128ef565b91508084166060840152509695505050505050565b60006001600160a01b038616825284602083015260606040830152612ac66060830184866128ef565b9695505050505050565b6000602080835283518082850152825b81811015612afc57858101830151858201604001528201612ae0565b81811115612b0d5783604083870101525b50601f017fffffffffffffffffffffffffffffffffffffffffffffffffffffffffffffffe016929092016040019392505050565b60208082526019908201527f4552433230206661696c6564207472616e7366657246726f6d00000000000000604082015260600190565b6020808252601a908201527f4552433230207472616e73666572206e6f7420616c6c6f776564000000000000604082015260600190565b6020808252601a908201527f70726f706f73616c20616c72656164792073706f6e736f726564000000000000604082015260600190565b60208082526018908201527f73797374656d206572726f722066726f6d20766f74696e670000000000000000604082015260600190565b6020808252601d908201527f6170706c6963616e742069732072657365727665642061646472657373000000604082015260600190565b60208082526015908201527f4552433230206661696c6564207472616e736665720000000000000000000000604082015260600190565b6020808252601d908201527f636f6e666967207368617265735065724368756e6b206d697373696e67000000604082015260600190565b6020808252600e908201527f6e6f7420656e6f75676820455448000000000000000000000000000000000000604082015260600190565b60208082526017908201527f70726f706f73616c20646f6573206e6f74206578697374000000000000000000604082015260600190565b6020808252601a908201527f70726f706f73616c20616c72656164792070726f636573736564000000000000604082015260600190565b60208082526024908201527f7368617265735065724368756e6b206d7573742062652068696768657220746860408201527f616e203000000000000000000000000000000000000000000000000000000000606082015260800190565b6020808252600a908201527f6f6e6c794d656d62657200000000000000000000000000000000000000000000604082015260600190565b60208082526022908201527f70726f706f73616c20686173206e6f74206265656e20766f746564206f6e207960408201527f6574000000000000000000000000000000000000000000000000000000000000606082015260800190565b6020808252603b908201527f746f74616c2073686172657320666f722074686973206d656d626572206d757360408201527f74206265206c6f776572207468616e20746865206d6178696d756d0000000000606082015260800190565b60208082526018908201527f636f6e666967206368756e6b53697a65206d697373696e670000000000000000604082015260600190565b60208082526023908201527f6d6178696d756d4368756e6b73206d757374206265206869676865722074686160408201527f6e20300000000000000000000000000000000000000000000000000000000000606082015260800190565b60208082526014908201527f6e6f742073756666696369656e742066756e6473000000000000000000000000604082015260600190565b6020808252601c908201527f63616e6e6f742070726f63657373206a61696c6564206d656d62657200000000604082015260600190565b6020808252818101527f69742063616e206f6e6c79206d696e7420696e7465726e616c20746f6b656e73604082015260600190565b6020808252600b908201527f6f6e6c7941646170746572000000000000000000000000000000000000000000604082015260600190565b6020808252601f908201527f6368756e6b53697a65206d75737420626520686967686572207468616e203000604082015260600190565b6000821982111561306d5761306d61321b565b500190565b6000826130815761308161324a565b500490565b80825b600180861161309857506130c3565b8187048211156130aa576130aa61321b565b808616156130b757918102915b9490941c938002613089565b94509492505050565b600061129b7fffffffffffffffffffffffffffffffffffffffffffffffffffffffffffffffff84846000826131035750600161129b565b816131105750600061129b565b816001811461312657600281146131305761315d565b600191505061129b565b60ff8411156131415761314161321b565b6001841b9150848211156131575761315761321b565b5061129b565b5060208310610133831016604e8410600b841016171561318b575081810a838111156112935761129361321b565b6131988484846001613086565b8086048211156131aa576131aa61321b565b02949350505050565b6000817fffffffffffffffffffffffffffffffffffffffffffffffffffffffffffffffff04831182151516156131eb576131eb61321b565b500290565b6000828210156132025761320261321b565b500390565b6000826132165761321661324a565b500690565b7f4e487b7100000000000000000000000000000000000000000000000000000000600052601160045260246000fd5b7f4e487b7100000000000000000000000000000000000000000000000000000000600052601260045260246000fd5b7f4e487b7100000000000000000000000000000000000000000000000000000000600052602160045260246000fd5b60e01c90565b600060443d10156132be5761338d565b600481823e6308c379a06132d282516132a8565b146132dc5761338d565b6040517ffffffffffffffffffffffffffffffffffffffffffffffffffffffffffffffffc3d016004823e80513d67ffffffffffffffff816024840111818411171561332a575050505061338d565b82840192508251915080821115613344575050505061338d565b503d8301602082840101111561335c5750505061338d565b601f017fffffffffffffffffffffffffffffffffffffffffffffffffffffffffffffffe01681016020016040529150505b90565b6001600160a01b03811681146133a557600080fd5b50565b80151581146133a557600080fdfea26469706673582212206f1cc64cc6d9b61ba7e2f12d46e6554b57a5bcdd53d124817f829183c182e54a64736f6c63430008000033",
  "immutableReferences": {},
  "source": "pragma solidity ^0.8.0;\n\n// SPDX-License-Identifier: MIT\n\nimport \"./interfaces/IOnboarding.sol\";\nimport \"../core/DaoConstants.sol\";\nimport \"../core/DaoRegistry.sol\";\nimport \"../extensions/Bank.sol\";\nimport \"../adapters/interfaces/IVoting.sol\";\nimport \"../guards/MemberGuard.sol\";\nimport \"../guards/AdapterGuard.sol\";\nimport \"../utils/IERC20.sol\";\n\n/**\nMIT License\n\nCopyright (c) 2020 Openlaw\n\nPermission is hereby granted, free of charge, to any person obtaining a copy\nof this software and associated documentation files (the \"Software\"), to deal\nin the Software without restriction, including without limitation the rights\nto use, copy, modify, merge, publish, distribute, sublicense, and/or sell\ncopies of the Software, and to permit persons to whom the Software is\nfurnished to do so, subject to the following conditions:\n\nThe above copyright notice and this permission notice shall be included in all\ncopies or substantial portions of the Software.\n\nTHE SOFTWARE IS PROVIDED \"AS IS\", WITHOUT WARRANTY OF ANY KIND, EXPRESS OR\nIMPLIED, INCLUDING BUT NOT LIMITED TO THE WARRANTIES OF MERCHANTABILITY,\nFITNESS FOR A PARTICULAR PURPOSE AND NONINFRINGEMENT. IN NO EVENT SHALL THE\nAUTHORS OR COPYRIGHT HOLDERS BE LIABLE FOR ANY CLAIM, DAMAGES OR OTHER\nLIABILITY, WHETHER IN AN ACTION OF CONTRACT, TORT OR OTHERWISE, ARISING FROM,\nOUT OF OR IN CONNECTION WITH THE SOFTWARE OR THE USE OR OTHER DEALINGS IN THE\nSOFTWARE.\n */\n\ncontract OnboardingContract is\n    IOnboarding,\n    DaoConstants,\n    MemberGuard,\n    AdapterGuard\n{\n    bytes32 constant ChunkSize = keccak256(\"onboarding.chunkSize\");\n    bytes32 constant SharesPerChunk = keccak256(\"onboarding.sharesPerChunk\");\n    bytes32 constant TokenAddr = keccak256(\"onboarding.tokenAddr\");\n    bytes32 constant MaximumChunks = keccak256(\"onboarding.maximumChunks\");\n\n    struct ProposalDetails {\n        bytes32 id;\n        address tokenToMint;\n        uint256 amount;\n        uint256 sharesRequested;\n        address token;\n        address payable applicant;\n        address payable proposer;\n    }\n\n    struct OnboardingDetails {\n        uint256 chunkSize;\n        uint256 numberOfChunks;\n        uint256 sharesPerChunk;\n        uint256 amount;\n        uint256 sharesRequested;\n        uint256 totalShares;\n    }\n\n    mapping(address => mapping(bytes32 => ProposalDetails)) public proposals;\n    mapping(address => mapping(address => uint256)) public shares;\n\n    function configKey(address tokenAddrToMint, bytes32 key)\n        internal\n        pure\n        returns (bytes32)\n    {\n        return keccak256(abi.encode(tokenAddrToMint, key));\n    }\n\n    function configureDao(\n        DaoRegistry dao,\n        address tokenAddrToMint,\n        uint256 chunkSize,\n        uint256 sharesPerChunk,\n        uint256 maximumChunks,\n        address tokenAddr\n    ) external onlyAdapter(dao) {\n        require(maximumChunks > 0, \"maximumChunks must be higher than 0\");\n        require(chunkSize > 0, \"chunkSize must be higher than 0\");\n        require(sharesPerChunk > 0, \"sharesPerChunk must be higher than 0\");\n\n        dao.setConfiguration(\n            configKey(tokenAddrToMint, MaximumChunks),\n            maximumChunks\n        );\n        dao.setConfiguration(configKey(tokenAddrToMint, ChunkSize), chunkSize);\n        dao.setConfiguration(\n            configKey(tokenAddrToMint, SharesPerChunk),\n            sharesPerChunk\n        );\n        dao.setAddressConfiguration(\n            configKey(tokenAddrToMint, TokenAddr),\n            tokenAddr\n        );\n\n        BankExtension bank = BankExtension(dao.getExtensionAddress(BANK));\n\n        bank.registerPotentialNewInternalToken(tokenAddrToMint);\n        bank.registerPotentialNewToken(tokenAddr);\n    }\n\n    function _submitMembershipProposal(\n        DaoRegistry dao,\n        bytes32 proposalId,\n        address tokenToMint,\n        address payable applicant,\n        address payable proposer,\n        uint256 value,\n        address token\n    ) internal returns (uint256) {\n        OnboardingDetails memory details;\n        details.chunkSize = dao.getConfiguration(\n            configKey(tokenToMint, ChunkSize)\n        );\n        require(details.chunkSize > 0, \"config chunkSize missing\");\n\n        details.numberOfChunks = value / details.chunkSize;\n        require(details.numberOfChunks > 0, \"not sufficient funds\");\n\n        details.sharesPerChunk = dao.getConfiguration(\n            configKey(tokenToMint, SharesPerChunk)\n        );\n        require(details.sharesPerChunk > 0, \"config sharesPerChunk missing\");\n        details.amount = details.numberOfChunks * details.chunkSize;\n        details.sharesRequested =\n            details.numberOfChunks *\n            details.sharesPerChunk;\n        details.totalShares =\n            shares[applicant][tokenToMint] +\n            details.sharesRequested;\n\n        require(\n            details.totalShares / details.sharesPerChunk <\n                dao.getConfiguration(configKey(tokenToMint, MaximumChunks)),\n            \"total shares for this member must be lower than the maximum\"\n        );\n\n        _submitMembershipProposalInternal(\n            dao,\n            proposalId,\n            tokenToMint,\n            applicant,\n            proposer,\n            details.sharesRequested,\n            details.amount,\n            token\n        );\n\n        return details.amount;\n    }\n\n    function onboardAndSponsor(\n        DaoRegistry dao,\n        bytes32 proposalId,\n        address payable applicant,\n        address tokenToMint,\n        uint256 tokenAmount,\n        bytes calldata data\n    ) external payable {\n        onboard(dao, proposalId, applicant, tokenToMint, tokenAmount);\n\n        IVoting votingContract = IVoting(dao.getAdapterAddress(VOTING));\n        try\n            votingContract.startNewVotingForProposal(dao, proposalId, data)\n        {} catch Error(string memory reason) {\n            revert(reason);\n        } catch (\n            bytes memory /*lowLevelData*/\n        ) {\n            revert(\"system error from voting\");\n        }\n\n        address submittedBy =\n            votingContract.getSenderAddress(\n                dao,\n                address(this),\n                data,\n                msg.sender\n            );\n\n        dao.sponsorProposal(proposalId, submittedBy);\n    }\n\n    function onboard(\n        DaoRegistry dao,\n        bytes32 proposalId,\n        address payable applicant,\n        address tokenToMint,\n        uint256 tokenAmount\n    ) public payable override {\n        require(\n            dao.isNotReservedAddress(applicant),\n            \"applicant is reserved address\"\n        );\n        address tokenAddr =\n            dao.getAddressConfiguration(configKey(tokenToMint, TokenAddr));\n        if (tokenAddr == ETH_TOKEN) {\n            // ETH onboarding\n            require(msg.value > 0, \"not enough ETH\");\n            // If the applicant sends ETH to onboard, use the msg.value as default token amount\n            tokenAmount = msg.value;\n        } else {\n            IERC20 token = IERC20(tokenAddr);\n            // ERC20 onboarding\n            require(\n                token.allowance(msg.sender, address(this)) >= tokenAmount,\n                \"ERC20 transfer not allowed\"\n            );\n            require(\n                token.transferFrom(msg.sender, address(this), tokenAmount),\n                \"ERC20 failed transferFrom\"\n            );\n        }\n\n        uint256 amountUsed =\n            _submitMembershipProposal(\n                dao,\n                proposalId,\n                tokenToMint,\n                applicant,\n                payable(msg.sender),\n                tokenAmount,\n                tokenAddr\n            );\n\n        if (amountUsed < tokenAmount) {\n            uint256 amount = tokenAmount - amountUsed;\n            if (tokenAddr == ETH_TOKEN) {\n                payable(msg.sender).transfer(amount);\n            } else {\n                IERC20 token = IERC20(tokenAddr);\n                require(\n                    token.transfer(msg.sender, amount),\n                    \"ERC20 failed transfer\"\n                );\n            }\n        }\n    }\n\n    function updateDelegateKey(DaoRegistry dao, address delegateKey) external {\n        dao.updateDelegateKey(msg.sender, delegateKey);\n    }\n\n    function _submitMembershipProposalInternal(\n        DaoRegistry dao,\n        bytes32 proposalId,\n        address tokenToMint,\n        address payable newMember,\n        address payable proposer,\n        uint256 sharesRequested,\n        uint256 amount,\n        address token\n    ) internal {\n        dao.submitProposal(proposalId);\n        proposals[address(dao)][proposalId] = ProposalDetails(\n            proposalId,\n            tokenToMint,\n            amount,\n            sharesRequested,\n            token,\n            newMember,\n            proposer\n        );\n    }\n\n    function sponsorProposal(\n        DaoRegistry dao,\n        bytes32 proposalId,\n        bytes calldata data\n    ) external override onlyMember(dao) {\n        require(\n            proposals[address(dao)][proposalId].id == proposalId,\n            \"proposal does not exist\"\n        );\n\n        IVoting votingContract = IVoting(dao.getAdapterAddress(VOTING));\n        votingContract.startNewVotingForProposal(dao, proposalId, data);\n\n        dao.sponsorProposal(proposalId, msg.sender);\n    }\n\n    function cancelProposal(DaoRegistry dao, bytes32 proposalId)\n        external\n        override\n    {\n        require(\n            proposals[address(dao)][proposalId].id == proposalId,\n            \"proposal does not exist\"\n        );\n\n        require(\n            !dao.getProposalFlag(\n                proposalId,\n                DaoRegistry.ProposalFlag.SPONSORED\n            ),\n            \"proposal already sponsored\"\n        );\n\n        dao.processProposal(proposalId);\n\n        ProposalDetails storage proposal = proposals[address(dao)][proposalId];\n        _refundTribute(proposal.token, proposal.proposer, proposal.amount);\n    }\n\n    function processProposal(DaoRegistry dao, bytes32 proposalId)\n        external\n        override\n    {\n        require(\n            proposals[address(dao)][proposalId].id == proposalId,\n            \"proposal does not exist\"\n        );\n        require(\n            !dao.getProposalFlag(\n                proposalId,\n                DaoRegistry.ProposalFlag.PROCESSED\n            ),\n            \"proposal already processed\"\n        );\n\n        IVoting votingContract = IVoting(dao.getAdapterAddress(VOTING));\n        uint256 voteResult = votingContract.voteResult(dao, proposalId);\n        ProposalDetails storage proposal = proposals[address(dao)][proposalId];\n        if (voteResult == 2) {\n            BankExtension bank = BankExtension(dao.getExtensionAddress(BANK));\n            _mintTokensToMember(\n                dao,\n                proposal.tokenToMint,\n                proposal.applicant,\n                proposal.sharesRequested\n            );\n\n            address token = proposal.token;\n            if (token == ETH_TOKEN) {\n                bank.addToBalance{value: proposal.amount}(\n                    GUILD,\n                    token,\n                    proposal.amount\n                );\n            } else {\n                bank.addToBalance(GUILD, token, proposal.amount);\n\n                IERC20 erc20 = IERC20(token);\n                erc20.transfer(address(dao), proposal.amount);\n            }\n\n            uint256 totalShares =\n                shares[proposal.tokenToMint][proposal.applicant] +\n                    proposal.sharesRequested;\n\n            shares[proposal.tokenToMint][proposal.applicant] = totalShares;\n        } else if (voteResult == 3 || voteResult == 1) {\n            _refundTribute(proposal.token, proposal.proposer, proposal.amount);\n        } else {\n            revert(\"proposal has not been voted on yet\");\n        }\n\n        dao.processProposal(proposalId);\n    }\n\n    function _refundTribute(\n        address tokenAddr,\n        address payable proposer,\n        uint256 amount\n    ) internal {\n        if (tokenAddr == ETH_TOKEN) {\n            proposer.transfer(amount);\n        } else {\n            IERC20 token = IERC20(tokenAddr);\n            require(\n                token.transferFrom(address(this), proposer, amount),\n                \"ERC20 failed transferFrom\"\n            );\n        }\n    }\n\n    function _mintTokensToMember(\n        DaoRegistry dao,\n        address tokenToMint,\n        address memberAddr,\n        uint256 tokenAmount\n    ) internal {\n        BankExtension bank = BankExtension(dao.getExtensionAddress(BANK));\n        require(\n            bank.isInternalToken(tokenToMint),\n            \"it can only mint internal tokens\"\n        );\n\n        require(\n            !dao.getMemberFlag(memberAddr, DaoRegistry.MemberFlag.JAILED),\n            \"cannot process jailed member\"\n        );\n\n        dao.potentialNewMember(memberAddr);\n\n        bank.addToBalance(memberAddr, tokenToMint, tokenAmount);\n    }\n}\n",
  "sourcePath": "/Users/jtrein/code/laoland/contracts/adapters/Onboarding.sol",
  "compiler": {
    "name": "solc",
    "version": "0.8.0+commit.c7dfd78e.Emscripten.clang"
  },
  "schemaVersion": "3.3.3",
  "updatedAt": "2021-01-28T13:27:44.302Z",
  "devdoc": {
    "kind": "dev",
    "methods": {},
    "version": 1
  },
  "userdoc": {
    "kind": "user",
    "methods": {},
    "notice": "MIT License Copyright (c) 2020 Openlaw Permission is hereby granted, free of charge, to any person obtaining a copy of this software and associated documentation files (the \"Software\"), to deal in the Software without restriction, including without limitation the rights to use, copy, modify, merge, publish, distribute, sublicense, and/or sell copies of the Software, and to permit persons to whom the Software is furnished to do so, subject to the following conditions: The above copyright notice and this permission notice shall be included in all copies or substantial portions of the Software. THE SOFTWARE IS PROVIDED \"AS IS\", WITHOUT WARRANTY OF ANY KIND, EXPRESS OR IMPLIED, INCLUDING BUT NOT LIMITED TO THE WARRANTIES OF MERCHANTABILITY, FITNESS FOR A PARTICULAR PURPOSE AND NONINFRINGEMENT. IN NO EVENT SHALL THE AUTHORS OR COPYRIGHT HOLDERS BE LIABLE FOR ANY CLAIM, DAMAGES OR OTHER LIABILITY, WHETHER IN AN ACTION OF CONTRACT, TORT OR OTHERWISE, ARISING FROM, OUT OF OR IN CONNECTION WITH THE SOFTWARE OR THE USE OR OTHER DEALINGS IN THE SOFTWARE.",
    "version": 1
  }
}