{
  "contractName": "RagequitContract",
  "abi": [
    {
      "anonymous": false,
      "inputs": [
        {
          "indexed": false,
          "internalType": "address",
          "name": "memberAddr",
          "type": "address"
        },
        {
          "indexed": false,
          "internalType": "uint256",
          "name": "burnedShares",
          "type": "uint256"
        },
        {
          "indexed": false,
          "internalType": "uint256",
          "name": "burnedLoot",
          "type": "uint256"
        },
        {
          "indexed": false,
          "internalType": "uint256",
          "name": "initialTotalSharesAndLoot",
          "type": "uint256"
        }
      ],
      "name": "MemberRagequit",
      "type": "event"
    },
    {
      "inputs": [
        {
          "internalType": "uint256",
          "name": "flags",
          "type": "uint256"
        },
        {
          "internalType": "uint256",
          "name": "flag",
          "type": "uint256"
        }
      ],
      "name": "getFlag",
      "outputs": [
        {
          "internalType": "bool",
          "name": "",
          "type": "bool"
        }
      ],
      "stateMutability": "pure",
      "type": "function"
    },
    {
      "inputs": [
        {
          "internalType": "uint256",
          "name": "flags",
          "type": "uint256"
        },
        {
          "internalType": "uint256",
          "name": "flag",
          "type": "uint256"
        },
        {
          "internalType": "bool",
          "name": "value",
          "type": "bool"
        }
      ],
      "name": "setFlag",
      "outputs": [
        {
          "internalType": "uint256",
          "name": "",
          "type": "uint256"
        }
      ],
      "stateMutability": "pure",
      "type": "function"
    },
    {
      "stateMutability": "payable",
      "type": "receive"
    },
    {
      "inputs": [
        {
          "internalType": "contract DaoRegistry",
          "name": "dao",
          "type": "address"
        },
        {
          "internalType": "uint256",
          "name": "sharesToBurn",
          "type": "uint256"
        },
        {
          "internalType": "uint256",
          "name": "lootToBurn",
          "type": "uint256"
        },
        {
          "internalType": "address[]",
          "name": "tokens",
          "type": "address[]"
        }
      ],
      "name": "ragequit",
      "outputs": [],
      "stateMutability": "nonpayable",
      "type": "function"
    }
  ],
  "bytecode": "0x608060405234801561001057600080fd5b50611399806100206000396000f3fe6080604052600436106100385760003560e01c8063b244a41d1461007d578063ed0cdf15146100b3578063fc258031146100d557610078565b36610078576040517f08c379a000000000000000000000000000000000000000000000000000000000815260040161006f9061103b565b60405180910390fd5b600080fd5b34801561008957600080fd5b5061009d610098366004610d98565b610102565b6040516100aa9190610f1f565b60405180910390f35b3480156100bf57600080fd5b506100d36100ce366004610c78565b61015e565b005b3480156100e157600080fd5b506100f56100f0366004610d77565b6105aa565b6040516100aa9190610f14565b600081151561011185856105aa565b15151461015457811561013a5761012983600261111b565b61013390856110a9565b9050610157565b61014583600261111b565b610133908561123f565b610157565b50825b9392505050565b600061016a83856110a9565b116101a1576040517f08c379a000000000000000000000000000000000000000000000000000000000815260040161006f90610f96565b6040517fc89bb8ba00000000000000000000000000000000000000000000000000000000815260009073ffffffffffffffffffffffffffffffffffffffff86169063c89bb8ba906101f6903390600401610dd0565b60206040518083038186803b15801561020e57600080fd5b505afa158015610222573d6000803e3d6000fd5b505050506040513d601f19601f820116820180604052508101906102469190610c40565b6040517fae7fdd6700000000000000000000000000000000000000000000000000000000815290915073ffffffffffffffffffffffffffffffffffffffff86169063ae7fdd679061029e908490600190600401610e80565b60206040518083038186803b1580156102b657600080fd5b505afa1580156102ca573d6000803e3d6000fd5b505050506040513d601f19601f820116820180604052508101906102ee9190610c5c565b15610325576040517f08c379a000000000000000000000000000000000000000000000000000000000815260040161006f90610f5f565b6040517f593e96b600000000000000000000000000000000000000000000000000000000815260009073ffffffffffffffffffffffffffffffffffffffff87169063593e96b69061039a907fea0ca03c7adbe41dc655fec28a9209dc8e6e042f3d991a67765ba285b9cf73a090600401610f1f565b60206040518083038186803b1580156103b257600080fd5b505afa1580156103c6573d6000803e3d6000fd5b505050506040513d601f19601f820116820180604052508101906103ea9190610c40565b9050848173ffffffffffffffffffffffffffffffffffffffff1663f7888aec84620ff1ce6040518363ffffffff1660e01b815260040161042b929190610df1565b60206040518083038186803b15801561044357600080fd5b505afa158015610457573d6000803e3d6000fd5b505050506040513d601f19601f8201168201806040525081019061047b9190610d5f565b10156104b3576040517f08c379a000000000000000000000000000000000000000000000000000000000815260040161006f90611004565b6040517ff7888aec000000000000000000000000000000000000000000000000000000008152849073ffffffffffffffffffffffffffffffffffffffff83169063f7888aec9061050d90869063b105f00d90600401610df1565b60206040518083038186803b15801561052557600080fd5b505afa158015610539573d6000803e3d6000fd5b505050506040513d601f19601f8201168201806040525081019061055d9190610d5f565b1015610595576040517f08c379a000000000000000000000000000000000000000000000000000000000815260040161006f90611072565b6105a282868686856105c7565b505050505050565b60006105bd600260ff841685901c61128f565b6001149392505050565b6040517ff7888aec00000000000000000000000000000000000000000000000000000000815260009073ffffffffffffffffffffffffffffffffffffffff83169063f7888aec906106249061babe9063baaaaaad90600401610df1565b60206040518083038186803b15801561063c57600080fd5b505afa158015610650573d6000803e3d6000fd5b505050506040513d601f19601f820116820180604052508101906106749190610d5f565b6040517ff7888aec00000000000000000000000000000000000000000000000000000000815273ffffffffffffffffffffffffffffffffffffffff84169063f7888aec906106ce9061babe9063b105f00d90600401610df1565b60206040518083038186803b1580156106e657600080fd5b505afa1580156106fa573d6000803e3d6000fd5b505050506040513d601f19601f8201168201806040525081019061071e9190610d5f565b6040517ff7888aec00000000000000000000000000000000000000000000000000000000815273ffffffffffffffffffffffffffffffffffffffff85169063f7888aec906107779061babe90620ff1ce90600401610df1565b60206040518083038186803b15801561078f57600080fd5b505afa1580156107a3573d6000803e3d6000fd5b505050506040513d601f19601f820116820180604052508101906107c79190610d5f565b6107d191906110a9565b6107db91906110a9565b6040517fe3a05cc100000000000000000000000000000000000000000000000000000000815290915073ffffffffffffffffffffffffffffffffffffffff83169063e3a05cc190610837908990620ff1ce908a90600401610e4f565b600060405180830381600087803b15801561085157600080fd5b505af1158015610865573d6000803e3d6000fd5b50506040517fe3a05cc100000000000000000000000000000000000000000000000000000000815273ffffffffffffffffffffffffffffffffffffffff8516925063e3a05cc191506108c390899063b105f00d908990600401610e4f565b600060405180830381600087803b1580156108dd57600080fd5b505af11580156108f1573d6000803e3d6000fd5b505050506105a2868686848787600061090a85876110a9565b905060005b8351811015610b5f576000848281518110610953577f4e487b7100000000000000000000000000000000000000000000000000000000600052603260045260246000fd5b602002602001015190508373ffffffffffffffffffffffffffffffffffffffff1663f9eaee0d826040518263ffffffff1660e01b81526004016109969190610dd0565b60206040518083038186803b1580156109ae57600080fd5b505afa1580156109c2573d6000803e3d6000fd5b505050506040513d601f19601f820116820180604052508101906109e69190610c5c565b610a1c576040517f08c379a000000000000000000000000000000000000000000000000000000000815260040161006f90610f28565b6000610ab58573ffffffffffffffffffffffffffffffffffffffff1663f7888aec61dead856040518363ffffffff1660e01b8152600401610a5e929190610df1565b60206040518083038186803b158015610a7657600080fd5b505afa158015610a8a573d6000803e3d6000fd5b505050506040513d601f19601f82011682018060405250810190610aae9190610d5f565b8589610ba6565b90508015610b4a576040517f44a29e2a00000000000000000000000000000000000000000000000000000000815273ffffffffffffffffffffffffffffffffffffffff8616906344a29e2a90610b179061dead908e9087908790600401610e18565b600060405180830381600087803b158015610b3157600080fd5b505af1158015610b45573d6000803e3d6000fd5b505050505b50508080610b5790611256565b91505061090f565b507f909c16b9125501817a880388e0aa2ef17ebd406f416be8d7cd1ac08777ec954387878787604051610b959493929190610ee1565b60405180910390a150505050505050565b600081610bdf576040517f08c379a000000000000000000000000000000000000000000000000000000000815260040161006f90610fcd565b83610bec57506000610157565b83830283610bfa86836110c1565b1415610c1257610c0a83826110c1565b915050610157565b83610c1d84876110c1565b610c279190611202565b95945050505050565b8035610c3b81611330565b919050565b600060208284031215610c51578081fd5b815161015781611330565b600060208284031215610c6d578081fd5b815161015781611355565b60008060008060808587031215610c8d578283fd5b8435610c9881611330565b9350602085810135935060408601359250606086013567ffffffffffffffff80821115610cc3578384fd5b818801915088601f830112610cd6578384fd5b813581811115610ce857610ce8611301565b83810260405185828201018181108582111715610d0757610d07611301565b604052828152858101935084860182860187018d1015610d25578788fd5b8795505b83861015610d4e57610d3a81610c30565b855260019590950194938601938601610d29565b50989b979a50959850505050505050565b600060208284031215610d70578081fd5b5051919050565b60008060408385031215610d89578182fd5b50508035926020909101359150565b600080600060608486031215610dac578283fd5b83359250602084013591506040840135610dc581611355565b809150509250925092565b73ffffffffffffffffffffffffffffffffffffffff91909116815260200190565b73ffffffffffffffffffffffffffffffffffffffff92831681529116602082015260400190565b73ffffffffffffffffffffffffffffffffffffffff9485168152928416602084015292166040820152606081019190915260800190565b73ffffffffffffffffffffffffffffffffffffffff9384168152919092166020820152604081019190915260600190565b73ffffffffffffffffffffffffffffffffffffffff831681526040810160028310610ed4577f4e487b7100000000000000000000000000000000000000000000000000000000600052602160045260246000fd5b8260208301529392505050565b73ffffffffffffffffffffffffffffffffffffffff94909416845260208401929092526040830152606082015260800190565b901515815260200190565b90815260200190565b60208082526011908201527f746f6b656e206e6f7420616c6c6f776564000000000000000000000000000000604082015260600190565b6020808252601e908201527f6a61696c6564206d656d6265722063616e206e6f742072616765717569740000604082015260600190565b60208082526018908201527f696e73756666696369656e74207368617265732f6c6f6f740000000000000000604082015260600190565b6020808252601c908201527f746f74616c207368617265732073686f756c64206e6f74206265203000000000604082015260600190565b60208082526013908201527f696e73756666696369656e742073686172657300000000000000000000000000604082015260600190565b6020808252600f908201527f66616c6c6261636b207265766572740000000000000000000000000000000000604082015260600190565b60208082526011908201527f696e73756666696369656e74206c6f6f74000000000000000000000000000000604082015260600190565b600082198211156110bc576110bc6112a3565b500190565b6000826110d0576110d06112d2565b500490565b80825b60018086116110e75750611112565b8187048211156110f9576110f96112a3565b8086161561110657918102915b9490941c9380026110d8565b94509492505050565b60006101577fffffffffffffffffffffffffffffffffffffffffffffffffffffffffffffffff848460008261115257506001610157565b8161115f57506000610157565b8160018114611175576002811461117f576111ac565b6001915050610157565b60ff841115611190576111906112a3565b6001841b9150848211156111a6576111a66112a3565b50610157565b5060208310610133831016604e8410600b84101617156111da575081810a8381111561014f5761014f6112a3565b6111e784848460016110d5565b8086048211156111f9576111f96112a3565b02949350505050565b6000817fffffffffffffffffffffffffffffffffffffffffffffffffffffffffffffffff048311821515161561123a5761123a6112a3565b500290565b600082821015611251576112516112a3565b500390565b60007fffffffffffffffffffffffffffffffffffffffffffffffffffffffffffffffff821415611288576112886112a3565b5060010190565b60008261129e5761129e6112d2565b500690565b7f4e487b7100000000000000000000000000000000000000000000000000000000600052601160045260246000fd5b7f4e487b7100000000000000000000000000000000000000000000000000000000600052601260045260246000fd5b7f4e487b7100000000000000000000000000000000000000000000000000000000600052604160045260246000fd5b73ffffffffffffffffffffffffffffffffffffffff8116811461135257600080fd5b50565b801515811461135257600080fdfea2646970667358221220379fa16488a3bba71469badc933bb6a6768af51aa11f49c88df100e193f2393664736f6c63430008000033",
  "immutableReferences": {},
  "source": "pragma solidity ^0.8.0;\n\n// SPDX-License-Identifier: MIT\n\nimport \"../core/DaoConstants.sol\";\nimport \"../core/DaoRegistry.sol\";\nimport \"../extensions/Bank.sol\";\nimport \"./interfaces/IRagequit.sol\";\nimport \"../helpers/FairShareHelper.sol\";\n\n/**\nMIT License\n\nCopyright (c) 2020 Openlaw\n\nPermission is hereby granted, free of charge, to any person obtaining a copy\nof this software and associated documentation files (the \"Software\"), to deal\nin the Software without restriction, including without limitation the rights\nto use, copy, modify, merge, publish, distribute, sublicense, and/or sell\ncopies of the Software, and to permit persons to whom the Software is\nfurnished to do so, subject to the following conditions:\n\nThe above copyright notice and this permission notice shall be included in all\ncopies or substantial portions of the Software.\n\nTHE SOFTWARE IS PROVIDED \"AS IS\", WITHOUT WARRANTY OF ANY KIND, EXPRESS OR\nIMPLIED, INCLUDING BUT NOT LIMITED TO THE WARRANTIES OF MERCHANTABILITY,\nFITNESS FOR A PARTICULAR PURPOSE AND NONINFRINGEMENT. IN NO EVENT SHALL THE\nAUTHORS OR COPYRIGHT HOLDERS BE LIABLE FOR ANY CLAIM, DAMAGES OR OTHER\nLIABILITY, WHETHER IN AN ACTION OF CONTRACT, TORT OR OTHERWISE, ARISING FROM,\nOUT OF OR IN CONNECTION WITH THE SOFTWARE OR THE USE OR OTHER DEALINGS IN THE\nSOFTWARE.\n */\n\ncontract RagequitContract is IRagequit, DaoConstants {\n    /**\n     * @notice Event emitted when a member of the DAO executes a ragequit with all or parts of the member's shares/loot.\n     */\n    event MemberRagequit(\n        address memberAddr,\n        uint256 burnedShares,\n        uint256 burnedLoot,\n        uint256 initialTotalSharesAndLoot\n    );\n\n    /**\n     * @notice default fallback function to prevent from sending ether to the contract.\n     */\n    receive() external payable {\n        revert(\"fallback revert\");\n    }\n\n    /**\n     * @notice Allows a member or advisor of the DAO to opt out by burning the proportional amount of shares/loot of the member.\n     * @notice Anyone is allowed to call this function, but only members and advisors that have shares are able to execute the entire ragequit process.\n     * @dev The sum of sharesToBurn and lootToBurn have to be greater than zero.\n     * @dev The member can not be in jail to execute a ragequit.\n     * @dev The member becomes an inactive member of the DAO once all the shares/loot are burned.\n     * @dev If the member provides an invalid/not allowed token, the entire processed is reverted.\n     * @param dao The dao address that the member is part of.\n     * @param sharesToBurn The amount of shares of the member that must be converted into funds.\n     * @param lootToBurn The amount of loot of the member that must be converted into funds.\n     * @param tokens The array of tokens that the funds should be sent to.\n     */\n    function ragequit(\n        DaoRegistry dao,\n        uint256 sharesToBurn,\n        uint256 lootToBurn,\n        address[] memory tokens\n    ) external override {\n        // Checks if the are enough shares and/or loot to burn\n        require(sharesToBurn + lootToBurn > 0, \"insufficient shares/loot\");\n        // Gets the delegated address, otherwise returns the sender address.\n        address memberAddr = dao.getAddressIfDelegated(msg.sender);\n\n        // Checks if the member is not in jail\n        require(\n            !dao.getMemberFlag(memberAddr, DaoRegistry.MemberFlag.JAILED),\n            \"jailed member can not ragequit\"\n        );\n\n        // Instantiates the Bank extension to handle the internal balance checks and transfers.\n        BankExtension bank = BankExtension(dao.getExtensionAddress(BANK));\n        // Check if member has enough shares to burn.\n        require(\n            bank.balanceOf(memberAddr, SHARES) >= sharesToBurn,\n            \"insufficient shares\"\n        );\n        // Check if the member has enough loot to burn.\n        require(\n            bank.balanceOf(memberAddr, LOOT) >= lootToBurn,\n            \"insufficient loot\"\n        );\n\n        // Start the ragequit process by updating the member's internal account balances.\n        _prepareRagequit(memberAddr, sharesToBurn, lootToBurn, tokens, bank);\n    }\n\n    /**\n     * @notice Subtracts from the internal member's account the proportional shares and/or loot.\n     * @param memberAddr The member address that wants to burn the shares and/or loot.\n     * @param sharesToBurn The amount of shares of the member that must be converted into funds.\n     * @param lootToBurn The amount of loot of the member that must be converted into funds.\n     * @param tokens The array of tokens that the funds should be sent to.\n     * @param bank The bank extension.\n     */\n    function _prepareRagequit(\n        address memberAddr,\n        uint256 sharesToBurn,\n        uint256 lootToBurn,\n        address[] memory tokens,\n        BankExtension bank\n    ) internal {\n        // Calculates the total shares, loot and locked loot before any internal transfers\n        // it considers the locked loot to be able to calculate the fair amount to ragequit,\n        // but locked loot can not be burned.\n        uint256 initialTotalSharesAndLoot =\n            bank.balanceOf(TOTAL, SHARES) +\n                bank.balanceOf(TOTAL, LOOT) +\n                bank.balanceOf(TOTAL, LOCKED_LOOT);\n\n        // Burns / subtracts from member's balance the number of shares to burn.\n        bank.subtractFromBalance(memberAddr, SHARES, sharesToBurn);\n        // Burns / subtracts from member's balance the number of loot to burn.\n        bank.subtractFromBalance(memberAddr, LOOT, lootToBurn);\n\n        // Completes the ragequit process by updating the GUILD internal balance based on each provided token.\n        _burnShares(\n            memberAddr,\n            sharesToBurn,\n            lootToBurn,\n            initialTotalSharesAndLoot,\n            tokens,\n            bank\n        );\n    }\n\n    /**\n     * @notice Subtracts from the bank's account the proportional shares and/or loot,\n     * @notice and transfers the funds to the member's internal account based on the provided tokens.\n     * @param memberAddr The member address that wants to burn the shares and/or loot.\n     * @param sharesToBurn The amount of shares of the member that must be converted into funds.\n     * @param lootToBurn The amount of loot of the member that must be converted into funds.\n     * @param initialTotalSharesAndLoot The sum of shares and loot before internal transfers.\n     * @param tokens The array of tokens that the funds should be sent to.\n     * @param bank The bank extension.\n     */\n    function _burnShares(\n        address memberAddr,\n        uint256 sharesToBurn,\n        uint256 lootToBurn,\n        uint256 initialTotalSharesAndLoot,\n        address[] memory tokens,\n        BankExtension bank\n    ) internal {\n        // Calculates the total amount of shares and loot to burn\n        uint256 sharesAndLootToBurn = sharesToBurn + lootToBurn;\n\n        // Transfers the funds from the internal Guild account to the internal member's account based on each token provided by the member.\n        // The provided token must be supported/allowed by the Guild Bank, otherwise it reverts the entire transaction.\n        for (uint256 i = 0; i < tokens.length; i++) {\n            address token = tokens[i];\n            // Checks if the token is supported by the Guild Bank.\n            require(bank.isTokenAllowed(token), \"token not allowed\");\n\n            // Calculates the fair amount of funds to ragequit based on the token, shares and loot\n            uint256 amountToRagequit =\n                FairShareHelper.calc(\n                    bank.balanceOf(GUILD, token),\n                    sharesAndLootToBurn,\n                    initialTotalSharesAndLoot\n                );\n\n            // Ony execute the internal transfer if the user has enough funds to receive.\n            if (amountToRagequit > 0) {\n                // gas optimization to allow a higher maximum token limit\n                // deliberately not using safemath here to keep overflows from preventing the function execution\n                // (which would break ragekicks) if a token overflows,\n                // it is because the supply was artificially inflated to oblivion, so we probably don\"t care about it anyways\n                bank.internalTransfer(\n                    GUILD,\n                    memberAddr,\n                    token,\n                    amountToRagequit\n                );\n            }\n        }\n\n        // Once the shares and loot were burned, and the transfers completed, emit an event to indicate a successfull operation.\n        emit MemberRagequit(\n            memberAddr,\n            sharesToBurn,\n            lootToBurn,\n            initialTotalSharesAndLoot\n        );\n    }\n}\n",
  "sourcePath": "/Users/sophia/OPENLAWTEAM/laoland/contracts/adapters/Ragequit.sol",
  "compiler": {
    "name": "solc",
    "version": "0.8.0+commit.c7dfd78e.Emscripten.clang"
  },
  "schemaVersion": "3.3.3",
  "updatedAt": "2021-02-09T09:36:52.605Z",
  "devdoc": {
    "kind": "dev",
    "methods": {
      "ragequit(address,uint256,uint256,address[])": {
        "details": "The sum of sharesToBurn and lootToBurn have to be greater than zero.The member can not be in jail to execute a ragequit.The member becomes an inactive member of the DAO once all the shares/loot are burned.If the member provides an invalid/not allowed token, the entire processed is reverted.",
        "params": {
          "dao": "The dao address that the member is part of.",
          "lootToBurn": "The amount of loot of the member that must be converted into funds.",
          "sharesToBurn": "The amount of shares of the member that must be converted into funds.",
          "tokens": "The array of tokens that the funds should be sent to."
        }
      }
    },
    "version": 1
  },
  "userdoc": {
    "events": {
      "MemberRagequit(address,uint256,uint256,uint256)": {
        "notice": "Event emitted when a member of the DAO executes a ragequit with all or parts of the member's shares/loot."
      }
    },
    "kind": "user",
    "methods": {
      "ragequit(address,uint256,uint256,address[])": {
        "notice": "Allows a member or advisor of the DAO to opt out by burning the proportional amount of shares/loot of the member.Anyone is allowed to call this function, but only members and advisors that have shares are able to execute the entire ragequit process."
      }
    },
    "notice": "MIT License Copyright (c) 2020 Openlaw Permission is hereby granted, free of charge, to any person obtaining a copy of this software and associated documentation files (the \"Software\"), to deal in the Software without restriction, including without limitation the rights to use, copy, modify, merge, publish, distribute, sublicense, and/or sell copies of the Software, and to permit persons to whom the Software is furnished to do so, subject to the following conditions: The above copyright notice and this permission notice shall be included in all copies or substantial portions of the Software. THE SOFTWARE IS PROVIDED \"AS IS\", WITHOUT WARRANTY OF ANY KIND, EXPRESS OR IMPLIED, INCLUDING BUT NOT LIMITED TO THE WARRANTIES OF MERCHANTABILITY, FITNESS FOR A PARTICULAR PURPOSE AND NONINFRINGEMENT. IN NO EVENT SHALL THE AUTHORS OR COPYRIGHT HOLDERS BE LIABLE FOR ANY CLAIM, DAMAGES OR OTHER LIABILITY, WHETHER IN AN ACTION OF CONTRACT, TORT OR OTHERWISE, ARISING FROM, OUT OF OR IN CONNECTION WITH THE SOFTWARE OR THE USE OR OTHER DEALINGS IN THE SOFTWARE.",
    "version": 1
  }
}