{
  "contractName": "TributeContract",
  "abi": [
    {
      "inputs": [
        {
          "internalType": "uint256",
          "name": "flags",
          "type": "uint256"
        },
        {
          "internalType": "uint256",
          "name": "flag",
          "type": "uint256"
        }
      ],
      "name": "getFlag",
      "outputs": [
        {
          "internalType": "bool",
          "name": "",
          "type": "bool"
        }
      ],
      "stateMutability": "pure",
      "type": "function"
    },
    {
      "inputs": [
        {
          "internalType": "address",
          "name": "",
          "type": "address"
        },
        {
          "internalType": "bytes32",
          "name": "",
          "type": "bytes32"
        }
      ],
      "name": "proposals",
      "outputs": [
        {
          "internalType": "bytes32",
          "name": "id",
          "type": "bytes32"
        },
        {
          "internalType": "address",
          "name": "applicant",
          "type": "address"
        },
        {
          "internalType": "address",
          "name": "proposer",
          "type": "address"
        },
        {
          "internalType": "address",
          "name": "tokenToMint",
          "type": "address"
        },
        {
          "internalType": "uint256",
          "name": "requestAmount",
          "type": "uint256"
        },
        {
          "internalType": "address",
          "name": "token",
          "type": "address"
        },
        {
          "internalType": "uint256",
          "name": "tributeAmount",
          "type": "uint256"
        }
      ],
      "stateMutability": "view",
      "type": "function"
    },
    {
      "inputs": [
        {
          "internalType": "uint256",
          "name": "flags",
          "type": "uint256"
        },
        {
          "internalType": "uint256",
          "name": "flag",
          "type": "uint256"
        },
        {
          "internalType": "bool",
          "name": "value",
          "type": "bool"
        }
      ],
      "name": "setFlag",
      "outputs": [
        {
          "internalType": "uint256",
          "name": "",
          "type": "uint256"
        }
      ],
      "stateMutability": "pure",
      "type": "function"
    },
    {
      "stateMutability": "payable",
      "type": "receive"
    },
    {
      "inputs": [
        {
          "internalType": "contract DaoRegistry",
          "name": "dao",
          "type": "address"
        },
        {
          "internalType": "address",
          "name": "tokenAddrToMint",
          "type": "address"
        }
      ],
      "name": "configureDao",
      "outputs": [],
      "stateMutability": "nonpayable",
      "type": "function"
    },
    {
      "inputs": [
        {
          "internalType": "contract DaoRegistry",
          "name": "dao",
          "type": "address"
        },
        {
          "internalType": "bytes32",
          "name": "proposalId",
          "type": "bytes32"
        },
        {
          "internalType": "address",
          "name": "applicant",
          "type": "address"
        },
        {
          "internalType": "address",
          "name": "tokenToMint",
          "type": "address"
        },
        {
          "internalType": "uint256",
          "name": "requestAmount",
          "type": "uint256"
        },
        {
          "internalType": "address",
          "name": "tokenAddr",
          "type": "address"
        },
        {
          "internalType": "uint256",
          "name": "tributeAmount",
          "type": "uint256"
        }
      ],
      "name": "provideTribute",
      "outputs": [],
      "stateMutability": "nonpayable",
      "type": "function"
    },
    {
      "inputs": [
        {
          "internalType": "contract DaoRegistry",
          "name": "dao",
          "type": "address"
        },
        {
          "internalType": "bytes32",
          "name": "proposalId",
          "type": "bytes32"
        },
        {
          "internalType": "bytes",
          "name": "data",
          "type": "bytes"
        }
      ],
      "name": "sponsorProposal",
      "outputs": [],
      "stateMutability": "nonpayable",
      "type": "function"
    },
    {
      "inputs": [
        {
          "internalType": "contract DaoRegistry",
          "name": "dao",
          "type": "address"
        },
        {
          "internalType": "bytes32",
          "name": "proposalId",
          "type": "bytes32"
        }
      ],
      "name": "cancelProposal",
      "outputs": [],
      "stateMutability": "nonpayable",
      "type": "function"
    },
    {
      "inputs": [
        {
          "internalType": "contract DaoRegistry",
          "name": "dao",
          "type": "address"
        },
        {
          "internalType": "bytes32",
          "name": "proposalId",
          "type": "bytes32"
        }
      ],
      "name": "processProposal",
      "outputs": [],
      "stateMutability": "nonpayable",
      "type": "function"
    }
  ],
  "bytecode": "0x608060405234801561001057600080fd5b50612409806100206000396000f3fe60806040526004361061007f5760003560e01c8063c0b62f451161004e578063c0b62f4514610155578063c9c35c0814610175578063cd0e42ed14610195578063fc258031146101b5576100a5565b806348020ae4146100aa5780635cb75276146100cc5780639573167d14610108578063b244a41d14610128576100a5565b366100a55760405162461bcd60e51b815260040161009c906120f1565b60405180910390fd5b600080fd5b3480156100b657600080fd5b506100ca6100c5366004611a02565b6101e2565b005b3480156100d857600080fd5b506100ec6100e7366004611983565b6103a6565b6040516100ff9796959493929190611d29565b60405180910390f35b34801561011457600080fd5b506100ca610123366004611a02565b6103fa565b34801561013457600080fd5b50610148610143366004611be2565b610a75565b6040516100ff9190611d09565b34801561016157600080fd5b506100ca610170366004611a14565b610ad1565b34801561018157600080fd5b506100ca6101903660046119ca565b610bb2565b3480156101a157600080fd5b506100ca6101b0366004611a8e565b610e54565b3480156101c157600080fd5b506101d56101d0366004611bc1565b610fa3565b6040516100ff9190611cfe565b6001600160a01b0382166000908152602081815260408083208484529091529020805482146102235760405162461bcd60e51b815260040161009c90611ec9565b6040517ff941f6910000000000000000000000000000000000000000000000000000000081526001600160a01b0384169063f941f6919061026b908590600190600401611d64565b60206040518083038186803b15801561028357600080fd5b505afa158015610297573d6000803e3d6000fd5b505050506040513d601f19601f820116820180604052508101906102bb91906119ae565b156102d85760405162461bcd60e51b815260040161009c90611dfe565b60028101546001600160a01b031633146103045760405162461bcd60e51b815260040161009c90611f94565b6040517f30490e910000000000000000000000000000000000000000000000000000000081526001600160a01b038416906330490e9190610349908590600401611d09565b600060405180830381600087803b15801561036357600080fd5b505af1158015610377573d6000803e3d6000fd5b505050506005810154600282015460068301546103a1926001600160a01b03908116921690610fc0565b505050565b6000602081815292815260408082209093529081522080546001820154600283015460038401546004850154600586015460069096015494956001600160a01b039485169593851694928316939192169087565b6001600160a01b03821660009081526020818152604080832084845290915290208054821461043b5760405162461bcd60e51b815260040161009c90611ec9565b6040517ff941f6910000000000000000000000000000000000000000000000000000000081526001600160a01b0384169063f941f69190610483908590600290600401611d64565b60206040518083038186803b15801561049b57600080fd5b505afa1580156104af573d6000803e3d6000fd5b505050506040513d601f19601f820116820180604052508101906104d391906119ae565b156104f05760405162461bcd60e51b815260040161009c90611f00565b6040517f17ba7d850000000000000000000000000000000000000000000000000000000081526000906001600160a01b038516906317ba7d8590610558907f0e49311626a26ba5be58a3b13d239908e80ce0dffdd5c50bf1d9c82ff35d1ab390600401611d09565b60206040518083038186803b15801561057057600080fd5b505afa158015610584573d6000803e3d6000fd5b505050506040513d601f19601f820116820180604052508101906105a89190611967565b90506000816001600160a01b03166376225e7386866040518363ffffffff1660e01b81526004016105da929190611ce5565b602060405180830381600087803b1580156105f457600080fd5b505af1158015610608573d6000803e3d6000fd5b505050506040513d601f19601f8201168201806040525081019061062c9190611b8a565b6040517f30490e910000000000000000000000000000000000000000000000000000000081529091506001600160a01b038616906330490e9190610674908790600401611d09565b600060405180830381600087803b15801561068e57600080fd5b505af11580156106a2573d6000803e3d6000fd5b50600292506106af915050565b8160058111156106e8577f4e487b7100000000000000000000000000000000000000000000000000000000600052602160045260246000fd5b14156109a7576040517f593e96b60000000000000000000000000000000000000000000000000000000081526000906001600160a01b0387169063593e96b690610756907fea0ca03c7adbe41dc655fec28a9209dc8e6e042f3d991a67765ba285b9cf73a090600401611d09565b60206040518083038186803b15801561076e57600080fd5b505afa158015610782573d6000803e3d6000fd5b505050506040513d601f19601f820116820180604052508101906107a69190611967565b6001850154600286015460038701546004880154600589015460068a01549596506107e7958c956001600160a01b0390811695811694811693921690610fdb565b60058401546040517ff9eaee0d0000000000000000000000000000000000000000000000000000000081526001600160a01b039182169183169063f9eaee0d90610835908490600401611c80565b60206040518083038186803b15801561084d57600080fd5b505afa158015610861573d6000803e3d6000fd5b505050506040513d601f19601f8201168201806040525081019061088591906119ae565b610901576040517f69af242f0000000000000000000000000000000000000000000000000000000081526001600160a01b038316906369af242f906108ce908490600401611c80565b600060405180830381600087803b1580156108e857600080fd5b505af11580156108fc573d6000803e3d6000fd5b505050505b60068501546040517fc57d5fe90000000000000000000000000000000000000000000000000000000081526001600160a01b0384169163c57d5fe9916109509161dead91869190600401611c94565b600060405180830381600087803b15801561096a57600080fd5b505af115801561097e573d6000803e3d6000fd5b505050600686015482915061099f906001600160a01b038316908a906112fb565b505050610a6e565b60038160058111156109e2577f4e487b7100000000000000000000000000000000000000000000000000000000600052602160045260246000fd5b1480610a2657506001816005811115610a24577f4e487b7100000000000000000000000000000000000000000000000000000000600052602160045260246000fd5b145b15610a5657600583015460028401546006850154610a51926001600160a01b03908116921690610fc0565b610a6e565b60405162461bcd60e51b815260040161009c90611f37565b5050505050565b6000811515610a848585610fa3565b151514610ac7578115610aad57610a9c8360026121bd565b610aa6908561215f565b9050610aca565b610ab88360026121bd565b610aa690856122a4565b610aca565b50825b9392505050565b6040517fef6a24990000000000000000000000000000000000000000000000000000000081526001600160a01b0388169063ef6a249990610b16908890600401611c80565b60206040518083038186803b158015610b2e57600080fd5b505afa158015610b42573d6000803e3d6000fd5b505050506040513d601f19601f82011682018060405250810190610b6691906119ae565b610b825760405162461bcd60e51b815260040161009c90611e35565b81610b986001600160a01b03821633308561139c565b610ba888888833898989896113bd565b5050505050505050565b816000816001600160a01b031663c19d93fb6040518163ffffffff1660e01b815260040160206040518083038186803b158015610bee57600080fd5b505afa158015610c02573d6000803e3d6000fd5b505050506040513d601f19601f82011682018060405250810190610c269190611b6b565b6001811115610c5e577f4e487b7100000000000000000000000000000000000000000000000000000000600052602160045260246000fd5b148015610c6f5750610c6f81611517565b80610d0a57506040517f68c18beb0000000000000000000000000000000000000000000000000000000081526001600160a01b038216906368c18beb90610cba903390600401611c80565b60206040518083038186803b158015610cd257600080fd5b505afa158015610ce6573d6000803e3d6000fd5b505050506040513d601f19601f82011682018060405250810190610d0a91906119ae565b610d265760405162461bcd60e51b815260040161009c90612128565b6040517f593e96b60000000000000000000000000000000000000000000000000000000081526000906001600160a01b0385169063593e96b690610d8e907fea0ca03c7adbe41dc655fec28a9209dc8e6e042f3d991a67765ba285b9cf73a090600401611d09565b60206040518083038186803b158015610da657600080fd5b505afa158015610dba573d6000803e3d6000fd5b505050506040513d601f19601f82011682018060405250810190610dde9190611967565b6040517ff7e15acf0000000000000000000000000000000000000000000000000000000081529091506001600160a01b0382169063f7e15acf90610e26908690600401611c80565b600060405180830381600087803b158015610e4057600080fd5b505af1158015610ba8573d6000803e3d6000fd5b6040517f17ba7d850000000000000000000000000000000000000000000000000000000081526000906001600160a01b038516906317ba7d8590610ebc907f0e49311626a26ba5be58a3b13d239908e80ce0dffdd5c50bf1d9c82ff35d1ab390600401611d09565b60206040518083038186803b158015610ed457600080fd5b505afa158015610ee8573d6000803e3d6000fd5b505050506040513d601f19601f82011682018060405250810190610f0c9190611967565b90506000816001600160a01b031663966917d0863086336040518563ffffffff1660e01b8152600401610f429493929190611d7b565b602060405180830381600087803b158015610f5c57600080fd5b505af1158015610f70573d6000803e3d6000fd5b505050506040513d601f19601f82011682018060405250810190610f949190611967565b9050610a6e85858584866116c7565b6000610fb6600260ff841685901c6122e7565b6001149392505050565b82610fd56001600160a01b03821684846112fb565b50505050565b6040517f593e96b60000000000000000000000000000000000000000000000000000000081526000906001600160a01b0389169063593e96b690611043907fea0ca03c7adbe41dc655fec28a9209dc8e6e042f3d991a67765ba285b9cf73a090600401611d09565b60206040518083038186803b15801561105b57600080fd5b505afa15801561106f573d6000803e3d6000fd5b505050506040513d601f19601f820116820180604052508101906110939190611967565b6040517f14a332160000000000000000000000000000000000000000000000000000000081529091506001600160a01b038216906314a33216906110db908890600401611c80565b60206040518083038186803b1580156110f357600080fd5b505afa158015611107573d6000803e3d6000fd5b505050506040513d601f19601f8201168201806040525081019061112b91906119ae565b6111475760405162461bcd60e51b815260040161009c9061205f565b6040517fae7fdd670000000000000000000000000000000000000000000000000000000081526001600160a01b0389169063ae7fdd679061118f908a90600190600401611cb8565b60206040518083038186803b1580156111a757600080fd5b505afa1580156111bb573d6000803e3d6000fd5b505050506040513d601f19601f820116820180604052508101906111df91906119ae565b156111fc5760405162461bcd60e51b815260040161009c90612028565b6040517fdc929f4a0000000000000000000000000000000000000000000000000000000081526001600160a01b0389169063dc929f4a90611241908a90600401611c80565b600060405180830381600087803b15801561125b57600080fd5b505af115801561126f573d6000803e3d6000fd5b50506040517fc57d5fe90000000000000000000000000000000000000000000000000000000081526001600160a01b038416925063c57d5fe991506112bc908a9089908990600401611c94565b600060405180830381600087803b1580156112d657600080fd5b505af19250505080156112e7575060015b610ba8576112f6838784610fc0565b610ba8565b6103a18363a9059cbb60e01b848460405160240161131a929190611ce5565b604080517fffffffffffffffffffffffffffffffffffffffffffffffffffffffffffffffe08184030181529190526020810180517bffffffffffffffffffffffffffffffffffffffffffffffffffffffff167fffffffff00000000000000000000000000000000000000000000000000000000909316929092179091526117c2565b610fd5846323b872dd60e01b85858560405160240161131a93929190611c94565b6040517fb73dc3890000000000000000000000000000000000000000000000000000000081526001600160a01b0389169063b73dc38990611402908a90600401611d09565b600060405180830381600087803b15801561141c57600080fd5b505af1158015611430573d6000803e3d6000fd5b50506040805160e0810182528a81526001600160a01b03998a166020808301918252998b16828401908152988b166060830190815260808301988952968b1660a0830190815260c083019687529c8b166000908152808b528381209c81529b909952992098518955505093516001870180549187167fffffffffffffffffffffffff000000000000000000000000000000000000000092831617905592516002870180549187169185169190911790555160038601805491861691841691909117905551600485015593516005840180549190931694169390931790559051600690910155565b6000816001600160a01b031663c67143666040518163ffffffff1660e01b815260040160206040518083038186803b15801561155257600080fd5b505afa158015611566573d6000803e3d6000fd5b505050506040513d601f19601f8201168201806040525081019061158a9190611ba9565b158061162657506040517f45ecd02f0000000000000000000000000000000000000000000000000000000081526001600160a01b038316906345ecd02f906115d6903390600401611c80565b60206040518083038186803b1580156115ee57600080fd5b505afa158015611602573d6000803e3d6000fd5b505050506040513d601f19601f8201168201806040525081019061162691906119ae565b806116c157506040517f68c18beb0000000000000000000000000000000000000000000000000000000081526001600160a01b038316906368c18beb90611671903390600401611c80565b60206040518083038186803b15801561168957600080fd5b505afa15801561169d573d6000803e3d6000fd5b505050506040513d601f19601f820116820180604052508101906116c191906119ae565b92915050565b6040517f815a2bf40000000000000000000000000000000000000000000000000000000081526001600160a01b0386169063815a2bf49061170e9087908690600401611d12565b600060405180830381600087803b15801561172857600080fd5b505af115801561173c573d6000803e3d6000fd5b50506040517f2b0974d00000000000000000000000000000000000000000000000000000000081526001600160a01b0384169250632b0974d0915061178990889088908890600401611dba565b600060405180830381600087803b1580156117a357600080fd5b505af11580156117b7573d6000803e3d6000fd5b505050505050505050565b6000611817826040518060400160405280602081526020017f5361666545524332303a206c6f772d6c6576656c2063616c6c206661696c6564815250856001600160a01b03166118519092919063ffffffff16565b8051909150156103a1578080602001905181019061183591906119ae565b6103a15760405162461bcd60e51b815260040161009c90612094565b60606118608484600085611868565b949350505050565b60608247101561188a5760405162461bcd60e51b815260040161009c90611e6c565b61189385611928565b6118af5760405162461bcd60e51b815260040161009c90611ff1565b600080866001600160a01b031685876040516118cb9190611c64565b60006040518083038185875af1925050503d8060008114611908576040519150601f19603f3d011682016040523d82523d6000602084013e61190d565b606091505b509150915061191d82828661192e565b979650505050505050565b3b151590565b6060831561193d575081610aca565b82511561194d5782518084602001fd5b8160405162461bcd60e51b815260040161009c9190611deb565b600060208284031215611978578081fd5b8151610aca816123ad565b60008060408385031215611995578081fd5b82356119a0816123ad565b946020939093013593505050565b6000602082840312156119bf578081fd5b8151610aca816123c5565b600080604083850312156119dc578182fd5b82356119e7816123ad565b915060208301356119f7816123ad565b809150509250929050565b60008060408385031215611995578182fd5b600080600080600080600060e0888a031215611a2e578283fd5b8735611a39816123ad565b9650602088013595506040880135611a50816123ad565b94506060880135611a60816123ad565b93506080880135925060a0880135611a77816123ad565b8092505060c0880135905092959891949750929550565b600080600060608486031215611aa2578283fd5b8335611aad816123ad565b92506020848101359250604085013567ffffffffffffffff80821115611ad1578384fd5b818701915087601f830112611ae4578384fd5b813581811115611af657611af661237e565b604051847fffffffffffffffffffffffffffffffffffffffffffffffffffffffffffffffe0601f8401168201018181108482111715611b3757611b3761237e565b60405281815283820185018a1015611b4d578586fd5b81858501868301378585838301015280955050505050509250925092565b600060208284031215611b7c578081fd5b815160028110610aca578182fd5b600060208284031215611b9b578081fd5b815160068110610aca578182fd5b600060208284031215611bba578081fd5b5051919050565b60008060408385031215611bd3578182fd5b50508035926020909101359150565b600080600060608486031215611bf6578283fd5b83359250602084013591506040840135611c0f816123c5565b809150509250925092565b60008151808452611c328160208601602086016122bb565b601f017fffffffffffffffffffffffffffffffffffffffffffffffffffffffffffffffe0169290920160200192915050565b60008251611c768184602087016122bb565b9190910192915050565b6001600160a01b0391909116815260200190565b6001600160a01b039384168152919092166020820152604081019190915260600190565b6001600160a01b03831681526040810160028310611cd857611cd861234f565b8260208301529392505050565b6001600160a01b03929092168252602082015260400190565b901515815260200190565b90815260200190565b9182526001600160a01b0316602082015260400190565b9687526001600160a01b03958616602088015293851660408701529184166060860152608085015290911660a083015260c082015260e00190565b8281526040810160038310611cd857611cd861234f565b60006001600160a01b038087168352808616602084015260806040840152611da66080840186611c1a565b915080841660608401525095945050505050565b60006001600160a01b038516825283602083015260606040830152611de26060830184611c1a565b95945050505050565b600060208252610aca6020830184611c1a565b6020808252601a908201527f70726f706f73616c20616c72656164792073706f6e736f726564000000000000604082015260600190565b6020808252601d908201527f6170706c6963616e742069732072657365727665642061646472657373000000604082015260600190565b60208082526026908201527f416464726573733a20696e73756666696369656e742062616c616e636520666f60408201527f722063616c6c0000000000000000000000000000000000000000000000000000606082015260800190565b60208082526017908201527f70726f706f73616c20646f6573206e6f74206578697374000000000000000000604082015260600190565b6020808252601a908201527f70726f706f73616c20616c72656164792070726f636573736564000000000000604082015260600190565b60208082526022908201527f70726f706f73616c20686173206e6f74206265656e20766f746564206f6e207960408201527f6574000000000000000000000000000000000000000000000000000000000000606082015260800190565b60208082526023908201527f6f6e6c792070726f706f7365722063616e2063616e63656c20612070726f706f60408201527f73616c0000000000000000000000000000000000000000000000000000000000606082015260800190565b6020808252601d908201527f416464726573733a2063616c6c20746f206e6f6e2d636f6e7472616374000000604082015260600190565b6020808252601c908201527f63616e6e6f742070726f63657373206a61696c6564206d656d62657200000000604082015260600190565b6020808252818101527f69742063616e206f6e6c79206d696e7420696e7465726e616c20746f6b656e73604082015260600190565b6020808252602a908201527f5361666545524332303a204552433230206f7065726174696f6e20646964206e60408201527f6f74207375636365656400000000000000000000000000000000000000000000606082015260800190565b6020808252600f908201527f66616c6c6261636b207265766572740000000000000000000000000000000000604082015260600190565b6020808252600b908201527f6f6e6c7941646170746572000000000000000000000000000000000000000000604082015260600190565b6000821982111561217257612172612320565b500190565b80825b600180861161218957506121b4565b81870482111561219b5761219b612320565b808616156121a857918102915b9490941c93800261217a565b94509492505050565b6000610aca7fffffffffffffffffffffffffffffffffffffffffffffffffffffffffffffffff84846000826121f457506001610aca565b8161220157506000610aca565b816001811461221757600281146122215761224e565b6001915050610aca565b60ff84111561223257612232612320565b6001841b91508482111561224857612248612320565b50610aca565b5060208310610133831016604e8410600b841016171561227c575081810a83811115610ac257610ac2612320565b6122898484846001612177565b80860482111561229b5761229b612320565b02949350505050565b6000828210156122b6576122b6612320565b500390565b60005b838110156122d65781810151838201526020016122be565b83811115610fd55750506000910152565b60008261231b577f4e487b710000000000000000000000000000000000000000000000000000000081526012600452602481fd5b500690565b7f4e487b7100000000000000000000000000000000000000000000000000000000600052601160045260246000fd5b7f4e487b7100000000000000000000000000000000000000000000000000000000600052602160045260246000fd5b7f4e487b7100000000000000000000000000000000000000000000000000000000600052604160045260246000fd5b6001600160a01b03811681146123c257600080fd5b50565b80151581146123c257600080fdfea2646970667358221220108dcd883d81bb5908fe5cd01d98c24e9df39e93b819c62a519b68617ac2bbe364736f6c63430008000033",
  "immutableReferences": {},
  "source": "pragma solidity ^0.8.0;\n\n// SPDX-License-Identifier: MIT\n\nimport \"./interfaces/ITribute.sol\";\nimport \"../core/DaoConstants.sol\";\nimport \"../core/DaoRegistry.sol\";\nimport \"../extensions/Bank.sol\";\nimport \"../adapters/interfaces/IVoting.sol\";\nimport \"../guards/MemberGuard.sol\";\nimport \"../guards/AdapterGuard.sol\";\nimport \"../utils/IERC20.sol\";\nimport \"../helpers/AddressLib.sol\";\nimport \"../helpers/SafeERC20.sol\";\n\n/**\nMIT License\n\nCopyright (c) 2020 Openlaw\n\nPermission is hereby granted, free of charge, to any person obtaining a copy\nof this software and associated documentation files (the \"Software\"), to deal\nin the Software without restriction, including without limitation the rights\nto use, copy, modify, merge, publish, distribute, sublicense, and/or sell\ncopies of the Software, and to permit persons to whom the Software is\nfurnished to do so, subject to the following conditions:\n\nThe above copyright notice and this permission notice shall be included in all\ncopies or substantial portions of the Software.\n\nTHE SOFTWARE IS PROVIDED \"AS IS\", WITHOUT WARRANTY OF ANY KIND, EXPRESS OR\nIMPLIED, INCLUDING BUT NOT LIMITED TO THE WARRANTIES OF MERCHANTABILITY,\nFITNESS FOR A PARTICULAR PURPOSE AND NONINFRINGEMENT. IN NO EVENT SHALL THE\nAUTHORS OR COPYRIGHT HOLDERS BE LIABLE FOR ANY CLAIM, DAMAGES OR OTHER\nLIABILITY, WHETHER IN AN ACTION OF CONTRACT, TORT OR OTHERWISE, ARISING FROM,\nOUT OF OR IN CONNECTION WITH THE SOFTWARE OR THE USE OR OTHER DEALINGS IN THE\nSOFTWARE.\n */\n\ncontract TributeContract is ITribute, DaoConstants, MemberGuard, AdapterGuard {\n    using Address for address;\n    using SafeERC20 for IERC20;\n\n    struct ProposalDetails {\n        // The proposal id.\n        bytes32 id;\n        // The applicant address (who will receive the DAO internal tokens and become a member).\n        address applicant;\n        // The proposer address (who will provide the token tribute).\n        address proposer;\n        // The address of the DAO internal token to be minted to the applicant.\n        address tokenToMint;\n        // The amount requested of DAO internal tokens.\n        uint256 requestAmount;\n        // The address of the ERC-20 tokens provided as tribute by the proposer.\n        address token;\n        // The amount of tribute tokens.\n        uint256 tributeAmount;\n    }\n\n    // Keeps track of all tribute proposals handled by each DAO.\n    mapping(address => mapping(bytes32 => ProposalDetails)) public proposals;\n\n    /**\n     * @notice default fallback function to prevent from sending ether to the contract.\n     */\n    receive() external payable {\n        revert(\"fallback revert\");\n    }\n\n    /**\n     * @notice Configures the adapter for a particular DAO.\n     * @notice Registers the DAO internal token with the DAO Bank.\n     * @dev Only adapters registered to the DAO can execute the function call (or if the DAO is in creation mode).\n     * @dev A DAO Bank extension must exist and be configured with proper access for this adapter.\n     * @param dao The DAO address.\n     * @param tokenAddrToMint The internal token address to be registered with the DAO Bank.\n     */\n    function configureDao(DaoRegistry dao, address tokenAddrToMint)\n        external\n        onlyAdapter(dao)\n    {\n        BankExtension bank = BankExtension(dao.getExtensionAddress(BANK));\n        bank.registerPotentialNewInternalToken(tokenAddrToMint);\n    }\n\n    /**\n     * @notice Creates a tribute proposal and escrows received tokens into the adapter.\n     * @dev Applicant address must not be reserved.\n     * @dev The proposer must first separately `approve` the adapter as spender of the ERC-20 tokens provided as tribute.\n     * @param dao The DAO address.\n     * @param proposalId The proposal id (managed by the client).\n     * @param applicant The applicant address (who will receive the DAO internal tokens and become a member).\n     * @param tokenToMint The address of the DAO internal token to be minted to the applicant.\n     * @param requestAmount The amount requested of DAO internal tokens.\n     * @param tokenAddr The address of the ERC-20 tokens provided as tribute by the proposer.\n     * @param tributeAmount The amount of tribute tokens.\n     */\n    function provideTribute(\n        DaoRegistry dao,\n        bytes32 proposalId,\n        address applicant,\n        address tokenToMint,\n        uint256 requestAmount,\n        address tokenAddr,\n        uint256 tributeAmount\n    ) public override {\n        require(\n            dao.isNotReservedAddress(applicant),\n            \"applicant is reserved address\"\n        );\n        IERC20 token = IERC20(tokenAddr);\n        token.safeTransferFrom(msg.sender, address(this), tributeAmount);\n\n        _submitTributeProposal(\n            dao,\n            proposalId,\n            applicant,\n            msg.sender,\n            tokenToMint,\n            requestAmount,\n            tokenAddr,\n            tributeAmount\n        );\n    }\n\n    /**\n     * @notice Sponsors a tribute proposal to start the voting process.\n     * @dev Only members of the DAO can sponsor a tribute proposal.\n     * @param dao The DAO address.\n     * @param proposalId The proposal id.\n     * @param data Additional details about the proposal.\n     */\n    function sponsorProposal(\n        DaoRegistry dao,\n        bytes32 proposalId,\n        bytes memory data\n    ) external override {\n        IVoting votingContract = IVoting(dao.getAdapterAddress(VOTING));\n        address sponsoredBy =\n            votingContract.getSenderAddress(\n                dao,\n                address(this),\n                data,\n                msg.sender\n            );\n        _sponsorProposal(dao, proposalId, data, sponsoredBy, votingContract);\n    }\n\n    /**\n     * @notice Sponsors a tribute proposal to start the voting process.\n     * @dev Only members of the DAO can sponsor a tribute proposal.\n     * @param dao The DAO address.\n     * @param proposalId The proposal id.\n     * @param data Additional details about the proposal.\n     * @param sponsoredBy The address of the sponsoring member.\n     * @param votingContract The voting contract used by the DAO.\n     */\n    function _sponsorProposal(\n        DaoRegistry dao,\n        bytes32 proposalId,\n        bytes memory data,\n        address sponsoredBy,\n        IVoting votingContract\n    ) internal {\n        dao.sponsorProposal(proposalId, sponsoredBy);\n        votingContract.startNewVotingForProposal(dao, proposalId, data);\n    }\n\n    /**\n     * @notice Cancels a tribute proposal which marks it as processed and initiates refund of the tribute tokens to the proposer.\n     * @dev Proposal id must exist.\n     * @dev Only proposals that have not already been sponsored can be cancelled.\n     * @dev Only proposer can cancel a tribute proposal.\n     * @param dao The DAO address.\n     * @param proposalId The proposal id.\n     */\n    function cancelProposal(DaoRegistry dao, bytes32 proposalId)\n        external\n        override\n    {\n        ProposalDetails storage proposal = proposals[address(dao)][proposalId];\n        require(proposal.id == proposalId, \"proposal does not exist\");\n        require(\n            !dao.getProposalFlag(\n                proposalId,\n                DaoRegistry.ProposalFlag.SPONSORED\n            ),\n            \"proposal already sponsored\"\n        );\n        require(\n            proposal.proposer == msg.sender,\n            \"only proposer can cancel a proposal\"\n        );\n\n        dao.processProposal(proposalId);\n\n        _refundTribute(\n            proposal.token,\n            proposal.proposer,\n            proposal.tributeAmount\n        );\n    }\n\n    /**\n     * @notice Processes a tribute proposal to handle minting and exchange of DAO internal tokens for tribute tokens (passed vote) or the refund of tribute tokens (failed vote).\n     * @dev Proposal id must exist.\n     * @dev Only proposals that have not already been processed are accepted.\n     * @dev Only sponsored proposals with completed voting are accepted.\n     * @dev ERC-20 tribute tokens must be registered with the DAO Bank (a passed proposal will check and register the token if needed).\n     * @param dao The DAO address.\n     * @param proposalId The proposal id.\n     */\n    function processProposal(DaoRegistry dao, bytes32 proposalId)\n        external\n        override\n    {\n        ProposalDetails storage proposal = proposals[address(dao)][proposalId];\n        require(proposal.id == proposalId, \"proposal does not exist\");\n        require(\n            !dao.getProposalFlag(\n                proposalId,\n                DaoRegistry.ProposalFlag.PROCESSED\n            ),\n            \"proposal already processed\"\n        );\n\n        IVoting votingContract = IVoting(dao.getAdapterAddress(VOTING));\n        IVoting.VotingState voteResult =\n            votingContract.voteResult(dao, proposalId);\n\n        dao.processProposal(proposalId);\n\n        if (voteResult == IVoting.VotingState.PASS) {\n            BankExtension bank = BankExtension(dao.getExtensionAddress(BANK));\n            _mintTokensToMember(\n                dao,\n                proposal.applicant,\n                proposal.proposer,\n                proposal.tokenToMint,\n                proposal.requestAmount,\n                proposal.token,\n                proposal.tributeAmount\n            );\n\n            address token = proposal.token;\n            if (!bank.isTokenAllowed(token)) {\n                bank.registerPotentialNewToken(token);\n            }\n            bank.addToBalance(GUILD, token, proposal.tributeAmount);\n            IERC20 erc20 = IERC20(token);\n            erc20.safeTransfer(address(dao), proposal.tributeAmount);\n        } else if (\n            voteResult == IVoting.VotingState.NOT_PASS ||\n            voteResult == IVoting.VotingState.TIE\n        ) {\n            _refundTribute(\n                proposal.token,\n                proposal.proposer,\n                proposal.tributeAmount\n            );\n        } else {\n            revert(\"proposal has not been voted on yet\");\n        }\n    }\n\n    /**\n     * @notice Submits a tribute proposal to the DAO.\n     * @dev Proposal ids must be valid and cannot be reused.\n     * @param dao The DAO address.\n     * @param proposalId The proposal id.\n     * @param applicant The applicant address (who will receive the DAO internal tokens and become a member).\n     * @param proposer The proposer address (who will provide the token tribute).\n     * @param tokenToMint The address of the DAO internal token to be minted to the applicant.\n     * @param requestAmount The amount requested of DAO internal tokens.\n     * @param tokenAddr The address of the ERC-20 tokens provided as tribute by the proposer.\n     * @param tributeAmount The amount of tribute tokens.\n     */\n    function _submitTributeProposal(\n        DaoRegistry dao,\n        bytes32 proposalId,\n        address applicant,\n        address proposer,\n        address tokenToMint,\n        uint256 requestAmount,\n        address tokenAddr,\n        uint256 tributeAmount\n    ) internal {\n        dao.submitProposal(proposalId);\n        proposals[address(dao)][proposalId] = ProposalDetails(\n            proposalId,\n            applicant,\n            proposer,\n            tokenToMint,\n            requestAmount,\n            tokenAddr,\n            tributeAmount\n        );\n    }\n\n    /**\n     * @notice Refunds tribute tokens to the proposer.\n     * @param tokenAddr The address of the ERC-20 tokens provided as tribute by the proposer.\n     * @param proposer The proposer address (who will receive back the tribute tokens).\n     * @param amount The amount of tribute tokens to be refunded.\n     */\n    function _refundTribute(\n        address tokenAddr,\n        address proposer,\n        uint256 amount\n    ) internal {\n        IERC20 token = IERC20(tokenAddr);\n        token.safeTransfer(proposer, amount);\n    }\n\n    /**\n     * @notice Adds DAO internal tokens to applicant's balance and creates a new member entry (if applicant is not already a member).\n     * @dev Internal tokens to be minted to the applicant must be registered with the DAO Bank.\n     * @dev The applicant member cannot be jailed.\n     * @param dao The DAO address.\n     * @param applicant The applicant address (who will receive the DAO internal tokens and become a member).\n     * @param proposer The proposer address (who will be refunded the tribute tokens if the minting of internal tokens fails).\n     * @param tokenToMint The address of the DAO internal token to be minted to the applicant.\n     * @param requestAmount The amount requested of DAO internal tokens.\n     * @param token The address of the ERC-20 tokens provided as tribute by the proposer.\n     * @param tributeAmount The amount of tribute tokens to be refunded if the minting of internal tokens fails.\n     */\n    function _mintTokensToMember(\n        DaoRegistry dao,\n        address applicant,\n        address proposer,\n        address tokenToMint,\n        uint256 requestAmount,\n        address token,\n        uint256 tributeAmount\n    ) internal {\n        BankExtension bank = BankExtension(dao.getExtensionAddress(BANK));\n        require(\n            bank.isInternalToken(tokenToMint),\n            \"it can only mint internal tokens\"\n        );\n        require(\n            !dao.getMemberFlag(applicant, DaoRegistry.MemberFlag.JAILED),\n            \"cannot process jailed member\"\n        );\n\n        dao.potentialNewMember(applicant);\n\n        // Overflow risk may cause this to fail in which case the tribute tokens\n        // are refunded to the proposer.\n        try bank.addToBalance(applicant, tokenToMint, requestAmount) {\n            // do nothing\n        } catch {\n            _refundTribute(token, proposer, tributeAmount);\n        }\n    }\n}\n",
  "sourcePath": "/Users/jd/openlaw/openlawteam/laoland/contracts/adapters/Tribute.sol",
  "compiler": {
    "name": "solc",
    "version": "0.8.0+commit.c7dfd78e.Emscripten.clang"
  },
  "schemaVersion": "3.3.3",
  "updatedAt": "2021-02-10T21:29:33.273Z",
  "devdoc": {
    "kind": "dev",
    "methods": {
      "cancelProposal(address,bytes32)": {
        "details": "Proposal id must exist.Only proposals that have not already been sponsored can be cancelled.Only proposer can cancel a tribute proposal.",
        "params": {
          "dao": "The DAO address.",
          "proposalId": "The proposal id."
        }
      },
      "configureDao(address,address)": {
        "details": "Only adapters registered to the DAO can execute the function call (or if the DAO is in creation mode).A DAO Bank extension must exist and be configured with proper access for this adapter.",
        "params": {
          "dao": "The DAO address.",
          "tokenAddrToMint": "The internal token address to be registered with the DAO Bank."
        }
      },
      "processProposal(address,bytes32)": {
        "details": "Proposal id must exist.Only proposals that have not already been processed are accepted.Only sponsored proposals with completed voting are accepted.ERC-20 tribute tokens must be registered with the DAO Bank (a passed proposal will check and register the token if needed).",
        "params": {
          "dao": "The DAO address.",
          "proposalId": "The proposal id."
        }
      },
      "provideTribute(address,bytes32,address,address,uint256,address,uint256)": {
        "details": "Applicant address must not be reserved.The proposer must first separately `approve` the adapter as spender of the ERC-20 tokens provided as tribute.",
        "params": {
          "applicant": "The applicant address (who will receive the DAO internal tokens and become a member).",
          "dao": "The DAO address.",
          "proposalId": "The proposal id (managed by the client).",
          "requestAmount": "The amount requested of DAO internal tokens.",
          "tokenAddr": "The address of the ERC-20 tokens provided as tribute by the proposer.",
          "tokenToMint": "The address of the DAO internal token to be minted to the applicant.",
          "tributeAmount": "The amount of tribute tokens."
        }
      },
      "sponsorProposal(address,bytes32,bytes)": {
        "details": "Only members of the DAO can sponsor a tribute proposal.",
        "params": {
          "dao": "The DAO address.",
          "data": "Additional details about the proposal.",
          "proposalId": "The proposal id."
        }
      }
    },
    "version": 1
  },
  "userdoc": {
    "kind": "user",
    "methods": {
      "cancelProposal(address,bytes32)": {
        "notice": "Cancels a tribute proposal which marks it as processed and initiates refund of the tribute tokens to the proposer."
      },
      "configureDao(address,address)": {
        "notice": "Configures the adapter for a particular DAO.Registers the DAO internal token with the DAO Bank."
      },
      "processProposal(address,bytes32)": {
        "notice": "Processes a tribute proposal to handle minting and exchange of DAO internal tokens for tribute tokens (passed vote) or the refund of tribute tokens (failed vote)."
      },
      "provideTribute(address,bytes32,address,address,uint256,address,uint256)": {
        "notice": "Creates a tribute proposal and escrows received tokens into the adapter."
      },
      "sponsorProposal(address,bytes32,bytes)": {
        "notice": "Sponsors a tribute proposal to start the voting process."
      }
    },
    "notice": "MIT License Copyright (c) 2020 Openlaw Permission is hereby granted, free of charge, to any person obtaining a copy of this software and associated documentation files (the \"Software\"), to deal in the Software without restriction, including without limitation the rights to use, copy, modify, merge, publish, distribute, sublicense, and/or sell copies of the Software, and to permit persons to whom the Software is furnished to do so, subject to the following conditions: The above copyright notice and this permission notice shall be included in all copies or substantial portions of the Software. THE SOFTWARE IS PROVIDED \"AS IS\", WITHOUT WARRANTY OF ANY KIND, EXPRESS OR IMPLIED, INCLUDING BUT NOT LIMITED TO THE WARRANTIES OF MERCHANTABILITY, FITNESS FOR A PARTICULAR PURPOSE AND NONINFRINGEMENT. IN NO EVENT SHALL THE AUTHORS OR COPYRIGHT HOLDERS BE LIABLE FOR ANY CLAIM, DAMAGES OR OTHER LIABILITY, WHETHER IN AN ACTION OF CONTRACT, TORT OR OTHERWISE, ARISING FROM, OUT OF OR IN CONNECTION WITH THE SOFTWARE OR THE USE OR OTHER DEALINGS IN THE SOFTWARE.",
    "version": 1
  }
}