{
  "contractName": "VotingContract",
  "abi": [
    {
      "inputs": [
        {
          "internalType": "uint256",
          "name": "flags",
          "type": "uint256"
        },
        {
          "internalType": "uint256",
          "name": "flag",
          "type": "uint256"
        }
      ],
      "name": "getFlag",
      "outputs": [
        {
          "internalType": "bool",
          "name": "",
          "type": "bool"
        }
      ],
      "stateMutability": "pure",
      "type": "function"
    },
    {
      "inputs": [
        {
          "internalType": "uint256",
          "name": "flags",
          "type": "uint256"
        },
        {
          "internalType": "uint256",
          "name": "flag",
          "type": "uint256"
        },
        {
          "internalType": "bool",
          "name": "value",
          "type": "bool"
        }
      ],
      "name": "setFlag",
      "outputs": [
        {
          "internalType": "uint256",
          "name": "",
          "type": "uint256"
        }
      ],
      "stateMutability": "pure",
      "type": "function"
    },
    {
      "inputs": [
        {
          "internalType": "address",
          "name": "",
          "type": "address"
        },
        {
          "internalType": "bytes32",
          "name": "",
          "type": "bytes32"
        }
      ],
      "name": "votes",
      "outputs": [
        {
          "internalType": "uint256",
          "name": "nbYes",
          "type": "uint256"
        },
        {
          "internalType": "uint256",
          "name": "nbNo",
          "type": "uint256"
        },
        {
          "internalType": "uint256",
          "name": "startingTime",
          "type": "uint256"
        },
        {
          "internalType": "uint256",
          "name": "blockNumber",
          "type": "uint256"
        }
      ],
      "stateMutability": "view",
      "type": "function"
    },
    {
      "inputs": [
        {
          "internalType": "contract DaoRegistry",
          "name": "dao",
          "type": "address"
        },
        {
          "internalType": "uint256",
          "name": "votingPeriod",
          "type": "uint256"
        },
        {
          "internalType": "uint256",
          "name": "gracePeriod",
          "type": "uint256"
        }
      ],
      "name": "configureDao",
      "outputs": [],
      "stateMutability": "nonpayable",
      "type": "function"
    },
    {
      "inputs": [
        {
          "internalType": "contract DaoRegistry",
          "name": "dao",
          "type": "address"
        },
        {
          "internalType": "bytes32",
          "name": "proposalId",
          "type": "bytes32"
        },
        {
          "internalType": "bytes",
          "name": "",
          "type": "bytes"
        }
      ],
      "name": "startNewVotingForProposal",
      "outputs": [],
      "stateMutability": "nonpayable",
      "type": "function"
    },
    {
      "inputs": [
        {
          "internalType": "contract DaoRegistry",
          "name": "",
          "type": "address"
        },
        {
          "internalType": "address",
          "name": "",
          "type": "address"
        },
        {
          "internalType": "bytes",
          "name": "",
          "type": "bytes"
        },
        {
          "internalType": "address",
          "name": "sender",
          "type": "address"
        }
      ],
      "name": "getSenderAddress",
      "outputs": [
        {
          "internalType": "address",
          "name": "",
          "type": "address"
        }
      ],
      "stateMutability": "pure",
      "type": "function"
    },
    {
      "inputs": [
        {
          "internalType": "contract DaoRegistry",
          "name": "dao",
          "type": "address"
        },
        {
          "internalType": "bytes32",
          "name": "proposalId",
          "type": "bytes32"
        },
        {
          "internalType": "uint256",
          "name": "voteValue",
          "type": "uint256"
        }
      ],
      "name": "submitVote",
      "outputs": [],
      "stateMutability": "nonpayable",
      "type": "function"
    },
    {
      "inputs": [
        {
          "internalType": "contract DaoRegistry",
          "name": "dao",
          "type": "address"
        },
        {
          "internalType": "bytes32",
          "name": "proposalId",
          "type": "bytes32"
        }
      ],
      "name": "voteResult",
      "outputs": [
        {
          "internalType": "enum IVoting.VotingState",
          "name": "state",
          "type": "uint8"
        }
      ],
      "stateMutability": "view",
      "type": "function"
    }
  ],
  "bytecode": "0x608060405234801561001057600080fd5b50611ded806100206000396000f3fe608060405234801561001057600080fd5b50600436106100885760003560e01c8063966917d01161005b578063966917d014610101578063a60e68fe14610121578063b244a41d14610134578063fc2580311461015457610088565b80631db5ade81461008d5780632b0974d0146100b9578063325b72f2146100ce57806376225e73146100e1575b600080fd5b6100a061009b366004611588565b610174565b6040516100b09493929190611b47565b60405180910390f35b6100cc6100c73660046116d6565b6101a3565b005b6100cc6100dc36600461175a565b610394565b6100f46100ef3660046116c4565b6109e4565b6040516100b091906118dd565b61011461010f3660046115cf565b610cef565b6040516100b0919061181e565b6100cc61012f36600461175a565b610cf6565b6101476101423660046117e6565b610fe6565b6040516100b091906118a2565b6101676101623660046117c5565b61103b565b6040516100b09190611897565b600060208181529281526040808220909352908152208054600182015460028301546003909301549192909184565b8360008173ffffffffffffffffffffffffffffffffffffffff1663c19d93fb6040518163ffffffff1660e01b815260040160206040518083038186803b1580156101ec57600080fd5b505afa158015610200573d6000803e3d6000fd5b505050506040513d601f19601f82011682018060405250810190610224919061178e565b600181111561025c577f4e487b7100000000000000000000000000000000000000000000000000000000600052602160045260246000fd5b14801561026d575061026d81611058565b8061031557506040517f68c18beb00000000000000000000000000000000000000000000000000000000815273ffffffffffffffffffffffffffffffffffffffff8216906368c18beb906102c590339060040161181e565b60206040518083038186803b1580156102dd57600080fd5b505afa1580156102f1573d6000803e3d6000fd5b505050506040513d601f19601f8201168201806040525081019061031591906115b3565b610354576040517f08c379a000000000000000000000000000000000000000000000000000000000815260040161034b90611b10565b60405180910390fd5b50505073ffffffffffffffffffffffffffffffffffffffff9091166000908152602081815260408083209383529290522042600282015543600390910155565b8261039f8133611231565b6040517ff941f69100000000000000000000000000000000000000000000000000000000815273ffffffffffffffffffffffffffffffffffffffff85169063f941f691906103f49086906001906004016118ab565b60206040518083038186803b15801561040c57600080fd5b505afa158015610420573d6000803e3d6000fd5b505050506040513d601f19601f8201168201806040525081019061044491906115b3565b61047a576040517f08c379a000000000000000000000000000000000000000000000000000000000815260040161034b90611a0e565b6040517ff941f69100000000000000000000000000000000000000000000000000000000815273ffffffffffffffffffffffffffffffffffffffff85169063f941f691906104cf9086906002906004016118ab565b60206040518083038186803b1580156104e757600080fd5b505afa1580156104fb573d6000803e3d6000fd5b505050506040513d601f19601f8201168201806040525081019061051f91906115b3565b15610556576040517f08c379a000000000000000000000000000000000000000000000000000000000815260040161034b90611954565b6003821080156105665750600082115b61059c576040517f08c379a000000000000000000000000000000000000000000000000000000000815260040161034b906118f7565b73ffffffffffffffffffffffffffffffffffffffff841660009081526020818152604080832086845290915290206002810154610605576040517f08c379a000000000000000000000000000000000000000000000000000000000815260040161034b906119b1565b6040517f9283ae3a00000000000000000000000000000000000000000000000000000000815273ffffffffffffffffffffffffffffffffffffffff861690639283ae3a90610677907ff86bf955456792ffa818919c8668cdc4eb9cc84889fd215a27d329f90efbb2f3906004016118a2565b60206040518083038186803b15801561068f57600080fd5b505afa1580156106a3573d6000803e3d6000fd5b505050506040513d601f19601f820116820180604052508101906106c791906117ad565b81600201546106d69190611b62565b421061070e576040517f08c379a000000000000000000000000000000000000000000000000000000000815260040161034b90611ad9565b6040517fc89bb8ba00000000000000000000000000000000000000000000000000000000815260009073ffffffffffffffffffffffffffffffffffffffff87169063c89bb8ba9061076390339060040161181e565b60206040518083038186803b15801561077b57600080fd5b505afa15801561078f573d6000803e3d6000fd5b505050506040513d601f19601f820116820180604052508101906107b3919061156c565b73ffffffffffffffffffffffffffffffffffffffff8116600090815260048401602052604090205490915015610815576040517f08c379a000000000000000000000000000000000000000000000000000000000815260040161034b90611a6b565b6040517f593e96b600000000000000000000000000000000000000000000000000000000815260009073ffffffffffffffffffffffffffffffffffffffff88169063593e96b69061088a907fea0ca03c7adbe41dc655fec28a9209dc8e6e042f3d991a67765ba285b9cf73a0906004016118a2565b60206040518083038186803b1580156108a257600080fd5b505afa1580156108b6573d6000803e3d6000fd5b505050506040513d601f19601f820116820180604052508101906108da919061156c565b905060008173ffffffffffffffffffffffffffffffffffffffff1663faaf38b384620ff1ce87600301546040518463ffffffff1660e01b815260040161092293929190611866565b60206040518083038186803b15801561093a57600080fd5b505afa15801561094e573d6000803e3d6000fd5b505050506040513d601f19601f8201168201806040525081019061097291906117ad565b73ffffffffffffffffffffffffffffffffffffffff841660009081526004860160205260409020879055905060018614156109bb5783546109b4908290611b62565b84556109da565b85600214156109da578084600101546109d49190611b62565b60018501555b5050505050505050565b73ffffffffffffffffffffffffffffffffffffffff821660009081526020818152604080832084845290915281206002810154610a25576000915050610ce9565b6040517f9283ae3a00000000000000000000000000000000000000000000000000000000815273ffffffffffffffffffffffffffffffffffffffff851690639283ae3a90610a97907ff86bf955456792ffa818919c8668cdc4eb9cc84889fd215a27d329f90efbb2f3906004016118a2565b60206040518083038186803b158015610aaf57600080fd5b505afa158015610ac3573d6000803e3d6000fd5b505050506040513d601f19601f82011682018060405250810190610ae791906117ad565b8160020154610af69190611b62565b421015610b07576004915050610ce9565b6040517f9283ae3a00000000000000000000000000000000000000000000000000000000815273ffffffffffffffffffffffffffffffffffffffff851690639283ae3a90610b79907fbb091d3568b6c70eab2bc93e5592945bd187d1508b523f4b1b92b116331cb896906004016118a2565b60206040518083038186803b158015610b9157600080fd5b505afa158015610ba5573d6000803e3d6000fd5b505050506040513d601f19601f82011682018060405250810190610bc991906117ad565b6040517f9283ae3a00000000000000000000000000000000000000000000000000000000815273ffffffffffffffffffffffffffffffffffffffff861690639283ae3a90610c3b907ff86bf955456792ffa818919c8668cdc4eb9cc84889fd215a27d329f90efbb2f3906004016118a2565b60206040518083038186803b158015610c5357600080fd5b505afa158015610c67573d6000803e3d6000fd5b505050506040513d601f19601f82011682018060405250810190610c8b91906117ad565b8260020154610c9a9190611b62565b610ca49190611b62565b421015610cb5576005915050610ce9565b600181015481541115610ccc576002915050610ce9565b600181015481541015610ce3576003915050610ce9565b60019150505b92915050565b9392505050565b8260008173ffffffffffffffffffffffffffffffffffffffff1663c19d93fb6040518163ffffffff1660e01b815260040160206040518083038186803b158015610d3f57600080fd5b505afa158015610d53573d6000803e3d6000fd5b505050506040513d601f19601f82011682018060405250810190610d77919061178e565b6001811115610daf577f4e487b7100000000000000000000000000000000000000000000000000000000600052602160045260246000fd5b148015610dc05750610dc081611058565b80610e6857506040517f68c18beb00000000000000000000000000000000000000000000000000000000815273ffffffffffffffffffffffffffffffffffffffff8216906368c18beb90610e1890339060040161181e565b60206040518083038186803b158015610e3057600080fd5b505afa158015610e44573d6000803e3d6000fd5b505050506040513d601f19601f82011682018060405250810190610e6891906115b3565b610e9e576040517f08c379a000000000000000000000000000000000000000000000000000000000815260040161034b90611b10565b6040517fda0f6c7000000000000000000000000000000000000000000000000000000000815273ffffffffffffffffffffffffffffffffffffffff85169063da0f6c7090610f12907ff86bf955456792ffa818919c8668cdc4eb9cc84889fd215a27d329f90efbb2f39087906004016118cf565b600060405180830381600087803b158015610f2c57600080fd5b505af1158015610f40573d6000803e3d6000fd5b50506040517fda0f6c7000000000000000000000000000000000000000000000000000000000815273ffffffffffffffffffffffffffffffffffffffff8716925063da0f6c709150610fb8907fbb091d3568b6c70eab2bc93e5592945bd187d1508b523f4b1b92b116331cb8969086906004016118cf565b600060405180830381600087803b158015610fd257600080fd5b505af11580156109da573d6000803e3d6000fd5b6000811515610ff5858561103b565b15151461103357811561101e5761100d836002611bc0565b6110179085611b62565b9050610cef565b611029836002611bc0565b6110179085611ca7565b509192915050565b600061104e600260ff841685901c611cbe565b6001149392505050565b60008173ffffffffffffffffffffffffffffffffffffffff1663c67143666040518163ffffffff1660e01b815260040160206040518083038186803b1580156110a057600080fd5b505afa1580156110b4573d6000803e3d6000fd5b505050506040513d601f19601f820116820180604052508101906110d891906117ad565b158061118157506040517f45ecd02f00000000000000000000000000000000000000000000000000000000815273ffffffffffffffffffffffffffffffffffffffff8316906345ecd02f9061113190339060040161181e565b60206040518083038186803b15801561114957600080fd5b505afa15801561115d573d6000803e3d6000fd5b505050506040513d601f19601f8201168201806040525081019061118191906115b3565b8061122957506040517f68c18beb00000000000000000000000000000000000000000000000000000000815273ffffffffffffffffffffffffffffffffffffffff8316906368c18beb906111d990339060040161181e565b60206040518083038186803b1580156111f157600080fd5b505afa158015611205573d6000803e3d6000fd5b505050506040513d601f19601f8201168201806040525081019061122991906115b3565b90505b919050565b6040517ffefbd87500000000000000000000000000000000000000000000000000000000815260009073ffffffffffffffffffffffffffffffffffffffff84169063fefbd875906112a6907fea0ca03c7adbe41dc655fec28a9209dc8e6e042f3d991a67765ba285b9cf73a0906004016118a2565b60206040518083038186803b1580156112be57600080fd5b505afa1580156112d2573d6000803e3d6000fd5b505050506040513d601f19601f820116820180604052508101906112f6919061156c565b905073ffffffffffffffffffffffffffffffffffffffff811615611484576040517fc89bb8ba00000000000000000000000000000000000000000000000000000000815260009073ffffffffffffffffffffffffffffffffffffffff85169063c89bb8ba9061136990869060040161181e565b60206040518083038186803b15801561138157600080fd5b505afa158015611395573d6000803e3d6000fd5b505050506040513d601f19601f820116820180604052508101906113b9919061156c565b905060008273ffffffffffffffffffffffffffffffffffffffff1663f7888aec83620ff1ce6040518363ffffffff1660e01b81526004016113fb92919061183f565b60206040518083038186803b15801561141357600080fd5b505afa158015611427573d6000803e3d6000fd5b505050506040513d601f19601f8201168201806040525081019061144b91906117ad565b11611482576040517f08c379a000000000000000000000000000000000000000000000000000000000815260040161034b90611aa2565b505b6040517f45ecd02f00000000000000000000000000000000000000000000000000000000815273ffffffffffffffffffffffffffffffffffffffff8416906345ecd02f906114d690859060040161181e565b60206040518083038186803b1580156114ee57600080fd5b505afa158015611502573d6000803e3d6000fd5b505050506040513d601f19601f8201168201806040525081019061152691906115b3565b61155c576040517f08c379a000000000000000000000000000000000000000000000000000000000815260040161034b90611aa2565b505050565b803561122c81611d84565b60006020828403121561157d578081fd5b8151610cef81611d84565b6000806040838503121561159a578081fd5b82356115a581611d84565b946020939093013593505050565b6000602082840312156115c4578081fd5b8151610cef81611da9565b600080600080608085870312156115e4578182fd5b84356115ef81611d84565b935060208581013561160081611d84565b9350604086013567ffffffffffffffff8082111561161c578485fd5b818801915088601f83011261162f578485fd5b81358181111561164157611641611d55565b604051847fffffffffffffffffffffffffffffffffffffffffffffffffffffffffffffffe0601f840116820101818110848211171561168257611682611d55565b60405281815283820185018b1015611698578687fd5b8185850186830137908101909301949094525091506116b960608601611561565b905092959194509250565b6000806040838503121561159a578182fd5b600080600080606085870312156116eb578384fd5b84356116f681611d84565b935060208501359250604085013567ffffffffffffffff80821115611719578384fd5b818701915087601f83011261172c578384fd5b81358181111561173a578485fd5b88602082850101111561174b578485fd5b95989497505060200194505050565b60008060006060848603121561176e578283fd5b833561177981611d84565b95602085013595506040909401359392505050565b60006020828403121561179f578081fd5b815160028110610cef578182fd5b6000602082840312156117be578081fd5b5051919050565b600080604083850312156117d7578182fd5b50508035926020909101359150565b6000806000606084860312156117fa578081fd5b8335925060208401359150604084013561181381611da9565b809150509250925092565b73ffffffffffffffffffffffffffffffffffffffff91909116815260200190565b73ffffffffffffffffffffffffffffffffffffffff92831681529116602082015260400190565b73ffffffffffffffffffffffffffffffffffffffff9384168152919092166020820152604081019190915260600190565b901515815260200190565b90815260200190565b82815260408101600383106118c2576118c2611d26565b8260208301529392505050565b918252602082015260400190565b60208101600683106118f1576118f1611d26565b91905290565b6020808252602b908201527f6f6e6c79207965732028312920616e64206e6f202832292061726520706f737360408201527f69626c652076616c756573000000000000000000000000000000000000000000606082015260800190565b60208082526027908201527f7468652070726f706f73616c2068617320616c7265616479206265656e20707260408201527f6f63657373656400000000000000000000000000000000000000000000000000606082015260800190565b60208082526032908201527f746869732070726f706f73616c496420686173206e6f20766f746520676f696e60408201527f67206f6e20617420746865206d6f6d656e740000000000000000000000000000606082015260800190565b60208082526027908201527f7468652070726f706f73616c20686173206e6f74206265656e2073706f6e736f60408201527f7265642079657400000000000000000000000000000000000000000000000000606082015260800190565b60208082526018908201527f6d656d6265722068617320616c726561647920766f7465640000000000000000604082015260600190565b6020808252600a908201527f6f6e6c794d656d62657200000000000000000000000000000000000000000000604082015260600190565b60208082526016908201527f766f74652068617320616c726561647920656e64656400000000000000000000604082015260600190565b6020808252600b908201527f6f6e6c7941646170746572000000000000000000000000000000000000000000604082015260600190565b93845260208401929092526040830152606082015260800190565b60008219821115611b7557611b75611cf7565b500190565b80825b6001808611611b8c5750611bb7565b818704821115611b9e57611b9e611cf7565b80861615611bab57918102915b9490941c938002611b7d565b94509492505050565b6000610cef7fffffffffffffffffffffffffffffffffffffffffffffffffffffffffffffffff8484600082611bf757506001610cef565b81611c0457506000610cef565b8160018114611c1a5760028114611c2457611c51565b6001915050610cef565b60ff841115611c3557611c35611cf7565b6001841b915084821115611c4b57611c4b611cf7565b50610cef565b5060208310610133831016604e8410600b8410161715611c7f575081810a8381111561010f5761010f611cf7565b611c8c8484846001611b7a565b808604821115611c9e57611c9e611cf7565b02949350505050565b600082821015611cb957611cb9611cf7565b500390565b600082611cf2577f4e487b710000000000000000000000000000000000000000000000000000000081526012600452602481fd5b500690565b7f4e487b7100000000000000000000000000000000000000000000000000000000600052601160045260246000fd5b7f4e487b7100000000000000000000000000000000000000000000000000000000600052602160045260246000fd5b7f4e487b7100000000000000000000000000000000000000000000000000000000600052604160045260246000fd5b73ffffffffffffffffffffffffffffffffffffffff81168114611da657600080fd5b50565b8015158114611da657600080fdfea2646970667358221220b026a899e51c9b0c10e420e643fe96ed1b82571d022132319deac5a9afa76d2964736f6c63430008000033",
  "immutableReferences": {},
  "source": "pragma solidity ^0.8.0;\n\n// SPDX-License-Identifier: MIT\n\nimport \"../../core/DaoRegistry.sol\";\nimport \"../../core/DaoConstants.sol\";\nimport \"../../extensions/Bank.sol\";\nimport \"../../guards/MemberGuard.sol\";\nimport \"../../guards/AdapterGuard.sol\";\nimport \"../interfaces/IVoting.sol\";\n\n/**\nMIT License\n\nCopyright (c) 2020 Openlaw\n\nPermission is hereby granted, free of charge, to any person obtaining a copy\nof this software and associated documentation files (the \"Software\"), to deal\nin the Software without restriction, including without limitation the rights\nto use, copy, modify, merge, publish, distribute, sublicense, and/or sell\ncopies of the Software, and to permit persons to whom the Software is\nfurnished to do so, subject to the following conditions:\n\nThe above copyright notice and this permission notice shall be included in all\ncopies or substantial portions of the Software.\n\nTHE SOFTWARE IS PROVIDED \"AS IS\", WITHOUT WARRANTY OF ANY KIND, EXPRESS OR\nIMPLIED, INCLUDING BUT NOT LIMITED TO THE WARRANTIES OF MERCHANTABILITY,\nFITNESS FOR A PARTICULAR PURPOSE AND NONINFRINGEMENT. IN NO EVENT SHALL THE\nAUTHORS OR COPYRIGHT HOLDERS BE LIABLE FOR ANY CLAIM, DAMAGES OR OTHER\nLIABILITY, WHETHER IN AN ACTION OF CONTRACT, TORT OR OTHERWISE, ARISING FROM,\nOUT OF OR IN CONNECTION WITH THE SOFTWARE OR THE USE OR OTHER DEALINGS IN THE\nSOFTWARE.\n */\n\ncontract VotingContract is IVoting, DaoConstants, MemberGuard, AdapterGuard {\n    struct Voting {\n        uint256 nbYes;\n        uint256 nbNo;\n        uint256 startingTime;\n        uint256 blockNumber;\n        mapping(address => uint256) votes;\n    }\n\n    bytes32 constant VotingPeriod = keccak256(\"voting.votingPeriod\");\n    bytes32 constant GracePeriod = keccak256(\"voting.gracePeriod\");\n\n    mapping(address => mapping(bytes32 => Voting)) public votes;\n\n    function configureDao(\n        DaoRegistry dao,\n        uint256 votingPeriod,\n        uint256 gracePeriod\n    ) external onlyAdapter(dao) {\n        dao.setConfiguration(VotingPeriod, votingPeriod);\n        dao.setConfiguration(GracePeriod, gracePeriod);\n    }\n\n    //voting  data is not used for pure onchain voting\n    function startNewVotingForProposal(\n        DaoRegistry dao,\n        bytes32 proposalId,\n        bytes calldata\n    ) external override onlyAdapter(dao) {\n        //it is called from Registry\n        // compute startingPeriod for proposal\n\n        Voting storage vote = votes[address(dao)][proposalId];\n        vote.startingTime = block.timestamp;\n        vote.blockNumber = block.number;\n    }\n\n    function getSenderAddress(\n        DaoRegistry,\n        address,\n        bytes memory,\n        address sender\n    ) external pure override returns (address) {\n        return sender;\n    }\n\n    function submitVote(\n        DaoRegistry dao,\n        bytes32 proposalId,\n        uint256 voteValue\n    ) external onlyMember(dao) {\n        require(\n            dao.getProposalFlag(proposalId, DaoRegistry.ProposalFlag.SPONSORED),\n            \"the proposal has not been sponsored yet\"\n        );\n\n        require(\n            !dao.getProposalFlag(\n                proposalId,\n                DaoRegistry.ProposalFlag.PROCESSED\n            ),\n            \"the proposal has already been processed\"\n        );\n\n        require(\n            voteValue < 3 && voteValue > 0,\n            \"only yes (1) and no (2) are possible values\"\n        );\n\n        Voting storage vote = votes[address(dao)][proposalId];\n\n        require(\n            vote.startingTime > 0,\n            \"this proposalId has no vote going on at the moment\"\n        );\n        require(\n            block.timestamp <\n                vote.startingTime + dao.getConfiguration(VotingPeriod),\n            \"vote has already ended\"\n        );\n\n        address memberAddr = dao.getAddressIfDelegated(msg.sender);\n\n        require(vote.votes[memberAddr] == 0, \"member has already voted\");\n        BankExtension bank = BankExtension(dao.getExtensionAddress(BANK));\n        uint256 correctWeight =\n            bank.getPriorAmount(memberAddr, SHARES, vote.blockNumber);\n\n        vote.votes[memberAddr] = voteValue;\n\n        if (voteValue == 1) {\n            vote.nbYes = vote.nbYes + correctWeight;\n        } else if (voteValue == 2) {\n            vote.nbNo = vote.nbNo + correctWeight;\n        }\n    }\n\n    //Public Functions\n    /**\n    possible results here:\n    0: has not started\n    1: tie\n    2: pass\n    3: not pass\n    4: in progress\n     */\n    function voteResult(DaoRegistry dao, bytes32 proposalId)\n        external\n        view\n        override\n        returns (VotingState state)\n    {\n        Voting storage vote = votes[address(dao)][proposalId];\n        if (vote.startingTime == 0) {\n            return VotingState.NOT_STARTED;\n        }\n\n        if (\n            block.timestamp <\n            vote.startingTime + dao.getConfiguration(VotingPeriod)\n        ) {\n            return VotingState.IN_PROGRESS;\n        }\n\n        if (\n            block.timestamp <\n            vote.startingTime +\n                dao.getConfiguration(VotingPeriod) +\n                dao.getConfiguration(GracePeriod)\n        ) {\n            return VotingState.GRACE_PERIOD;\n        }\n\n        if (vote.nbYes > vote.nbNo) {\n            return VotingState.PASS;\n        } else if (vote.nbYes < vote.nbNo) {\n            return VotingState.NOT_PASS;\n        } else {\n            return VotingState.TIE;\n        }\n    }\n}\n",
  "sourcePath": "/Users/sophia/OPENLAWTEAM/laoland/contracts/adapters/voting/Voting.sol",
  "compiler": {
    "name": "solc",
    "version": "0.8.0+commit.c7dfd78e.Emscripten.clang"
  },
  "schemaVersion": "3.3.3",
  "updatedAt": "2021-02-09T09:36:52.690Z",
  "devdoc": {
    "kind": "dev",
    "methods": {},
    "version": 1
  },
  "userdoc": {
    "kind": "user",
    "methods": {
      "voteResult(address,bytes32)": {
        "notice": "possible results here: 0: has not started 1: tie 2: pass 3: not pass 4: in progress"
      }
    },
    "notice": "MIT License Copyright (c) 2020 Openlaw Permission is hereby granted, free of charge, to any person obtaining a copy of this software and associated documentation files (the \"Software\"), to deal in the Software without restriction, including without limitation the rights to use, copy, modify, merge, publish, distribute, sublicense, and/or sell copies of the Software, and to permit persons to whom the Software is furnished to do so, subject to the following conditions: The above copyright notice and this permission notice shall be included in all copies or substantial portions of the Software. THE SOFTWARE IS PROVIDED \"AS IS\", WITHOUT WARRANTY OF ANY KIND, EXPRESS OR IMPLIED, INCLUDING BUT NOT LIMITED TO THE WARRANTIES OF MERCHANTABILITY, FITNESS FOR A PARTICULAR PURPOSE AND NONINFRINGEMENT. IN NO EVENT SHALL THE AUTHORS OR COPYRIGHT HOLDERS BE LIABLE FOR ANY CLAIM, DAMAGES OR OTHER LIABILITY, WHETHER IN AN ACTION OF CONTRACT, TORT OR OTHERWISE, ARISING FROM, OUT OF OR IN CONNECTION WITH THE SOFTWARE OR THE USE OR OTHER DEALINGS IN THE SOFTWARE.",
    "version": 1
  }
}