{
  "contractName": "WithdrawContract",
  "abi": [
    {
      "anonymous": false,
      "inputs": [
        {
          "indexed": false,
          "internalType": "address",
          "name": "account",
          "type": "address"
        },
        {
          "indexed": false,
          "internalType": "address",
          "name": "token",
          "type": "address"
        },
        {
          "indexed": false,
          "internalType": "uint256",
          "name": "amount",
          "type": "uint256"
        }
      ],
      "name": "Withdraw",
      "type": "event"
    },
    {
      "inputs": [
        {
          "internalType": "uint256",
          "name": "flags",
          "type": "uint256"
        },
        {
          "internalType": "uint256",
          "name": "flag",
          "type": "uint256"
        }
      ],
      "name": "getFlag",
      "outputs": [
        {
          "internalType": "bool",
          "name": "",
          "type": "bool"
        }
      ],
      "stateMutability": "pure",
      "type": "function"
    },
    {
      "inputs": [
        {
          "internalType": "uint256",
          "name": "flags",
          "type": "uint256"
        },
        {
          "internalType": "uint256",
          "name": "flag",
          "type": "uint256"
        },
        {
          "internalType": "bool",
          "name": "value",
          "type": "bool"
        }
      ],
      "name": "setFlag",
      "outputs": [
        {
          "internalType": "uint256",
          "name": "",
          "type": "uint256"
        }
      ],
      "stateMutability": "pure",
      "type": "function"
    },
    {
      "stateMutability": "payable",
      "type": "receive"
    },
    {
      "inputs": [
        {
          "internalType": "contract DaoRegistry",
          "name": "dao",
          "type": "address"
        },
        {
          "internalType": "address payable",
          "name": "account",
          "type": "address"
        },
        {
          "internalType": "address",
          "name": "token",
          "type": "address"
        }
      ],
      "name": "withdraw",
      "outputs": [],
      "stateMutability": "nonpayable",
      "type": "function"
    }
  ],
  "bytecode": "0x608060405234801561001057600080fd5b506108f4806100206000396000f3fe6080604052600436106100385760003560e01c8063b244a41d1461007d578063fc258031146100b3578063ff7885e8146100e057610078565b36610078576040517f08c379a000000000000000000000000000000000000000000000000000000000815260040161006f90610690565b60405180910390fd5b600080fd5b34801561008957600080fd5b5061009d610098366004610568565b610102565b6040516100aa9190610619565b60405180910390f35b3480156100bf57600080fd5b506100d36100ce366004610547565b61015e565b6040516100aa919061060e565b3480156100ec57600080fd5b506101006100fb3660046104e5565b61017b565b005b6000811515610111858561015e565b15151461015457811561013a57610129836002610725565b61013390856106c7565b9050610157565b610145836002610725565b610133908561080c565b610157565b50825b9392505050565b6000610171600260ff841685901c610823565b6001149392505050565b6040517fef6a249900000000000000000000000000000000000000000000000000000000815273ffffffffffffffffffffffffffffffffffffffff84169063ef6a2499906101cd908590600401610595565b60206040518083038186803b1580156101e557600080fd5b505afa1580156101f9573d6000803e3d6000fd5b505050506040513d601f19601f8201168201806040525081019061021d91906104c9565b610253576040517f08c379a000000000000000000000000000000000000000000000000000000000815260040161006f90610622565b6040517f593e96b600000000000000000000000000000000000000000000000000000000815260009073ffffffffffffffffffffffffffffffffffffffff85169063593e96b6906102c8907fea0ca03c7adbe41dc655fec28a9209dc8e6e042f3d991a67765ba285b9cf73a090600401610619565b60206040518083038186803b1580156102e057600080fd5b505afa1580156102f4573d6000803e3d6000fd5b505050506040513d601f19601f8201168201806040525081019061031891906104ad565b905060008173ffffffffffffffffffffffffffffffffffffffff1663f7888aec85856040518363ffffffff1660e01b81526004016103579291906105b6565b60206040518083038186803b15801561036f57600080fd5b505afa158015610383573d6000803e3d6000fd5b505050506040513d601f19601f820116820180604052508101906103a7919061052f565b9050600081116103e3576040517f08c379a000000000000000000000000000000000000000000000000000000000815260040161006f90610659565b6040517fd9caed1200000000000000000000000000000000000000000000000000000000815273ffffffffffffffffffffffffffffffffffffffff83169063d9caed1290610439908790879086906004016105dd565b600060405180830381600087803b15801561045357600080fd5b505af1158015610467573d6000803e3d6000fd5b505050507f9b1bfa7fa9ee420a16e124f794c35ac9f90472acc99140eb2f6447c714cad8eb84848360405161049e939291906105dd565b60405180910390a15050505050565b6000602082840312156104be578081fd5b81516101578161088b565b6000602082840312156104da578081fd5b8151610157816108b0565b6000806000606084860312156104f9578182fd5b83356105048161088b565b925060208401356105148161088b565b915060408401356105248161088b565b809150509250925092565b600060208284031215610540578081fd5b5051919050565b60008060408385031215610559578182fd5b50508035926020909101359150565b60008060006060848603121561057c578283fd5b83359250602084013591506040840135610524816108b0565b73ffffffffffffffffffffffffffffffffffffffff91909116815260200190565b73ffffffffffffffffffffffffffffffffffffffff92831681529116602082015260400190565b73ffffffffffffffffffffffffffffffffffffffff9384168152919092166020820152604081019190915260600190565b901515815260200190565b90815260200190565b6020808252601a908201527f77697468647261773a3a72657365727665642061646472657373000000000000604082015260600190565b60208082526013908201527f6e6f7468696e6720746f20776974686472617700000000000000000000000000604082015260600190565b6020808252600f908201527f66616c6c6261636b207265766572740000000000000000000000000000000000604082015260600190565b600082198211156106da576106da61085c565b500190565b80825b60018086116106f1575061071c565b8187048211156107035761070361085c565b8086161561071057918102915b9490941c9380026106e2565b94509492505050565b60006101577fffffffffffffffffffffffffffffffffffffffffffffffffffffffffffffffff848460008261075c57506001610157565b8161076957506000610157565b816001811461077f5760028114610789576107b6565b6001915050610157565b60ff84111561079a5761079a61085c565b6001841b9150848211156107b0576107b061085c565b50610157565b5060208310610133831016604e8410600b84101617156107e4575081810a8381111561014f5761014f61085c565b6107f184848460016106df565b8086048211156108035761080361085c565b02949350505050565b60008282101561081e5761081e61085c565b500390565b600082610857577f4e487b710000000000000000000000000000000000000000000000000000000081526012600452602481fd5b500690565b7f4e487b7100000000000000000000000000000000000000000000000000000000600052601160045260246000fd5b73ffffffffffffffffffffffffffffffffffffffff811681146108ad57600080fd5b50565b80151581146108ad57600080fdfea2646970667358221220ecd1abfa123a88baecc8da68c992fa2b5c344519510abf5810f74418f2b1e9f664736f6c63430008000033",
  "immutableReferences": {},
  "source": "pragma solidity ^0.8.0;\n\n// SPDX-License-Identifier: MIT\n\nimport \"../core/DaoConstants.sol\";\nimport \"../core/DaoRegistry.sol\";\nimport \"../extensions/Bank.sol\";\nimport \"../guards/MemberGuard.sol\";\nimport \"./interfaces/IConfiguration.sol\";\nimport \"../adapters/interfaces/IVoting.sol\";\n\n/**\nMIT License\n\nCopyright (c) 2020 Openlaw\n\nPermission is hereby granted, free of charge, to any person obtaining a copy\nof this software and associated documentation files (the \"Software\"), to deal\nin the Software without restriction, including without limitation the rights\nto use, copy, modify, merge, publish, distribute, sublicense, and/or sell\ncopies of the Software, and to permit persons to whom the Software is\nfurnished to do so, subject to the following conditions:\n\nThe above copyright notice and this permission notice shall be included in all\ncopies or substantial portions of the Software.\n\nTHE SOFTWARE IS PROVIDED \"AS IS\", WITHOUT WARRANTY OF ANY KIND, EXPRESS OR\nIMPLIED, INCLUDING BUT NOT LIMITED TO THE WARRANTIES OF MERCHANTABILITY,\nFITNESS FOR A PARTICULAR PURPOSE AND NONINFRINGEMENT. IN NO EVENT SHALL THE\nAUTHORS OR COPYRIGHT HOLDERS BE LIABLE FOR ANY CLAIM, DAMAGES OR OTHER\nLIABILITY, WHETHER IN AN ACTION OF CONTRACT, TORT OR OTHERWISE, ARISING FROM,\nOUT OF OR IN CONNECTION WITH THE SOFTWARE OR THE USE OR OTHER DEALINGS IN THE\nSOFTWARE.\n */\n\ncontract WithdrawContract is DaoConstants, MemberGuard {\n    event Withdraw(address account, address token, uint256 amount);\n\n    /**\n     * @notice default fallback function to prevent from sending ether to the contract.\n     */\n    receive() external payable {\n        revert(\"fallback revert\");\n    }\n\n    /**\n     * @notice Allows the member/advisor of the DAO to withdraw the funds from their internal bank account.\n     * @notice Only accounts that are not reserved can withdraw the funds.\n     * @notice If theres is no available balance in the user's account, the transaction is reverted.\n     * @param dao The DAO address.\n     * @param account The account to receive the funds.\n     * @param token The token address to receive the funds.\n     */\n    function withdraw(\n        DaoRegistry dao,\n        address payable account,\n        address token\n    ) external {\n        require(\n            dao.isNotReservedAddress(account),\n            \"withdraw::reserved address\"\n        );\n\n        // We do not need to check if the token is supported by the bank,\n        // because if it is not, the balance will always be zero.\n        BankExtension bank = BankExtension(dao.getExtensionAddress(BANK));\n        uint256 balance = bank.balanceOf(account, token);\n        require(balance > 0, \"nothing to withdraw\");\n\n        bank.withdraw(account, token, balance);\n\n        emit Withdraw(account, token, balance);\n    }\n}\n",
  "sourcePath": "/Users/sophia/OPENLAWTEAM/laoland/contracts/adapters/Withdraw.sol",
  "compiler": {
    "name": "solc",
    "version": "0.8.0+commit.c7dfd78e.Emscripten.clang"
  },
  "schemaVersion": "3.3.3",
  "updatedAt": "2021-02-09T09:36:52.627Z",
  "devdoc": {
    "kind": "dev",
    "methods": {
      "withdraw(address,address,address)": {
        "params": {
          "account": "The account to receive the funds.",
          "dao": "The DAO address.",
          "token": "The token address to receive the funds."
        }
      }
    },
    "version": 1
  },
  "userdoc": {
    "kind": "user",
    "methods": {
      "withdraw(address,address,address)": {
        "notice": "Allows the member/advisor of the DAO to withdraw the funds from their internal bank account.Only accounts that are not reserved can withdraw the funds.If theres is no available balance in the user's account, the transaction is reverted."
      }
    },
    "notice": "MIT License Copyright (c) 2020 Openlaw Permission is hereby granted, free of charge, to any person obtaining a copy of this software and associated documentation files (the \"Software\"), to deal in the Software without restriction, including without limitation the rights to use, copy, modify, merge, publish, distribute, sublicense, and/or sell copies of the Software, and to permit persons to whom the Software is furnished to do so, subject to the following conditions: The above copyright notice and this permission notice shall be included in all copies or substantial portions of the Software. THE SOFTWARE IS PROVIDED \"AS IS\", WITHOUT WARRANTY OF ANY KIND, EXPRESS OR IMPLIED, INCLUDING BUT NOT LIMITED TO THE WARRANTIES OF MERCHANTABILITY, FITNESS FOR A PARTICULAR PURPOSE AND NONINFRINGEMENT. IN NO EVENT SHALL THE AUTHORS OR COPYRIGHT HOLDERS BE LIABLE FOR ANY CLAIM, DAMAGES OR OTHER LIABILITY, WHETHER IN AN ACTION OF CONTRACT, TORT OR OTHERWISE, ARISING FROM, OUT OF OR IN CONNECTION WITH THE SOFTWARE OR THE USE OR OTHER DEALINGS IN THE SOFTWARE.",
    "version": 1
  }
}